{
  "_format": "hh-sol-artifact-1",
  "contractName": "DiffTypeNFT",
  "sourceName": "contracts/DiffTypeNFT.sol",
  "abi": [
    {
      "inputs": [],
      "stateMutability": "nonpayable",
      "type": "constructor"
    },
    {
      "anonymous": false,
      "inputs": [
        {
          "indexed": true,
          "internalType": "address",
          "name": "owner",
          "type": "address"
        },
        {
          "indexed": true,
          "internalType": "address",
          "name": "approved",
          "type": "address"
        },
        {
          "indexed": true,
          "internalType": "uint256",
          "name": "tokenId",
          "type": "uint256"
        }
      ],
      "name": "Approval",
      "type": "event"
    },
    {
      "anonymous": false,
      "inputs": [
        {
          "indexed": true,
          "internalType": "address",
          "name": "owner",
          "type": "address"
        },
        {
          "indexed": true,
          "internalType": "address",
          "name": "operator",
          "type": "address"
        },
        {
          "indexed": false,
          "internalType": "bool",
          "name": "approved",
          "type": "bool"
        }
      ],
      "name": "ApprovalForAll",
      "type": "event"
    },
    {
      "anonymous": false,
      "inputs": [
        {
          "indexed": false,
          "internalType": "uint256",
          "name": "tokenId",
          "type": "uint256"
        }
      ],
      "name": "MintNFT",
      "type": "event"
    },
    {
      "anonymous": false,
      "inputs": [
        {
          "indexed": true,
          "internalType": "address",
          "name": "from",
          "type": "address"
        },
        {
          "indexed": true,
          "internalType": "address",
          "name": "to",
          "type": "address"
        },
        {
          "indexed": true,
          "internalType": "uint256",
          "name": "tokenId",
          "type": "uint256"
        }
      ],
      "name": "Transfer",
      "type": "event"
    },
    {
      "inputs": [
        {
          "internalType": "address",
          "name": "to",
          "type": "address"
        },
        {
          "internalType": "uint256",
          "name": "tokenId",
          "type": "uint256"
        }
      ],
      "name": "approve",
      "outputs": [],
      "stateMutability": "nonpayable",
      "type": "function"
    },
    {
      "inputs": [
        {
          "internalType": "address",
          "name": "user",
          "type": "address"
        }
      ],
      "name": "approveUser",
      "outputs": [],
      "stateMutability": "nonpayable",
      "type": "function"
    },
    {
      "inputs": [
        {
          "internalType": "address",
          "name": "owner",
          "type": "address"
        }
      ],
      "name": "balanceOf",
      "outputs": [
        {
          "internalType": "uint256",
          "name": "",
          "type": "uint256"
        }
      ],
      "stateMutability": "view",
      "type": "function"
    },
    {
      "inputs": [
        {
          "internalType": "uint256",
          "name": "tokenId",
          "type": "uint256"
        }
      ],
      "name": "getApproved",
      "outputs": [
        {
          "internalType": "address",
          "name": "",
          "type": "address"
        }
      ],
      "stateMutability": "view",
      "type": "function"
    },
    {
      "inputs": [
        {
          "internalType": "address",
          "name": "owner",
          "type": "address"
        },
        {
          "internalType": "address",
          "name": "operator",
          "type": "address"
        }
      ],
      "name": "isApprovedForAll",
      "outputs": [
        {
          "internalType": "bool",
          "name": "",
          "type": "bool"
        }
      ],
      "stateMutability": "view",
      "type": "function"
    },
    {
      "inputs": [
        {
          "internalType": "address",
          "name": "_to",
          "type": "address"
        },
        {
          "internalType": "string",
          "name": "tokenURI",
          "type": "string"
        }
      ],
      "name": "mint",
      "outputs": [],
      "stateMutability": "nonpayable",
      "type": "function"
    },
    {
      "inputs": [],
      "name": "name",
      "outputs": [
        {
          "internalType": "string",
          "name": "",
          "type": "string"
        }
      ],
      "stateMutability": "view",
      "type": "function"
    },
    {
      "inputs": [
        {
          "internalType": "uint256",
          "name": "tokenId",
          "type": "uint256"
        }
      ],
      "name": "ownerOf",
      "outputs": [
        {
          "internalType": "address",
          "name": "",
          "type": "address"
        }
      ],
      "stateMutability": "view",
      "type": "function"
    },
    {
      "inputs": [
        {
          "internalType": "address",
          "name": "from",
          "type": "address"
        },
        {
          "internalType": "address",
          "name": "to",
          "type": "address"
        },
        {
          "internalType": "uint256",
          "name": "tokenId",
          "type": "uint256"
        }
      ],
      "name": "safeTransferFrom",
      "outputs": [],
      "stateMutability": "nonpayable",
      "type": "function"
    },
    {
      "inputs": [
        {
          "internalType": "address",
          "name": "from",
          "type": "address"
        },
        {
          "internalType": "address",
          "name": "to",
          "type": "address"
        },
        {
          "internalType": "uint256",
          "name": "tokenId",
          "type": "uint256"
        },
        {
          "internalType": "bytes",
          "name": "data",
          "type": "bytes"
        }
      ],
      "name": "safeTransferFrom",
      "outputs": [],
      "stateMutability": "nonpayable",
      "type": "function"
    },
    {
      "inputs": [
        {
          "internalType": "address",
          "name": "operator",
          "type": "address"
        },
        {
          "internalType": "bool",
          "name": "approved",
          "type": "bool"
        }
      ],
      "name": "setApprovalForAll",
      "outputs": [],
      "stateMutability": "nonpayable",
      "type": "function"
    },
    {
      "inputs": [
        {
          "internalType": "bytes4",
          "name": "interfaceId",
          "type": "bytes4"
        }
      ],
      "name": "supportsInterface",
      "outputs": [
        {
          "internalType": "bool",
          "name": "",
          "type": "bool"
        }
      ],
      "stateMutability": "view",
      "type": "function"
    },
    {
      "inputs": [],
      "name": "symbol",
      "outputs": [
        {
          "internalType": "string",
          "name": "",
          "type": "string"
        }
      ],
      "stateMutability": "view",
      "type": "function"
    },
    {
      "inputs": [
        {
          "internalType": "uint256",
          "name": "tokenId",
          "type": "uint256"
        }
      ],
      "name": "tokenURI",
      "outputs": [
        {
          "internalType": "string",
          "name": "",
          "type": "string"
        }
      ],
      "stateMutability": "view",
      "type": "function"
    },
    {
      "inputs": [
        {
          "internalType": "address",
          "name": "from",
          "type": "address"
        },
        {
          "internalType": "address",
          "name": "to",
          "type": "address"
        },
        {
          "internalType": "uint256",
          "name": "tokenId",
          "type": "uint256"
        }
      ],
      "name": "transferFrom",
      "outputs": [],
      "stateMutability": "nonpayable",
      "type": "function"
    }
  ],
  "bytecode": "0x60806040523480156200001157600080fd5b506040518060400160405280600d81526020016c111a599988151e5c1948139195609a1b815250604051806040016040528060048152602001631113919560e21b815250816000908162000066919062000123565b50600162000075828262000123565b505050620001ef565b634e487b7160e01b600052604160045260246000fd5b600181811c90821680620000a957607f821691505b602082108103620000ca57634e487b7160e01b600052602260045260246000fd5b50919050565b601f8211156200011e57600081815260208120601f850160051c81016020861015620000f95750805b601f850160051c820191505b818110156200011a5782815560010162000105565b5050505b505050565b81516001600160401b038111156200013f576200013f6200007e565b620001578162000150845462000094565b84620000d0565b602080601f8311600181146200018f5760008415620001765750858301515b600019600386901b1c1916600185901b1785556200011a565b600085815260208120601f198616915b82811015620001c0578886015182559484019460019091019084016200019f565b5085821015620001df5787850151600019600388901b60f8161c191681555b5050505050600190811b01905550565b6116b180620001ff6000396000f3fe608060405234801561001057600080fd5b50600436106100f55760003560e01c806370a0823111610097578063c87b56dd11610066578063c87b56dd146101ff578063d0def52114610212578063d624fdb614610225578063e985e9c51461023857600080fd5b806370a08231146101b057806395d89b41146101d1578063a22cb465146101d9578063b88d4fde146101ec57600080fd5b8063095ea7b3116100d3578063095ea7b31461016257806323b872dd1461017757806342842e0e1461018a5780636352211e1461019d57600080fd5b806301ffc9a7146100fa57806306fdde0314610122578063081812fc14610137575b600080fd5b61010d6101083660046110b7565b610274565b60405190151581526020015b60405180910390f35b61012a6102c6565b6040516101199190611124565b61014a610145366004611137565b610358565b6040516001600160a01b039091168152602001610119565b61017561017036600461116c565b61037f565b005b610175610185366004611196565b610499565b610175610198366004611196565b6104ca565b61014a6101ab366004611137565b6104e5565b6101c36101be3660046111d2565b610545565b604051908152602001610119565b61012a6105cb565b6101756101e73660046111ed565b6105da565b6101756101fa3660046112b5565b6105e9565b61012a61020d366004611137565b610621565b610175610220366004611331565b610731565b6101756102333660046111d2565b610798565b61010d610246366004611393565b6001600160a01b03918216600090815260056020908152604080832093909416825291909152205460ff1690565b60006001600160e01b031982166380ac58cd60e01b14806102a557506001600160e01b03198216635b5e139f60e01b145b806102c057506301ffc9a760e01b6001600160e01b03198316145b92915050565b6060600080546102d5906113c6565b80601f0160208091040260200160405190810160405280929190818152602001828054610301906113c6565b801561034e5780601f106103235761010080835404028352916020019161034e565b820191906000526020600020905b81548152906001019060200180831161033157829003601f168201915b5050505050905090565b6000610363826107a6565b506000908152600460205260409020546001600160a01b031690565b600061038a826104e5565b9050806001600160a01b0316836001600160a01b0316036103fc5760405162461bcd60e51b815260206004820152602160248201527f4552433732313a20617070726f76616c20746f2063757272656e74206f776e656044820152603960f91b60648201526084015b60405180910390fd5b336001600160a01b038216148061041857506104188133610246565b61048a5760405162461bcd60e51b815260206004820152603d60248201527f4552433732313a20617070726f76652063616c6c6572206973206e6f7420746f60448201527f6b656e206f776e6572206f7220617070726f76656420666f7220616c6c00000060648201526084016103f3565b6104948383610805565b505050565b6104a33382610873565b6104bf5760405162461bcd60e51b81526004016103f390611400565b6104948383836108f1565b610494838383604051806020016040528060008152506105e9565b6000818152600260205260408120546001600160a01b0316806102c05760405162461bcd60e51b8152602060048201526018602482015277115490cdcc8c4e881a5b9d985b1a59081d1bdad95b88125160421b60448201526064016103f3565b60006001600160a01b0382166105af5760405162461bcd60e51b815260206004820152602960248201527f4552433732313a2061646472657373207a65726f206973206e6f7420612076616044820152683634b21037bbb732b960b91b60648201526084016103f3565b506001600160a01b031660009081526003602052604090205490565b6060600180546102d5906113c6565b6105e5338383610a55565b5050565b6105f33383610873565b61060f5760405162461bcd60e51b81526004016103f390611400565b61061b84848484610b23565b50505050565b606061062c826107a6565b60008281526006602052604081208054610645906113c6565b80601f0160208091040260200160405190810160405280929190818152602001828054610671906113c6565b80156106be5780601f10610693576101008083540402835291602001916106be565b820191906000526020600020905b8154815290600101906020018083116106a157829003601f168201915b5050505050905060006106dc60408051602081019091526000815290565b905080516000036106ee575092915050565b81511561072057808260405160200161070892919061144d565b60405160208183030381529060405292505050919050565b61072984610b56565b949350505050565b61073f600780546001019055565b600061074a60075490565b90506107568382610bca565b6107608183610be4565b6040518181527f2cc161d398589ff5526cd6b429338ae827d66c48171d3dbaeac9a7bf822935bd9060200160405180910390a1505050565b6107a38160016105da565b50565b6000818152600260205260409020546001600160a01b03166107a35760405162461bcd60e51b8152602060048201526018602482015277115490cdcc8c4e881a5b9d985b1a59081d1bdad95b88125160421b60448201526064016103f3565b600081815260046020526040902080546001600160a01b0319166001600160a01b038416908117909155819061083a826104e5565b6001600160a01b03167f8c5be1e5ebec7d5bd14f71427d1e84f3dd0314c0f7b2291e5b200ac8c7c3b92560405160405180910390a45050565b60008061087f836104e5565b9050806001600160a01b0316846001600160a01b031614806108c657506001600160a01b0380821660009081526005602090815260408083209388168352929052205460ff165b806107295750836001600160a01b03166108df84610358565b6001600160a01b031614949350505050565b826001600160a01b0316610904826104e5565b6001600160a01b03161461092a5760405162461bcd60e51b81526004016103f39061147c565b6001600160a01b03821661098c5760405162461bcd60e51b8152602060048201526024808201527f4552433732313a207472616e7366657220746f20746865207a65726f206164646044820152637265737360e01b60648201526084016103f3565b826001600160a01b031661099f826104e5565b6001600160a01b0316146109c55760405162461bcd60e51b81526004016103f39061147c565b600081815260046020908152604080832080546001600160a01b03199081169091556001600160a01b0387811680865260038552838620805460001901905590871680865283862080546001019055868652600290945282852080549092168417909155905184937fddf252ad1be2c89b69c2b068fc378daa952ba7f163c4a11628f55a4df523b3ef91a4505050565b816001600160a01b0316836001600160a01b031603610ab65760405162461bcd60e51b815260206004820152601960248201527f4552433732313a20617070726f766520746f2063616c6c65720000000000000060448201526064016103f3565b6001600160a01b03838116600081815260056020908152604080832094871680845294825291829020805460ff191686151590811790915591519182527f17307eab39ab6107e8899845ad3d59bd9653f200f220920489ca2b5937696c31910160405180910390a3505050565b610b2e8484846108f1565b610b3a84848484610c77565b61061b5760405162461bcd60e51b81526004016103f3906114c1565b6060610b61826107a6565b6000610b7860408051602081019091526000815290565b90506000815111610b985760405180602001604052806000815250610bc3565b80610ba284610d78565b604051602001610bb392919061144d565b6040516020818303038152906040525b9392505050565b6105e5828260405180602001604052806000815250610e0b565b6000828152600260205260409020546001600160a01b0316610c5f5760405162461bcd60e51b815260206004820152602e60248201527f45524337323155524953746f726167653a2055524920736574206f66206e6f6e60448201526d32bc34b9ba32b73a103a37b5b2b760911b60648201526084016103f3565b60008281526006602052604090206104948282611561565b60006001600160a01b0384163b15610d6d57604051630a85bd0160e11b81526001600160a01b0385169063150b7a0290610cbb903390899088908890600401611621565b6020604051808303816000875af1925050508015610cf6575060408051601f3d908101601f19168201909252610cf39181019061165e565b60015b610d53573d808015610d24576040519150601f19603f3d011682016040523d82523d6000602084013e610d29565b606091505b508051600003610d4b5760405162461bcd60e51b81526004016103f3906114c1565b805181602001fd5b6001600160e01b031916630a85bd0160e11b149050610729565b506001949350505050565b60606000610d8583610e3e565b600101905060008167ffffffffffffffff811115610da557610da5611229565b6040519080825280601f01601f191660200182016040528015610dcf576020820181803683370190505b5090508181016020015b600019016f181899199a1a9b1b9c1cb0b131b232b360811b600a86061a8153600a8504945084610dd957509392505050565b610e158383610f16565b610e226000848484610c77565b6104945760405162461bcd60e51b81526004016103f3906114c1565b60008072184f03e93ff9f4daa797ed6e38ed64bf6a1f0160401b8310610e7d5772184f03e93ff9f4daa797ed6e38ed64bf6a1f0160401b830492506040015b6d04ee2d6d415b85acef81000000008310610ea9576d04ee2d6d415b85acef8100000000830492506020015b662386f26fc100008310610ec757662386f26fc10000830492506010015b6305f5e1008310610edf576305f5e100830492506008015b6127108310610ef357612710830492506004015b60648310610f05576064830492506002015b600a83106102c05760010192915050565b6001600160a01b038216610f6c5760405162461bcd60e51b815260206004820181905260248201527f4552433732313a206d696e7420746f20746865207a65726f206164647265737360448201526064016103f3565b6000818152600260205260409020546001600160a01b031615610fd15760405162461bcd60e51b815260206004820152601c60248201527f4552433732313a20746f6b656e20616c7265616479206d696e7465640000000060448201526064016103f3565b6000818152600260205260409020546001600160a01b0316156110365760405162461bcd60e51b815260206004820152601c60248201527f4552433732313a20746f6b656e20616c7265616479206d696e7465640000000060448201526064016103f3565b6001600160a01b038216600081815260036020908152604080832080546001019055848352600290915280822080546001600160a01b0319168417905551839291907fddf252ad1be2c89b69c2b068fc378daa952ba7f163c4a11628f55a4df523b3ef908290a45050565b6001600160e01b0319811681146107a357600080fd5b6000602082840312156110c957600080fd5b8135610bc3816110a1565b60005b838110156110ef5781810151838201526020016110d7565b50506000910152565b600081518084526111108160208601602086016110d4565b601f01601f19169290920160200192915050565b602081526000610bc360208301846110f8565b60006020828403121561114957600080fd5b5035919050565b80356001600160a01b038116811461116757600080fd5b919050565b6000806040838503121561117f57600080fd5b61118883611150565b946020939093013593505050565b6000806000606084860312156111ab57600080fd5b6111b484611150565b92506111c260208501611150565b9150604084013590509250925092565b6000602082840312156111e457600080fd5b610bc382611150565b6000806040838503121561120057600080fd5b61120983611150565b91506020830135801515811461121e57600080fd5b809150509250929050565b634e487b7160e01b600052604160045260246000fd5b600067ffffffffffffffff8084111561125a5761125a611229565b604051601f8501601f19908116603f0116810190828211818310171561128257611282611229565b8160405280935085815286868601111561129b57600080fd5b858560208301376000602087830101525050509392505050565b600080600080608085870312156112cb57600080fd5b6112d485611150565b93506112e260208601611150565b925060408501359150606085013567ffffffffffffffff81111561130557600080fd5b8501601f8101871361131657600080fd5b6113258782356020840161123f565b91505092959194509250565b6000806040838503121561134457600080fd5b61134d83611150565b9150602083013567ffffffffffffffff81111561136957600080fd5b8301601f8101851361137a57600080fd5b6113898582356020840161123f565b9150509250929050565b600080604083850312156113a657600080fd5b6113af83611150565b91506113bd60208401611150565b90509250929050565b600181811c908216806113da57607f821691505b6020821081036113fa57634e487b7160e01b600052602260045260246000fd5b50919050565b6020808252602d908201527f4552433732313a2063616c6c6572206973206e6f7420746f6b656e206f776e6560408201526c1c881bdc88185c1c1c9bdd9959609a1b606082015260800190565b6000835161145f8184602088016110d4565b8351908301906114738183602088016110d4565b01949350505050565b60208082526025908201527f4552433732313a207472616e736665722066726f6d20696e636f72726563742060408201526437bbb732b960d91b606082015260800190565b60208082526032908201527f4552433732313a207472616e7366657220746f206e6f6e20455243373231526560408201527131b2b4bb32b91034b6b83632b6b2b73a32b960711b606082015260800190565b601f82111561049457600081815260208120601f850160051c8101602086101561153a5750805b601f850160051c820191505b8181101561155957828155600101611546565b505050505050565b815167ffffffffffffffff81111561157b5761157b611229565b61158f8161158984546113c6565b84611513565b602080601f8311600181146115c457600084156115ac5750858301515b600019600386901b1c1916600185901b178555611559565b600085815260208120601f198616915b828110156115f3578886015182559484019460019091019084016115d4565b50858210156116115787850151600019600388901b60f8161c191681555b5050505050600190811b01905550565b6001600160a01b0385811682528416602082015260408101839052608060608201819052600090611654908301846110f8565b9695505050505050565b60006020828403121561167057600080fd5b8151610bc3816110a156fea264697066735822122048037547883ce8d478d79377d3b5629beb055fe98541b76ee5e037b08331356964736f6c63430008110033",
  "linkReferences": {},
  "deployedLinkReferences": {}
}