{
  "_format": "hh-sol-artifact-1",
  "contractName": "DiffTypeNFT",
  "sourceName": "contracts/DiffTypeNFT.sol",
  "abi": [
    {
      "inputs": [],
      "stateMutability": "nonpayable",
      "type": "constructor"
    },
    {
      "anonymous": false,
      "inputs": [
        {
          "indexed": true,
          "internalType": "address",
          "name": "owner",
          "type": "address"
        },
        {
          "indexed": true,
          "internalType": "address",
          "name": "approved",
          "type": "address"
        },
        {
          "indexed": true,
          "internalType": "uint256",
          "name": "tokenId",
          "type": "uint256"
        }
      ],
      "name": "Approval",
      "type": "event"
    },
    {
      "anonymous": false,
      "inputs": [
        {
          "indexed": true,
          "internalType": "address",
          "name": "owner",
          "type": "address"
        },
        {
          "indexed": true,
          "internalType": "address",
          "name": "operator",
          "type": "address"
        },
        {
          "indexed": false,
          "internalType": "bool",
          "name": "approved",
          "type": "bool"
        }
      ],
      "name": "ApprovalForAll",
      "type": "event"
    },
    {
      "anonymous": false,
      "inputs": [
        {
          "indexed": false,
          "internalType": "uint256",
          "name": "tokenId",
          "type": "uint256"
        }
      ],
      "name": "MintNFT",
      "type": "event"
    },
    {
      "anonymous": false,
      "inputs": [
        {
          "indexed": true,
          "internalType": "address",
          "name": "from",
          "type": "address"
        },
        {
          "indexed": true,
          "internalType": "address",
          "name": "to",
          "type": "address"
        },
        {
          "indexed": true,
          "internalType": "uint256",
          "name": "tokenId",
          "type": "uint256"
        }
      ],
      "name": "Transfer",
      "type": "event"
    },
    {
      "inputs": [
        {
          "internalType": "address",
          "name": "to",
          "type": "address"
        },
        {
          "internalType": "uint256",
          "name": "tokenId",
          "type": "uint256"
        }
      ],
      "name": "approve",
      "outputs": [],
      "stateMutability": "nonpayable",
      "type": "function"
    },
    {
      "inputs": [
        {
          "internalType": "address",
          "name": "user",
          "type": "address"
        }
      ],
      "name": "approveUser",
      "outputs": [],
      "stateMutability": "nonpayable",
      "type": "function"
    },
    {
      "inputs": [
        {
          "internalType": "address",
          "name": "owner",
          "type": "address"
        }
      ],
      "name": "balanceOf",
      "outputs": [
        {
          "internalType": "uint256",
          "name": "",
          "type": "uint256"
        }
      ],
      "stateMutability": "view",
      "type": "function"
    },
    {
      "inputs": [
        {
          "internalType": "uint256",
          "name": "tokenId",
          "type": "uint256"
        }
      ],
      "name": "getApproved",
      "outputs": [
        {
          "internalType": "address",
          "name": "",
          "type": "address"
        }
      ],
      "stateMutability": "view",
      "type": "function"
    },
    {
      "inputs": [
        {
          "internalType": "address",
          "name": "owner",
          "type": "address"
        },
        {
          "internalType": "address",
          "name": "operator",
          "type": "address"
        }
      ],
      "name": "isApprovedForAll",
      "outputs": [
        {
          "internalType": "bool",
          "name": "",
          "type": "bool"
        }
      ],
      "stateMutability": "view",
      "type": "function"
    },
    {
      "inputs": [
        {
          "internalType": "string",
          "name": "tokenURI",
          "type": "string"
        }
      ],
      "name": "mint",
      "outputs": [],
      "stateMutability": "nonpayable",
      "type": "function"
    },
    {
      "inputs": [],
      "name": "name",
      "outputs": [
        {
          "internalType": "string",
          "name": "",
          "type": "string"
        }
      ],
      "stateMutability": "view",
      "type": "function"
    },
    {
      "inputs": [
        {
          "internalType": "uint256",
          "name": "tokenId",
          "type": "uint256"
        }
      ],
      "name": "ownerOf",
      "outputs": [
        {
          "internalType": "address",
          "name": "",
          "type": "address"
        }
      ],
      "stateMutability": "view",
      "type": "function"
    },
    {
      "inputs": [
        {
          "internalType": "address",
          "name": "from",
          "type": "address"
        },
        {
          "internalType": "address",
          "name": "to",
          "type": "address"
        },
        {
          "internalType": "uint256",
          "name": "tokenId",
          "type": "uint256"
        }
      ],
      "name": "safeTransferFrom",
      "outputs": [],
      "stateMutability": "nonpayable",
      "type": "function"
    },
    {
      "inputs": [
        {
          "internalType": "address",
          "name": "from",
          "type": "address"
        },
        {
          "internalType": "address",
          "name": "to",
          "type": "address"
        },
        {
          "internalType": "uint256",
          "name": "tokenId",
          "type": "uint256"
        },
        {
          "internalType": "bytes",
          "name": "data",
          "type": "bytes"
        }
      ],
      "name": "safeTransferFrom",
      "outputs": [],
      "stateMutability": "nonpayable",
      "type": "function"
    },
    {
      "inputs": [
        {
          "internalType": "address",
          "name": "operator",
          "type": "address"
        },
        {
          "internalType": "bool",
          "name": "approved",
          "type": "bool"
        }
      ],
      "name": "setApprovalForAll",
      "outputs": [],
      "stateMutability": "nonpayable",
      "type": "function"
    },
    {
      "inputs": [
        {
          "internalType": "bytes4",
          "name": "interfaceId",
          "type": "bytes4"
        }
      ],
      "name": "supportsInterface",
      "outputs": [
        {
          "internalType": "bool",
          "name": "",
          "type": "bool"
        }
      ],
      "stateMutability": "view",
      "type": "function"
    },
    {
      "inputs": [],
      "name": "symbol",
      "outputs": [
        {
          "internalType": "string",
          "name": "",
          "type": "string"
        }
      ],
      "stateMutability": "view",
      "type": "function"
    },
    {
      "inputs": [
        {
          "internalType": "uint256",
          "name": "tokenId",
          "type": "uint256"
        }
      ],
      "name": "tokenURI",
      "outputs": [
        {
          "internalType": "string",
          "name": "",
          "type": "string"
        }
      ],
      "stateMutability": "view",
      "type": "function"
    },
    {
      "inputs": [
        {
          "internalType": "address",
          "name": "from",
          "type": "address"
        },
        {
          "internalType": "address",
          "name": "to",
          "type": "address"
        },
        {
          "internalType": "uint256",
          "name": "tokenId",
          "type": "uint256"
        }
      ],
      "name": "transferFrom",
      "outputs": [],
      "stateMutability": "nonpayable",
      "type": "function"
    }
  ],
  "bytecode": "0x60806040523480156200001157600080fd5b506040518060400160405280600d81526020016c111a599988151e5c1948139195609a1b815250604051806040016040528060048152602001631113919560e21b815250816000908162000066919062000123565b50600162000075828262000123565b505050620001ef565b634e487b7160e01b600052604160045260246000fd5b600181811c90821680620000a957607f821691505b602082108103620000ca57634e487b7160e01b600052602260045260246000fd5b50919050565b601f8211156200011e57600081815260208120601f850160051c81016020861015620000f95750805b601f850160051c820191505b818110156200011a5782815560010162000105565b5050505b505050565b81516001600160401b038111156200013f576200013f6200007e565b620001578162000150845462000094565b84620000d0565b602080601f8311600181146200018f5760008415620001765750858301515b600019600386901b1c1916600185901b1785556200011a565b600085815260208120601f198616915b82811015620001c0578886015182559484019460019091019084016200019f565b5085821015620001df5787850151600019600388901b60f8161c191681555b5050505050600190811b01905550565b61175b80620001ff6000396000f3fe608060405234801561001057600080fd5b50600436106100f55760003560e01c806370a0823111610097578063c87b56dd11610066578063c87b56dd146101ff578063d624fdb614610212578063d85d3d2714610225578063e985e9c51461023857600080fd5b806370a08231146101b057806395d89b41146101d1578063a22cb465146101d9578063b88d4fde146101ec57600080fd5b8063095ea7b3116100d3578063095ea7b31461016257806323b872dd1461017757806342842e0e1461018a5780636352211e1461019d57600080fd5b806301ffc9a7146100fa57806306fdde0314610122578063081812fc14610137575b600080fd5b61010d61010836600461113e565b61024b565b60405190151581526020015b60405180910390f35b61012a61029d565b60405161011991906111ab565b61014a6101453660046111be565b61032f565b6040516001600160a01b039091168152602001610119565b6101756101703660046111f3565b610356565b005b61017561018536600461121d565b610470565b61017561019836600461121d565b6104a1565b61014a6101ab3660046111be565b6104bc565b6101c36101be366004611259565b61051c565b604051908152602001610119565b61012a6105a2565b6101756101e7366004611274565b6105b1565b6101756101fa36600461133c565b6105c0565b61012a61020d3660046111be565b6105f8565b610175610220366004611259565b610708565b6101756102333660046113b8565b610716565b61010d610246366004611401565b61077c565b60006001600160e01b031982166380ac58cd60e01b148061027c57506001600160e01b03198216635b5e139f60e01b145b8061029757506301ffc9a760e01b6001600160e01b03198316145b92915050565b6060600080546102ac90611434565b80601f01602080910402602001604051908101604052809291908181526020018280546102d890611434565b80156103255780601f106102fa57610100808354040283529160200191610325565b820191906000526020600020905b81548152906001019060200180831161030857829003601f168201915b5050505050905090565b600061033a826107aa565b506000908152600460205260409020546001600160a01b031690565b6000610361826104bc565b9050806001600160a01b0316836001600160a01b0316036103d35760405162461bcd60e51b815260206004820152602160248201527f4552433732313a20617070726f76616c20746f2063757272656e74206f776e656044820152603960f91b60648201526084015b60405180910390fd5b336001600160a01b03821614806103ef57506103ef813361077c565b6104615760405162461bcd60e51b815260206004820152603d60248201527f4552433732313a20617070726f76652063616c6c6572206973206e6f7420746f60448201527f6b656e206f776e6572206f7220617070726f76656420666f7220616c6c00000060648201526084016103ca565b61046b8383610809565b505050565b61047a3382610877565b6104965760405162461bcd60e51b81526004016103ca9061146e565b61046b8383836108d5565b61046b838383604051806020016040528060008152506105c0565b6000818152600260205260408120546001600160a01b0316806102975760405162461bcd60e51b8152602060048201526018602482015277115490cdcc8c4e881a5b9d985b1a59081d1bdad95b88125160421b60448201526064016103ca565b60006001600160a01b0382166105865760405162461bcd60e51b815260206004820152602960248201527f4552433732313a2061646472657373207a65726f206973206e6f7420612076616044820152683634b21037bbb732b960b91b60648201526084016103ca565b506001600160a01b031660009081526003602052604090205490565b6060600180546102ac90611434565b6105bc338383610a46565b5050565b6105ca3383610877565b6105e65760405162461bcd60e51b81526004016103ca9061146e565b6105f284848484610b14565b50505050565b6060610603826107aa565b6000828152600660205260408120805461061c90611434565b80601f016020809104026020016040519081016040528092919081815260200182805461064890611434565b80156106955780601f1061066a57610100808354040283529160200191610695565b820191906000526020600020905b81548152906001019060200180831161067857829003601f168201915b5050505050905060006106b360408051602081019091526000815290565b905080516000036106c5575092915050565b8151156106f75780826040516020016106df9291906114bb565b60405160208183030381529060405292505050919050565b61070084610b47565b949350505050565b6107138160016105b1565b50565b610724600780546001019055565b600061072f60075490565b905061073b3382610bbb565b6107458183610bd5565b6040518181527f2cc161d398589ff5526cd6b429338ae827d66c48171d3dbaeac9a7bf822935bd9060200160405180910390a15050565b6001600160a01b03918216600090815260056020908152604080832093909416825291909152205460ff1690565b6000818152600260205260409020546001600160a01b03166107135760405162461bcd60e51b8152602060048201526018602482015277115490cdcc8c4e881a5b9d985b1a59081d1bdad95b88125160421b60448201526064016103ca565b600081815260046020526040902080546001600160a01b0319166001600160a01b038416908117909155819061083e826104bc565b6001600160a01b03167f8c5be1e5ebec7d5bd14f71427d1e84f3dd0314c0f7b2291e5b200ac8c7c3b92560405160405180910390a45050565b600080610883836104bc565b9050806001600160a01b0316846001600160a01b031614806108aa57506108aa818561077c565b806107005750836001600160a01b03166108c38461032f565b6001600160a01b031614949350505050565b826001600160a01b03166108e8826104bc565b6001600160a01b03161461090e5760405162461bcd60e51b81526004016103ca906114ea565b6001600160a01b0382166109705760405162461bcd60e51b8152602060048201526024808201527f4552433732313a207472616e7366657220746f20746865207a65726f206164646044820152637265737360e01b60648201526084016103ca565b61097d8383836001610c68565b826001600160a01b0316610990826104bc565b6001600160a01b0316146109b65760405162461bcd60e51b81526004016103ca906114ea565b600081815260046020908152604080832080546001600160a01b03199081169091556001600160a01b0387811680865260038552838620805460001901905590871680865283862080546001019055868652600290945282852080549092168417909155905184937fddf252ad1be2c89b69c2b068fc378daa952ba7f163c4a11628f55a4df523b3ef91a4505050565b816001600160a01b0316836001600160a01b031603610aa75760405162461bcd60e51b815260206004820152601960248201527f4552433732313a20617070726f766520746f2063616c6c65720000000000000060448201526064016103ca565b6001600160a01b03838116600081815260056020908152604080832094871680845294825291829020805460ff191686151590811790915591519182527f17307eab39ab6107e8899845ad3d59bd9653f200f220920489ca2b5937696c31910160405180910390a3505050565b610b1f8484846108d5565b610b2b84848484610cf0565b6105f25760405162461bcd60e51b81526004016103ca9061152f565b6060610b52826107aa565b6000610b6960408051602081019091526000815290565b90506000815111610b895760405180602001604052806000815250610bb4565b80610b9384610df1565b604051602001610ba49291906114bb565b6040516020818303038152906040525b9392505050565b6105bc828260405180602001604052806000815250610e84565b6000828152600260205260409020546001600160a01b0316610c505760405162461bcd60e51b815260206004820152602e60248201527f45524337323155524953746f726167653a2055524920736574206f66206e6f6e60448201526d32bc34b9ba32b73a103a37b5b2b760911b60648201526084016103ca565b600082815260066020526040902061046b82826115cf565b60018111156105f2576001600160a01b03841615610cae576001600160a01b03841660009081526003602052604081208054839290610ca89084906116a5565b90915550505b6001600160a01b038316156105f2576001600160a01b03831660009081526003602052604081208054839290610ce59084906116b8565b909155505050505050565b60006001600160a01b0384163b15610de657604051630a85bd0160e11b81526001600160a01b0385169063150b7a0290610d349033908990889088906004016116cb565b6020604051808303816000875af1925050508015610d6f575060408051601f3d908101601f19168201909252610d6c91810190611708565b60015b610dcc573d808015610d9d576040519150601f19603f3d011682016040523d82523d6000602084013e610da2565b606091505b508051600003610dc45760405162461bcd60e51b81526004016103ca9061152f565b805181602001fd5b6001600160e01b031916630a85bd0160e11b149050610700565b506001949350505050565b60606000610dfe83610eb7565b600101905060008167ffffffffffffffff811115610e1e57610e1e6112b0565b6040519080825280601f01601f191660200182016040528015610e48576020820181803683370190505b5090508181016020015b600019016f181899199a1a9b1b9c1cb0b131b232b360811b600a86061a8153600a8504945084610e5257509392505050565b610e8e8383610f8f565b610e9b6000848484610cf0565b61046b5760405162461bcd60e51b81526004016103ca9061152f565b60008072184f03e93ff9f4daa797ed6e38ed64bf6a1f0160401b8310610ef65772184f03e93ff9f4daa797ed6e38ed64bf6a1f0160401b830492506040015b6d04ee2d6d415b85acef81000000008310610f22576d04ee2d6d415b85acef8100000000830492506020015b662386f26fc100008310610f4057662386f26fc10000830492506010015b6305f5e1008310610f58576305f5e100830492506008015b6127108310610f6c57612710830492506004015b60648310610f7e576064830492506002015b600a83106102975760010192915050565b6001600160a01b038216610fe55760405162461bcd60e51b815260206004820181905260248201527f4552433732313a206d696e7420746f20746865207a65726f206164647265737360448201526064016103ca565b6000818152600260205260409020546001600160a01b03161561104a5760405162461bcd60e51b815260206004820152601c60248201527f4552433732313a20746f6b656e20616c7265616479206d696e7465640000000060448201526064016103ca565b611058600083836001610c68565b6000818152600260205260409020546001600160a01b0316156110bd5760405162461bcd60e51b815260206004820152601c60248201527f4552433732313a20746f6b656e20616c7265616479206d696e7465640000000060448201526064016103ca565b6001600160a01b038216600081815260036020908152604080832080546001019055848352600290915280822080546001600160a01b0319168417905551839291907fddf252ad1be2c89b69c2b068fc378daa952ba7f163c4a11628f55a4df523b3ef908290a45050565b6001600160e01b03198116811461071357600080fd5b60006020828403121561115057600080fd5b8135610bb481611128565b60005b8381101561117657818101518382015260200161115e565b50506000910152565b6000815180845261119781602086016020860161115b565b601f01601f19169290920160200192915050565b602081526000610bb4602083018461117f565b6000602082840312156111d057600080fd5b5035919050565b80356001600160a01b03811681146111ee57600080fd5b919050565b6000806040838503121561120657600080fd5b61120f836111d7565b946020939093013593505050565b60008060006060848603121561123257600080fd5b61123b846111d7565b9250611249602085016111d7565b9150604084013590509250925092565b60006020828403121561126b57600080fd5b610bb4826111d7565b6000806040838503121561128757600080fd5b611290836111d7565b9150602083013580151581146112a557600080fd5b809150509250929050565b634e487b7160e01b600052604160045260246000fd5b600067ffffffffffffffff808411156112e1576112e16112b0565b604051601f8501601f19908116603f01168101908282118183101715611309576113096112b0565b8160405280935085815286868601111561132257600080fd5b858560208301376000602087830101525050509392505050565b6000806000806080858703121561135257600080fd5b61135b856111d7565b9350611369602086016111d7565b925060408501359150606085013567ffffffffffffffff81111561138c57600080fd5b8501601f8101871361139d57600080fd5b6113ac878235602084016112c6565b91505092959194509250565b6000602082840312156113ca57600080fd5b813567ffffffffffffffff8111156113e157600080fd5b8201601f810184136113f257600080fd5b610700848235602084016112c6565b6000806040838503121561141457600080fd5b61141d836111d7565b915061142b602084016111d7565b90509250929050565b600181811c9082168061144857607f821691505b60208210810361146857634e487b7160e01b600052602260045260246000fd5b50919050565b6020808252602d908201527f4552433732313a2063616c6c6572206973206e6f7420746f6b656e206f776e6560408201526c1c881bdc88185c1c1c9bdd9959609a1b606082015260800190565b600083516114cd81846020880161115b565b8351908301906114e181836020880161115b565b01949350505050565b60208082526025908201527f4552433732313a207472616e736665722066726f6d20696e636f72726563742060408201526437bbb732b960d91b606082015260800190565b60208082526032908201527f4552433732313a207472616e7366657220746f206e6f6e20455243373231526560408201527131b2b4bb32b91034b6b83632b6b2b73a32b960711b606082015260800190565b601f82111561046b57600081815260208120601f850160051c810160208610156115a85750805b601f850160051c820191505b818110156115c7578281556001016115b4565b505050505050565b815167ffffffffffffffff8111156115e9576115e96112b0565b6115fd816115f78454611434565b84611581565b602080601f831160018114611632576000841561161a5750858301515b600019600386901b1c1916600185901b1785556115c7565b600085815260208120601f198616915b8281101561166157888601518255948401946001909101908401611642565b508582101561167f5787850151600019600388901b60f8161c191681555b5050505050600190811b01905550565b634e487b7160e01b600052601160045260246000fd5b818103818111156102975761029761168f565b808201808211156102975761029761168f565b6001600160a01b03858116825284166020820152604081018390526080606082018190526000906116fe9083018461117f565b9695505050505050565b60006020828403121561171a57600080fd5b8151610bb48161112856fea2646970667358221220e45ca8532c8095dfc09e829eca9d68a1345a74f73f308ce46478dc75b1d8e91a64736f6c63430008110033",
  "linkReferences": {},
  "deployedLinkReferences": {}
}