{
  "_format": "hh-sol-artifact-1",
  "contractName": "ERC4907",
  "sourceName": "contracts/ERC4907/ERC4907.sol",
  "abi": [
    {
      "inputs": [
        {
          "internalType": "string",
          "name": "name_",
          "type": "string"
        },
        {
          "internalType": "string",
          "name": "symbol_",
          "type": "string"
        }
      ],
      "stateMutability": "nonpayable",
      "type": "constructor"
    },
    {
      "anonymous": false,
      "inputs": [
        {
          "indexed": true,
          "internalType": "address",
          "name": "owner",
          "type": "address"
        },
        {
          "indexed": true,
          "internalType": "address",
          "name": "approved",
          "type": "address"
        },
        {
          "indexed": true,
          "internalType": "uint256",
          "name": "tokenId",
          "type": "uint256"
        }
      ],
      "name": "Approval",
      "type": "event"
    },
    {
      "anonymous": false,
      "inputs": [
        {
          "indexed": true,
          "internalType": "address",
          "name": "owner",
          "type": "address"
        },
        {
          "indexed": true,
          "internalType": "address",
          "name": "operator",
          "type": "address"
        },
        {
          "indexed": false,
          "internalType": "bool",
          "name": "approved",
          "type": "bool"
        }
      ],
      "name": "ApprovalForAll",
      "type": "event"
    },
    {
      "anonymous": false,
      "inputs": [
        {
          "indexed": true,
          "internalType": "address",
          "name": "from",
          "type": "address"
        },
        {
          "indexed": true,
          "internalType": "address",
          "name": "to",
          "type": "address"
        },
        {
          "indexed": true,
          "internalType": "uint256",
          "name": "tokenId",
          "type": "uint256"
        }
      ],
      "name": "Transfer",
      "type": "event"
    },
    {
      "anonymous": false,
      "inputs": [
        {
          "indexed": true,
          "internalType": "uint256",
          "name": "tokenId",
          "type": "uint256"
        },
        {
          "indexed": true,
          "internalType": "address",
          "name": "user",
          "type": "address"
        },
        {
          "indexed": false,
          "internalType": "uint64",
          "name": "expires",
          "type": "uint64"
        }
      ],
      "name": "UpdateUser",
      "type": "event"
    },
    {
      "inputs": [
        {
          "internalType": "address",
          "name": "to",
          "type": "address"
        },
        {
          "internalType": "uint256",
          "name": "tokenId",
          "type": "uint256"
        }
      ],
      "name": "approve",
      "outputs": [],
      "stateMutability": "nonpayable",
      "type": "function"
    },
    {
      "inputs": [
        {
          "internalType": "address",
          "name": "owner",
          "type": "address"
        }
      ],
      "name": "balanceOf",
      "outputs": [
        {
          "internalType": "uint256",
          "name": "",
          "type": "uint256"
        }
      ],
      "stateMutability": "view",
      "type": "function"
    },
    {
      "inputs": [
        {
          "internalType": "uint256",
          "name": "tokenId",
          "type": "uint256"
        }
      ],
      "name": "getApproved",
      "outputs": [
        {
          "internalType": "address",
          "name": "",
          "type": "address"
        }
      ],
      "stateMutability": "view",
      "type": "function"
    },
    {
      "inputs": [
        {
          "internalType": "address",
          "name": "owner",
          "type": "address"
        },
        {
          "internalType": "address",
          "name": "operator",
          "type": "address"
        }
      ],
      "name": "isApprovedForAll",
      "outputs": [
        {
          "internalType": "bool",
          "name": "",
          "type": "bool"
        }
      ],
      "stateMutability": "view",
      "type": "function"
    },
    {
      "inputs": [],
      "name": "name",
      "outputs": [
        {
          "internalType": "string",
          "name": "",
          "type": "string"
        }
      ],
      "stateMutability": "view",
      "type": "function"
    },
    {
      "inputs": [
        {
          "internalType": "uint256",
          "name": "tokenId",
          "type": "uint256"
        }
      ],
      "name": "ownerOf",
      "outputs": [
        {
          "internalType": "address",
          "name": "",
          "type": "address"
        }
      ],
      "stateMutability": "view",
      "type": "function"
    },
    {
      "inputs": [
        {
          "internalType": "address",
          "name": "from",
          "type": "address"
        },
        {
          "internalType": "address",
          "name": "to",
          "type": "address"
        },
        {
          "internalType": "uint256",
          "name": "tokenId",
          "type": "uint256"
        }
      ],
      "name": "safeTransferFrom",
      "outputs": [],
      "stateMutability": "nonpayable",
      "type": "function"
    },
    {
      "inputs": [
        {
          "internalType": "address",
          "name": "from",
          "type": "address"
        },
        {
          "internalType": "address",
          "name": "to",
          "type": "address"
        },
        {
          "internalType": "uint256",
          "name": "tokenId",
          "type": "uint256"
        },
        {
          "internalType": "bytes",
          "name": "data",
          "type": "bytes"
        }
      ],
      "name": "safeTransferFrom",
      "outputs": [],
      "stateMutability": "nonpayable",
      "type": "function"
    },
    {
      "inputs": [
        {
          "internalType": "address",
          "name": "operator",
          "type": "address"
        },
        {
          "internalType": "bool",
          "name": "approved",
          "type": "bool"
        }
      ],
      "name": "setApprovalForAll",
      "outputs": [],
      "stateMutability": "nonpayable",
      "type": "function"
    },
    {
      "inputs": [
        {
          "internalType": "uint256",
          "name": "tokenId",
          "type": "uint256"
        },
        {
          "internalType": "address",
          "name": "user",
          "type": "address"
        },
        {
          "internalType": "uint64",
          "name": "expires",
          "type": "uint64"
        }
      ],
      "name": "setUser",
      "outputs": [],
      "stateMutability": "nonpayable",
      "type": "function"
    },
    {
      "inputs": [
        {
          "internalType": "bytes4",
          "name": "interfaceId",
          "type": "bytes4"
        }
      ],
      "name": "supportsInterface",
      "outputs": [
        {
          "internalType": "bool",
          "name": "",
          "type": "bool"
        }
      ],
      "stateMutability": "view",
      "type": "function"
    },
    {
      "inputs": [],
      "name": "symbol",
      "outputs": [
        {
          "internalType": "string",
          "name": "",
          "type": "string"
        }
      ],
      "stateMutability": "view",
      "type": "function"
    },
    {
      "inputs": [
        {
          "internalType": "address",
          "name": "owner",
          "type": "address"
        },
        {
          "internalType": "uint256",
          "name": "index",
          "type": "uint256"
        }
      ],
      "name": "tokenOfOwnerByIndex",
      "outputs": [
        {
          "internalType": "uint256",
          "name": "",
          "type": "uint256"
        }
      ],
      "stateMutability": "view",
      "type": "function"
    },
    {
      "inputs": [
        {
          "internalType": "uint256",
          "name": "tokenId",
          "type": "uint256"
        }
      ],
      "name": "tokenURI",
      "outputs": [
        {
          "internalType": "string",
          "name": "",
          "type": "string"
        }
      ],
      "stateMutability": "view",
      "type": "function"
    },
    {
      "inputs": [
        {
          "internalType": "address",
          "name": "from",
          "type": "address"
        },
        {
          "internalType": "address",
          "name": "to",
          "type": "address"
        },
        {
          "internalType": "uint256",
          "name": "tokenId",
          "type": "uint256"
        }
      ],
      "name": "transferFrom",
      "outputs": [],
      "stateMutability": "nonpayable",
      "type": "function"
    },
    {
      "inputs": [
        {
          "internalType": "uint256",
          "name": "tokenId",
          "type": "uint256"
        }
      ],
      "name": "userExpires",
      "outputs": [
        {
          "internalType": "uint256",
          "name": "",
          "type": "uint256"
        }
      ],
      "stateMutability": "view",
      "type": "function"
    },
    {
      "inputs": [
        {
          "internalType": "uint256",
          "name": "tokenId",
          "type": "uint256"
        }
      ],
      "name": "userOf",
      "outputs": [
        {
          "internalType": "address",
          "name": "",
          "type": "address"
        }
      ],
      "stateMutability": "view",
      "type": "function"
    }
  ],
  "bytecode": "0x60806040523480156200001157600080fd5b5060405162001a7d38038062001a7d833981016040819052620000349162000123565b818160006200004483826200021c565b5060016200005382826200021c565b5050505050620002e8565b634e487b7160e01b600052604160045260246000fd5b600082601f8301126200008657600080fd5b81516001600160401b0380821115620000a357620000a36200005e565b604051601f8301601f19908116603f01168101908282118183101715620000ce57620000ce6200005e565b81604052838152602092508683858801011115620000eb57600080fd5b600091505b838210156200010f5785820183015181830184015290820190620000f0565b600093810190920192909252949350505050565b600080604083850312156200013757600080fd5b82516001600160401b03808211156200014f57600080fd5b6200015d8683870162000074565b935060208501519150808211156200017457600080fd5b50620001838582860162000074565b9150509250929050565b600181811c90821680620001a257607f821691505b602082108103620001c357634e487b7160e01b600052602260045260246000fd5b50919050565b601f8211156200021757600081815260208120601f850160051c81016020861015620001f25750805b601f850160051c820191505b818110156200021357828155600101620001fe565b5050505b505050565b81516001600160401b038111156200023857620002386200005e565b62000250816200024984546200018d565b84620001c9565b602080601f8311600181146200028857600084156200026f5750858301515b600019600386901b1c1916600185901b17855562000213565b600085815260208120601f198616915b82811015620002b95788860151825594840194600190910190840162000298565b5085821015620002d85787850151600019600388901b60f8161c191681555b5050505050600190811b01905550565b61178580620002f86000396000f3fe608060405234801561001057600080fd5b506004361061010b5760003560e01c806370a08231116100a2578063b88d4fde11610071578063b88d4fde14610246578063c2f1f14a14610259578063c87b56dd1461026c578063e030565e1461027f578063e985e9c51461029257600080fd5b806370a08231146101e75780638fc88c48146101fa57806395d89b411461022b578063a22cb4651461023357600080fd5b806323b872dd116100de57806323b872dd1461018d5780632f745c59146101a057806342842e0e146101c15780636352211e146101d457600080fd5b806301ffc9a71461011057806306fdde0314610138578063081812fc1461014d578063095ea7b314610178575b600080fd5b61012361011e366004611206565b6102ce565b60405190151581526020015b60405180910390f35b6101406102f9565b60405161012f9190611273565b61016061015b366004611286565b61038b565b6040516001600160a01b03909116815260200161012f565b61018b6101863660046112b6565b6103b2565b005b61018b61019b3660046112e0565b6104cc565b6101b36101ae3660046112b6565b6104fd565b60405190815260200161012f565b61018b6101cf3660046112e0565b610639565b6101606101e2366004611286565b610654565b6101b36101f536600461131c565b6106b4565b6101b3610208366004611286565b600090815260066020526040902054600160a01b900467ffffffffffffffff1690565b6101406107aa565b61018b610241366004611337565b6107b9565b61018b610254366004611389565b6107c8565b610160610267366004611286565b610800565b61014061027a366004611286565b610850565b61018b61028d366004611465565b6108c4565b6101236102a03660046114b2565b6001600160a01b03918216600090815260056020908152604080832093909416825291909152205460ff1690565b60006001600160e01b03198216632b424ad760e21b14806102f357506102f382610a08565b92915050565b606060008054610308906114e5565b80601f0160208091040260200160405190810160405280929190818152602001828054610334906114e5565b80156103815780601f1061035657610100808354040283529160200191610381565b820191906000526020600020905b81548152906001019060200180831161036457829003601f168201915b5050505050905090565b600061039682610a58565b506000908152600460205260409020546001600160a01b031690565b60006103bd82610654565b9050806001600160a01b0316836001600160a01b03160361042f5760405162461bcd60e51b815260206004820152602160248201527f4552433732313a20617070726f76616c20746f2063757272656e74206f776e656044820152603960f91b60648201526084015b60405180910390fd5b336001600160a01b038216148061044b575061044b81336102a0565b6104bd5760405162461bcd60e51b815260206004820152603d60248201527f4552433732313a20617070726f76652063616c6c6572206973206e6f7420746f60448201527f6b656e206f776e6572206f7220617070726f76656420666f7220616c6c0000006064820152608401610426565b6104c78383610aba565b505050565b6104d63382610b28565b6104f25760405162461bcd60e51b81526004016104269061151f565b6104c7838383610ba7565b6000610508836106b4565b82106105565760405162461bcd60e51b815260206004820152601c60248201527f455243343930373a20496e646578206f7574206f6620626f756e6473000000006044820152606401610426565b600061056184610d18565b9050808310156105e357604051632f745c5960e01b81526001600160a01b038516600482018190526024820185905290632f745c5990604401602060405180830381865afa1580156105b7573d6000803e3d6000fd5b505050506040513d601f19601f820116820180604052508101906105db919061156c565b9150506102f3565b60006105ef828561159b565b6001600160a01b03861660009081526007602052604090208054919250908290811061061d5761061d6115ae565b9060005260206000209060020201600001549250505092915050565b6104c7838383604051806020016040528060008152506107c8565b6000818152600260205260408120546001600160a01b0316806102f35760405162461bcd60e51b8152602060048201526018602482015277115490cdcc8c4e881a5b9d985b1a59081d1bdad95b88125160421b6044820152606401610426565b60006001600160a01b0382166106dc5760405162461bcd60e51b8152600401610426906115c4565b60006106e783610d18565b6001600160a01b038416600090815260076020526040812054919250805b82811015610793576001600160a01b0386166000908152600760205260408120805483908110610737576107376115ae565b600091825260209182902060408051808201909152600290920201805482526001015467ffffffffffffffff16918101829052915042116107805761077d60018461160d565b92505b508061078b81611620565b915050610705565b5060006107a0828561160d565b9695505050505050565b606060018054610308906114e5565b6107c4338383610d5c565b5050565b6107d23383610b28565b6107ee5760405162461bcd60e51b81526004016104269061151f565b6107fa84848484610e2a565b50505050565b60008181526006602052604081205442600160a01b90910467ffffffffffffffff161061084357506000908152600660205260409020546001600160a01b031690565b506000919050565b919050565b606061085b82610a58565b600061087260408051602081019091526000815290565b9050600081511161089257604051806020016040528060008152506108bd565b8061089c84610e5d565b6040516020016108ad929190611639565b6040516020818303038152906040525b9392505050565b6108ce3384610b28565b6109345760405162461bcd60e51b815260206004820152603160248201527f4552433732313a207472616e736665722063616c6c6572206973206e6f74206f6044820152701ddb995c881b9bdc88185c1c1c9bdd9959607a1b6064820152608401610426565b600083815260066020908152604080832080546001600160a01b0387166001600160e01b03199091168117600160a01b67ffffffffffffffff888116918202929092178455845180860186528a815280870182815284895260078852868920805460018181018355918b529989902083516002909b0201998a5590519801805467ffffffffffffffff191698909316979097179091559251928352909392909187917f4e06b4e7000e659094299b3533b47b6aa8ad048e95e872d23d1f4ee55af89cfe910160405180910390a35050505050565b60006001600160e01b031982166380ac58cd60e01b1480610a3957506001600160e01b03198216635b5e139f60e01b145b806102f357506301ffc9a760e01b6001600160e01b03198316146102f3565b6000818152600260205260409020546001600160a01b0316610ab75760405162461bcd60e51b8152602060048201526018602482015277115490cdcc8c4e881a5b9d985b1a59081d1bdad95b88125160421b6044820152606401610426565b50565b600081815260046020526040902080546001600160a01b0319166001600160a01b0384169081179091558190610aef82610654565b6001600160a01b03167f8c5be1e5ebec7d5bd14f71427d1e84f3dd0314c0f7b2291e5b200ac8c7c3b92560405160405180910390a45050565b600080610b3483610654565b9050806001600160a01b0316846001600160a01b03161480610b7b57506001600160a01b0380821660009081526005602090815260408083209388168352929052205460ff165b80610b9f5750836001600160a01b0316610b948461038b565b6001600160a01b0316145b949350505050565b826001600160a01b0316610bba82610654565b6001600160a01b031614610be05760405162461bcd60e51b815260040161042690611668565b6001600160a01b038216610c425760405162461bcd60e51b8152602060048201526024808201527f4552433732313a207472616e7366657220746f20746865207a65726f206164646044820152637265737360e01b6064820152608401610426565b610c4f8383836001610ef0565b826001600160a01b0316610c6282610654565b6001600160a01b031614610c885760405162461bcd60e51b815260040161042690611668565b600081815260046020908152604080832080546001600160a01b03199081169091556001600160a01b0387811680865260038552838620805460001901905590871680865283862080546001019055868652600290945282852080549092168417909155905184937fddf252ad1be2c89b69c2b068fc378daa952ba7f163c4a11628f55a4df523b3ef91a4505050565b60006001600160a01b038216610d405760405162461bcd60e51b8152600401610426906115c4565b506001600160a01b031660009081526003602052604090205490565b816001600160a01b0316836001600160a01b031603610dbd5760405162461bcd60e51b815260206004820152601960248201527f4552433732313a20617070726f766520746f2063616c6c6572000000000000006044820152606401610426565b6001600160a01b03838116600081815260056020908152604080832094871680845294825291829020805460ff191686151590811790915591519182527f17307eab39ab6107e8899845ad3d59bd9653f200f220920489ca2b5937696c31910160405180910390a3505050565b610e35848484610ba7565b610e4184848484610f8f565b6107fa5760405162461bcd60e51b8152600401610426906116ad565b60606000610e6a83611090565b600101905060008167ffffffffffffffff811115610e8a57610e8a611373565b6040519080825280601f01601f191660200182016040528015610eb4576020820181803683370190505b5090508181016020015b600019016f181899199a1a9b1b9c1cb0b131b232b360811b600a86061a8153600a8504945084610ebe57509392505050565b610efc84848484611168565b826001600160a01b0316846001600160a01b031614158015610f3457506000828152600660205260409020546001600160a01b031615155b156107fa57600082815260066020908152604080832080546001600160e01b03191690555182815284917f4e06b4e7000e659094299b3533b47b6aa8ad048e95e872d23d1f4ee55af89cfe910160405180910390a350505050565b60006001600160a01b0384163b1561108557604051630a85bd0160e11b81526001600160a01b0385169063150b7a0290610fd39033908990889088906004016116ff565b6020604051808303816000875af192505050801561100e575060408051601f3d908101601f1916820190925261100b91810190611732565b60015b61106b573d80801561103c576040519150601f19603f3d011682016040523d82523d6000602084013e611041565b606091505b5080516000036110635760405162461bcd60e51b8152600401610426906116ad565b805181602001fd5b6001600160e01b031916630a85bd0160e11b149050610b9f565b506001949350505050565b60008072184f03e93ff9f4daa797ed6e38ed64bf6a1f0160401b83106110cf5772184f03e93ff9f4daa797ed6e38ed64bf6a1f0160401b830492506040015b6d04ee2d6d415b85acef810000000083106110fb576d04ee2d6d415b85acef8100000000830492506020015b662386f26fc10000831061111957662386f26fc10000830492506010015b6305f5e1008310611131576305f5e100830492506008015b612710831061114557612710830492506004015b60648310611157576064830492506002015b600a83106102f35760010192915050565b60018111156107fa576001600160a01b038416156111ae576001600160a01b038416600090815260036020526040812080548392906111a890849061159b565b90915550505b6001600160a01b038316156107fa576001600160a01b038316600090815260036020526040812080548392906111e590849061160d565b909155505050505050565b6001600160e01b031981168114610ab757600080fd5b60006020828403121561121857600080fd5b81356108bd816111f0565b60005b8381101561123e578181015183820152602001611226565b50506000910152565b6000815180845261125f816020860160208601611223565b601f01601f19169290920160200192915050565b6020815260006108bd6020830184611247565b60006020828403121561129857600080fd5b5035919050565b80356001600160a01b038116811461084b57600080fd5b600080604083850312156112c957600080fd5b6112d28361129f565b946020939093013593505050565b6000806000606084860312156112f557600080fd5b6112fe8461129f565b925061130c6020850161129f565b9150604084013590509250925092565b60006020828403121561132e57600080fd5b6108bd8261129f565b6000806040838503121561134a57600080fd5b6113538361129f565b91506020830135801515811461136857600080fd5b809150509250929050565b634e487b7160e01b600052604160045260246000fd5b6000806000806080858703121561139f57600080fd5b6113a88561129f565b93506113b66020860161129f565b925060408501359150606085013567ffffffffffffffff808211156113da57600080fd5b818701915087601f8301126113ee57600080fd5b81358181111561140057611400611373565b604051601f8201601f19908116603f0116810190838211818310171561142857611428611373565b816040528281528a602084870101111561144157600080fd5b82602086016020830137600060208483010152809550505050505092959194509250565b60008060006060848603121561147a57600080fd5b8335925061148a6020850161129f565b9150604084013567ffffffffffffffff811681146114a757600080fd5b809150509250925092565b600080604083850312156114c557600080fd5b6114ce8361129f565b91506114dc6020840161129f565b90509250929050565b600181811c908216806114f957607f821691505b60208210810361151957634e487b7160e01b600052602260045260246000fd5b50919050565b6020808252602d908201527f4552433732313a2063616c6c6572206973206e6f7420746f6b656e206f776e6560408201526c1c881bdc88185c1c1c9bdd9959609a1b606082015260800190565b60006020828403121561157e57600080fd5b5051919050565b634e487b7160e01b600052601160045260246000fd5b818103818111156102f3576102f3611585565b634e487b7160e01b600052603260045260246000fd5b60208082526029908201527f4552433732313a2061646472657373207a65726f206973206e6f7420612076616040820152683634b21037bbb732b960b91b606082015260800190565b808201808211156102f3576102f3611585565b60006001820161163257611632611585565b5060010190565b6000835161164b818460208801611223565b83519083019061165f818360208801611223565b01949350505050565b60208082526025908201527f4552433732313a207472616e736665722066726f6d20696e636f72726563742060408201526437bbb732b960d91b606082015260800190565b60208082526032908201527f4552433732313a207472616e7366657220746f206e6f6e20455243373231526560408201527131b2b4bb32b91034b6b83632b6b2b73a32b960711b606082015260800190565b6001600160a01b03858116825284166020820152604081018390526080606082018190526000906107a090830184611247565b60006020828403121561174457600080fd5b81516108bd816111f056fea26469706673582212206a4e6c3bddb8e110e61a2a62d09fb8ec4c007bcec07d9c4c9c4fec416120682064736f6c63430008110033",
  "linkReferences": {},
  "deployedLinkReferences": {}
}