{
  "_format": "hh-sol-artifact-1",
  "contractName": "NFTRentalMarketplace",
  "sourceName": "contracts/NFTRentalMarketplace.sol",
  "abi": [
    {
      "inputs": [],
      "stateMutability": "nonpayable",
      "type": "constructor"
    },
    {
      "anonymous": false,
      "inputs": [
        {
          "indexed": true,
          "internalType": "address",
          "name": "owner",
          "type": "address"
        },
        {
          "indexed": true,
          "internalType": "address",
          "name": "approved",
          "type": "address"
        },
        {
          "indexed": true,
          "internalType": "uint256",
          "name": "tokenId",
          "type": "uint256"
        }
      ],
      "name": "Approval",
      "type": "event"
    },
    {
      "anonymous": false,
      "inputs": [
        {
          "indexed": true,
          "internalType": "address",
          "name": "owner",
          "type": "address"
        },
        {
          "indexed": true,
          "internalType": "address",
          "name": "operator",
          "type": "address"
        },
        {
          "indexed": false,
          "internalType": "bool",
          "name": "approved",
          "type": "bool"
        }
      ],
      "name": "ApprovalForAll",
      "type": "event"
    },
    {
      "anonymous": false,
      "inputs": [
        {
          "indexed": true,
          "internalType": "uint256",
          "name": "tokenId",
          "type": "uint256"
        },
        {
          "indexed": false,
          "internalType": "address",
          "name": "owner",
          "type": "address"
        },
        {
          "indexed": false,
          "internalType": "address",
          "name": "seller",
          "type": "address"
        },
        {
          "indexed": false,
          "internalType": "uint256",
          "name": "price",
          "type": "uint256"
        },
        {
          "indexed": false,
          "internalType": "uint64",
          "name": "expiry",
          "type": "uint64"
        },
        {
          "indexed": false,
          "internalType": "bool",
          "name": "currentlyListed",
          "type": "bool"
        }
      ],
      "name": "TokenListedSuccess",
      "type": "event"
    },
    {
      "anonymous": false,
      "inputs": [
        {
          "indexed": true,
          "internalType": "address",
          "name": "from",
          "type": "address"
        },
        {
          "indexed": true,
          "internalType": "address",
          "name": "to",
          "type": "address"
        },
        {
          "indexed": true,
          "internalType": "uint256",
          "name": "tokenId",
          "type": "uint256"
        }
      ],
      "name": "Transfer",
      "type": "event"
    },
    {
      "inputs": [
        {
          "internalType": "address",
          "name": "to",
          "type": "address"
        },
        {
          "internalType": "uint256",
          "name": "tokenId",
          "type": "uint256"
        }
      ],
      "name": "approve",
      "outputs": [],
      "stateMutability": "nonpayable",
      "type": "function"
    },
    {
      "inputs": [
        {
          "internalType": "address",
          "name": "owner",
          "type": "address"
        }
      ],
      "name": "balanceOf",
      "outputs": [
        {
          "internalType": "uint256",
          "name": "",
          "type": "uint256"
        }
      ],
      "stateMutability": "view",
      "type": "function"
    },
    {
      "inputs": [
        {
          "internalType": "string",
          "name": "tokenURI",
          "type": "string"
        },
        {
          "internalType": "uint256",
          "name": "price",
          "type": "uint256"
        },
        {
          "internalType": "uint64",
          "name": "expiry",
          "type": "uint64"
        }
      ],
      "name": "createToken",
      "outputs": [
        {
          "internalType": "uint256",
          "name": "",
          "type": "uint256"
        }
      ],
      "stateMutability": "payable",
      "type": "function"
    },
    {
      "inputs": [
        {
          "internalType": "uint256",
          "name": "tokenId",
          "type": "uint256"
        }
      ],
      "name": "executeSale",
      "outputs": [],
      "stateMutability": "payable",
      "type": "function"
    },
    {
      "inputs": [],
      "name": "getAllNFTs",
      "outputs": [
        {
          "components": [
            {
              "internalType": "uint256",
              "name": "tokenId",
              "type": "uint256"
            },
            {
              "internalType": "address payable",
              "name": "owner",
              "type": "address"
            },
            {
              "internalType": "address payable",
              "name": "user",
              "type": "address"
            },
            {
              "internalType": "uint256",
              "name": "price",
              "type": "uint256"
            },
            {
              "internalType": "uint64",
              "name": "expiry",
              "type": "uint64"
            },
            {
              "internalType": "bool",
              "name": "currentlyListed",
              "type": "bool"
            }
          ],
          "internalType": "struct NFTRentalMarketplace.LToken[]",
          "name": "",
          "type": "tuple[]"
        }
      ],
      "stateMutability": "view",
      "type": "function"
    },
    {
      "inputs": [
        {
          "internalType": "uint256",
          "name": "tokenId",
          "type": "uint256"
        }
      ],
      "name": "getApproved",
      "outputs": [
        {
          "internalType": "address",
          "name": "",
          "type": "address"
        }
      ],
      "stateMutability": "view",
      "type": "function"
    },
    {
      "inputs": [],
      "name": "getCurrentToken",
      "outputs": [
        {
          "internalType": "uint256",
          "name": "",
          "type": "uint256"
        }
      ],
      "stateMutability": "view",
      "type": "function"
    },
    {
      "inputs": [],
      "name": "getLatestIdToListedToken",
      "outputs": [
        {
          "components": [
            {
              "internalType": "uint256",
              "name": "tokenId",
              "type": "uint256"
            },
            {
              "internalType": "address payable",
              "name": "owner",
              "type": "address"
            },
            {
              "internalType": "address payable",
              "name": "user",
              "type": "address"
            },
            {
              "internalType": "uint256",
              "name": "price",
              "type": "uint256"
            },
            {
              "internalType": "uint64",
              "name": "expiry",
              "type": "uint64"
            },
            {
              "internalType": "bool",
              "name": "currentlyListed",
              "type": "bool"
            }
          ],
          "internalType": "struct NFTRentalMarketplace.LToken",
          "name": "",
          "type": "tuple"
        }
      ],
      "stateMutability": "view",
      "type": "function"
    },
    {
      "inputs": [],
      "name": "getListPrice",
      "outputs": [
        {
          "internalType": "uint256",
          "name": "",
          "type": "uint256"
        }
      ],
      "stateMutability": "view",
      "type": "function"
    },
    {
      "inputs": [
        {
          "internalType": "uint256",
          "name": "tokenId",
          "type": "uint256"
        }
      ],
      "name": "getListedTokenForId",
      "outputs": [
        {
          "components": [
            {
              "internalType": "uint256",
              "name": "tokenId",
              "type": "uint256"
            },
            {
              "internalType": "address payable",
              "name": "owner",
              "type": "address"
            },
            {
              "internalType": "address payable",
              "name": "user",
              "type": "address"
            },
            {
              "internalType": "uint256",
              "name": "price",
              "type": "uint256"
            },
            {
              "internalType": "uint64",
              "name": "expiry",
              "type": "uint64"
            },
            {
              "internalType": "bool",
              "name": "currentlyListed",
              "type": "bool"
            }
          ],
          "internalType": "struct NFTRentalMarketplace.LToken",
          "name": "",
          "type": "tuple"
        }
      ],
      "stateMutability": "view",
      "type": "function"
    },
    {
      "inputs": [],
      "name": "getMyNFTs",
      "outputs": [
        {
          "components": [
            {
              "internalType": "uint256",
              "name": "tokenId",
              "type": "uint256"
            },
            {
              "internalType": "address payable",
              "name": "owner",
              "type": "address"
            },
            {
              "internalType": "address payable",
              "name": "user",
              "type": "address"
            },
            {
              "internalType": "uint256",
              "name": "price",
              "type": "uint256"
            },
            {
              "internalType": "uint64",
              "name": "expiry",
              "type": "uint64"
            },
            {
              "internalType": "bool",
              "name": "currentlyListed",
              "type": "bool"
            }
          ],
          "internalType": "struct NFTRentalMarketplace.LToken[]",
          "name": "",
          "type": "tuple[]"
        }
      ],
      "stateMutability": "view",
      "type": "function"
    },
    {
      "inputs": [
        {
          "internalType": "address",
          "name": "owner",
          "type": "address"
        },
        {
          "internalType": "address",
          "name": "operator",
          "type": "address"
        }
      ],
      "name": "isApprovedForAll",
      "outputs": [
        {
          "internalType": "bool",
          "name": "",
          "type": "bool"
        }
      ],
      "stateMutability": "view",
      "type": "function"
    },
    {
      "inputs": [],
      "name": "name",
      "outputs": [
        {
          "internalType": "string",
          "name": "",
          "type": "string"
        }
      ],
      "stateMutability": "view",
      "type": "function"
    },
    {
      "inputs": [
        {
          "internalType": "uint256",
          "name": "tokenId",
          "type": "uint256"
        }
      ],
      "name": "ownerOf",
      "outputs": [
        {
          "internalType": "address",
          "name": "",
          "type": "address"
        }
      ],
      "stateMutability": "view",
      "type": "function"
    },
    {
      "inputs": [
        {
          "internalType": "address",
          "name": "from",
          "type": "address"
        },
        {
          "internalType": "address",
          "name": "to",
          "type": "address"
        },
        {
          "internalType": "uint256",
          "name": "tokenId",
          "type": "uint256"
        }
      ],
      "name": "safeTransferFrom",
      "outputs": [],
      "stateMutability": "nonpayable",
      "type": "function"
    },
    {
      "inputs": [
        {
          "internalType": "address",
          "name": "from",
          "type": "address"
        },
        {
          "internalType": "address",
          "name": "to",
          "type": "address"
        },
        {
          "internalType": "uint256",
          "name": "tokenId",
          "type": "uint256"
        },
        {
          "internalType": "bytes",
          "name": "data",
          "type": "bytes"
        }
      ],
      "name": "safeTransferFrom",
      "outputs": [],
      "stateMutability": "nonpayable",
      "type": "function"
    },
    {
      "inputs": [
        {
          "internalType": "address",
          "name": "operator",
          "type": "address"
        },
        {
          "internalType": "bool",
          "name": "approved",
          "type": "bool"
        }
      ],
      "name": "setApprovalForAll",
      "outputs": [],
      "stateMutability": "nonpayable",
      "type": "function"
    },
    {
      "inputs": [
        {
          "internalType": "bytes4",
          "name": "interfaceId",
          "type": "bytes4"
        }
      ],
      "name": "supportsInterface",
      "outputs": [
        {
          "internalType": "bool",
          "name": "",
          "type": "bool"
        }
      ],
      "stateMutability": "view",
      "type": "function"
    },
    {
      "inputs": [],
      "name": "symbol",
      "outputs": [
        {
          "internalType": "string",
          "name": "",
          "type": "string"
        }
      ],
      "stateMutability": "view",
      "type": "function"
    },
    {
      "inputs": [
        {
          "internalType": "uint256",
          "name": "tokenId",
          "type": "uint256"
        }
      ],
      "name": "tokenURI",
      "outputs": [
        {
          "internalType": "string",
          "name": "",
          "type": "string"
        }
      ],
      "stateMutability": "view",
      "type": "function"
    },
    {
      "inputs": [
        {
          "internalType": "address",
          "name": "from",
          "type": "address"
        },
        {
          "internalType": "address",
          "name": "to",
          "type": "address"
        },
        {
          "internalType": "uint256",
          "name": "tokenId",
          "type": "uint256"
        }
      ],
      "name": "transferFrom",
      "outputs": [],
      "stateMutability": "nonpayable",
      "type": "function"
    },
    {
      "inputs": [
        {
          "internalType": "uint256",
          "name": "listedPrice",
          "type": "uint256"
        }
      ],
      "name": "updateListPrice",
      "outputs": [],
      "stateMutability": "payable",
      "type": "function"
    }
  ],
  "bytecode": "0x6080604052662386f26fc10000600a553480156200001c57600080fd5b506040518060400160405280600e81526020016d4e46544d61726b6574706c61636560901b8152506040518060400160405280600581526020016427232a26a960d91b815250816000908162000073919062000142565b50600162000082828262000142565b5050600980546001600160a01b03191633179055506200020e565b634e487b7160e01b600052604160045260246000fd5b600181811c90821680620000c857607f821691505b602082108103620000e957634e487b7160e01b600052602260045260246000fd5b50919050565b601f8211156200013d57600081815260208120601f850160051c81016020861015620001185750805b601f850160051c820191505b81811015620001395782815560010162000124565b5050505b505050565b81516001600160401b038111156200015e576200015e6200009d565b62000176816200016f8454620000b3565b84620000ef565b602080601f831160018114620001ae5760008415620001955750858301515b600019600386901b1c1916600185901b17855562000139565b600085815260208120601f198616915b82811015620001df57888601518255948401946001909101908401620001be565b5085821015620001fe5787850151600019600388901b60f8161c191681555b5050505050600190811b01905550565b61223a806200021e6000396000f3fe6080604052600436106101355760003560e01c80638e264590116100ab578063c322579c1161006f578063c322579c14610354578063c87b56dd14610367578063d1a88ae514610387578063e0391b091461039c578063e985e9c5146103b1578063ef2d1746146103d157600080fd5b80638e264590146102bf57806395d89b41146102ec5780639b1225c414610301578063a22cb46514610314578063b88d4fde1461033457600080fd5b806342842e0e116100fd57806342842e0e1461020b578063629cb2e41461022b5780636352211e1461024d57806368f1945f1461026d57806370a082311461028c578063723bb09d146102ac57600080fd5b806301ffc9a71461013a57806306fdde031461016f578063081812fc14610191578063095ea7b3146101c957806323b872dd146101eb575b600080fd5b34801561014657600080fd5b5061015a610155366004611b12565b6103e6565b60405190151581526020015b60405180910390f35b34801561017b57600080fd5b50610184610438565b6040516101669190611b7f565b34801561019d57600080fd5b506101b16101ac366004611b92565b6104ca565b6040516001600160a01b039091168152602001610166565b3480156101d557600080fd5b506101e96101e4366004611bc7565b6104f1565b005b3480156101f757600080fd5b506101e9610206366004611bf1565b61060b565b34801561021757600080fd5b506101e9610226366004611bf1565b61063c565b34801561023757600080fd5b50610240610657565b6040516101669190611c80565b34801561025957600080fd5b506101b1610268366004611b92565b61083c565b34801561027957600080fd5b50600a545b604051908152602001610166565b34801561029857600080fd5b5061027e6102a7366004611cce565b61089c565b61027e6102ba366004611d74565b610922565b3480156102cb57600080fd5b506102df6102da366004611b92565b610966565b6040516101669190611ded565b3480156102f857600080fd5b506101846109e6565b6101e961030f366004611b92565b6109f5565b34801561032057600080fd5b506101e961032f366004611dfb565b610b52565b34801561034057600080fd5b506101e961034f366004611e37565b610b61565b6101e9610362366004611b92565b610b93565b34801561037357600080fd5b50610184610382366004611b92565b610c02565b34801561039357600080fd5b506102df610d0a565b3480156103a857600080fd5b50610240610d97565b3480156103bd57600080fd5b5061015a6103cc366004611eb2565b610f31565b3480156103dd57600080fd5b5061027e610f5f565b60006001600160e01b031982166380ac58cd60e01b148061041757506001600160e01b03198216635b5e139f60e01b145b8061043257506301ffc9a760e01b6001600160e01b03198316145b92915050565b60606000805461044790611ee5565b80601f016020809104026020016040519081016040528092919081815260200182805461047390611ee5565b80156104c05780601f10610495576101008083540402835291602001916104c0565b820191906000526020600020905b8154815290600101906020018083116104a357829003601f168201915b5050505050905090565b60006104d582610f6f565b506000908152600460205260409020546001600160a01b031690565b60006104fc8261083c565b9050806001600160a01b0316836001600160a01b03160361056e5760405162461bcd60e51b815260206004820152602160248201527f4552433732313a20617070726f76616c20746f2063757272656e74206f776e656044820152603960f91b60648201526084015b60405180910390fd5b336001600160a01b038216148061058a575061058a8133610f31565b6105fc5760405162461bcd60e51b815260206004820152603d60248201527f4552433732313a20617070726f76652063616c6c6572206973206e6f7420746f60448201527f6b656e206f776e6572206f7220617070726f76656420666f7220616c6c0000006064820152608401610565565b6106068383610fd1565b505050565b610615338261103f565b6106315760405162461bcd60e51b815260040161056590611f1f565b61060683838361109d565b61060683838360405180602001604052806000815250610b61565b6060600061066460075490565b905060008060015b8381116106d9576000818152600b60205260409020600101546001600160a01b03163314806106b457506000818152600b60205260409020600201546001600160a01b031633145b156106c7576106c4600184611f82565b92505b806106d181611f95565b91505061066c565b506000826001600160401b038111156106f4576106f4611ce9565b60405190808252806020026020018201604052801561072d57816020015b61071a611ac7565b8152602001906001900390816107125790505b50905060015b848111610833576000818152600b60205260409020600101546001600160a01b031633148061077b57506000818152600b60205260409020600201546001600160a01b031633145b15610821576000818152600b6020908152604091829020825160c0810184528154815260018201546001600160a01b03908116938201939093526002820154909216928201929092526003820154606082015260048201546001600160401b0381166080830152600160401b900460ff16151560a0820152835184908690811061080757610807611fae565b602090810291909101015261081d600185611f82565b9350505b8061082b81611f95565b915050610733565b50949350505050565b6000818152600260205260408120546001600160a01b0316806104325760405162461bcd60e51b8152602060048201526018602482015277115490cdcc8c4e881a5b9d985b1a59081d1bdad95b88125160421b6044820152606401610565565b60006001600160a01b0382166109065760405162461bcd60e51b815260206004820152602960248201527f4552433732313a2061646472657373207a65726f206973206e6f7420612076616044820152683634b21037bbb732b960b91b6064820152608401610565565b506001600160a01b031660009081526003602052604090205490565b6000610932600780546001019055565b600061093d60075490565b9050610949338261120e565b6109538186611228565b61095e8185856112bb565b949350505050565b61096e611ac7565b506000908152600b6020908152604091829020825160c0810184528154815260018201546001600160a01b0390811693820193909352600282015490921692820192909252600382015460608201526004909101546001600160401b0381166080830152600160401b900460ff16151560a082015290565b60606001805461044790611ee5565b6000818152600b6020526040902060038101546002909101546001600160a01b0316348214610a7c5760405162461bcd60e51b815260206004820152602d60248201527f41736b696e67207072696365206e6f74206d65742e205075726368617365206360448201526c185b9b9bdd081c1c9bd8d95959609a1b6064820152608401610565565b6000838152600b6020526040902060048101805468ff00000000000000001916600160401b17905560020180546001600160a01b03191633179055610ac5600880546001019055565b610ad030338561109d565b610ada30846104f1565b600954600a546040516001600160a01b039092169181156108fc0291906000818181858888f19350505050158015610b16573d6000803e3d6000fd5b506040516001600160a01b038216903480156108fc02916000818181858888f19350505050158015610b4c573d6000803e3d6000fd5b50505050565b610b5d338383611493565b5050565b610b6b338361103f565b610b875760405162461bcd60e51b815260040161056590611f1f565b610b4c84848484611561565b6009546001600160a01b03163314610bfd5760405162461bcd60e51b815260206004820152602760248201527f4f6e6c79206f776e65722063616e2075706461746520746865206c697374696e6044820152666720707269636560c81b6064820152608401610565565b600a55565b6060610c0d82610f6f565b60008281526006602052604081208054610c2690611ee5565b80601f0160208091040260200160405190810160405280929190818152602001828054610c5290611ee5565b8015610c9f5780601f10610c7457610100808354040283529160200191610c9f565b820191906000526020600020905b815481529060010190602001808311610c8257829003601f168201915b505050505090506000610cbd60408051602081019091526000815290565b90508051600003610ccf575092915050565b815115610d01578082604051602001610ce9929190611fc4565b60405160208183030381529060405292505050919050565b61095e84611594565b610d12611ac7565b6000610d1d60075490565b6000908152600b6020908152604091829020825160c0810184528154815260018201546001600160a01b0390811693820193909352600282015490921692820192909252600382015460608201526004909101546001600160401b0381166080830152600160401b900460ff16151560a082015292915050565b60606000610da460075490565b905060008060015b838111610df8576000818152600b6020526040902060040154600160401b900460ff161515600103610de657610de3600183611f82565b91505b80610df081611f95565b915050610dac565b506000816001600160401b03811115610e1357610e13611ce9565b604051908082528060200260200182016040528015610e4c57816020015b610e39611ac7565b815260200190600190039081610e315790505b50905060015b848111610833576000818152600b6020526040902060040154600160401b900460ff161515600103610f1f576000818152600b6020908152604091829020825160c0810184528154815260018201546001600160a01b03908116938201939093526002820154909216928201929092526003820154606082015260048201546001600160401b0381166080830152600160401b900460ff16151560a08201528351849087908110610f0557610f05611fae565b6020908102919091010152610f1b600186611f82565b9450505b80610f2981611f95565b915050610e52565b6001600160a01b03918216600090815260056020908152604080832093909416825291909152205460ff1690565b6000610f6a60075490565b905090565b6000818152600260205260409020546001600160a01b0316610fce5760405162461bcd60e51b8152602060048201526018602482015277115490cdcc8c4e881a5b9d985b1a59081d1bdad95b88125160421b6044820152606401610565565b50565b600081815260046020526040902080546001600160a01b0319166001600160a01b03841690811790915581906110068261083c565b6001600160a01b03167f8c5be1e5ebec7d5bd14f71427d1e84f3dd0314c0f7b2291e5b200ac8c7c3b92560405160405180910390a45050565b60008061104b8361083c565b9050806001600160a01b0316846001600160a01b0316148061107257506110728185610f31565b8061095e5750836001600160a01b031661108b846104ca565b6001600160a01b031614949350505050565b826001600160a01b03166110b08261083c565b6001600160a01b0316146110d65760405162461bcd60e51b815260040161056590611ff3565b6001600160a01b0382166111385760405162461bcd60e51b8152602060048201526024808201527f4552433732313a207472616e7366657220746f20746865207a65726f206164646044820152637265737360e01b6064820152608401610565565b6111458383836001611608565b826001600160a01b03166111588261083c565b6001600160a01b03161461117e5760405162461bcd60e51b815260040161056590611ff3565b600081815260046020908152604080832080546001600160a01b03199081169091556001600160a01b0387811680865260038552838620805460001901905590871680865283862080546001019055868652600290945282852080549092168417909155905184937fddf252ad1be2c89b69c2b068fc378daa952ba7f163c4a11628f55a4df523b3ef91a4505050565b610b5d828260405180602001604052806000815250611690565b6000828152600260205260409020546001600160a01b03166112a35760405162461bcd60e51b815260206004820152602e60248201527f45524337323155524953746f726167653a2055524920736574206f66206e6f6e60448201526d32bc34b9ba32b73a103a37b5b2b760911b6064820152608401610565565b60008281526006602052604090206106068282612086565b600a5434101561131d5760405162461bcd60e51b815260206004820152602760248201527f4e6f7420656e6f7567682045544820746f2070617920666f7220706c6174666f604482015266726d206665657360c81b6064820152608401610565565b6000821161136d5760405162461bcd60e51b815260206004820152601860248201527f50726963652063616e6e6f74206265206e6567617469766500000000000000006044820152606401610565565b6040805160c08101825284815230602080830182815233848601818152606086018981526001600160401b03808a1660808901908152600160a08a0181815260008f8152600b9099529a90972098518955945195880180546001600160a01b039788166001600160a01b0319918216179091559251600289018054919097169316929092179094559251600386015590516004909401805495511515600160401b0268ffffffffffffffffff19909616949092169390931793909317909255611436918561109d565b604080513081523360208201529081018390526001600160401b03821660608201526001608082015283907fa8e775566c0ae173350a756b638bacd57ce229287927d12812897a6791f851169060a00160405180910390a2505050565b816001600160a01b0316836001600160a01b0316036114f45760405162461bcd60e51b815260206004820152601960248201527f4552433732313a20617070726f766520746f2063616c6c6572000000000000006044820152606401610565565b6001600160a01b03838116600081815260056020908152604080832094871680845294825291829020805460ff191686151590811790915591519182527f17307eab39ab6107e8899845ad3d59bd9653f200f220920489ca2b5937696c31910160405180910390a3505050565b61156c84848461109d565b611578848484846116c3565b610b4c5760405162461bcd60e51b815260040161056590612145565b606061159f82610f6f565b60006115b660408051602081019091526000815290565b905060008151116115d65760405180602001604052806000815250611601565b806115e0846117c4565b6040516020016115f1929190611fc4565b6040516020818303038152906040525b9392505050565b6001811115610b4c576001600160a01b0384161561164e576001600160a01b03841660009081526003602052604081208054839290611648908490612197565b90915550505b6001600160a01b03831615610b4c576001600160a01b03831660009081526003602052604081208054839290611685908490611f82565b909155505050505050565b61169a8383611856565b6116a760008484846116c3565b6106065760405162461bcd60e51b815260040161056590612145565b60006001600160a01b0384163b156117b957604051630a85bd0160e11b81526001600160a01b0385169063150b7a02906117079033908990889088906004016121aa565b6020604051808303816000875af1925050508015611742575060408051601f3d908101601f1916820190925261173f918101906121e7565b60015b61179f573d808015611770576040519150601f19603f3d011682016040523d82523d6000602084013e611775565b606091505b5080516000036117975760405162461bcd60e51b815260040161056590612145565b805181602001fd5b6001600160e01b031916630a85bd0160e11b14905061095e565b506001949350505050565b606060006117d1836119ef565b60010190506000816001600160401b038111156117f0576117f0611ce9565b6040519080825280601f01601f19166020018201604052801561181a576020820181803683370190505b5090508181016020015b600019016f181899199a1a9b1b9c1cb0b131b232b360811b600a86061a8153600a850494508461182457509392505050565b6001600160a01b0382166118ac5760405162461bcd60e51b815260206004820181905260248201527f4552433732313a206d696e7420746f20746865207a65726f20616464726573736044820152606401610565565b6000818152600260205260409020546001600160a01b0316156119115760405162461bcd60e51b815260206004820152601c60248201527f4552433732313a20746f6b656e20616c7265616479206d696e746564000000006044820152606401610565565b61191f600083836001611608565b6000818152600260205260409020546001600160a01b0316156119845760405162461bcd60e51b815260206004820152601c60248201527f4552433732313a20746f6b656e20616c7265616479206d696e746564000000006044820152606401610565565b6001600160a01b038216600081815260036020908152604080832080546001019055848352600290915280822080546001600160a01b0319168417905551839291907fddf252ad1be2c89b69c2b068fc378daa952ba7f163c4a11628f55a4df523b3ef908290a45050565b60008072184f03e93ff9f4daa797ed6e38ed64bf6a1f0160401b8310611a2e5772184f03e93ff9f4daa797ed6e38ed64bf6a1f0160401b830492506040015b6d04ee2d6d415b85acef81000000008310611a5a576d04ee2d6d415b85acef8100000000830492506020015b662386f26fc100008310611a7857662386f26fc10000830492506010015b6305f5e1008310611a90576305f5e100830492506008015b6127108310611aa457612710830492506004015b60648310611ab6576064830492506002015b600a83106104325760010192915050565b6040805160c081018252600080825260208201819052918101829052606081018290526080810182905260a081019190915290565b6001600160e01b031981168114610fce57600080fd5b600060208284031215611b2457600080fd5b813561160181611afc565b60005b83811015611b4a578181015183820152602001611b32565b50506000910152565b60008151808452611b6b816020860160208601611b2f565b601f01601f19169290920160200192915050565b6020815260006116016020830184611b53565b600060208284031215611ba457600080fd5b5035919050565b80356001600160a01b0381168114611bc257600080fd5b919050565b60008060408385031215611bda57600080fd5b611be383611bab565b946020939093013593505050565b600080600060608486031215611c0657600080fd5b611c0f84611bab565b9250611c1d60208501611bab565b9150604084013590509250925092565b80518252602081015160018060a01b0380821660208501528060408401511660408501525050606081015160608301526001600160401b03608082015116608083015260a0810151151560a08301525050565b6020808252825182820181905260009190848201906040850190845b81811015611cc257611caf838551611c2d565b9284019260c09290920191600101611c9c565b50909695505050505050565b600060208284031215611ce057600080fd5b61160182611bab565b634e487b7160e01b600052604160045260246000fd5b60006001600160401b0380841115611d1957611d19611ce9565b604051601f8501601f19908116603f01168101908282118183101715611d4157611d41611ce9565b81604052809350858152868686011115611d5a57600080fd5b858560208301376000602087830101525050509392505050565b600080600060608486031215611d8957600080fd5b83356001600160401b0380821115611da057600080fd5b818601915086601f830112611db457600080fd5b611dc387833560208501611cff565b945060208601359350604086013591508082168214611de157600080fd5b50809150509250925092565b60c081016104328284611c2d565b60008060408385031215611e0e57600080fd5b611e1783611bab565b915060208301358015158114611e2c57600080fd5b809150509250929050565b60008060008060808587031215611e4d57600080fd5b611e5685611bab565b9350611e6460208601611bab565b92506040850135915060608501356001600160401b03811115611e8657600080fd5b8501601f81018713611e9757600080fd5b611ea687823560208401611cff565b91505092959194509250565b60008060408385031215611ec557600080fd5b611ece83611bab565b9150611edc60208401611bab565b90509250929050565b600181811c90821680611ef957607f821691505b602082108103611f1957634e487b7160e01b600052602260045260246000fd5b50919050565b6020808252602d908201527f4552433732313a2063616c6c6572206973206e6f7420746f6b656e206f776e6560408201526c1c881bdc88185c1c1c9bdd9959609a1b606082015260800190565b634e487b7160e01b600052601160045260246000fd5b8082018082111561043257610432611f6c565b600060018201611fa757611fa7611f6c565b5060010190565b634e487b7160e01b600052603260045260246000fd5b60008351611fd6818460208801611b2f565b835190830190611fea818360208801611b2f565b01949350505050565b60208082526025908201527f4552433732313a207472616e736665722066726f6d20696e636f72726563742060408201526437bbb732b960d91b606082015260800190565b601f82111561060657600081815260208120601f850160051c8101602086101561205f5750805b601f850160051c820191505b8181101561207e5782815560010161206b565b505050505050565b81516001600160401b0381111561209f5761209f611ce9565b6120b3816120ad8454611ee5565b84612038565b602080601f8311600181146120e857600084156120d05750858301515b600019600386901b1c1916600185901b17855561207e565b600085815260208120601f198616915b82811015612117578886015182559484019460019091019084016120f8565b50858210156121355787850151600019600388901b60f8161c191681555b5050505050600190811b01905550565b60208082526032908201527f4552433732313a207472616e7366657220746f206e6f6e20455243373231526560408201527131b2b4bb32b91034b6b83632b6b2b73a32b960711b606082015260800190565b8181038181111561043257610432611f6c565b6001600160a01b03858116825284166020820152604081018390526080606082018190526000906121dd90830184611b53565b9695505050505050565b6000602082840312156121f957600080fd5b815161160181611afc56fea2646970667358221220db5b71306bf1a85fa540d2c54d7a463f7967417fdb8311fcf6cefa0fc82d367d64736f6c63430008110033",
  "linkReferences": {},
  "deployedLinkReferences": {}
}