{
  "_format": "hh-sol-artifact-1",
  "contractName": "BasicNFT",
  "sourceName": "contracts/BasicNFT.sol",
  "abi": [
    {
      "inputs": [],
      "stateMutability": "nonpayable",
      "type": "constructor"
    },
    {
      "anonymous": false,
      "inputs": [
        {
          "indexed": true,
          "internalType": "address",
          "name": "owner",
          "type": "address"
        },
        {
          "indexed": true,
          "internalType": "address",
          "name": "approved",
          "type": "address"
        },
        {
          "indexed": true,
          "internalType": "uint256",
          "name": "tokenId",
          "type": "uint256"
        }
      ],
      "name": "Approval",
      "type": "event"
    },
    {
      "anonymous": false,
      "inputs": [
        {
          "indexed": true,
          "internalType": "address",
          "name": "owner",
          "type": "address"
        },
        {
          "indexed": true,
          "internalType": "address",
          "name": "operator",
          "type": "address"
        },
        {
          "indexed": false,
          "internalType": "bool",
          "name": "approved",
          "type": "bool"
        }
      ],
      "name": "ApprovalForAll",
      "type": "event"
    },
    {
      "anonymous": false,
      "inputs": [
        {
          "indexed": true,
          "internalType": "uint256",
          "name": "tokenId",
          "type": "uint256"
        }
      ],
      "name": "Minted",
      "type": "event"
    },
    {
      "anonymous": false,
      "inputs": [
        {
          "indexed": true,
          "internalType": "address",
          "name": "from",
          "type": "address"
        },
        {
          "indexed": true,
          "internalType": "address",
          "name": "to",
          "type": "address"
        },
        {
          "indexed": true,
          "internalType": "uint256",
          "name": "tokenId",
          "type": "uint256"
        }
      ],
      "name": "Transfer",
      "type": "event"
    },
    {
      "inputs": [],
      "name": "TOKEN_URI",
      "outputs": [
        {
          "internalType": "string",
          "name": "",
          "type": "string"
        }
      ],
      "stateMutability": "view",
      "type": "function"
    },
    {
      "inputs": [
        {
          "internalType": "address",
          "name": "to",
          "type": "address"
        },
        {
          "internalType": "uint256",
          "name": "tokenId",
          "type": "uint256"
        }
      ],
      "name": "approve",
      "outputs": [],
      "stateMutability": "nonpayable",
      "type": "function"
    },
    {
      "inputs": [
        {
          "internalType": "address",
          "name": "owner",
          "type": "address"
        }
      ],
      "name": "balanceOf",
      "outputs": [
        {
          "internalType": "uint256",
          "name": "",
          "type": "uint256"
        }
      ],
      "stateMutability": "view",
      "type": "function"
    },
    {
      "inputs": [
        {
          "internalType": "uint256",
          "name": "tokenId",
          "type": "uint256"
        }
      ],
      "name": "getApproved",
      "outputs": [
        {
          "internalType": "address",
          "name": "",
          "type": "address"
        }
      ],
      "stateMutability": "view",
      "type": "function"
    },
    {
      "inputs": [],
      "name": "getTokenCounter",
      "outputs": [
        {
          "internalType": "uint256",
          "name": "",
          "type": "uint256"
        }
      ],
      "stateMutability": "view",
      "type": "function"
    },
    {
      "inputs": [
        {
          "internalType": "address",
          "name": "owner",
          "type": "address"
        },
        {
          "internalType": "address",
          "name": "operator",
          "type": "address"
        }
      ],
      "name": "isApprovedForAll",
      "outputs": [
        {
          "internalType": "bool",
          "name": "",
          "type": "bool"
        }
      ],
      "stateMutability": "view",
      "type": "function"
    },
    {
      "inputs": [],
      "name": "mintNFT",
      "outputs": [],
      "stateMutability": "nonpayable",
      "type": "function"
    },
    {
      "inputs": [],
      "name": "name",
      "outputs": [
        {
          "internalType": "string",
          "name": "",
          "type": "string"
        }
      ],
      "stateMutability": "view",
      "type": "function"
    },
    {
      "inputs": [
        {
          "internalType": "uint256",
          "name": "tokenId",
          "type": "uint256"
        }
      ],
      "name": "ownerOf",
      "outputs": [
        {
          "internalType": "address",
          "name": "",
          "type": "address"
        }
      ],
      "stateMutability": "view",
      "type": "function"
    },
    {
      "inputs": [
        {
          "internalType": "address",
          "name": "from",
          "type": "address"
        },
        {
          "internalType": "address",
          "name": "to",
          "type": "address"
        },
        {
          "internalType": "uint256",
          "name": "tokenId",
          "type": "uint256"
        }
      ],
      "name": "safeTransferFrom",
      "outputs": [],
      "stateMutability": "nonpayable",
      "type": "function"
    },
    {
      "inputs": [
        {
          "internalType": "address",
          "name": "from",
          "type": "address"
        },
        {
          "internalType": "address",
          "name": "to",
          "type": "address"
        },
        {
          "internalType": "uint256",
          "name": "tokenId",
          "type": "uint256"
        },
        {
          "internalType": "bytes",
          "name": "data",
          "type": "bytes"
        }
      ],
      "name": "safeTransferFrom",
      "outputs": [],
      "stateMutability": "nonpayable",
      "type": "function"
    },
    {
      "inputs": [
        {
          "internalType": "address",
          "name": "operator",
          "type": "address"
        },
        {
          "internalType": "bool",
          "name": "approved",
          "type": "bool"
        }
      ],
      "name": "setApprovalForAll",
      "outputs": [],
      "stateMutability": "nonpayable",
      "type": "function"
    },
    {
      "inputs": [
        {
          "internalType": "bytes4",
          "name": "interfaceId",
          "type": "bytes4"
        }
      ],
      "name": "supportsInterface",
      "outputs": [
        {
          "internalType": "bool",
          "name": "",
          "type": "bool"
        }
      ],
      "stateMutability": "view",
      "type": "function"
    },
    {
      "inputs": [],
      "name": "symbol",
      "outputs": [
        {
          "internalType": "string",
          "name": "",
          "type": "string"
        }
      ],
      "stateMutability": "view",
      "type": "function"
    },
    {
      "inputs": [
        {
          "internalType": "uint256",
          "name": "tokenId",
          "type": "uint256"
        }
      ],
      "name": "tokenURI",
      "outputs": [
        {
          "internalType": "string",
          "name": "",
          "type": "string"
        }
      ],
      "stateMutability": "view",
      "type": "function"
    },
    {
      "inputs": [
        {
          "internalType": "address",
          "name": "from",
          "type": "address"
        },
        {
          "internalType": "address",
          "name": "to",
          "type": "address"
        },
        {
          "internalType": "uint256",
          "name": "tokenId",
          "type": "uint256"
        }
      ],
      "name": "transferFrom",
      "outputs": [],
      "stateMutability": "nonpayable",
      "type": "function"
    }
  ],
  "bytecode": "0x60806040523480156200001157600080fd5b50604051806040016040528060068152602001651b995dd3919560d21b8152506040518060400160405280600381526020016208ca8b60eb1b81525081600090816200005e919062000120565b5060016200006d828262000120565b5050600060065550620001ec565b634e487b7160e01b600052604160045260246000fd5b600181811c90821680620000a657607f821691505b602082108103620000c757634e487b7160e01b600052602260045260246000fd5b50919050565b601f8211156200011b57600081815260208120601f850160051c81016020861015620000f65750805b601f850160051c820191505b81811015620001175782815560010162000102565b5050505b505050565b81516001600160401b038111156200013c576200013c6200007b565b62000154816200014d845462000091565b84620000cd565b602080601f8311600181146200018c5760008415620001735750858301515b600019600386901b1c1916600185901b17855562000117565b600085815260208120601f198616915b82811015620001bd578886015182559484019460019091019084016200019c565b5085821015620001dc5787850151600019600388901b60f8161c191681555b5050505050600190811b01905550565b61124080620001fc6000396000f3fe608060405234801561001057600080fd5b50600436106101005760003560e01c80636e02007d11610097578063a22cb46511610066578063a22cb465146101f8578063b88d4fde1461020b578063c87b56dd1461021e578063e985e9c51461023157600080fd5b80636e02007d146101c357806370a08231146101d557806378ce9035146101e857806395d89b41146101f057600080fd5b806314f710fe116100d357806314f710fe1461018257806323b872dd1461018a57806342842e0e1461019d5780636352211e146101b057600080fd5b806301ffc9a71461010557806306fdde031461012d578063081812fc14610142578063095ea7b31461016d575b600080fd5b610118610113366004610da8565b610244565b60405190151581526020015b60405180910390f35b610135610296565b6040516101249190610e12565b610155610150366004610e25565b610328565b6040516001600160a01b039091168152602001610124565b61018061017b366004610e5a565b61034f565b005b610180610469565b610180610198366004610e84565b6104b4565b6101806101ab366004610e84565b6104e5565b6101556101be366004610e25565b610500565b6006545b604051908152602001610124565b6101c76101e3366004610ec0565b610560565b6101356105e6565b610135610602565b610180610206366004610edb565b610611565b610180610219366004610f2d565b610620565b61013561022c366004610e25565b610658565b61011861023f366004611009565b6106f7565b60006001600160e01b031982166380ac58cd60e01b148061027557506001600160e01b03198216635b5e139f60e01b145b8061029057506301ffc9a760e01b6001600160e01b03198316145b92915050565b6060600080546102a59061103c565b80601f01602080910402602001604051908101604052809291908181526020018280546102d19061103c565b801561031e5780601f106102f35761010080835404028352916020019161031e565b820191906000526020600020905b81548152906001019060200180831161030157829003601f168201915b5050505050905090565b600061033382610725565b506000908152600460205260409020546001600160a01b031690565b600061035a82610500565b9050806001600160a01b0316836001600160a01b0316036103cc5760405162461bcd60e51b815260206004820152602160248201527f4552433732313a20617070726f76616c20746f2063757272656e74206f776e656044820152603960f91b60648201526084015b60405180910390fd5b336001600160a01b03821614806103e857506103e881336106f7565b61045a5760405162461bcd60e51b815260206004820152603d60248201527f4552433732313a20617070726f76652063616c6c6572206973206e6f7420746f60448201527f6b656e206f776e6572206f7220617070726f76656420666f7220616c6c00000060648201526084016103c3565b6104648383610787565b505050565b610475336006546107f5565b6006546040517f176b02bb2d12439ff7a20b59f402cca16c76f50508b13ef3166a600eb719354a90600090a26006546104af906001611076565b600655565b6104be338261080f565b6104da5760405162461bcd60e51b81526004016103c390611097565b61046483838361086e565b61046483838360405180602001604052806000815250610620565b6000818152600260205260408120546001600160a01b0316806102905760405162461bcd60e51b8152602060048201526018602482015277115490cdcc8c4e881a5b9d985b1a59081d1bdad95b88125160421b60448201526064016103c3565b60006001600160a01b0382166105ca5760405162461bcd60e51b815260206004820152602960248201527f4552433732313a2061646472657373207a65726f206973206e6f7420612076616044820152683634b21037bbb732b960b91b60648201526084016103c3565b506001600160a01b031660009081526003602052604090205490565b6040518060600160405280603581526020016111d66035913981565b6060600180546102a59061103c565b61061c3383836109d2565b5050565b61062a338361080f565b6106465760405162461bcd60e51b81526004016103c390611097565b61065284848484610aa0565b50505050565b6000818152600260205260409020546060906001600160a01b03166106d85760405162461bcd60e51b815260206004820152603060248201527f4552433732314d657461646174613a2055524920717565727920666f72206e6f60448201526f3716b2bc34b9ba32b73a103a37b5b2b760811b60648201526084016103c3565b6040518060600160405280603581526020016111d66035913992915050565b6001600160a01b03918216600090815260056020908152604080832093909416825291909152205460ff1690565b6000818152600260205260409020546001600160a01b03166107845760405162461bcd60e51b8152602060048201526018602482015277115490cdcc8c4e881a5b9d985b1a59081d1bdad95b88125160421b60448201526064016103c3565b50565b600081815260046020526040902080546001600160a01b0319166001600160a01b03841690811790915581906107bc82610500565b6001600160a01b03167f8c5be1e5ebec7d5bd14f71427d1e84f3dd0314c0f7b2291e5b200ac8c7c3b92560405160405180910390a45050565b61061c828260405180602001604052806000815250610ad3565b60008061081b83610500565b9050806001600160a01b0316846001600160a01b03161480610842575061084281856106f7565b806108665750836001600160a01b031661085b84610328565b6001600160a01b0316145b949350505050565b826001600160a01b031661088182610500565b6001600160a01b0316146108a75760405162461bcd60e51b81526004016103c3906110e4565b6001600160a01b0382166109095760405162461bcd60e51b8152602060048201526024808201527f4552433732313a207472616e7366657220746f20746865207a65726f206164646044820152637265737360e01b60648201526084016103c3565b826001600160a01b031661091c82610500565b6001600160a01b0316146109425760405162461bcd60e51b81526004016103c3906110e4565b600081815260046020908152604080832080546001600160a01b03199081169091556001600160a01b0387811680865260038552838620805460001901905590871680865283862080546001019055868652600290945282852080549092168417909155905184937fddf252ad1be2c89b69c2b068fc378daa952ba7f163c4a11628f55a4df523b3ef91a4505050565b816001600160a01b0316836001600160a01b031603610a335760405162461bcd60e51b815260206004820152601960248201527f4552433732313a20617070726f766520746f2063616c6c65720000000000000060448201526064016103c3565b6001600160a01b03838116600081815260056020908152604080832094871680845294825291829020805460ff191686151590811790915591519182527f17307eab39ab6107e8899845ad3d59bd9653f200f220920489ca2b5937696c31910160405180910390a3505050565b610aab84848461086e565b610ab784848484610b06565b6106525760405162461bcd60e51b81526004016103c390611129565b610add8383610c07565b610aea6000848484610b06565b6104645760405162461bcd60e51b81526004016103c390611129565b60006001600160a01b0384163b15610bfc57604051630a85bd0160e11b81526001600160a01b0385169063150b7a0290610b4a90339089908890889060040161117b565b6020604051808303816000875af1925050508015610b85575060408051601f3d908101601f19168201909252610b82918101906111b8565b60015b610be2573d808015610bb3576040519150601f19603f3d011682016040523d82523d6000602084013e610bb8565b606091505b508051600003610bda5760405162461bcd60e51b81526004016103c390611129565b805181602001fd5b6001600160e01b031916630a85bd0160e11b149050610866565b506001949350505050565b6001600160a01b038216610c5d5760405162461bcd60e51b815260206004820181905260248201527f4552433732313a206d696e7420746f20746865207a65726f206164647265737360448201526064016103c3565b6000818152600260205260409020546001600160a01b031615610cc25760405162461bcd60e51b815260206004820152601c60248201527f4552433732313a20746f6b656e20616c7265616479206d696e7465640000000060448201526064016103c3565b6000818152600260205260409020546001600160a01b031615610d275760405162461bcd60e51b815260206004820152601c60248201527f4552433732313a20746f6b656e20616c7265616479206d696e7465640000000060448201526064016103c3565b6001600160a01b038216600081815260036020908152604080832080546001019055848352600290915280822080546001600160a01b0319168417905551839291907fddf252ad1be2c89b69c2b068fc378daa952ba7f163c4a11628f55a4df523b3ef908290a45050565b6001600160e01b03198116811461078457600080fd5b600060208284031215610dba57600080fd5b8135610dc581610d92565b9392505050565b6000815180845260005b81811015610df257602081850181015186830182015201610dd6565b506000602082860101526020601f19601f83011685010191505092915050565b602081526000610dc56020830184610dcc565b600060208284031215610e3757600080fd5b5035919050565b80356001600160a01b0381168114610e5557600080fd5b919050565b60008060408385031215610e6d57600080fd5b610e7683610e3e565b946020939093013593505050565b600080600060608486031215610e9957600080fd5b610ea284610e3e565b9250610eb060208501610e3e565b9150604084013590509250925092565b600060208284031215610ed257600080fd5b610dc582610e3e565b60008060408385031215610eee57600080fd5b610ef783610e3e565b915060208301358015158114610f0c57600080fd5b809150509250929050565b634e487b7160e01b600052604160045260246000fd5b60008060008060808587031215610f4357600080fd5b610f4c85610e3e565b9350610f5a60208601610e3e565b925060408501359150606085013567ffffffffffffffff80821115610f7e57600080fd5b818701915087601f830112610f9257600080fd5b813581811115610fa457610fa4610f17565b604051601f8201601f19908116603f01168101908382118183101715610fcc57610fcc610f17565b816040528281528a6020848701011115610fe557600080fd5b82602086016020830137600060208483010152809550505050505092959194509250565b6000806040838503121561101c57600080fd5b61102583610e3e565b915061103360208401610e3e565b90509250929050565b600181811c9082168061105057607f821691505b60208210810361107057634e487b7160e01b600052602260045260246000fd5b50919050565b8082018082111561029057634e487b7160e01b600052601160045260246000fd5b6020808252602d908201527f4552433732313a2063616c6c6572206973206e6f7420746f6b656e206f776e6560408201526c1c881bdc88185c1c1c9bdd9959609a1b606082015260800190565b60208082526025908201527f4552433732313a207472616e736665722066726f6d20696e636f72726563742060408201526437bbb732b960d91b606082015260800190565b60208082526032908201527f4552433732313a207472616e7366657220746f206e6f6e20455243373231526560408201527131b2b4bb32b91034b6b83632b6b2b73a32b960711b606082015260800190565b6001600160a01b03858116825284166020820152604081018390526080606082018190526000906111ae90830184610dcc565b9695505050505050565b6000602082840312156111ca57600080fd5b8151610dc581610d9256fe697066733a2f2f516d5367436d51566e6f714c437845676a43756f31374d4665506378644855544c6a544b32424257416568416855a2646970667358221220e0ccaeee97147751b6d169881867108e385a68ede9d914f1eeaf315e9ddf962864736f6c63430008110033",
  "linkReferences": {},
  "deployedLinkReferences": {}
}