{
  "_format": "hh-sol-artifact-1",
  "contractName": "BasicNFT",
  "sourceName": "contracts/BasicNFT.sol",
  "abi": [
    {
      "inputs": [],
      "stateMutability": "nonpayable",
      "type": "constructor"
    },
    {
      "anonymous": false,
      "inputs": [
        {
          "indexed": true,
          "internalType": "address",
          "name": "owner",
          "type": "address"
        },
        {
          "indexed": true,
          "internalType": "address",
          "name": "approved",
          "type": "address"
        },
        {
          "indexed": true,
          "internalType": "uint256",
          "name": "tokenId",
          "type": "uint256"
        }
      ],
      "name": "Approval",
      "type": "event"
    },
    {
      "anonymous": false,
      "inputs": [
        {
          "indexed": true,
          "internalType": "address",
          "name": "owner",
          "type": "address"
        },
        {
          "indexed": true,
          "internalType": "address",
          "name": "operator",
          "type": "address"
        },
        {
          "indexed": false,
          "internalType": "bool",
          "name": "approved",
          "type": "bool"
        }
      ],
      "name": "ApprovalForAll",
      "type": "event"
    },
    {
      "anonymous": false,
      "inputs": [
        {
          "indexed": true,
          "internalType": "uint256",
          "name": "tokenId",
          "type": "uint256"
        }
      ],
      "name": "Minted",
      "type": "event"
    },
    {
      "anonymous": false,
      "inputs": [
        {
          "indexed": true,
          "internalType": "address",
          "name": "from",
          "type": "address"
        },
        {
          "indexed": true,
          "internalType": "address",
          "name": "to",
          "type": "address"
        },
        {
          "indexed": true,
          "internalType": "uint256",
          "name": "tokenId",
          "type": "uint256"
        }
      ],
      "name": "Transfer",
      "type": "event"
    },
    {
      "inputs": [],
      "name": "TOKEN_URI",
      "outputs": [
        {
          "internalType": "string",
          "name": "",
          "type": "string"
        }
      ],
      "stateMutability": "view",
      "type": "function"
    },
    {
      "inputs": [
        {
          "internalType": "address",
          "name": "to",
          "type": "address"
        },
        {
          "internalType": "uint256",
          "name": "tokenId",
          "type": "uint256"
        }
      ],
      "name": "approve",
      "outputs": [],
      "stateMutability": "nonpayable",
      "type": "function"
    },
    {
      "inputs": [
        {
          "internalType": "address",
          "name": "owner",
          "type": "address"
        }
      ],
      "name": "balanceOf",
      "outputs": [
        {
          "internalType": "uint256",
          "name": "",
          "type": "uint256"
        }
      ],
      "stateMutability": "view",
      "type": "function"
    },
    {
      "inputs": [
        {
          "internalType": "uint256",
          "name": "tokenId",
          "type": "uint256"
        }
      ],
      "name": "getApproved",
      "outputs": [
        {
          "internalType": "address",
          "name": "",
          "type": "address"
        }
      ],
      "stateMutability": "view",
      "type": "function"
    },
    {
      "inputs": [],
      "name": "getTokenCounter",
      "outputs": [
        {
          "internalType": "uint256",
          "name": "",
          "type": "uint256"
        }
      ],
      "stateMutability": "view",
      "type": "function"
    },
    {
      "inputs": [
        {
          "internalType": "address",
          "name": "owner",
          "type": "address"
        },
        {
          "internalType": "address",
          "name": "operator",
          "type": "address"
        }
      ],
      "name": "isApprovedForAll",
      "outputs": [
        {
          "internalType": "bool",
          "name": "",
          "type": "bool"
        }
      ],
      "stateMutability": "view",
      "type": "function"
    },
    {
      "inputs": [],
      "name": "mintNFT",
      "outputs": [],
      "stateMutability": "nonpayable",
      "type": "function"
    },
    {
      "inputs": [],
      "name": "name",
      "outputs": [
        {
          "internalType": "string",
          "name": "",
          "type": "string"
        }
      ],
      "stateMutability": "view",
      "type": "function"
    },
    {
      "inputs": [
        {
          "internalType": "uint256",
          "name": "tokenId",
          "type": "uint256"
        }
      ],
      "name": "ownerOf",
      "outputs": [
        {
          "internalType": "address",
          "name": "",
          "type": "address"
        }
      ],
      "stateMutability": "view",
      "type": "function"
    },
    {
      "inputs": [
        {
          "internalType": "address",
          "name": "from",
          "type": "address"
        },
        {
          "internalType": "address",
          "name": "to",
          "type": "address"
        },
        {
          "internalType": "uint256",
          "name": "tokenId",
          "type": "uint256"
        }
      ],
      "name": "safeTransferFrom",
      "outputs": [],
      "stateMutability": "nonpayable",
      "type": "function"
    },
    {
      "inputs": [
        {
          "internalType": "address",
          "name": "from",
          "type": "address"
        },
        {
          "internalType": "address",
          "name": "to",
          "type": "address"
        },
        {
          "internalType": "uint256",
          "name": "tokenId",
          "type": "uint256"
        },
        {
          "internalType": "bytes",
          "name": "data",
          "type": "bytes"
        }
      ],
      "name": "safeTransferFrom",
      "outputs": [],
      "stateMutability": "nonpayable",
      "type": "function"
    },
    {
      "inputs": [
        {
          "internalType": "address",
          "name": "operator",
          "type": "address"
        },
        {
          "internalType": "bool",
          "name": "approved",
          "type": "bool"
        }
      ],
      "name": "setApprovalForAll",
      "outputs": [],
      "stateMutability": "nonpayable",
      "type": "function"
    },
    {
      "inputs": [
        {
          "internalType": "bytes4",
          "name": "interfaceId",
          "type": "bytes4"
        }
      ],
      "name": "supportsInterface",
      "outputs": [
        {
          "internalType": "bool",
          "name": "",
          "type": "bool"
        }
      ],
      "stateMutability": "view",
      "type": "function"
    },
    {
      "inputs": [],
      "name": "symbol",
      "outputs": [
        {
          "internalType": "string",
          "name": "",
          "type": "string"
        }
      ],
      "stateMutability": "view",
      "type": "function"
    },
    {
      "inputs": [
        {
          "internalType": "uint256",
          "name": "tokenId",
          "type": "uint256"
        }
      ],
      "name": "tokenURI",
      "outputs": [
        {
          "internalType": "string",
          "name": "",
          "type": "string"
        }
      ],
      "stateMutability": "view",
      "type": "function"
    },
    {
      "inputs": [
        {
          "internalType": "address",
          "name": "from",
          "type": "address"
        },
        {
          "internalType": "address",
          "name": "to",
          "type": "address"
        },
        {
          "internalType": "uint256",
          "name": "tokenId",
          "type": "uint256"
        }
      ],
      "name": "transferFrom",
      "outputs": [],
      "stateMutability": "nonpayable",
      "type": "function"
    }
  ],
  "bytecode": "0x60806040523480156200001157600080fd5b50604051806040016040528060068152602001651b995dd3919560d21b8152506040518060400160405280600381526020016208ca8b60eb1b81525081600090816200005e91906200011b565b5060016200006d82826200011b565b505050620001e7565b634e487b7160e01b600052604160045260246000fd5b600181811c90821680620000a157607f821691505b602082108103620000c257634e487b7160e01b600052602260045260246000fd5b50919050565b601f8211156200011657600081815260208120601f850160051c81016020861015620000f15750805b601f850160051c820191505b818110156200011257828155600101620000fd565b5050505b505050565b81516001600160401b0381111562000137576200013762000076565b6200014f816200014884546200008c565b84620000c8565b602080601f8311600181146200018757600084156200016e5750858301515b600019600386901b1c1916600185901b17855562000112565b600085815260208120601f198616915b82811015620001b85788860151825594840194600190910190840162000197565b5085821015620001d75787850151600019600388901b60f8161c191681555b5050505050600190811b01905550565b61125680620001f76000396000f3fe608060405234801561001057600080fd5b50600436106101005760003560e01c80636e02007d11610097578063a22cb46511610066578063a22cb465146101fc578063b88d4fde1461020f578063c87b56dd14610222578063e985e9c51461023557600080fd5b80636e02007d146101c357806370a08231146101d957806378ce9035146101ec57806395d89b41146101f457600080fd5b806314f710fe116100d357806314f710fe1461018257806323b872dd1461018a57806342842e0e1461019d5780636352211e146101b057600080fd5b806301ffc9a71461010557806306fdde031461012d578063081812fc14610142578063095ea7b31461016d575b600080fd5b610118610113366004610ddf565b610271565b60405190151581526020015b60405180910390f35b6101356102c3565b6040516101249190610e49565b610155610150366004610e5c565b610355565b6040516001600160a01b039091168152602001610124565b61018061017b366004610e91565b61037c565b005b610180610496565b610180610198366004610ebb565b6104e9565b6101806101ab366004610ebb565b61051a565b6101556101be366004610e5c565b610535565b6101cb610595565b604051908152602001610124565b6101cb6101e7366004610ef7565b6105a5565b61013561062b565b610135610647565b61018061020a366004610f12565b610656565b61018061021d366004610f64565b610665565b610135610230366004610e5c565b61069d565b610118610243366004611040565b6001600160a01b03918216600090815260056020908152604080832093909416825291909152205460ff1690565b60006001600160e01b031982166380ac58cd60e01b14806102a257506001600160e01b03198216635b5e139f60e01b145b806102bd57506301ffc9a760e01b6001600160e01b03198316145b92915050565b6060600080546102d290611073565b80601f01602080910402602001604051908101604052809291908181526020018280546102fe90611073565b801561034b5780601f106103205761010080835404028352916020019161034b565b820191906000526020600020905b81548152906001019060200180831161032e57829003601f168201915b5050505050905090565b60006103608261073c565b506000908152600460205260409020546001600160a01b031690565b600061038782610535565b9050806001600160a01b0316836001600160a01b0316036103f95760405162461bcd60e51b815260206004820152602160248201527f4552433732313a20617070726f76616c20746f2063757272656e74206f776e656044820152603960f91b60648201526084015b60405180910390fd5b336001600160a01b038216148061041557506104158133610243565b6104875760405162461bcd60e51b815260206004820152603d60248201527f4552433732313a20617070726f76652063616c6c6572206973206e6f7420746f60448201527f6b656e206f776e6572206f7220617070726f76656420666f7220616c6c00000060648201526084016103f0565b610491838361079e565b505050565b6104a4600680546001019055565b60006104af60065490565b90506104bb338261080c565b60405181907f176b02bb2d12439ff7a20b59f402cca16c76f50508b13ef3166a600eb719354a90600090a250565b6104f33382610826565b61050f5760405162461bcd60e51b81526004016103f0906110ad565b6104918383836108a5565b61049183838360405180602001604052806000815250610665565b6000818152600260205260408120546001600160a01b0316806102bd5760405162461bcd60e51b8152602060048201526018602482015277115490cdcc8c4e881a5b9d985b1a59081d1bdad95b88125160421b60448201526064016103f0565b60006105a060065490565b905090565b60006001600160a01b03821661060f5760405162461bcd60e51b815260206004820152602960248201527f4552433732313a2061646472657373207a65726f206973206e6f7420612076616044820152683634b21037bbb732b960b91b60648201526084016103f0565b506001600160a01b031660009081526003602052604090205490565b6040518060600160405280603581526020016111ec6035913981565b6060600180546102d290611073565b610661338383610a09565b5050565b61066f3383610826565b61068b5760405162461bcd60e51b81526004016103f0906110ad565b61069784848484610ad7565b50505050565b6000818152600260205260409020546060906001600160a01b031661071d5760405162461bcd60e51b815260206004820152603060248201527f4552433732314d657461646174613a2055524920717565727920666f72206e6f60448201526f3716b2bc34b9ba32b73a103a37b5b2b760811b60648201526084016103f0565b6040518060600160405280603581526020016111ec6035913992915050565b6000818152600260205260409020546001600160a01b031661079b5760405162461bcd60e51b8152602060048201526018602482015277115490cdcc8c4e881a5b9d985b1a59081d1bdad95b88125160421b60448201526064016103f0565b50565b600081815260046020526040902080546001600160a01b0319166001600160a01b03841690811790915581906107d382610535565b6001600160a01b03167f8c5be1e5ebec7d5bd14f71427d1e84f3dd0314c0f7b2291e5b200ac8c7c3b92560405160405180910390a45050565b610661828260405180602001604052806000815250610b0a565b60008061083283610535565b9050806001600160a01b0316846001600160a01b0316148061087957506001600160a01b0380821660009081526005602090815260408083209388168352929052205460ff165b8061089d5750836001600160a01b031661089284610355565b6001600160a01b0316145b949350505050565b826001600160a01b03166108b882610535565b6001600160a01b0316146108de5760405162461bcd60e51b81526004016103f0906110fa565b6001600160a01b0382166109405760405162461bcd60e51b8152602060048201526024808201527f4552433732313a207472616e7366657220746f20746865207a65726f206164646044820152637265737360e01b60648201526084016103f0565b826001600160a01b031661095382610535565b6001600160a01b0316146109795760405162461bcd60e51b81526004016103f0906110fa565b600081815260046020908152604080832080546001600160a01b03199081169091556001600160a01b0387811680865260038552838620805460001901905590871680865283862080546001019055868652600290945282852080549092168417909155905184937fddf252ad1be2c89b69c2b068fc378daa952ba7f163c4a11628f55a4df523b3ef91a4505050565b816001600160a01b0316836001600160a01b031603610a6a5760405162461bcd60e51b815260206004820152601960248201527f4552433732313a20617070726f766520746f2063616c6c65720000000000000060448201526064016103f0565b6001600160a01b03838116600081815260056020908152604080832094871680845294825291829020805460ff191686151590811790915591519182527f17307eab39ab6107e8899845ad3d59bd9653f200f220920489ca2b5937696c31910160405180910390a3505050565b610ae28484846108a5565b610aee84848484610b3d565b6106975760405162461bcd60e51b81526004016103f09061113f565b610b148383610c3e565b610b216000848484610b3d565b6104915760405162461bcd60e51b81526004016103f09061113f565b60006001600160a01b0384163b15610c3357604051630a85bd0160e11b81526001600160a01b0385169063150b7a0290610b81903390899088908890600401611191565b6020604051808303816000875af1925050508015610bbc575060408051601f3d908101601f19168201909252610bb9918101906111ce565b60015b610c19573d808015610bea576040519150601f19603f3d011682016040523d82523d6000602084013e610bef565b606091505b508051600003610c115760405162461bcd60e51b81526004016103f09061113f565b805181602001fd5b6001600160e01b031916630a85bd0160e11b14905061089d565b506001949350505050565b6001600160a01b038216610c945760405162461bcd60e51b815260206004820181905260248201527f4552433732313a206d696e7420746f20746865207a65726f206164647265737360448201526064016103f0565b6000818152600260205260409020546001600160a01b031615610cf95760405162461bcd60e51b815260206004820152601c60248201527f4552433732313a20746f6b656e20616c7265616479206d696e7465640000000060448201526064016103f0565b6000818152600260205260409020546001600160a01b031615610d5e5760405162461bcd60e51b815260206004820152601c60248201527f4552433732313a20746f6b656e20616c7265616479206d696e7465640000000060448201526064016103f0565b6001600160a01b038216600081815260036020908152604080832080546001019055848352600290915280822080546001600160a01b0319168417905551839291907fddf252ad1be2c89b69c2b068fc378daa952ba7f163c4a11628f55a4df523b3ef908290a45050565b6001600160e01b03198116811461079b57600080fd5b600060208284031215610df157600080fd5b8135610dfc81610dc9565b9392505050565b6000815180845260005b81811015610e2957602081850181015186830182015201610e0d565b506000602082860101526020601f19601f83011685010191505092915050565b602081526000610dfc6020830184610e03565b600060208284031215610e6e57600080fd5b5035919050565b80356001600160a01b0381168114610e8c57600080fd5b919050565b60008060408385031215610ea457600080fd5b610ead83610e75565b946020939093013593505050565b600080600060608486031215610ed057600080fd5b610ed984610e75565b9250610ee760208501610e75565b9150604084013590509250925092565b600060208284031215610f0957600080fd5b610dfc82610e75565b60008060408385031215610f2557600080fd5b610f2e83610e75565b915060208301358015158114610f4357600080fd5b809150509250929050565b634e487b7160e01b600052604160045260246000fd5b60008060008060808587031215610f7a57600080fd5b610f8385610e75565b9350610f9160208601610e75565b925060408501359150606085013567ffffffffffffffff80821115610fb557600080fd5b818701915087601f830112610fc957600080fd5b813581811115610fdb57610fdb610f4e565b604051601f8201601f19908116603f0116810190838211818310171561100357611003610f4e565b816040528281528a602084870101111561101c57600080fd5b82602086016020830137600060208483010152809550505050505092959194509250565b6000806040838503121561105357600080fd5b61105c83610e75565b915061106a60208401610e75565b90509250929050565b600181811c9082168061108757607f821691505b6020821081036110a757634e487b7160e01b600052602260045260246000fd5b50919050565b6020808252602d908201527f4552433732313a2063616c6c6572206973206e6f7420746f6b656e206f776e6560408201526c1c881bdc88185c1c1c9bdd9959609a1b606082015260800190565b60208082526025908201527f4552433732313a207472616e736665722066726f6d20696e636f72726563742060408201526437bbb732b960d91b606082015260800190565b60208082526032908201527f4552433732313a207472616e7366657220746f206e6f6e20455243373231526560408201527131b2b4bb32b91034b6b83632b6b2b73a32b960711b606082015260800190565b6001600160a01b03858116825284166020820152604081018390526080606082018190526000906111c490830184610e03565b9695505050505050565b6000602082840312156111e057600080fd5b8151610dfc81610dc956fe697066733a2f2f516d5367436d51566e6f714c437845676a43756f31374d4665506378644855544c6a544b32424257416568416855a2646970667358221220c8c4606d0f0a51682c011e4cf01895575d688fad934e57b84566c0d0350f828664736f6c63430008110033",
  "linkReferences": {},
  "deployedLinkReferences": {}
}