{
  "_format": "hh-sol-artifact-1",
  "contractName": "ERC4907Wrapper",
  "sourceName": "contracts/ERC4907/ERC4907Wrapper.sol",
  "abi": [
    {
      "inputs": [
        {
          "internalType": "address",
          "name": "wrapOwner",
          "type": "address"
        },
        {
          "internalType": "string",
          "name": "_name",
          "type": "string"
        },
        {
          "internalType": "string",
          "name": "_symbol",
          "type": "string"
        }
      ],
      "stateMutability": "nonpayable",
      "type": "constructor"
    },
    {
      "anonymous": false,
      "inputs": [
        {
          "indexed": true,
          "internalType": "address",
          "name": "owner",
          "type": "address"
        },
        {
          "indexed": true,
          "internalType": "address",
          "name": "approved",
          "type": "address"
        },
        {
          "indexed": true,
          "internalType": "uint256",
          "name": "tokenId",
          "type": "uint256"
        }
      ],
      "name": "Approval",
      "type": "event"
    },
    {
      "anonymous": false,
      "inputs": [
        {
          "indexed": true,
          "internalType": "address",
          "name": "owner",
          "type": "address"
        },
        {
          "indexed": true,
          "internalType": "address",
          "name": "operator",
          "type": "address"
        },
        {
          "indexed": false,
          "internalType": "bool",
          "name": "approved",
          "type": "bool"
        }
      ],
      "name": "ApprovalForAll",
      "type": "event"
    },
    {
      "anonymous": false,
      "inputs": [
        {
          "indexed": false,
          "internalType": "address",
          "name": "nftAddress",
          "type": "address"
        },
        {
          "indexed": false,
          "internalType": "uint256",
          "name": "tokenId",
          "type": "uint256"
        }
      ],
      "name": "TokenUnWrapped",
      "type": "event"
    },
    {
      "anonymous": false,
      "inputs": [
        {
          "indexed": false,
          "internalType": "address",
          "name": "nftAddress",
          "type": "address"
        },
        {
          "indexed": false,
          "internalType": "uint256",
          "name": "tokenId",
          "type": "uint256"
        }
      ],
      "name": "TokenWrapped",
      "type": "event"
    },
    {
      "anonymous": false,
      "inputs": [
        {
          "indexed": true,
          "internalType": "address",
          "name": "from",
          "type": "address"
        },
        {
          "indexed": true,
          "internalType": "address",
          "name": "to",
          "type": "address"
        },
        {
          "indexed": true,
          "internalType": "uint256",
          "name": "tokenId",
          "type": "uint256"
        }
      ],
      "name": "Transfer",
      "type": "event"
    },
    {
      "anonymous": false,
      "inputs": [
        {
          "indexed": true,
          "internalType": "uint256",
          "name": "tokenId",
          "type": "uint256"
        },
        {
          "indexed": true,
          "internalType": "address",
          "name": "user",
          "type": "address"
        },
        {
          "indexed": false,
          "internalType": "uint64",
          "name": "expires",
          "type": "uint64"
        }
      ],
      "name": "UpdateUser",
      "type": "event"
    },
    {
      "inputs": [],
      "name": "InterfaceIERC4907",
      "outputs": [
        {
          "internalType": "bytes4",
          "name": "",
          "type": "bytes4"
        }
      ],
      "stateMutability": "view",
      "type": "function"
    },
    {
      "inputs": [
        {
          "internalType": "address",
          "name": "to",
          "type": "address"
        },
        {
          "internalType": "uint256",
          "name": "tokenId",
          "type": "uint256"
        }
      ],
      "name": "approve",
      "outputs": [],
      "stateMutability": "nonpayable",
      "type": "function"
    },
    {
      "inputs": [
        {
          "internalType": "address",
          "name": "owner",
          "type": "address"
        }
      ],
      "name": "balanceOf",
      "outputs": [
        {
          "internalType": "uint256",
          "name": "",
          "type": "uint256"
        }
      ],
      "stateMutability": "view",
      "type": "function"
    },
    {
      "inputs": [],
      "name": "getAddress",
      "outputs": [
        {
          "internalType": "address",
          "name": "",
          "type": "address"
        }
      ],
      "stateMutability": "view",
      "type": "function"
    },
    {
      "inputs": [
        {
          "internalType": "uint256",
          "name": "tokenId",
          "type": "uint256"
        }
      ],
      "name": "getApproved",
      "outputs": [
        {
          "internalType": "address",
          "name": "",
          "type": "address"
        }
      ],
      "stateMutability": "view",
      "type": "function"
    },
    {
      "inputs": [
        {
          "internalType": "address",
          "name": "_nftAddress",
          "type": "address"
        },
        {
          "internalType": "uint256",
          "name": "_tokenId",
          "type": "uint256"
        }
      ],
      "name": "getOwner",
      "outputs": [
        {
          "internalType": "address",
          "name": "",
          "type": "address"
        }
      ],
      "stateMutability": "view",
      "type": "function"
    },
    {
      "inputs": [
        {
          "internalType": "uint256",
          "name": "wrapperID",
          "type": "uint256"
        }
      ],
      "name": "getTokenID",
      "outputs": [
        {
          "internalType": "uint256",
          "name": "",
          "type": "uint256"
        }
      ],
      "stateMutability": "view",
      "type": "function"
    },
    {
      "inputs": [
        {
          "internalType": "address",
          "name": "owner",
          "type": "address"
        },
        {
          "internalType": "address",
          "name": "operator",
          "type": "address"
        }
      ],
      "name": "isApprovedForAll",
      "outputs": [
        {
          "internalType": "bool",
          "name": "",
          "type": "bool"
        }
      ],
      "stateMutability": "view",
      "type": "function"
    },
    {
      "inputs": [],
      "name": "name",
      "outputs": [
        {
          "internalType": "string",
          "name": "",
          "type": "string"
        }
      ],
      "stateMutability": "view",
      "type": "function"
    },
    {
      "inputs": [
        {
          "internalType": "address",
          "name": "operator",
          "type": "address"
        },
        {
          "internalType": "address",
          "name": "from",
          "type": "address"
        },
        {
          "internalType": "uint256",
          "name": "tokenId",
          "type": "uint256"
        },
        {
          "internalType": "bytes",
          "name": "data",
          "type": "bytes"
        }
      ],
      "name": "onERC721Received",
      "outputs": [
        {
          "internalType": "bytes4",
          "name": "",
          "type": "bytes4"
        }
      ],
      "stateMutability": "nonpayable",
      "type": "function"
    },
    {
      "inputs": [
        {
          "internalType": "uint256",
          "name": "tokenId",
          "type": "uint256"
        }
      ],
      "name": "ownerOf",
      "outputs": [
        {
          "internalType": "address",
          "name": "",
          "type": "address"
        }
      ],
      "stateMutability": "view",
      "type": "function"
    },
    {
      "inputs": [
        {
          "internalType": "address",
          "name": "from",
          "type": "address"
        },
        {
          "internalType": "address",
          "name": "to",
          "type": "address"
        },
        {
          "internalType": "uint256",
          "name": "tokenId",
          "type": "uint256"
        }
      ],
      "name": "safeTransferFrom",
      "outputs": [],
      "stateMutability": "nonpayable",
      "type": "function"
    },
    {
      "inputs": [
        {
          "internalType": "address",
          "name": "from",
          "type": "address"
        },
        {
          "internalType": "address",
          "name": "to",
          "type": "address"
        },
        {
          "internalType": "uint256",
          "name": "tokenId",
          "type": "uint256"
        },
        {
          "internalType": "bytes",
          "name": "data",
          "type": "bytes"
        }
      ],
      "name": "safeTransferFrom",
      "outputs": [],
      "stateMutability": "nonpayable",
      "type": "function"
    },
    {
      "inputs": [
        {
          "internalType": "address",
          "name": "operator",
          "type": "address"
        },
        {
          "internalType": "bool",
          "name": "approved",
          "type": "bool"
        }
      ],
      "name": "setApprovalForAll",
      "outputs": [],
      "stateMutability": "nonpayable",
      "type": "function"
    },
    {
      "inputs": [
        {
          "internalType": "uint256",
          "name": "tokenId",
          "type": "uint256"
        },
        {
          "internalType": "address",
          "name": "user",
          "type": "address"
        },
        {
          "internalType": "uint64",
          "name": "expires",
          "type": "uint64"
        }
      ],
      "name": "setUser",
      "outputs": [],
      "stateMutability": "nonpayable",
      "type": "function"
    },
    {
      "inputs": [
        {
          "internalType": "bytes4",
          "name": "interfaceId",
          "type": "bytes4"
        }
      ],
      "name": "supportsInterface",
      "outputs": [
        {
          "internalType": "bool",
          "name": "",
          "type": "bool"
        }
      ],
      "stateMutability": "view",
      "type": "function"
    },
    {
      "inputs": [],
      "name": "symbol",
      "outputs": [
        {
          "internalType": "string",
          "name": "",
          "type": "string"
        }
      ],
      "stateMutability": "view",
      "type": "function"
    },
    {
      "inputs": [
        {
          "internalType": "address",
          "name": "owner",
          "type": "address"
        },
        {
          "internalType": "uint256",
          "name": "index",
          "type": "uint256"
        }
      ],
      "name": "tokenOfOwnerByIndex",
      "outputs": [
        {
          "internalType": "uint256",
          "name": "",
          "type": "uint256"
        }
      ],
      "stateMutability": "view",
      "type": "function"
    },
    {
      "inputs": [
        {
          "internalType": "uint256",
          "name": "tokenId",
          "type": "uint256"
        }
      ],
      "name": "tokenURI",
      "outputs": [
        {
          "internalType": "string",
          "name": "",
          "type": "string"
        }
      ],
      "stateMutability": "view",
      "type": "function"
    },
    {
      "inputs": [
        {
          "internalType": "address",
          "name": "from",
          "type": "address"
        },
        {
          "internalType": "address",
          "name": "to",
          "type": "address"
        },
        {
          "internalType": "uint256",
          "name": "tokenId",
          "type": "uint256"
        }
      ],
      "name": "transferFrom",
      "outputs": [],
      "stateMutability": "nonpayable",
      "type": "function"
    },
    {
      "inputs": [
        {
          "internalType": "uint256",
          "name": "tokenId",
          "type": "uint256"
        }
      ],
      "name": "unwrapToken",
      "outputs": [],
      "stateMutability": "nonpayable",
      "type": "function"
    },
    {
      "inputs": [
        {
          "internalType": "uint256",
          "name": "tokenId",
          "type": "uint256"
        }
      ],
      "name": "userExpires",
      "outputs": [
        {
          "internalType": "uint256",
          "name": "",
          "type": "uint256"
        }
      ],
      "stateMutability": "view",
      "type": "function"
    },
    {
      "inputs": [
        {
          "internalType": "uint256",
          "name": "tokenId",
          "type": "uint256"
        }
      ],
      "name": "userOf",
      "outputs": [
        {
          "internalType": "address",
          "name": "",
          "type": "address"
        }
      ],
      "stateMutability": "view",
      "type": "function"
    },
    {
      "inputs": [
        {
          "internalType": "address",
          "name": "_nftAddress",
          "type": "address"
        },
        {
          "internalType": "uint256",
          "name": "tokenId",
          "type": "uint256"
        }
      ],
      "name": "wrapToken",
      "outputs": [
        {
          "internalType": "uint256",
          "name": "",
          "type": "uint256"
        }
      ],
      "stateMutability": "nonpayable",
      "type": "function"
    }
  ],
  "bytecode": "0x60806040523480156200001157600080fd5b506040516200241538038062002415833981016040819052620000349162000153565b8181818160006200004683826200026c565b5060016200005582826200026c565b505060016008555050600a80546001600160a81b0319166001600160a01b0390951694909417600160a01b179093555062000338915050565b634e487b7160e01b600052604160045260246000fd5b600082601f830112620000b657600080fd5b81516001600160401b0380821115620000d357620000d36200008e565b604051601f8301601f19908116603f01168101908282118183101715620000fe57620000fe6200008e565b816040528381526020925086838588010111156200011b57600080fd5b600091505b838210156200013f578582018301518183018401529082019062000120565b600093810190920192909252949350505050565b6000806000606084860312156200016957600080fd5b83516001600160a01b03811681146200018157600080fd5b60208501519093506001600160401b03808211156200019f57600080fd5b620001ad87838801620000a4565b93506040860151915080821115620001c457600080fd5b50620001d386828701620000a4565b9150509250925092565b600181811c90821680620001f257607f821691505b6020821081036200021357634e487b7160e01b600052602260045260246000fd5b50919050565b601f8211156200026757600081815260208120601f850160051c81016020861015620002425750805b601f850160051c820191505b8181101562000263578281556001016200024e565b5050505b505050565b81516001600160401b038111156200028857620002886200008e565b620002a081620002998454620001dd565b8462000219565b602080601f831160018114620002d85760008415620002bf5750858301515b600019600386901b1c1916600185901b17855562000263565b600085815260208120601f198616915b828110156200030957888601518255948401946001909101908401620002e8565b5085821015620003285787850151600019600388901b60f8161c191681555b5050505050600190811b01905550565b6120cd80620003486000396000f3fe608060405234801561001057600080fd5b50600436106101585760003560e01c806370a08231116100c3578063a22cb4651161007c578063a22cb46514610328578063b88d4fde1461033b578063c2f1f14a1461034e578063c87b56dd14610361578063e030565e14610374578063e985e9c51461038757600080fd5b806370a082311461029857806377b8ed1e146102ab57806379e1ff0c146102b95780638fc88c48146102dc578063940997f71461030d57806395d89b411461032057600080fd5b80632f634a90116101155780632f634a90146102255780632f745c591461023857806338cc48311461025957806342842e0e1461025f578063460b53e3146102725780636352211e1461028557600080fd5b806301ffc9a71461015d57806306fdde0314610185578063081812fc1461019a578063095ea7b3146101c5578063150b7a02146101da57806323b872dd14610212575b600080fd5b61017061016b366004611a88565b6103c3565b60405190151581526020015b60405180910390f35b61018d6103ee565b60405161017c9190611af5565b6101ad6101a8366004611b08565b610480565b6040516001600160a01b03909116815260200161017c565b6101d86101d3366004611b36565b6104a7565b005b6101f96101e8366004611b62565b630a85bd0160e11b95945050505050565b6040516001600160e01b0319909116815260200161017c565b6101d8610220366004611c01565b6105c1565b6101ad610233366004611b36565b6105f2565b61024b610246366004611b36565b610665565b60405190815260200161017c565b306101ad565b6101d861026d366004611c01565b6107a0565b61024b610280366004611b36565b6107bb565b6101ad610293366004611b08565b610a2a565b61024b6102a6366004611c42565b610a8a565b6101f9632b424ad760e21b81565b61024b6102c7366004611b08565b6000908152600b602052604090206001015490565b61024b6102ea366004611b08565b600090815260066020526040902054600160a01b900467ffffffffffffffff1690565b6101d861031b366004611b08565b610b80565b61018d610d9d565b6101d8610336366004611c5f565b610dac565b6101d8610349366004611cb3565b610dbb565b6101ad61035c366004611b08565b610df3565b61018d61036f366004611b08565b610e3e565b6101d8610382366004611d93565b610e49565b610170610395366004611de2565b6001600160a01b03918216600090815260056020908152604080832093909416825291909152205460ff1690565b60006001600160e01b03198216632b424ad760e21b14806103e857506103e882610f8d565b92915050565b6060600080546103fd90611e10565b80601f016020809104026020016040519081016040528092919081815260200182805461042990611e10565b80156104765780601f1061044b57610100808354040283529160200191610476565b820191906000526020600020905b81548152906001019060200180831161045957829003601f168201915b5050505050905090565b600061048b82610fb2565b506000908152600460205260409020546001600160a01b031690565b60006104b282610a2a565b9050806001600160a01b0316836001600160a01b0316036105245760405162461bcd60e51b815260206004820152602160248201527f4552433732313a20617070726f76616c20746f2063757272656e74206f776e656044820152603960f91b60648201526084015b60405180910390fd5b336001600160a01b038216148061054057506105408133610395565b6105b25760405162461bcd60e51b815260206004820152603d60248201527f4552433732313a20617070726f76652063616c6c6572206973206e6f7420746f60448201527f6b656e206f776e6572206f7220617070726f76656420666f7220616c6c000000606482015260840161051b565b6105bc8383611011565b505050565b6105cb338261107f565b6105e75760405162461bcd60e51b815260040161051b90611e4a565b6105bc8383836110fe565b6040516331a9108f60e11b8152600481018290526000906001600160a01b03841690636352211e90602401602060405180830381865afa15801561063a573d6000803e3d6000fd5b505050506040513d601f19601f8201168201806040525081019061065e9190611e97565b9392505050565b600061067083610a8a565b82106106be5760405162461bcd60e51b815260206004820152601c60248201527f455243343930373a20496e646578206f7574206f6620626f756e647300000000604482015260640161051b565b60006106c98461126f565b90508083101561074b57604051632f745c5960e01b81526001600160a01b038516600482018190526024820185905290632f745c5990604401602060405180830381865afa15801561071f573d6000803e3d6000fd5b505050506040513d601f19601f820116820180604052508101906107439190611eb4565b9150506103e8565b60006107578285611ee3565b6001600160a01b03861660009081526007602052604090208054919250908290811061078557610785611ef6565b906000526020600020906002020160000154925050506103e8565b6105bc83838360405180602001604052806000815250610dbb565b600a54600090600160a01b900460ff16151560011461081c5760405162461bcd60e51b815260206004820152601d60248201527f5772617070696e6720686173206e6f74206265656e20726573756d6564000000604482015260640161051b565b6108246112b3565b6040516331a9108f60e11b8152600481018390526000906001600160a01b03851690636352211e90602401602060405180830381865afa15801561086c573d6000803e3d6000fd5b505050506040513d601f19601f820116820180604052508101906108909190611e97565b90506001600160a01b03811633146108ea5760405162461bcd60e51b815260206004820152601960248201527f4f6e6c79206f776e65722063616e207772617020746f6b656e00000000000000604482015260640161051b565b60006108f560095490565b604051632142170760e11b8152336004820152306024820152604481018690529091506001600160a01b038616906342842e0e90606401600060405180830381600087803b15801561094657600080fd5b505af115801561095a573d6000803e3d6000fd5b50505050610968338261130c565b604080516060810182526001600160a01b0380881682526020808301888152338486019081526000878152600b90935294909120925183549083166001600160a01b03199182161784559051600184015592516002909201805492909116919092161790556109db600980546001019055565b604080516001600160a01b0387168152602081018390527f2273a99739c31a37346636a3013c2cedebee7cd5b4c560faded39d298c1dd45c910160405180910390a19150506103e86001600855565b6000818152600260205260408120546001600160a01b0316806103e85760405162461bcd60e51b8152602060048201526018602482015277115490cdcc8c4e881a5b9d985b1a59081d1bdad95b88125160421b604482015260640161051b565b60006001600160a01b038216610ab25760405162461bcd60e51b815260040161051b90611f0c565b6000610abd8361126f565b6001600160a01b038416600090815260076020526040812054919250805b82811015610b69576001600160a01b0386166000908152600760205260408120805483908110610b0d57610b0d611ef6565b600091825260209182902060408051808201909152600290920201805482526001015467ffffffffffffffff1691810182905291504211610b5657610b53600184611f55565b92505b5080610b6181611f68565b915050610adb565b506000610b768285611f55565b9695505050505050565b610b886112b3565b6000818152600b6020526040908190208054600182015492516331a9108f60e11b815291926001600160a01b039091169130918391636352211e91610bd39160040190815260200190565b602060405180830381865afa158015610bf0573d6000803e3d6000fd5b505050506040513d601f19601f82011682018060405250810190610c149190611e97565b6001600160a01b031614610c745760405162461bcd60e51b815260206004820152602160248201527f496e76616c6964207772617070656420746f6b656e49642070726f76696465646044820152601760f91b606482015260840161051b565b60028201546001600160a01b03163314610cd05760405162461bcd60e51b815260206004820152601e60248201527f4f6e6c79206f726967696e616c206f776e65722063616e20756e777261700000604482015260640161051b565b610cd983611326565b81546001830154604051632142170760e11b815230600482015233602482015260448101919091526001600160a01b03909116906342842e0e90606401600060405180830381600087803b158015610d3057600080fd5b505af1158015610d44573d6000803e3d6000fd5b50508354604080516001600160a01b039092168252602082018790527feccdd2138cf9b77bd01ea625b20f5ce098bcf23bc855ed4c71526fdba9612141935001905060405180910390a15050610d9a6001600855565b50565b6060600180546103fd90611e10565b610db733838361132f565b5050565b610dc5338361107f565b610de15760405162461bcd60e51b815260040161051b90611e4a565b610ded848484846113fd565b50505050565b60008181526006602052604081205442600160a01b90910467ffffffffffffffff1610610e3657506000908152600660205260409020546001600160a01b031690565b506000919050565b60606103e882611430565b610e53338461107f565b610eb95760405162461bcd60e51b815260206004820152603160248201527f4552433732313a207472616e736665722063616c6c6572206973206e6f74206f6044820152701ddb995c881b9bdc88185c1c1c9bdd9959607a1b606482015260840161051b565b600083815260066020908152604080832080546001600160a01b0387166001600160e01b03199091168117600160a01b67ffffffffffffffff888116918202929092178455845180860186528a815280870182815284895260078852868920805460018181018355918b529989902083516002909b0201998a5590519801805467ffffffffffffffff191698909316979097179091559251928352909392909187917f4e06b4e7000e659094299b3533b47b6aa8ad048e95e872d23d1f4ee55af89cfe910160405180910390a35050505050565b60006001600160e01b03198216632b424ad760e21b14806103e857506103e8826114a3565b6000818152600260205260409020546001600160a01b0316610d9a5760405162461bcd60e51b8152602060048201526018602482015277115490cdcc8c4e881a5b9d985b1a59081d1bdad95b88125160421b604482015260640161051b565b600081815260046020526040902080546001600160a01b0319166001600160a01b038416908117909155819061104682610a2a565b6001600160a01b03167f8c5be1e5ebec7d5bd14f71427d1e84f3dd0314c0f7b2291e5b200ac8c7c3b92560405160405180910390a45050565b60008061108b83610a2a565b9050806001600160a01b0316846001600160a01b031614806110d257506001600160a01b0380821660009081526005602090815260408083209388168352929052205460ff165b806110f65750836001600160a01b03166110eb84610480565b6001600160a01b0316145b949350505050565b826001600160a01b031661111182610a2a565b6001600160a01b0316146111375760405162461bcd60e51b815260040161051b90611f81565b6001600160a01b0382166111995760405162461bcd60e51b8152602060048201526024808201527f4552433732313a207472616e7366657220746f20746865207a65726f206164646044820152637265737360e01b606482015260840161051b565b6111a683838360016114f3565b826001600160a01b03166111b982610a2a565b6001600160a01b0316146111df5760405162461bcd60e51b815260040161051b90611f81565b600081815260046020908152604080832080546001600160a01b03199081169091556001600160a01b0387811680865260038552838620805460001901905590871680865283862080546001019055868652600290945282852080549092168417909155905184937fddf252ad1be2c89b69c2b068fc378daa952ba7f163c4a11628f55a4df523b3ef91a4505050565b60006001600160a01b0382166112975760405162461bcd60e51b815260040161051b90611f0c565b506001600160a01b031660009081526003602052604090205490565b6002600854036113055760405162461bcd60e51b815260206004820152601f60248201527f5265656e7472616e637947756172643a207265656e7472616e742063616c6c00604482015260640161051b565b6002600855565b610db7828260405180602001604052806000815250611592565b610d9a816115c5565b816001600160a01b0316836001600160a01b0316036113905760405162461bcd60e51b815260206004820152601960248201527f4552433732313a20617070726f766520746f2063616c6c657200000000000000604482015260640161051b565b6001600160a01b03838116600081815260056020908152604080832094871680845294825291829020805460ff191686151590811790915591519182527f17307eab39ab6107e8899845ad3d59bd9653f200f220920489ca2b5937696c31910160405180910390a3505050565b6114088484846110fe565b61141484848484611668565b610ded5760405162461bcd60e51b815260040161051b90611fc6565b606061143b82610fb2565b600061145260408051602081019091526000815290565b90506000815111611472576040518060200160405280600081525061065e565b8061147c84611769565b60405160200161148d929190612018565b6040516020818303038152906040529392505050565b60006001600160e01b031982166380ac58cd60e01b14806114d457506001600160e01b03198216635b5e139f60e01b145b806103e857506301ffc9a760e01b6001600160e01b03198316146103e8565b6114ff848484846117fc565b826001600160a01b0316846001600160a01b03161415801561153757506000828152600660205260409020546001600160a01b031615155b15610ded57600082815260066020908152604080832080546001600160e01b03191690555182815284917f4e06b4e7000e659094299b3533b47b6aa8ad048e95e872d23d1f4ee55af89cfe910160405180910390a350505050565b61159c8383611801565b6115a96000848484611668565b6105bc5760405162461bcd60e51b815260040161051b90611fc6565b60006115d082610a2a565b90506115e08160008460016114f3565b6115e982610a2a565b600083815260046020908152604080832080546001600160a01b03199081169091556001600160a01b0385168085526003845282852080546000190190558785526002909352818420805490911690555192935084927fddf252ad1be2c89b69c2b068fc378daa952ba7f163c4a11628f55a4df523b3ef908390a45050565b60006001600160a01b0384163b1561175e57604051630a85bd0160e11b81526001600160a01b0385169063150b7a02906116ac903390899088908890600401612047565b6020604051808303816000875af19250505080156116e7575060408051601f3d908101601f191682019092526116e49181019061207a565b60015b611744573d808015611715576040519150601f19603f3d011682016040523d82523d6000602084013e61171a565b606091505b50805160000361173c5760405162461bcd60e51b815260040161051b90611fc6565b805181602001fd5b6001600160e01b031916630a85bd0160e11b1490506110f6565b506001949350505050565b606060006117768361199a565b600101905060008167ffffffffffffffff81111561179657611796611c9d565b6040519080825280601f01601f1916602001820160405280156117c0576020820181803683370190505b5090508181016020015b600019016f181899199a1a9b1b9c1cb0b131b232b360811b600a86061a8153600a85049450846117ca57509392505050565b6114ff565b6001600160a01b0382166118575760405162461bcd60e51b815260206004820181905260248201527f4552433732313a206d696e7420746f20746865207a65726f2061646472657373604482015260640161051b565b6000818152600260205260409020546001600160a01b0316156118bc5760405162461bcd60e51b815260206004820152601c60248201527f4552433732313a20746f6b656e20616c7265616479206d696e74656400000000604482015260640161051b565b6118ca6000838360016114f3565b6000818152600260205260409020546001600160a01b03161561192f5760405162461bcd60e51b815260206004820152601c60248201527f4552433732313a20746f6b656e20616c7265616479206d696e74656400000000604482015260640161051b565b6001600160a01b038216600081815260036020908152604080832080546001019055848352600290915280822080546001600160a01b0319168417905551839291907fddf252ad1be2c89b69c2b068fc378daa952ba7f163c4a11628f55a4df523b3ef908290a45050565b60008072184f03e93ff9f4daa797ed6e38ed64bf6a1f0160401b83106119d95772184f03e93ff9f4daa797ed6e38ed64bf6a1f0160401b830492506040015b6d04ee2d6d415b85acef81000000008310611a05576d04ee2d6d415b85acef8100000000830492506020015b662386f26fc100008310611a2357662386f26fc10000830492506010015b6305f5e1008310611a3b576305f5e100830492506008015b6127108310611a4f57612710830492506004015b60648310611a61576064830492506002015b600a83106103e85760010192915050565b6001600160e01b031981168114610d9a57600080fd5b600060208284031215611a9a57600080fd5b813561065e81611a72565b60005b83811015611ac0578181015183820152602001611aa8565b50506000910152565b60008151808452611ae1816020860160208601611aa5565b601f01601f19169290920160200192915050565b60208152600061065e6020830184611ac9565b600060208284031215611b1a57600080fd5b5035919050565b6001600160a01b0381168114610d9a57600080fd5b60008060408385031215611b4957600080fd5b8235611b5481611b21565b946020939093013593505050565b600080600080600060808688031215611b7a57600080fd5b8535611b8581611b21565b94506020860135611b9581611b21565b935060408601359250606086013567ffffffffffffffff80821115611bb957600080fd5b818801915088601f830112611bcd57600080fd5b813581811115611bdc57600080fd5b896020828501011115611bee57600080fd5b9699959850939650602001949392505050565b600080600060608486031215611c1657600080fd5b8335611c2181611b21565b92506020840135611c3181611b21565b929592945050506040919091013590565b600060208284031215611c5457600080fd5b813561065e81611b21565b60008060408385031215611c7257600080fd5b8235611c7d81611b21565b915060208301358015158114611c9257600080fd5b809150509250929050565b634e487b7160e01b600052604160045260246000fd5b60008060008060808587031215611cc957600080fd5b8435611cd481611b21565b93506020850135611ce481611b21565b925060408501359150606085013567ffffffffffffffff80821115611d0857600080fd5b818701915087601f830112611d1c57600080fd5b813581811115611d2e57611d2e611c9d565b604051601f8201601f19908116603f01168101908382118183101715611d5657611d56611c9d565b816040528281528a6020848701011115611d6f57600080fd5b82602086016020830137600060208483010152809550505050505092959194509250565b600080600060608486031215611da857600080fd5b833592506020840135611dba81611b21565b9150604084013567ffffffffffffffff81168114611dd757600080fd5b809150509250925092565b60008060408385031215611df557600080fd5b8235611e0081611b21565b91506020830135611c9281611b21565b600181811c90821680611e2457607f821691505b602082108103611e4457634e487b7160e01b600052602260045260246000fd5b50919050565b6020808252602d908201527f4552433732313a2063616c6c6572206973206e6f7420746f6b656e206f776e6560408201526c1c881bdc88185c1c1c9bdd9959609a1b606082015260800190565b600060208284031215611ea957600080fd5b815161065e81611b21565b600060208284031215611ec657600080fd5b5051919050565b634e487b7160e01b600052601160045260246000fd5b818103818111156103e8576103e8611ecd565b634e487b7160e01b600052603260045260246000fd5b60208082526029908201527f4552433732313a2061646472657373207a65726f206973206e6f7420612076616040820152683634b21037bbb732b960b91b606082015260800190565b808201808211156103e8576103e8611ecd565b600060018201611f7a57611f7a611ecd565b5060010190565b60208082526025908201527f4552433732313a207472616e736665722066726f6d20696e636f72726563742060408201526437bbb732b960d91b606082015260800190565b60208082526032908201527f4552433732313a207472616e7366657220746f206e6f6e20455243373231526560408201527131b2b4bb32b91034b6b83632b6b2b73a32b960711b606082015260800190565b6000835161202a818460208801611aa5565b83519083019061203e818360208801611aa5565b01949350505050565b6001600160a01b0385811682528416602082015260408101839052608060608201819052600090610b7690830184611ac9565b60006020828403121561208c57600080fd5b815161065e81611a7256fea2646970667358221220b33acb30b36869bdc9279d838c35b15cf787e439f33eb4a41258f6350cb9a20664736f6c63430008110033",
  "linkReferences": {},
  "deployedLinkReferences": {}
}