{
  "_format": "hh-sol-artifact-1",
  "contractName": "ERC4907Wrapper",
  "sourceName": "contracts/ERC4907/ERC4907Wrapper.sol",
  "abi": [
    {
      "inputs": [
        {
          "internalType": "address",
          "name": "wrapOwner",
          "type": "address"
        },
        {
          "internalType": "string",
          "name": "_name",
          "type": "string"
        },
        {
          "internalType": "string",
          "name": "_symbol",
          "type": "string"
        }
      ],
      "stateMutability": "nonpayable",
      "type": "constructor"
    },
    {
      "anonymous": false,
      "inputs": [
        {
          "indexed": true,
          "internalType": "address",
          "name": "owner",
          "type": "address"
        },
        {
          "indexed": true,
          "internalType": "address",
          "name": "approved",
          "type": "address"
        },
        {
          "indexed": true,
          "internalType": "uint256",
          "name": "tokenId",
          "type": "uint256"
        }
      ],
      "name": "Approval",
      "type": "event"
    },
    {
      "anonymous": false,
      "inputs": [
        {
          "indexed": true,
          "internalType": "address",
          "name": "owner",
          "type": "address"
        },
        {
          "indexed": true,
          "internalType": "address",
          "name": "operator",
          "type": "address"
        },
        {
          "indexed": false,
          "internalType": "bool",
          "name": "approved",
          "type": "bool"
        }
      ],
      "name": "ApprovalForAll",
      "type": "event"
    },
    {
      "anonymous": false,
      "inputs": [
        {
          "indexed": false,
          "internalType": "address",
          "name": "nftAddress",
          "type": "address"
        },
        {
          "indexed": false,
          "internalType": "uint256",
          "name": "tokenId",
          "type": "uint256"
        }
      ],
      "name": "TokenUnWrapped",
      "type": "event"
    },
    {
      "anonymous": false,
      "inputs": [
        {
          "indexed": false,
          "internalType": "address",
          "name": "nftAddress",
          "type": "address"
        },
        {
          "indexed": false,
          "internalType": "uint256",
          "name": "tokenId",
          "type": "uint256"
        }
      ],
      "name": "TokenWrapped",
      "type": "event"
    },
    {
      "anonymous": false,
      "inputs": [
        {
          "indexed": true,
          "internalType": "address",
          "name": "from",
          "type": "address"
        },
        {
          "indexed": true,
          "internalType": "address",
          "name": "to",
          "type": "address"
        },
        {
          "indexed": true,
          "internalType": "uint256",
          "name": "tokenId",
          "type": "uint256"
        }
      ],
      "name": "Transfer",
      "type": "event"
    },
    {
      "anonymous": false,
      "inputs": [
        {
          "indexed": true,
          "internalType": "uint256",
          "name": "tokenId",
          "type": "uint256"
        },
        {
          "indexed": true,
          "internalType": "address",
          "name": "user",
          "type": "address"
        },
        {
          "indexed": false,
          "internalType": "uint64",
          "name": "expires",
          "type": "uint64"
        }
      ],
      "name": "UpdateUser",
      "type": "event"
    },
    {
      "inputs": [],
      "name": "InterfaceIERC4907",
      "outputs": [
        {
          "internalType": "bytes4",
          "name": "",
          "type": "bytes4"
        }
      ],
      "stateMutability": "view",
      "type": "function"
    },
    {
      "inputs": [
        {
          "internalType": "address",
          "name": "to",
          "type": "address"
        },
        {
          "internalType": "uint256",
          "name": "tokenId",
          "type": "uint256"
        }
      ],
      "name": "approve",
      "outputs": [],
      "stateMutability": "nonpayable",
      "type": "function"
    },
    {
      "inputs": [
        {
          "internalType": "address",
          "name": "owner",
          "type": "address"
        }
      ],
      "name": "balanceOf",
      "outputs": [
        {
          "internalType": "uint256",
          "name": "",
          "type": "uint256"
        }
      ],
      "stateMutability": "view",
      "type": "function"
    },
    {
      "inputs": [],
      "name": "getAddress",
      "outputs": [
        {
          "internalType": "address",
          "name": "",
          "type": "address"
        }
      ],
      "stateMutability": "view",
      "type": "function"
    },
    {
      "inputs": [
        {
          "internalType": "uint256",
          "name": "tokenId",
          "type": "uint256"
        }
      ],
      "name": "getApproved",
      "outputs": [
        {
          "internalType": "address",
          "name": "",
          "type": "address"
        }
      ],
      "stateMutability": "view",
      "type": "function"
    },
    {
      "inputs": [
        {
          "internalType": "address",
          "name": "_nftAddress",
          "type": "address"
        },
        {
          "internalType": "uint256",
          "name": "_tokenId",
          "type": "uint256"
        }
      ],
      "name": "getOwner",
      "outputs": [
        {
          "internalType": "address",
          "name": "",
          "type": "address"
        }
      ],
      "stateMutability": "view",
      "type": "function"
    },
    {
      "inputs": [
        {
          "internalType": "address",
          "name": "originalNftAddress",
          "type": "address"
        },
        {
          "internalType": "uint256",
          "name": "originalTokenId",
          "type": "uint256"
        }
      ],
      "name": "getWrappedTokenId",
      "outputs": [
        {
          "internalType": "uint256",
          "name": "",
          "type": "uint256"
        }
      ],
      "stateMutability": "view",
      "type": "function"
    },
    {
      "inputs": [
        {
          "internalType": "address",
          "name": "owner",
          "type": "address"
        },
        {
          "internalType": "address",
          "name": "operator",
          "type": "address"
        }
      ],
      "name": "isApprovedForAll",
      "outputs": [
        {
          "internalType": "bool",
          "name": "",
          "type": "bool"
        }
      ],
      "stateMutability": "view",
      "type": "function"
    },
    {
      "inputs": [],
      "name": "name",
      "outputs": [
        {
          "internalType": "string",
          "name": "",
          "type": "string"
        }
      ],
      "stateMutability": "view",
      "type": "function"
    },
    {
      "inputs": [
        {
          "internalType": "address",
          "name": "operator",
          "type": "address"
        },
        {
          "internalType": "address",
          "name": "from",
          "type": "address"
        },
        {
          "internalType": "uint256",
          "name": "tokenId",
          "type": "uint256"
        },
        {
          "internalType": "bytes",
          "name": "data",
          "type": "bytes"
        }
      ],
      "name": "onERC721Received",
      "outputs": [
        {
          "internalType": "bytes4",
          "name": "",
          "type": "bytes4"
        }
      ],
      "stateMutability": "nonpayable",
      "type": "function"
    },
    {
      "inputs": [
        {
          "internalType": "uint256",
          "name": "tokenId",
          "type": "uint256"
        }
      ],
      "name": "ownerOf",
      "outputs": [
        {
          "internalType": "address",
          "name": "",
          "type": "address"
        }
      ],
      "stateMutability": "view",
      "type": "function"
    },
    {
      "inputs": [
        {
          "internalType": "address",
          "name": "from",
          "type": "address"
        },
        {
          "internalType": "address",
          "name": "to",
          "type": "address"
        },
        {
          "internalType": "uint256",
          "name": "tokenId",
          "type": "uint256"
        }
      ],
      "name": "safeTransferFrom",
      "outputs": [],
      "stateMutability": "nonpayable",
      "type": "function"
    },
    {
      "inputs": [
        {
          "internalType": "address",
          "name": "from",
          "type": "address"
        },
        {
          "internalType": "address",
          "name": "to",
          "type": "address"
        },
        {
          "internalType": "uint256",
          "name": "tokenId",
          "type": "uint256"
        },
        {
          "internalType": "bytes",
          "name": "data",
          "type": "bytes"
        }
      ],
      "name": "safeTransferFrom",
      "outputs": [],
      "stateMutability": "nonpayable",
      "type": "function"
    },
    {
      "inputs": [
        {
          "internalType": "address",
          "name": "operator",
          "type": "address"
        },
        {
          "internalType": "bool",
          "name": "approved",
          "type": "bool"
        }
      ],
      "name": "setApprovalForAll",
      "outputs": [],
      "stateMutability": "nonpayable",
      "type": "function"
    },
    {
      "inputs": [
        {
          "internalType": "uint256",
          "name": "tokenId",
          "type": "uint256"
        },
        {
          "internalType": "address",
          "name": "user",
          "type": "address"
        },
        {
          "internalType": "uint64",
          "name": "expires",
          "type": "uint64"
        }
      ],
      "name": "setUser",
      "outputs": [],
      "stateMutability": "nonpayable",
      "type": "function"
    },
    {
      "inputs": [
        {
          "internalType": "bytes4",
          "name": "interfaceId",
          "type": "bytes4"
        }
      ],
      "name": "supportsInterface",
      "outputs": [
        {
          "internalType": "bool",
          "name": "",
          "type": "bool"
        }
      ],
      "stateMutability": "view",
      "type": "function"
    },
    {
      "inputs": [],
      "name": "symbol",
      "outputs": [
        {
          "internalType": "string",
          "name": "",
          "type": "string"
        }
      ],
      "stateMutability": "view",
      "type": "function"
    },
    {
      "inputs": [
        {
          "internalType": "address",
          "name": "owner",
          "type": "address"
        },
        {
          "internalType": "uint256",
          "name": "index",
          "type": "uint256"
        }
      ],
      "name": "tokenOfOwnerByIndex",
      "outputs": [
        {
          "internalType": "uint256",
          "name": "",
          "type": "uint256"
        }
      ],
      "stateMutability": "view",
      "type": "function"
    },
    {
      "inputs": [
        {
          "internalType": "uint256",
          "name": "tokenId",
          "type": "uint256"
        }
      ],
      "name": "tokenURI",
      "outputs": [
        {
          "internalType": "string",
          "name": "",
          "type": "string"
        }
      ],
      "stateMutability": "view",
      "type": "function"
    },
    {
      "inputs": [
        {
          "internalType": "address",
          "name": "from",
          "type": "address"
        },
        {
          "internalType": "address",
          "name": "to",
          "type": "address"
        },
        {
          "internalType": "uint256",
          "name": "tokenId",
          "type": "uint256"
        }
      ],
      "name": "transferFrom",
      "outputs": [],
      "stateMutability": "nonpayable",
      "type": "function"
    },
    {
      "inputs": [
        {
          "internalType": "uint256",
          "name": "tokenId",
          "type": "uint256"
        }
      ],
      "name": "unwrapToken",
      "outputs": [],
      "stateMutability": "nonpayable",
      "type": "function"
    },
    {
      "inputs": [
        {
          "internalType": "uint256",
          "name": "tokenId",
          "type": "uint256"
        }
      ],
      "name": "userExpires",
      "outputs": [
        {
          "internalType": "uint256",
          "name": "",
          "type": "uint256"
        }
      ],
      "stateMutability": "view",
      "type": "function"
    },
    {
      "inputs": [
        {
          "internalType": "uint256",
          "name": "tokenId",
          "type": "uint256"
        }
      ],
      "name": "userOf",
      "outputs": [
        {
          "internalType": "address",
          "name": "",
          "type": "address"
        }
      ],
      "stateMutability": "view",
      "type": "function"
    },
    {
      "inputs": [
        {
          "internalType": "address",
          "name": "_nftAddress",
          "type": "address"
        },
        {
          "internalType": "uint256",
          "name": "tokenId",
          "type": "uint256"
        }
      ],
      "name": "wrapToken",
      "outputs": [],
      "stateMutability": "nonpayable",
      "type": "function"
    }
  ],
  "bytecode": "0x60806040523480156200001157600080fd5b50604051620024ad380380620024ad833981016040819052620000349162000153565b8181818160006200004683826200026c565b5060016200005582826200026c565b505060016008555050600a80546001600160a81b0319166001600160a01b0390951694909417600160a01b179093555062000338915050565b634e487b7160e01b600052604160045260246000fd5b600082601f830112620000b657600080fd5b81516001600160401b0380821115620000d357620000d36200008e565b604051601f8301601f19908116603f01168101908282118183101715620000fe57620000fe6200008e565b816040528381526020925086838588010111156200011b57600080fd5b600091505b838210156200013f578582018301518183018401529082019062000120565b600093810190920192909252949350505050565b6000806000606084860312156200016957600080fd5b83516001600160a01b03811681146200018157600080fd5b60208501519093506001600160401b03808211156200019f57600080fd5b620001ad87838801620000a4565b93506040860151915080821115620001c457600080fd5b50620001d386828701620000a4565b9150509250925092565b600181811c90821680620001f257607f821691505b6020821081036200021357634e487b7160e01b600052602260045260246000fd5b50919050565b601f8211156200026757600081815260208120601f850160051c81016020861015620002425750805b601f850160051c820191505b8181101562000263578281556001016200024e565b5050505b505050565b81516001600160401b038111156200028857620002886200008e565b620002a081620002998454620001dd565b8462000219565b602080601f831160018114620002d85760008415620002bf5750858301515b600019600386901b1c1916600185901b17855562000263565b600085815260208120601f198616915b828110156200030957888601518255948401946001909101908401620002e8565b5085821015620003285787850151600019600388901b60f8161c191681555b5050505050600190811b01905550565b61216580620003486000396000f3fe608060405234801561001057600080fd5b50600436106101585760003560e01c806370a08231116100c3578063b88d4fde1161007c578063b88d4fde14610318578063c2f1f14a1461032b578063c87b56dd1461033e578063d19d777014610351578063e030565e14610387578063e985e9c51461039a57600080fd5b806370a082311461029857806377b8ed1e146102ab5780638fc88c48146102b9578063940997f7146102ea57806395d89b41146102fd578063a22cb4651461030557600080fd5b80632f634a90116101155780632f634a90146102255780632f745c591461023857806338cc48311461025957806342842e0e1461025f578063460b53e3146102725780636352211e1461028557600080fd5b806301ffc9a71461015d57806306fdde0314610185578063081812fc1461019a578063095ea7b3146101c5578063150b7a02146101da57806323b872dd14610212575b600080fd5b61017061016b366004611b20565b6103d6565b60405190151581526020015b60405180910390f35b61018d610401565b60405161017c9190611b8d565b6101ad6101a8366004611ba0565b610493565b6040516001600160a01b03909116815260200161017c565b6101d86101d3366004611bce565b6104ba565b005b6101f96101e8366004611bfa565b630a85bd0160e11b95945050505050565b6040516001600160e01b0319909116815260200161017c565b6101d8610220366004611c99565b6105d4565b6101ad610233366004611bce565b610605565b61024b610246366004611bce565b610678565b60405190815260200161017c565b306101ad565b6101d861026d366004611c99565b6107b3565b6101d8610280366004611bce565b6107ce565b6101ad610293366004611ba0565b610a67565b61024b6102a6366004611cda565b610ac7565b6101f9632b424ad760e21b81565b61024b6102c7366004611ba0565b600090815260066020526040902054600160a01b900467ffffffffffffffff1690565b6101d86102f8366004611ba0565b610bbd565b61018d610e39565b6101d8610313366004611cf7565b610e48565b6101d8610326366004611d4b565b610e53565b6101ad610339366004611ba0565b610e8b565b61018d61034c366004611ba0565b610ed6565b61024b61035f366004611bce565b6001600160a01b03919091166000908152600c60209081526040808320938352929052205490565b6101d8610395366004611e2b565b610ee1565b6101706103a8366004611e7a565b6001600160a01b03918216600090815260056020908152604080832093909416825291909152205460ff1690565b60006001600160e01b03198216632b424ad760e21b14806103fb57506103fb82611025565b92915050565b60606000805461041090611ea8565b80601f016020809104026020016040519081016040528092919081815260200182805461043c90611ea8565b80156104895780601f1061045e57610100808354040283529160200191610489565b820191906000526020600020905b81548152906001019060200180831161046c57829003601f168201915b5050505050905090565b600061049e8261104a565b506000908152600460205260409020546001600160a01b031690565b60006104c582610a67565b9050806001600160a01b0316836001600160a01b0316036105375760405162461bcd60e51b815260206004820152602160248201527f4552433732313a20617070726f76616c20746f2063757272656e74206f776e656044820152603960f91b60648201526084015b60405180910390fd5b336001600160a01b0382161480610553575061055381336103a8565b6105c55760405162461bcd60e51b815260206004820152603d60248201527f4552433732313a20617070726f76652063616c6c6572206973206e6f7420746f60448201527f6b656e206f776e6572206f7220617070726f76656420666f7220616c6c000000606482015260840161052e565b6105cf83836110a9565b505050565b6105de3382611117565b6105fa5760405162461bcd60e51b815260040161052e90611ee2565b6105cf838383611196565b6040516331a9108f60e11b8152600481018290526000906001600160a01b03841690636352211e90602401602060405180830381865afa15801561064d573d6000803e3d6000fd5b505050506040513d601f19601f820116820180604052508101906106719190611f2f565b9392505050565b600061068383610ac7565b82106106d15760405162461bcd60e51b815260206004820152601c60248201527f455243343930373a20496e646578206f7574206f6620626f756e647300000000604482015260640161052e565b60006106dc84611307565b90508083101561075e57604051632f745c5960e01b81526001600160a01b038516600482018190526024820185905290632f745c5990604401602060405180830381865afa158015610732573d6000803e3d6000fd5b505050506040513d601f19601f820116820180604052508101906107569190611f4c565b9150506103fb565b600061076a8285611f7b565b6001600160a01b03861660009081526007602052604090208054919250908290811061079857610798611f8e565b906000526020600020906002020160000154925050506103fb565b6105cf83838360405180602001604052806000815250610e53565b600a54600160a01b900460ff16151560011461082c5760405162461bcd60e51b815260206004820152601d60248201527f5772617070696e6720686173206e6f74206265656e20726573756d6564000000604482015260640161052e565b61083461134b565b6040516331a9108f60e11b8152600481018290526000906001600160a01b03841690636352211e90602401602060405180830381865afa15801561087c573d6000803e3d6000fd5b505050506040513d601f19601f820116820180604052508101906108a09190611f2f565b90506001600160a01b03811633146108fa5760405162461bcd60e51b815260206004820152601960248201527f4f6e6c79206f776e65722063616e207772617020746f6b656e00000000000000604482015260640161052e565b60095460000361091257610912600980546001019055565b600061091d60095490565b604051632142170760e11b8152336004820152306024820152604481018590529091506001600160a01b038516906342842e0e90606401600060405180830381600087803b15801561096e57600080fd5b505af1158015610982573d6000803e3d6000fd5b5050505061099033826113a4565b6001600160a01b038085166000818152600c602090815260408083208884528252808320869055805160608101825293845283820188815233858301908152878552600b9093529220925183549085166001600160a01b0319918216178455915160018401555160029092018054929093169116179055610a15600980546001019055565b604080516001600160a01b0386168152602081018390527f2273a99739c31a37346636a3013c2cedebee7cd5b4c560faded39d298c1dd45c910160405180910390a15050610a636001600855565b5050565b6000818152600260205260408120546001600160a01b0316806103fb5760405162461bcd60e51b8152602060048201526018602482015277115490cdcc8c4e881a5b9d985b1a59081d1bdad95b88125160421b604482015260640161052e565b60006001600160a01b038216610aef5760405162461bcd60e51b815260040161052e90611fa4565b6000610afa83611307565b6001600160a01b038416600090815260076020526040812054919250805b82811015610ba6576001600160a01b0386166000908152600760205260408120805483908110610b4a57610b4a611f8e565b600091825260209182902060408051808201909152600290920201805482526001015467ffffffffffffffff1691810182905291504211610b9357610b90600184611fed565b92505b5080610b9e81612000565b915050610b18565b506000610bb38285611fed565b9695505050505050565b610bc561134b565b6000818152600b6020526040902080546001600160a01b03168215801590610bee575060095483105b610c3a5760405162461bcd60e51b815260206004820152601860248201527f496e76616c696420746f6b656e49642070726f76696465640000000000000000604482015260640161052e565b60018201546040516331a9108f60e11b815230916001600160a01b03841691636352211e91610c6f9160040190815260200190565b602060405180830381865afa158015610c8c573d6000803e3d6000fd5b505050506040513d601f19601f82011682018060405250810190610cb09190611f2f565b6001600160a01b031614610d105760405162461bcd60e51b815260206004820152602160248201527f496e76616c6964207772617070656420746f6b656e49642070726f76696465646044820152601760f91b606482015260840161052e565b60028201546001600160a01b03163314610d6c5760405162461bcd60e51b815260206004820152601e60248201527f4f6e6c79206f726967696e616c206f776e65722063616e20756e777261700000604482015260640161052e565b610d75836113be565b81546001830154604051632142170760e11b815230600482015233602482015260448101919091526001600160a01b03909116906342842e0e90606401600060405180830381600087803b158015610dcc57600080fd5b505af1158015610de0573d6000803e3d6000fd5b50508354604080516001600160a01b039092168252602082018790527feccdd2138cf9b77bd01ea625b20f5ce098bcf23bc855ed4c71526fdba9612141935001905060405180910390a15050610e366001600855565b50565b60606001805461041090611ea8565b610a633383836113c7565b610e5d3383611117565b610e795760405162461bcd60e51b815260040161052e90611ee2565b610e8584848484611495565b50505050565b60008181526006602052604081205442600160a01b90910467ffffffffffffffff1610610ece57506000908152600660205260409020546001600160a01b031690565b506000919050565b60606103fb826114c8565b610eeb3384611117565b610f515760405162461bcd60e51b815260206004820152603160248201527f4552433732313a207472616e736665722063616c6c6572206973206e6f74206f6044820152701ddb995c881b9bdc88185c1c1c9bdd9959607a1b606482015260840161052e565b600083815260066020908152604080832080546001600160a01b0387166001600160e01b03199091168117600160a01b67ffffffffffffffff888116918202929092178455845180860186528a815280870182815284895260078852868920805460018181018355918b529989902083516002909b0201998a5590519801805467ffffffffffffffff191698909316979097179091559251928352909392909187917f4e06b4e7000e659094299b3533b47b6aa8ad048e95e872d23d1f4ee55af89cfe910160405180910390a35050505050565b60006001600160e01b03198216632b424ad760e21b14806103fb57506103fb8261153b565b6000818152600260205260409020546001600160a01b0316610e365760405162461bcd60e51b8152602060048201526018602482015277115490cdcc8c4e881a5b9d985b1a59081d1bdad95b88125160421b604482015260640161052e565b600081815260046020526040902080546001600160a01b0319166001600160a01b03841690811790915581906110de82610a67565b6001600160a01b03167f8c5be1e5ebec7d5bd14f71427d1e84f3dd0314c0f7b2291e5b200ac8c7c3b92560405160405180910390a45050565b60008061112383610a67565b9050806001600160a01b0316846001600160a01b0316148061116a57506001600160a01b0380821660009081526005602090815260408083209388168352929052205460ff165b8061118e5750836001600160a01b031661118384610493565b6001600160a01b0316145b949350505050565b826001600160a01b03166111a982610a67565b6001600160a01b0316146111cf5760405162461bcd60e51b815260040161052e90612019565b6001600160a01b0382166112315760405162461bcd60e51b8152602060048201526024808201527f4552433732313a207472616e7366657220746f20746865207a65726f206164646044820152637265737360e01b606482015260840161052e565b61123e838383600161158b565b826001600160a01b031661125182610a67565b6001600160a01b0316146112775760405162461bcd60e51b815260040161052e90612019565b600081815260046020908152604080832080546001600160a01b03199081169091556001600160a01b0387811680865260038552838620805460001901905590871680865283862080546001019055868652600290945282852080549092168417909155905184937fddf252ad1be2c89b69c2b068fc378daa952ba7f163c4a11628f55a4df523b3ef91a4505050565b60006001600160a01b03821661132f5760405162461bcd60e51b815260040161052e90611fa4565b506001600160a01b031660009081526003602052604090205490565b60026008540361139d5760405162461bcd60e51b815260206004820152601f60248201527f5265656e7472616e637947756172643a207265656e7472616e742063616c6c00604482015260640161052e565b6002600855565b610a6382826040518060200160405280600081525061162a565b610e368161165d565b816001600160a01b0316836001600160a01b0316036114285760405162461bcd60e51b815260206004820152601960248201527f4552433732313a20617070726f766520746f2063616c6c657200000000000000604482015260640161052e565b6001600160a01b03838116600081815260056020908152604080832094871680845294825291829020805460ff191686151590811790915591519182527f17307eab39ab6107e8899845ad3d59bd9653f200f220920489ca2b5937696c31910160405180910390a3505050565b6114a0848484611196565b6114ac84848484611700565b610e855760405162461bcd60e51b815260040161052e9061205e565b60606114d38261104a565b60006114ea60408051602081019091526000815290565b9050600081511161150a5760405180602001604052806000815250610671565b8061151484611801565b6040516020016115259291906120b0565b6040516020818303038152906040529392505050565b60006001600160e01b031982166380ac58cd60e01b148061156c57506001600160e01b03198216635b5e139f60e01b145b806103fb57506301ffc9a760e01b6001600160e01b03198316146103fb565b61159784848484611894565b826001600160a01b0316846001600160a01b0316141580156115cf57506000828152600660205260409020546001600160a01b031615155b15610e8557600082815260066020908152604080832080546001600160e01b03191690555182815284917f4e06b4e7000e659094299b3533b47b6aa8ad048e95e872d23d1f4ee55af89cfe910160405180910390a350505050565b6116348383611899565b6116416000848484611700565b6105cf5760405162461bcd60e51b815260040161052e9061205e565b600061166882610a67565b905061167881600084600161158b565b61168182610a67565b600083815260046020908152604080832080546001600160a01b03199081169091556001600160a01b0385168085526003845282852080546000190190558785526002909352818420805490911690555192935084927fddf252ad1be2c89b69c2b068fc378daa952ba7f163c4a11628f55a4df523b3ef908390a45050565b60006001600160a01b0384163b156117f657604051630a85bd0160e11b81526001600160a01b0385169063150b7a02906117449033908990889088906004016120df565b6020604051808303816000875af192505050801561177f575060408051601f3d908101601f1916820190925261177c91810190612112565b60015b6117dc573d8080156117ad576040519150601f19603f3d011682016040523d82523d6000602084013e6117b2565b606091505b5080516000036117d45760405162461bcd60e51b815260040161052e9061205e565b805181602001fd5b6001600160e01b031916630a85bd0160e11b14905061118e565b506001949350505050565b6060600061180e83611a32565b600101905060008167ffffffffffffffff81111561182e5761182e611d35565b6040519080825280601f01601f191660200182016040528015611858576020820181803683370190505b5090508181016020015b600019016f181899199a1a9b1b9c1cb0b131b232b360811b600a86061a8153600a850494508461186257509392505050565b611597565b6001600160a01b0382166118ef5760405162461bcd60e51b815260206004820181905260248201527f4552433732313a206d696e7420746f20746865207a65726f2061646472657373604482015260640161052e565b6000818152600260205260409020546001600160a01b0316156119545760405162461bcd60e51b815260206004820152601c60248201527f4552433732313a20746f6b656e20616c7265616479206d696e74656400000000604482015260640161052e565b61196260008383600161158b565b6000818152600260205260409020546001600160a01b0316156119c75760405162461bcd60e51b815260206004820152601c60248201527f4552433732313a20746f6b656e20616c7265616479206d696e74656400000000604482015260640161052e565b6001600160a01b038216600081815260036020908152604080832080546001019055848352600290915280822080546001600160a01b0319168417905551839291907fddf252ad1be2c89b69c2b068fc378daa952ba7f163c4a11628f55a4df523b3ef908290a45050565b60008072184f03e93ff9f4daa797ed6e38ed64bf6a1f0160401b8310611a715772184f03e93ff9f4daa797ed6e38ed64bf6a1f0160401b830492506040015b6d04ee2d6d415b85acef81000000008310611a9d576d04ee2d6d415b85acef8100000000830492506020015b662386f26fc100008310611abb57662386f26fc10000830492506010015b6305f5e1008310611ad3576305f5e100830492506008015b6127108310611ae757612710830492506004015b60648310611af9576064830492506002015b600a83106103fb5760010192915050565b6001600160e01b031981168114610e3657600080fd5b600060208284031215611b3257600080fd5b813561067181611b0a565b60005b83811015611b58578181015183820152602001611b40565b50506000910152565b60008151808452611b79816020860160208601611b3d565b601f01601f19169290920160200192915050565b6020815260006106716020830184611b61565b600060208284031215611bb257600080fd5b5035919050565b6001600160a01b0381168114610e3657600080fd5b60008060408385031215611be157600080fd5b8235611bec81611bb9565b946020939093013593505050565b600080600080600060808688031215611c1257600080fd5b8535611c1d81611bb9565b94506020860135611c2d81611bb9565b935060408601359250606086013567ffffffffffffffff80821115611c5157600080fd5b818801915088601f830112611c6557600080fd5b813581811115611c7457600080fd5b896020828501011115611c8657600080fd5b9699959850939650602001949392505050565b600080600060608486031215611cae57600080fd5b8335611cb981611bb9565b92506020840135611cc981611bb9565b929592945050506040919091013590565b600060208284031215611cec57600080fd5b813561067181611bb9565b60008060408385031215611d0a57600080fd5b8235611d1581611bb9565b915060208301358015158114611d2a57600080fd5b809150509250929050565b634e487b7160e01b600052604160045260246000fd5b60008060008060808587031215611d6157600080fd5b8435611d6c81611bb9565b93506020850135611d7c81611bb9565b925060408501359150606085013567ffffffffffffffff80821115611da057600080fd5b818701915087601f830112611db457600080fd5b813581811115611dc657611dc6611d35565b604051601f8201601f19908116603f01168101908382118183101715611dee57611dee611d35565b816040528281528a6020848701011115611e0757600080fd5b82602086016020830137600060208483010152809550505050505092959194509250565b600080600060608486031215611e4057600080fd5b833592506020840135611e5281611bb9565b9150604084013567ffffffffffffffff81168114611e6f57600080fd5b809150509250925092565b60008060408385031215611e8d57600080fd5b8235611e9881611bb9565b91506020830135611d2a81611bb9565b600181811c90821680611ebc57607f821691505b602082108103611edc57634e487b7160e01b600052602260045260246000fd5b50919050565b6020808252602d908201527f4552433732313a2063616c6c6572206973206e6f7420746f6b656e206f776e6560408201526c1c881bdc88185c1c1c9bdd9959609a1b606082015260800190565b600060208284031215611f4157600080fd5b815161067181611bb9565b600060208284031215611f5e57600080fd5b5051919050565b634e487b7160e01b600052601160045260246000fd5b818103818111156103fb576103fb611f65565b634e487b7160e01b600052603260045260246000fd5b60208082526029908201527f4552433732313a2061646472657373207a65726f206973206e6f7420612076616040820152683634b21037bbb732b960b91b606082015260800190565b808201808211156103fb576103fb611f65565b60006001820161201257612012611f65565b5060010190565b60208082526025908201527f4552433732313a207472616e736665722066726f6d20696e636f72726563742060408201526437bbb732b960d91b606082015260800190565b60208082526032908201527f4552433732313a207472616e7366657220746f206e6f6e20455243373231526560408201527131b2b4bb32b91034b6b83632b6b2b73a32b960711b606082015260800190565b600083516120c2818460208801611b3d565b8351908301906120d6818360208801611b3d565b01949350505050565b6001600160a01b0385811682528416602082015260408101839052608060608201819052600090610bb390830184611b61565b60006020828403121561212457600080fd5b815161067181611b0a56fea26469706673582212200d50bbbdf785272298668150c1a3526a488fab5197b96b48fefb2f1830b389ed64736f6c63430008110033",
  "linkReferences": {},
  "deployedLinkReferences": {}
}