{
  "_format": "hh-sol-artifact-1",
  "contractName": "ERC4907Wrapper",
  "sourceName": "contracts/ERC4907/ERC4907Wrapper.sol",
  "abi": [
    {
      "inputs": [
        {
          "internalType": "address",
          "name": "nftAddress",
          "type": "address"
        },
        {
          "internalType": "string",
          "name": "_name",
          "type": "string"
        },
        {
          "internalType": "string",
          "name": "_symbol",
          "type": "string"
        }
      ],
      "stateMutability": "nonpayable",
      "type": "constructor"
    },
    {
      "anonymous": false,
      "inputs": [
        {
          "indexed": true,
          "internalType": "address",
          "name": "owner",
          "type": "address"
        },
        {
          "indexed": true,
          "internalType": "address",
          "name": "approved",
          "type": "address"
        },
        {
          "indexed": true,
          "internalType": "uint256",
          "name": "tokenId",
          "type": "uint256"
        }
      ],
      "name": "Approval",
      "type": "event"
    },
    {
      "anonymous": false,
      "inputs": [
        {
          "indexed": true,
          "internalType": "address",
          "name": "owner",
          "type": "address"
        },
        {
          "indexed": true,
          "internalType": "address",
          "name": "operator",
          "type": "address"
        },
        {
          "indexed": false,
          "internalType": "bool",
          "name": "approved",
          "type": "bool"
        }
      ],
      "name": "ApprovalForAll",
      "type": "event"
    },
    {
      "anonymous": false,
      "inputs": [
        {
          "indexed": false,
          "internalType": "address",
          "name": "nftAddress",
          "type": "address"
        },
        {
          "indexed": false,
          "internalType": "uint256",
          "name": "tokenId",
          "type": "uint256"
        }
      ],
      "name": "TokenUnWrapped",
      "type": "event"
    },
    {
      "anonymous": false,
      "inputs": [
        {
          "indexed": false,
          "internalType": "address",
          "name": "nftAddress",
          "type": "address"
        },
        {
          "indexed": false,
          "internalType": "uint256",
          "name": "tokenId",
          "type": "uint256"
        }
      ],
      "name": "TokenWrapped",
      "type": "event"
    },
    {
      "anonymous": false,
      "inputs": [
        {
          "indexed": true,
          "internalType": "address",
          "name": "from",
          "type": "address"
        },
        {
          "indexed": true,
          "internalType": "address",
          "name": "to",
          "type": "address"
        },
        {
          "indexed": true,
          "internalType": "uint256",
          "name": "tokenId",
          "type": "uint256"
        }
      ],
      "name": "Transfer",
      "type": "event"
    },
    {
      "anonymous": false,
      "inputs": [
        {
          "indexed": true,
          "internalType": "uint256",
          "name": "tokenId",
          "type": "uint256"
        },
        {
          "indexed": true,
          "internalType": "address",
          "name": "user",
          "type": "address"
        },
        {
          "indexed": false,
          "internalType": "uint64",
          "name": "expires",
          "type": "uint64"
        }
      ],
      "name": "UpdateUser",
      "type": "event"
    },
    {
      "inputs": [
        {
          "internalType": "address",
          "name": "to",
          "type": "address"
        },
        {
          "internalType": "uint256",
          "name": "tokenId",
          "type": "uint256"
        }
      ],
      "name": "approve",
      "outputs": [],
      "stateMutability": "nonpayable",
      "type": "function"
    },
    {
      "inputs": [
        {
          "internalType": "address",
          "name": "owner",
          "type": "address"
        }
      ],
      "name": "balanceOf",
      "outputs": [
        {
          "internalType": "uint256",
          "name": "",
          "type": "uint256"
        }
      ],
      "stateMutability": "view",
      "type": "function"
    },
    {
      "inputs": [],
      "name": "getAddress",
      "outputs": [
        {
          "internalType": "address",
          "name": "",
          "type": "address"
        }
      ],
      "stateMutability": "view",
      "type": "function"
    },
    {
      "inputs": [
        {
          "internalType": "uint256",
          "name": "tokenId",
          "type": "uint256"
        }
      ],
      "name": "getApproved",
      "outputs": [
        {
          "internalType": "address",
          "name": "",
          "type": "address"
        }
      ],
      "stateMutability": "view",
      "type": "function"
    },
    {
      "inputs": [],
      "name": "getTokenAddress",
      "outputs": [
        {
          "internalType": "address",
          "name": "",
          "type": "address"
        }
      ],
      "stateMutability": "view",
      "type": "function"
    },
    {
      "inputs": [
        {
          "internalType": "address",
          "name": "owner",
          "type": "address"
        },
        {
          "internalType": "address",
          "name": "operator",
          "type": "address"
        }
      ],
      "name": "isApprovedForAll",
      "outputs": [
        {
          "internalType": "bool",
          "name": "",
          "type": "bool"
        }
      ],
      "stateMutability": "view",
      "type": "function"
    },
    {
      "inputs": [],
      "name": "name",
      "outputs": [
        {
          "internalType": "string",
          "name": "",
          "type": "string"
        }
      ],
      "stateMutability": "view",
      "type": "function"
    },
    {
      "inputs": [
        {
          "internalType": "address",
          "name": "operator",
          "type": "address"
        },
        {
          "internalType": "address",
          "name": "from",
          "type": "address"
        },
        {
          "internalType": "uint256",
          "name": "tokenId",
          "type": "uint256"
        },
        {
          "internalType": "bytes",
          "name": "data",
          "type": "bytes"
        }
      ],
      "name": "onERC721Received",
      "outputs": [
        {
          "internalType": "bytes4",
          "name": "",
          "type": "bytes4"
        }
      ],
      "stateMutability": "nonpayable",
      "type": "function"
    },
    {
      "inputs": [
        {
          "internalType": "uint256",
          "name": "tokenId",
          "type": "uint256"
        }
      ],
      "name": "ownerOf",
      "outputs": [
        {
          "internalType": "address",
          "name": "",
          "type": "address"
        }
      ],
      "stateMutability": "view",
      "type": "function"
    },
    {
      "inputs": [
        {
          "internalType": "address",
          "name": "from",
          "type": "address"
        },
        {
          "internalType": "address",
          "name": "to",
          "type": "address"
        },
        {
          "internalType": "uint256",
          "name": "tokenId",
          "type": "uint256"
        }
      ],
      "name": "safeTransferFrom",
      "outputs": [],
      "stateMutability": "nonpayable",
      "type": "function"
    },
    {
      "inputs": [
        {
          "internalType": "address",
          "name": "from",
          "type": "address"
        },
        {
          "internalType": "address",
          "name": "to",
          "type": "address"
        },
        {
          "internalType": "uint256",
          "name": "tokenId",
          "type": "uint256"
        },
        {
          "internalType": "bytes",
          "name": "data",
          "type": "bytes"
        }
      ],
      "name": "safeTransferFrom",
      "outputs": [],
      "stateMutability": "nonpayable",
      "type": "function"
    },
    {
      "inputs": [
        {
          "internalType": "address",
          "name": "operator",
          "type": "address"
        },
        {
          "internalType": "bool",
          "name": "approved",
          "type": "bool"
        }
      ],
      "name": "setApprovalForAll",
      "outputs": [],
      "stateMutability": "nonpayable",
      "type": "function"
    },
    {
      "inputs": [
        {
          "internalType": "uint256",
          "name": "tokenId",
          "type": "uint256"
        },
        {
          "internalType": "address",
          "name": "user",
          "type": "address"
        },
        {
          "internalType": "uint64",
          "name": "expires",
          "type": "uint64"
        }
      ],
      "name": "setUser",
      "outputs": [],
      "stateMutability": "nonpayable",
      "type": "function"
    },
    {
      "inputs": [
        {
          "internalType": "bytes4",
          "name": "interfaceId",
          "type": "bytes4"
        }
      ],
      "name": "supportsInterface",
      "outputs": [
        {
          "internalType": "bool",
          "name": "",
          "type": "bool"
        }
      ],
      "stateMutability": "view",
      "type": "function"
    },
    {
      "inputs": [],
      "name": "symbol",
      "outputs": [
        {
          "internalType": "string",
          "name": "",
          "type": "string"
        }
      ],
      "stateMutability": "view",
      "type": "function"
    },
    {
      "inputs": [
        {
          "internalType": "address",
          "name": "owner",
          "type": "address"
        },
        {
          "internalType": "uint256",
          "name": "index",
          "type": "uint256"
        }
      ],
      "name": "tokenOfOwnerByIndex",
      "outputs": [
        {
          "internalType": "uint256",
          "name": "",
          "type": "uint256"
        }
      ],
      "stateMutability": "view",
      "type": "function"
    },
    {
      "inputs": [
        {
          "internalType": "uint256",
          "name": "tokenId",
          "type": "uint256"
        }
      ],
      "name": "tokenURI",
      "outputs": [
        {
          "internalType": "string",
          "name": "",
          "type": "string"
        }
      ],
      "stateMutability": "view",
      "type": "function"
    },
    {
      "inputs": [
        {
          "internalType": "address",
          "name": "from",
          "type": "address"
        },
        {
          "internalType": "address",
          "name": "to",
          "type": "address"
        },
        {
          "internalType": "uint256",
          "name": "tokenId",
          "type": "uint256"
        }
      ],
      "name": "transferFrom",
      "outputs": [],
      "stateMutability": "nonpayable",
      "type": "function"
    },
    {
      "inputs": [
        {
          "internalType": "uint256",
          "name": "tokenId",
          "type": "uint256"
        }
      ],
      "name": "unwrapToken",
      "outputs": [],
      "stateMutability": "nonpayable",
      "type": "function"
    },
    {
      "inputs": [
        {
          "internalType": "uint256",
          "name": "tokenId",
          "type": "uint256"
        }
      ],
      "name": "userExpires",
      "outputs": [
        {
          "internalType": "uint256",
          "name": "",
          "type": "uint256"
        }
      ],
      "stateMutability": "view",
      "type": "function"
    },
    {
      "inputs": [
        {
          "internalType": "uint256",
          "name": "tokenId",
          "type": "uint256"
        }
      ],
      "name": "userOf",
      "outputs": [
        {
          "internalType": "address",
          "name": "",
          "type": "address"
        }
      ],
      "stateMutability": "view",
      "type": "function"
    },
    {
      "inputs": [
        {
          "internalType": "uint256",
          "name": "tokenId",
          "type": "uint256"
        }
      ],
      "name": "wrapToken",
      "outputs": [],
      "stateMutability": "nonpayable",
      "type": "function"
    }
  ],
  "bytecode": "0x60806040523480156200001157600080fd5b506040516200227938038062002279833981016040819052620000349162000149565b81818181600062000046838262000262565b50600162000055828262000262565b5050600880546001600160a01b0319166001600160a01b039790971696909617909555506200032e9350505050565b634e487b7160e01b600052604160045260246000fd5b600082601f830112620000ac57600080fd5b81516001600160401b0380821115620000c957620000c962000084565b604051601f8301601f19908116603f01168101908282118183101715620000f457620000f462000084565b816040528381526020925086838588010111156200011157600080fd5b600091505b8382101562000135578582018301518183018401529082019062000116565b600093810190920192909252949350505050565b6000806000606084860312156200015f57600080fd5b83516001600160a01b03811681146200017757600080fd5b60208501519093506001600160401b03808211156200019557600080fd5b620001a3878388016200009a565b93506040860151915080821115620001ba57600080fd5b50620001c9868287016200009a565b9150509250925092565b600181811c90821680620001e857607f821691505b6020821081036200020957634e487b7160e01b600052602260045260246000fd5b50919050565b601f8211156200025d57600081815260208120601f850160051c81016020861015620002385750805b601f850160051c820191505b81811015620002595782815560010162000244565b5050505b505050565b81516001600160401b038111156200027e576200027e62000084565b62000296816200028f8454620001d3565b846200020f565b602080601f831160018114620002ce5760008415620002b55750858301515b600019600386901b1c1916600185901b17855562000259565b600085815260208120601f198616915b82811015620002ff57888601518255948401946001909101908401620002de565b50858210156200031e5787850151600019600388901b60f8161c191681555b5050505050600190811b01905550565b611f3b806200033e6000396000f3fe608060405234801561001057600080fd5b50600436106101425760003560e01c80636371d6bb116100b8578063a22cb4651161007c578063a22cb465146102df578063b88d4fde146102f2578063c2f1f14a14610305578063c87b56dd14610318578063e030565e1461032b578063e985e9c51461033e57600080fd5b80636371d6bb1461026d57806370a08231146102805780638fc88c4814610293578063940997f7146102c457806395d89b41146102d757600080fd5b8063150b7a021161010a578063150b7a02146101d557806323b872dd1461020d5780632f745c591461022057806338cc48311461024157806342842e0e146102475780636352211e1461025a57600080fd5b806301ffc9a71461014757806306fdde031461016f578063081812fc14610184578063095ea7b3146101af57806310fe9ae8146101c4575b600080fd5b61015a6101553660046118f6565b61037a565b60405190151581526020015b60405180910390f35b6101776103a5565b6040516101669190611963565b610197610192366004611976565b610437565b6040516001600160a01b039091168152602001610166565b6101c26101bd3660046119a4565b61045e565b005b6008546001600160a01b0316610197565b6101f46101e33660046119d0565b630a85bd0160e11b95945050505050565b6040516001600160e01b03199091168152602001610166565b6101c261021b366004611a6f565b610578565b61023361022e3660046119a4565b6105a9565b604051908152602001610166565b30610197565b6101c2610255366004611a6f565b6106e5565b610197610268366004611976565b610700565b6101c261027b366004611976565b610760565b61023361028e366004611ab0565b6108fe565b6102336102a1366004611976565b600090815260066020526040902054600160a01b900467ffffffffffffffff1690565b6101c26102d2366004611976565b6109f4565b610177610bd1565b6101c26102ed366004611acd565b610be0565b6101c2610300366004611b21565b610bef565b610197610313366004611976565b610c27565b610177610326366004611976565b610c72565b6101c2610339366004611c01565b610c7d565b61015a61034c366004611c50565b6001600160a01b03918216600090815260056020908152604080832093909416825291909152205460ff1690565b60006001600160e01b03198216632b424ad760e21b148061039f575061039f82610dc1565b92915050565b6060600080546103b490611c7e565b80601f01602080910402602001604051908101604052809291908181526020018280546103e090611c7e565b801561042d5780601f106104025761010080835404028352916020019161042d565b820191906000526020600020905b81548152906001019060200180831161041057829003601f168201915b5050505050905090565b600061044282610de6565b506000908152600460205260409020546001600160a01b031690565b600061046982610700565b9050806001600160a01b0316836001600160a01b0316036104db5760405162461bcd60e51b815260206004820152602160248201527f4552433732313a20617070726f76616c20746f2063757272656e74206f776e656044820152603960f91b60648201526084015b60405180910390fd5b336001600160a01b03821614806104f757506104f7813361034c565b6105695760405162461bcd60e51b815260206004820152603d60248201527f4552433732313a20617070726f76652063616c6c6572206973206e6f7420746f60448201527f6b656e206f776e6572206f7220617070726f76656420666f7220616c6c00000060648201526084016104d2565b6105738383610e48565b505050565b6105823382610eb6565b61059e5760405162461bcd60e51b81526004016104d290611cb8565b610573838383610f35565b60006105b4836108fe565b82106106025760405162461bcd60e51b815260206004820152601c60248201527f455243343930373a20496e646578206f7574206f6620626f756e64730000000060448201526064016104d2565b600061060d846110a6565b90508083101561068f57604051632f745c5960e01b81526001600160a01b038516600482018190526024820185905290632f745c5990604401602060405180830381865afa158015610663573d6000803e3d6000fd5b505050506040513d601f19601f820116820180604052508101906106879190611d05565b91505061039f565b600061069b8285611d34565b6001600160a01b0386166000908152600760205260409020805491925090829081106106c9576106c9611d47565b9060005260206000209060020201600001549250505092915050565b61057383838360405180602001604052806000815250610bef565b6000818152600260205260408120546001600160a01b03168061039f5760405162461bcd60e51b8152602060048201526018602482015277115490cdcc8c4e881a5b9d985b1a59081d1bdad95b88125160421b60448201526064016104d2565b6008546040516331a9108f60e11b8152600481018390526000916001600160a01b031690636352211e90602401602060405180830381865afa1580156107aa573d6000803e3d6000fd5b505050506040513d601f19601f820116820180604052508101906107ce9190611d5d565b90506001600160a01b03811633146108285760405162461bcd60e51b815260206004820152601860248201527f4f6e6c79206f776e65722063616e2063616c6c2074686973000000000000000060448201526064016104d2565b600980546001600160a01b0319166001600160a01b0383811691909117909155600854604051632142170760e11b8152336004820152306024820152604481018590529116906342842e0e90606401600060405180830381600087803b15801561089157600080fd5b505af11580156108a5573d6000803e3d6000fd5b505050506108b333836110ea565b600854604080516001600160a01b039092168252602082018490527f2273a99739c31a37346636a3013c2cedebee7cd5b4c560faded39d298c1dd45c91015b60405180910390a15050565b60006001600160a01b0382166109265760405162461bcd60e51b81526004016104d290611d7a565b6000610931836110a6565b6001600160a01b038416600090815260076020526040812054919250805b828110156109dd576001600160a01b038616600090815260076020526040812080548390811061098157610981611d47565b600091825260209182902060408051808201909152600290920201805482526001015467ffffffffffffffff16918101829052915042116109ca576109c7600184611dc3565b92505b50806109d581611dd6565b91505061094f565b5060006109ea8285611dc3565b9695505050505050565b6008546040516331a9108f60e11b8152600481018390526000916001600160a01b031690636352211e90602401602060405180830381865afa158015610a3e573d6000803e3d6000fd5b505050506040513d601f19601f82011682018060405250810190610a629190611d5d565b9050610a6e3383610eb6565b610ab25760405162461bcd60e51b815260206004820152601560248201527404f6e6c79206f776e65722063616e20756e7772617605c1b60448201526064016104d2565b6001600160a01b0381163014610b0a5760405162461bcd60e51b815260206004820152601860248201527f4e6f207772617070656420746f6b656e496420666f756e64000000000000000060448201526064016104d2565b610b1382611104565b6008546001600160a01b03166342842e0e30336040516001600160e01b031960e085901b1681526001600160a01b0392831660048201529116602482015260448101859052606401600060405180830381600087803b158015610b7557600080fd5b505af1158015610b89573d6000803e3d6000fd5b5050600854604080516001600160a01b039092168252602082018690527feccdd2138cf9b77bd01ea625b20f5ce098bcf23bc855ed4c71526fdba961214193500190506108f2565b6060600180546103b490611c7e565b610beb33838361110d565b5050565b610bf93383610eb6565b610c155760405162461bcd60e51b81526004016104d290611cb8565b610c21848484846111db565b50505050565b60008181526006602052604081205442600160a01b90910467ffffffffffffffff1610610c6a57506000908152600660205260409020546001600160a01b031690565b506000919050565b606061039f8261120e565b610c873384610eb6565b610ced5760405162461bcd60e51b815260206004820152603160248201527f4552433732313a207472616e736665722063616c6c6572206973206e6f74206f6044820152701ddb995c881b9bdc88185c1c1c9bdd9959607a1b60648201526084016104d2565b600083815260066020908152604080832080546001600160a01b0387166001600160e01b03199091168117600160a01b67ffffffffffffffff888116918202929092178455845180860186528a815280870182815284895260078852868920805460018181018355918b529989902083516002909b0201998a5590519801805467ffffffffffffffff191698909316979097179091559251928352909392909187917f4e06b4e7000e659094299b3533b47b6aa8ad048e95e872d23d1f4ee55af89cfe910160405180910390a35050505050565b60006001600160e01b03198216632b424ad760e21b148061039f575061039f82611282565b6000818152600260205260409020546001600160a01b0316610e455760405162461bcd60e51b8152602060048201526018602482015277115490cdcc8c4e881a5b9d985b1a59081d1bdad95b88125160421b60448201526064016104d2565b50565b600081815260046020526040902080546001600160a01b0319166001600160a01b0384169081179091558190610e7d82610700565b6001600160a01b03167f8c5be1e5ebec7d5bd14f71427d1e84f3dd0314c0f7b2291e5b200ac8c7c3b92560405160405180910390a45050565b600080610ec283610700565b9050806001600160a01b0316846001600160a01b03161480610f0957506001600160a01b0380821660009081526005602090815260408083209388168352929052205460ff165b80610f2d5750836001600160a01b0316610f2284610437565b6001600160a01b0316145b949350505050565b826001600160a01b0316610f4882610700565b6001600160a01b031614610f6e5760405162461bcd60e51b81526004016104d290611def565b6001600160a01b038216610fd05760405162461bcd60e51b8152602060048201526024808201527f4552433732313a207472616e7366657220746f20746865207a65726f206164646044820152637265737360e01b60648201526084016104d2565b610fdd83838360016112d2565b826001600160a01b0316610ff082610700565b6001600160a01b0316146110165760405162461bcd60e51b81526004016104d290611def565b600081815260046020908152604080832080546001600160a01b03199081169091556001600160a01b0387811680865260038552838620805460001901905590871680865283862080546001019055868652600290945282852080549092168417909155905184937fddf252ad1be2c89b69c2b068fc378daa952ba7f163c4a11628f55a4df523b3ef91a4505050565b60006001600160a01b0382166110ce5760405162461bcd60e51b81526004016104d290611d7a565b506001600160a01b031660009081526003602052604090205490565b610beb828260405180602001604052806000815250611371565b610e45816113a4565b816001600160a01b0316836001600160a01b03160361116e5760405162461bcd60e51b815260206004820152601960248201527f4552433732313a20617070726f766520746f2063616c6c65720000000000000060448201526064016104d2565b6001600160a01b03838116600081815260056020908152604080832094871680845294825291829020805460ff191686151590811790915591519182527f17307eab39ab6107e8899845ad3d59bd9653f200f220920489ca2b5937696c31910160405180910390a3505050565b6111e6848484610f35565b6111f284848484611447565b610c215760405162461bcd60e51b81526004016104d290611e34565b606061121982610de6565b600061123060408051602081019091526000815290565b90506000815111611250576040518060200160405280600081525061127b565b8061125a84611548565b60405160200161126b929190611e86565b6040516020818303038152906040525b9392505050565b60006001600160e01b031982166380ac58cd60e01b14806112b357506001600160e01b03198216635b5e139f60e01b145b8061039f57506301ffc9a760e01b6001600160e01b031983161461039f565b6112de848484846115db565b826001600160a01b0316846001600160a01b03161415801561131657506000828152600660205260409020546001600160a01b031615155b15610c2157600082815260066020908152604080832080546001600160e01b03191690555182815284917f4e06b4e7000e659094299b3533b47b6aa8ad048e95e872d23d1f4ee55af89cfe910160405180910390a350505050565b61137b83836115e7565b6113886000848484611447565b6105735760405162461bcd60e51b81526004016104d290611e34565b60006113af82610700565b90506113bf8160008460016112d2565b6113c882610700565b600083815260046020908152604080832080546001600160a01b03199081169091556001600160a01b0385168085526003845282852080546000190190558785526002909352818420805490911690555192935084927fddf252ad1be2c89b69c2b068fc378daa952ba7f163c4a11628f55a4df523b3ef908390a45050565b60006001600160a01b0384163b1561153d57604051630a85bd0160e11b81526001600160a01b0385169063150b7a029061148b903390899088908890600401611eb5565b6020604051808303816000875af19250505080156114c6575060408051601f3d908101601f191682019092526114c391810190611ee8565b60015b611523573d8080156114f4576040519150601f19603f3d011682016040523d82523d6000602084013e6114f9565b606091505b50805160000361151b5760405162461bcd60e51b81526004016104d290611e34565b805181602001fd5b6001600160e01b031916630a85bd0160e11b149050610f2d565b506001949350505050565b6060600061155583611780565b600101905060008167ffffffffffffffff81111561157557611575611b0b565b6040519080825280601f01601f19166020018201604052801561159f576020820181803683370190505b5090508181016020015b600019016f181899199a1a9b1b9c1cb0b131b232b360811b600a86061a8153600a85049450846115a957509392505050565b6112de84848484611858565b6001600160a01b03821661163d5760405162461bcd60e51b815260206004820181905260248201527f4552433732313a206d696e7420746f20746865207a65726f206164647265737360448201526064016104d2565b6000818152600260205260409020546001600160a01b0316156116a25760405162461bcd60e51b815260206004820152601c60248201527f4552433732313a20746f6b656e20616c7265616479206d696e7465640000000060448201526064016104d2565b6116b06000838360016112d2565b6000818152600260205260409020546001600160a01b0316156117155760405162461bcd60e51b815260206004820152601c60248201527f4552433732313a20746f6b656e20616c7265616479206d696e7465640000000060448201526064016104d2565b6001600160a01b038216600081815260036020908152604080832080546001019055848352600290915280822080546001600160a01b0319168417905551839291907fddf252ad1be2c89b69c2b068fc378daa952ba7f163c4a11628f55a4df523b3ef908290a45050565b60008072184f03e93ff9f4daa797ed6e38ed64bf6a1f0160401b83106117bf5772184f03e93ff9f4daa797ed6e38ed64bf6a1f0160401b830492506040015b6d04ee2d6d415b85acef810000000083106117eb576d04ee2d6d415b85acef8100000000830492506020015b662386f26fc10000831061180957662386f26fc10000830492506010015b6305f5e1008310611821576305f5e100830492506008015b612710831061183557612710830492506004015b60648310611847576064830492506002015b600a831061039f5760010192915050565b6001811115610c21576001600160a01b0384161561189e576001600160a01b03841660009081526003602052604081208054839290611898908490611d34565b90915550505b6001600160a01b03831615610c21576001600160a01b038316600090815260036020526040812080548392906118d5908490611dc3565b909155505050505050565b6001600160e01b031981168114610e4557600080fd5b60006020828403121561190857600080fd5b813561127b816118e0565b60005b8381101561192e578181015183820152602001611916565b50506000910152565b6000815180845261194f816020860160208601611913565b601f01601f19169290920160200192915050565b60208152600061127b6020830184611937565b60006020828403121561198857600080fd5b5035919050565b6001600160a01b0381168114610e4557600080fd5b600080604083850312156119b757600080fd5b82356119c28161198f565b946020939093013593505050565b6000806000806000608086880312156119e857600080fd5b85356119f38161198f565b94506020860135611a038161198f565b935060408601359250606086013567ffffffffffffffff80821115611a2757600080fd5b818801915088601f830112611a3b57600080fd5b813581811115611a4a57600080fd5b896020828501011115611a5c57600080fd5b9699959850939650602001949392505050565b600080600060608486031215611a8457600080fd5b8335611a8f8161198f565b92506020840135611a9f8161198f565b929592945050506040919091013590565b600060208284031215611ac257600080fd5b813561127b8161198f565b60008060408385031215611ae057600080fd5b8235611aeb8161198f565b915060208301358015158114611b0057600080fd5b809150509250929050565b634e487b7160e01b600052604160045260246000fd5b60008060008060808587031215611b3757600080fd5b8435611b428161198f565b93506020850135611b528161198f565b925060408501359150606085013567ffffffffffffffff80821115611b7657600080fd5b818701915087601f830112611b8a57600080fd5b813581811115611b9c57611b9c611b0b565b604051601f8201601f19908116603f01168101908382118183101715611bc457611bc4611b0b565b816040528281528a6020848701011115611bdd57600080fd5b82602086016020830137600060208483010152809550505050505092959194509250565b600080600060608486031215611c1657600080fd5b833592506020840135611c288161198f565b9150604084013567ffffffffffffffff81168114611c4557600080fd5b809150509250925092565b60008060408385031215611c6357600080fd5b8235611c6e8161198f565b91506020830135611b008161198f565b600181811c90821680611c9257607f821691505b602082108103611cb257634e487b7160e01b600052602260045260246000fd5b50919050565b6020808252602d908201527f4552433732313a2063616c6c6572206973206e6f7420746f6b656e206f776e6560408201526c1c881bdc88185c1c1c9bdd9959609a1b606082015260800190565b600060208284031215611d1757600080fd5b5051919050565b634e487b7160e01b600052601160045260246000fd5b8181038181111561039f5761039f611d1e565b634e487b7160e01b600052603260045260246000fd5b600060208284031215611d6f57600080fd5b815161127b8161198f565b60208082526029908201527f4552433732313a2061646472657373207a65726f206973206e6f7420612076616040820152683634b21037bbb732b960b91b606082015260800190565b8082018082111561039f5761039f611d1e565b600060018201611de857611de8611d1e565b5060010190565b60208082526025908201527f4552433732313a207472616e736665722066726f6d20696e636f72726563742060408201526437bbb732b960d91b606082015260800190565b60208082526032908201527f4552433732313a207472616e7366657220746f206e6f6e20455243373231526560408201527131b2b4bb32b91034b6b83632b6b2b73a32b960711b606082015260800190565b60008351611e98818460208801611913565b835190830190611eac818360208801611913565b01949350505050565b6001600160a01b03858116825284166020820152604081018390526080606082018190526000906109ea90830184611937565b600060208284031215611efa57600080fd5b815161127b816118e056fea26469706673582212203135178cff494ae25f10a21f7afa1ee90346979b07c4c1959757299a54bfa6e264736f6c63430008110033",
  "linkReferences": {},
  "deployedLinkReferences": {}
}