{
  "_format": "hh-sol-artifact-1",
  "contractName": "ERC4907Wrapper",
  "sourceName": "contracts/ERC4907/ERC4907Wrapper.sol",
  "abi": [
    {
      "inputs": [
        {
          "internalType": "address",
          "name": "nftAddress",
          "type": "address"
        },
        {
          "internalType": "string",
          "name": "_name",
          "type": "string"
        },
        {
          "internalType": "string",
          "name": "_symbol",
          "type": "string"
        }
      ],
      "stateMutability": "nonpayable",
      "type": "constructor"
    },
    {
      "anonymous": false,
      "inputs": [
        {
          "indexed": true,
          "internalType": "address",
          "name": "owner",
          "type": "address"
        },
        {
          "indexed": true,
          "internalType": "address",
          "name": "approved",
          "type": "address"
        },
        {
          "indexed": true,
          "internalType": "uint256",
          "name": "tokenId",
          "type": "uint256"
        }
      ],
      "name": "Approval",
      "type": "event"
    },
    {
      "anonymous": false,
      "inputs": [
        {
          "indexed": true,
          "internalType": "address",
          "name": "owner",
          "type": "address"
        },
        {
          "indexed": true,
          "internalType": "address",
          "name": "operator",
          "type": "address"
        },
        {
          "indexed": false,
          "internalType": "bool",
          "name": "approved",
          "type": "bool"
        }
      ],
      "name": "ApprovalForAll",
      "type": "event"
    },
    {
      "anonymous": false,
      "inputs": [
        {
          "indexed": false,
          "internalType": "address",
          "name": "nftAddress",
          "type": "address"
        },
        {
          "indexed": false,
          "internalType": "uint256",
          "name": "tokenId",
          "type": "uint256"
        }
      ],
      "name": "TokenUnWrapped",
      "type": "event"
    },
    {
      "anonymous": false,
      "inputs": [
        {
          "indexed": false,
          "internalType": "address",
          "name": "nftAddress",
          "type": "address"
        },
        {
          "indexed": false,
          "internalType": "uint256",
          "name": "tokenId",
          "type": "uint256"
        }
      ],
      "name": "TokenWrapped",
      "type": "event"
    },
    {
      "anonymous": false,
      "inputs": [
        {
          "indexed": true,
          "internalType": "address",
          "name": "from",
          "type": "address"
        },
        {
          "indexed": true,
          "internalType": "address",
          "name": "to",
          "type": "address"
        },
        {
          "indexed": true,
          "internalType": "uint256",
          "name": "tokenId",
          "type": "uint256"
        }
      ],
      "name": "Transfer",
      "type": "event"
    },
    {
      "anonymous": false,
      "inputs": [
        {
          "indexed": true,
          "internalType": "uint256",
          "name": "tokenId",
          "type": "uint256"
        },
        {
          "indexed": true,
          "internalType": "address",
          "name": "user",
          "type": "address"
        },
        {
          "indexed": false,
          "internalType": "uint64",
          "name": "expires",
          "type": "uint64"
        }
      ],
      "name": "UpdateUser",
      "type": "event"
    },
    {
      "inputs": [],
      "name": "InterfaceIERC4907",
      "outputs": [
        {
          "internalType": "bytes4",
          "name": "",
          "type": "bytes4"
        }
      ],
      "stateMutability": "view",
      "type": "function"
    },
    {
      "inputs": [
        {
          "internalType": "address",
          "name": "to",
          "type": "address"
        },
        {
          "internalType": "uint256",
          "name": "tokenId",
          "type": "uint256"
        }
      ],
      "name": "approve",
      "outputs": [],
      "stateMutability": "nonpayable",
      "type": "function"
    },
    {
      "inputs": [
        {
          "internalType": "address",
          "name": "owner",
          "type": "address"
        }
      ],
      "name": "balanceOf",
      "outputs": [
        {
          "internalType": "uint256",
          "name": "",
          "type": "uint256"
        }
      ],
      "stateMutability": "view",
      "type": "function"
    },
    {
      "inputs": [],
      "name": "getAddress",
      "outputs": [
        {
          "internalType": "address",
          "name": "",
          "type": "address"
        }
      ],
      "stateMutability": "view",
      "type": "function"
    },
    {
      "inputs": [
        {
          "internalType": "uint256",
          "name": "tokenId",
          "type": "uint256"
        }
      ],
      "name": "getApproved",
      "outputs": [
        {
          "internalType": "address",
          "name": "",
          "type": "address"
        }
      ],
      "stateMutability": "view",
      "type": "function"
    },
    {
      "inputs": [],
      "name": "getTokenAddress",
      "outputs": [
        {
          "internalType": "address",
          "name": "",
          "type": "address"
        }
      ],
      "stateMutability": "view",
      "type": "function"
    },
    {
      "inputs": [
        {
          "internalType": "address",
          "name": "owner",
          "type": "address"
        },
        {
          "internalType": "address",
          "name": "operator",
          "type": "address"
        }
      ],
      "name": "isApprovedForAll",
      "outputs": [
        {
          "internalType": "bool",
          "name": "",
          "type": "bool"
        }
      ],
      "stateMutability": "view",
      "type": "function"
    },
    {
      "inputs": [],
      "name": "name",
      "outputs": [
        {
          "internalType": "string",
          "name": "",
          "type": "string"
        }
      ],
      "stateMutability": "view",
      "type": "function"
    },
    {
      "inputs": [
        {
          "internalType": "address",
          "name": "operator",
          "type": "address"
        },
        {
          "internalType": "address",
          "name": "from",
          "type": "address"
        },
        {
          "internalType": "uint256",
          "name": "tokenId",
          "type": "uint256"
        },
        {
          "internalType": "bytes",
          "name": "data",
          "type": "bytes"
        }
      ],
      "name": "onERC721Received",
      "outputs": [
        {
          "internalType": "bytes4",
          "name": "",
          "type": "bytes4"
        }
      ],
      "stateMutability": "nonpayable",
      "type": "function"
    },
    {
      "inputs": [
        {
          "internalType": "uint256",
          "name": "tokenId",
          "type": "uint256"
        }
      ],
      "name": "ownerOf",
      "outputs": [
        {
          "internalType": "address",
          "name": "",
          "type": "address"
        }
      ],
      "stateMutability": "view",
      "type": "function"
    },
    {
      "inputs": [
        {
          "internalType": "address",
          "name": "from",
          "type": "address"
        },
        {
          "internalType": "address",
          "name": "to",
          "type": "address"
        },
        {
          "internalType": "uint256",
          "name": "tokenId",
          "type": "uint256"
        }
      ],
      "name": "safeTransferFrom",
      "outputs": [],
      "stateMutability": "nonpayable",
      "type": "function"
    },
    {
      "inputs": [
        {
          "internalType": "address",
          "name": "from",
          "type": "address"
        },
        {
          "internalType": "address",
          "name": "to",
          "type": "address"
        },
        {
          "internalType": "uint256",
          "name": "tokenId",
          "type": "uint256"
        },
        {
          "internalType": "bytes",
          "name": "data",
          "type": "bytes"
        }
      ],
      "name": "safeTransferFrom",
      "outputs": [],
      "stateMutability": "nonpayable",
      "type": "function"
    },
    {
      "inputs": [
        {
          "internalType": "address",
          "name": "operator",
          "type": "address"
        },
        {
          "internalType": "bool",
          "name": "approved",
          "type": "bool"
        }
      ],
      "name": "setApprovalForAll",
      "outputs": [],
      "stateMutability": "nonpayable",
      "type": "function"
    },
    {
      "inputs": [
        {
          "internalType": "uint256",
          "name": "tokenId",
          "type": "uint256"
        },
        {
          "internalType": "address",
          "name": "user",
          "type": "address"
        },
        {
          "internalType": "uint64",
          "name": "expires",
          "type": "uint64"
        }
      ],
      "name": "setUser",
      "outputs": [],
      "stateMutability": "nonpayable",
      "type": "function"
    },
    {
      "inputs": [
        {
          "internalType": "bytes4",
          "name": "interfaceId",
          "type": "bytes4"
        }
      ],
      "name": "supportsInterface",
      "outputs": [
        {
          "internalType": "bool",
          "name": "",
          "type": "bool"
        }
      ],
      "stateMutability": "view",
      "type": "function"
    },
    {
      "inputs": [],
      "name": "symbol",
      "outputs": [
        {
          "internalType": "string",
          "name": "",
          "type": "string"
        }
      ],
      "stateMutability": "view",
      "type": "function"
    },
    {
      "inputs": [
        {
          "internalType": "address",
          "name": "owner",
          "type": "address"
        },
        {
          "internalType": "uint256",
          "name": "index",
          "type": "uint256"
        }
      ],
      "name": "tokenOfOwnerByIndex",
      "outputs": [
        {
          "internalType": "uint256",
          "name": "",
          "type": "uint256"
        }
      ],
      "stateMutability": "view",
      "type": "function"
    },
    {
      "inputs": [
        {
          "internalType": "uint256",
          "name": "tokenId",
          "type": "uint256"
        }
      ],
      "name": "tokenURI",
      "outputs": [
        {
          "internalType": "string",
          "name": "",
          "type": "string"
        }
      ],
      "stateMutability": "view",
      "type": "function"
    },
    {
      "inputs": [
        {
          "internalType": "address",
          "name": "from",
          "type": "address"
        },
        {
          "internalType": "address",
          "name": "to",
          "type": "address"
        },
        {
          "internalType": "uint256",
          "name": "tokenId",
          "type": "uint256"
        }
      ],
      "name": "transferFrom",
      "outputs": [],
      "stateMutability": "nonpayable",
      "type": "function"
    },
    {
      "inputs": [
        {
          "internalType": "uint256",
          "name": "tokenId",
          "type": "uint256"
        }
      ],
      "name": "unwrapToken",
      "outputs": [],
      "stateMutability": "nonpayable",
      "type": "function"
    },
    {
      "inputs": [
        {
          "internalType": "uint256",
          "name": "tokenId",
          "type": "uint256"
        }
      ],
      "name": "userExpires",
      "outputs": [
        {
          "internalType": "uint256",
          "name": "",
          "type": "uint256"
        }
      ],
      "stateMutability": "view",
      "type": "function"
    },
    {
      "inputs": [
        {
          "internalType": "uint256",
          "name": "tokenId",
          "type": "uint256"
        }
      ],
      "name": "userOf",
      "outputs": [
        {
          "internalType": "address",
          "name": "",
          "type": "address"
        }
      ],
      "stateMutability": "view",
      "type": "function"
    },
    {
      "inputs": [
        {
          "internalType": "uint256",
          "name": "tokenId",
          "type": "uint256"
        }
      ],
      "name": "wrapToken",
      "outputs": [],
      "stateMutability": "nonpayable",
      "type": "function"
    }
  ],
  "bytecode": "0x60806040523480156200001157600080fd5b506040516200229238038062002292833981016040819052620000349162000149565b81818181600062000046838262000262565b50600162000055828262000262565b5050600880546001600160a01b0319166001600160a01b039790971696909617909555506200032e9350505050565b634e487b7160e01b600052604160045260246000fd5b600082601f830112620000ac57600080fd5b81516001600160401b0380821115620000c957620000c962000084565b604051601f8301601f19908116603f01168101908282118183101715620000f457620000f462000084565b816040528381526020925086838588010111156200011157600080fd5b600091505b8382101562000135578582018301518183018401529082019062000116565b600093810190920192909252949350505050565b6000806000606084860312156200015f57600080fd5b83516001600160a01b03811681146200017757600080fd5b60208501519093506001600160401b03808211156200019557600080fd5b620001a3878388016200009a565b93506040860151915080821115620001ba57600080fd5b50620001c9868287016200009a565b9150509250925092565b600181811c90821680620001e857607f821691505b6020821081036200020957634e487b7160e01b600052602260045260246000fd5b50919050565b601f8211156200025d57600081815260208120601f850160051c81016020861015620002385750805b601f850160051c820191505b81811015620002595782815560010162000244565b5050505b505050565b81516001600160401b038111156200027e576200027e62000084565b62000296816200028f8454620001d3565b846200020f565b602080601f831160018114620002ce5760008415620002b55750858301515b600019600386901b1c1916600185901b17855562000259565b600085815260208120601f198616915b82811015620002ff57888601518255948401946001909101908401620002de565b50858210156200031e5787850151600019600388901b60f8161c191681555b5050505050600190811b01905550565b611f54806200033e6000396000f3fe608060405234801561001057600080fd5b506004361061014d5760003560e01c80636371d6bb116100c3578063a22cb4651161007c578063a22cb465146102f8578063b88d4fde1461030b578063c2f1f14a1461031e578063c87b56dd14610331578063e030565e14610344578063e985e9c51461035757600080fd5b80636371d6bb1461027857806370a082311461028b57806377b8ed1e1461029e5780638fc88c48146102ac578063940997f7146102dd57806395d89b41146102f057600080fd5b8063150b7a0211610115578063150b7a02146101e057806323b872dd146102185780632f745c591461022b57806338cc48311461024c57806342842e0e146102525780636352211e1461026557600080fd5b806301ffc9a71461015257806306fdde031461017a578063081812fc1461018f578063095ea7b3146101ba57806310fe9ae8146101cf575b600080fd5b61016561016036600461190f565b610393565b60405190151581526020015b60405180910390f35b6101826103be565b604051610171919061197c565b6101a261019d36600461198f565b610450565b6040516001600160a01b039091168152602001610171565b6101cd6101c83660046119bd565b610477565b005b6008546001600160a01b03166101a2565b6101ff6101ee3660046119e9565b630a85bd0160e11b95945050505050565b6040516001600160e01b03199091168152602001610171565b6101cd610226366004611a88565b610591565b61023e6102393660046119bd565b6105c2565b604051908152602001610171565b306101a2565b6101cd610260366004611a88565b6106fe565b6101a261027336600461198f565b610719565b6101cd61028636600461198f565b610779565b61023e610299366004611ac9565b610917565b6101ff632b424ad760e21b81565b61023e6102ba36600461198f565b600090815260066020526040902054600160a01b900467ffffffffffffffff1690565b6101cd6102eb36600461198f565b610a0d565b610182610bea565b6101cd610306366004611ae6565b610bf9565b6101cd610319366004611b3a565b610c08565b6101a261032c36600461198f565b610c40565b61018261033f36600461198f565b610c8b565b6101cd610352366004611c1a565b610c96565b610165610365366004611c69565b6001600160a01b03918216600090815260056020908152604080832093909416825291909152205460ff1690565b60006001600160e01b03198216632b424ad760e21b14806103b857506103b882610dda565b92915050565b6060600080546103cd90611c97565b80601f01602080910402602001604051908101604052809291908181526020018280546103f990611c97565b80156104465780601f1061041b57610100808354040283529160200191610446565b820191906000526020600020905b81548152906001019060200180831161042957829003601f168201915b5050505050905090565b600061045b82610dff565b506000908152600460205260409020546001600160a01b031690565b600061048282610719565b9050806001600160a01b0316836001600160a01b0316036104f45760405162461bcd60e51b815260206004820152602160248201527f4552433732313a20617070726f76616c20746f2063757272656e74206f776e656044820152603960f91b60648201526084015b60405180910390fd5b336001600160a01b038216148061051057506105108133610365565b6105825760405162461bcd60e51b815260206004820152603d60248201527f4552433732313a20617070726f76652063616c6c6572206973206e6f7420746f60448201527f6b656e206f776e6572206f7220617070726f76656420666f7220616c6c00000060648201526084016104eb565b61058c8383610e61565b505050565b61059b3382610ecf565b6105b75760405162461bcd60e51b81526004016104eb90611cd1565b61058c838383610f4e565b60006105cd83610917565b821061061b5760405162461bcd60e51b815260206004820152601c60248201527f455243343930373a20496e646578206f7574206f6620626f756e64730000000060448201526064016104eb565b6000610626846110bf565b9050808310156106a857604051632f745c5960e01b81526001600160a01b038516600482018190526024820185905290632f745c5990604401602060405180830381865afa15801561067c573d6000803e3d6000fd5b505050506040513d601f19601f820116820180604052508101906106a09190611d1e565b9150506103b8565b60006106b48285611d4d565b6001600160a01b0386166000908152600760205260409020805491925090829081106106e2576106e2611d60565b9060005260206000209060020201600001549250505092915050565b61058c83838360405180602001604052806000815250610c08565b6000818152600260205260408120546001600160a01b0316806103b85760405162461bcd60e51b8152602060048201526018602482015277115490cdcc8c4e881a5b9d985b1a59081d1bdad95b88125160421b60448201526064016104eb565b6008546040516331a9108f60e11b8152600481018390526000916001600160a01b031690636352211e90602401602060405180830381865afa1580156107c3573d6000803e3d6000fd5b505050506040513d601f19601f820116820180604052508101906107e79190611d76565b90506001600160a01b03811633146108415760405162461bcd60e51b815260206004820152601860248201527f4f6e6c79206f776e65722063616e2063616c6c2074686973000000000000000060448201526064016104eb565b600980546001600160a01b0319166001600160a01b0383811691909117909155600854604051632142170760e11b8152336004820152306024820152604481018590529116906342842e0e90606401600060405180830381600087803b1580156108aa57600080fd5b505af11580156108be573d6000803e3d6000fd5b505050506108cc3383611103565b600854604080516001600160a01b039092168252602082018490527f2273a99739c31a37346636a3013c2cedebee7cd5b4c560faded39d298c1dd45c91015b60405180910390a15050565b60006001600160a01b03821661093f5760405162461bcd60e51b81526004016104eb90611d93565b600061094a836110bf565b6001600160a01b038416600090815260076020526040812054919250805b828110156109f6576001600160a01b038616600090815260076020526040812080548390811061099a5761099a611d60565b600091825260209182902060408051808201909152600290920201805482526001015467ffffffffffffffff16918101829052915042116109e3576109e0600184611ddc565b92505b50806109ee81611def565b915050610968565b506000610a038285611ddc565b9695505050505050565b6008546040516331a9108f60e11b8152600481018390526000916001600160a01b031690636352211e90602401602060405180830381865afa158015610a57573d6000803e3d6000fd5b505050506040513d601f19601f82011682018060405250810190610a7b9190611d76565b9050610a873383610ecf565b610acb5760405162461bcd60e51b815260206004820152601560248201527404f6e6c79206f776e65722063616e20756e7772617605c1b60448201526064016104eb565b6001600160a01b0381163014610b235760405162461bcd60e51b815260206004820152601860248201527f4e6f207772617070656420746f6b656e496420666f756e64000000000000000060448201526064016104eb565b610b2c8261111d565b6008546001600160a01b03166342842e0e30336040516001600160e01b031960e085901b1681526001600160a01b0392831660048201529116602482015260448101859052606401600060405180830381600087803b158015610b8e57600080fd5b505af1158015610ba2573d6000803e3d6000fd5b5050600854604080516001600160a01b039092168252602082018690527feccdd2138cf9b77bd01ea625b20f5ce098bcf23bc855ed4c71526fdba9612141935001905061090b565b6060600180546103cd90611c97565b610c04338383611126565b5050565b610c123383610ecf565b610c2e5760405162461bcd60e51b81526004016104eb90611cd1565b610c3a848484846111f4565b50505050565b60008181526006602052604081205442600160a01b90910467ffffffffffffffff1610610c8357506000908152600660205260409020546001600160a01b031690565b506000919050565b60606103b882611227565b610ca03384610ecf565b610d065760405162461bcd60e51b815260206004820152603160248201527f4552433732313a207472616e736665722063616c6c6572206973206e6f74206f6044820152701ddb995c881b9bdc88185c1c1c9bdd9959607a1b60648201526084016104eb565b600083815260066020908152604080832080546001600160a01b0387166001600160e01b03199091168117600160a01b67ffffffffffffffff888116918202929092178455845180860186528a815280870182815284895260078852868920805460018181018355918b529989902083516002909b0201998a5590519801805467ffffffffffffffff191698909316979097179091559251928352909392909187917f4e06b4e7000e659094299b3533b47b6aa8ad048e95e872d23d1f4ee55af89cfe910160405180910390a35050505050565b60006001600160e01b03198216632b424ad760e21b14806103b857506103b88261129b565b6000818152600260205260409020546001600160a01b0316610e5e5760405162461bcd60e51b8152602060048201526018602482015277115490cdcc8c4e881a5b9d985b1a59081d1bdad95b88125160421b60448201526064016104eb565b50565b600081815260046020526040902080546001600160a01b0319166001600160a01b0384169081179091558190610e9682610719565b6001600160a01b03167f8c5be1e5ebec7d5bd14f71427d1e84f3dd0314c0f7b2291e5b200ac8c7c3b92560405160405180910390a45050565b600080610edb83610719565b9050806001600160a01b0316846001600160a01b03161480610f2257506001600160a01b0380821660009081526005602090815260408083209388168352929052205460ff165b80610f465750836001600160a01b0316610f3b84610450565b6001600160a01b0316145b949350505050565b826001600160a01b0316610f6182610719565b6001600160a01b031614610f875760405162461bcd60e51b81526004016104eb90611e08565b6001600160a01b038216610fe95760405162461bcd60e51b8152602060048201526024808201527f4552433732313a207472616e7366657220746f20746865207a65726f206164646044820152637265737360e01b60648201526084016104eb565b610ff683838360016112eb565b826001600160a01b031661100982610719565b6001600160a01b03161461102f5760405162461bcd60e51b81526004016104eb90611e08565b600081815260046020908152604080832080546001600160a01b03199081169091556001600160a01b0387811680865260038552838620805460001901905590871680865283862080546001019055868652600290945282852080549092168417909155905184937fddf252ad1be2c89b69c2b068fc378daa952ba7f163c4a11628f55a4df523b3ef91a4505050565b60006001600160a01b0382166110e75760405162461bcd60e51b81526004016104eb90611d93565b506001600160a01b031660009081526003602052604090205490565b610c0482826040518060200160405280600081525061138a565b610e5e816113bd565b816001600160a01b0316836001600160a01b0316036111875760405162461bcd60e51b815260206004820152601960248201527f4552433732313a20617070726f766520746f2063616c6c65720000000000000060448201526064016104eb565b6001600160a01b03838116600081815260056020908152604080832094871680845294825291829020805460ff191686151590811790915591519182527f17307eab39ab6107e8899845ad3d59bd9653f200f220920489ca2b5937696c31910160405180910390a3505050565b6111ff848484610f4e565b61120b84848484611460565b610c3a5760405162461bcd60e51b81526004016104eb90611e4d565b606061123282610dff565b600061124960408051602081019091526000815290565b905060008151116112695760405180602001604052806000815250611294565b8061127384611561565b604051602001611284929190611e9f565b6040516020818303038152906040525b9392505050565b60006001600160e01b031982166380ac58cd60e01b14806112cc57506001600160e01b03198216635b5e139f60e01b145b806103b857506301ffc9a760e01b6001600160e01b03198316146103b8565b6112f7848484846115f4565b826001600160a01b0316846001600160a01b03161415801561132f57506000828152600660205260409020546001600160a01b031615155b15610c3a57600082815260066020908152604080832080546001600160e01b03191690555182815284917f4e06b4e7000e659094299b3533b47b6aa8ad048e95e872d23d1f4ee55af89cfe910160405180910390a350505050565b6113948383611600565b6113a16000848484611460565b61058c5760405162461bcd60e51b81526004016104eb90611e4d565b60006113c882610719565b90506113d88160008460016112eb565b6113e182610719565b600083815260046020908152604080832080546001600160a01b03199081169091556001600160a01b0385168085526003845282852080546000190190558785526002909352818420805490911690555192935084927fddf252ad1be2c89b69c2b068fc378daa952ba7f163c4a11628f55a4df523b3ef908390a45050565b60006001600160a01b0384163b1561155657604051630a85bd0160e11b81526001600160a01b0385169063150b7a02906114a4903390899088908890600401611ece565b6020604051808303816000875af19250505080156114df575060408051601f3d908101601f191682019092526114dc91810190611f01565b60015b61153c573d80801561150d576040519150601f19603f3d011682016040523d82523d6000602084013e611512565b606091505b5080516000036115345760405162461bcd60e51b81526004016104eb90611e4d565b805181602001fd5b6001600160e01b031916630a85bd0160e11b149050610f46565b506001949350505050565b6060600061156e83611799565b600101905060008167ffffffffffffffff81111561158e5761158e611b24565b6040519080825280601f01601f1916602001820160405280156115b8576020820181803683370190505b5090508181016020015b600019016f181899199a1a9b1b9c1cb0b131b232b360811b600a86061a8153600a85049450846115c257509392505050565b6112f784848484611871565b6001600160a01b0382166116565760405162461bcd60e51b815260206004820181905260248201527f4552433732313a206d696e7420746f20746865207a65726f206164647265737360448201526064016104eb565b6000818152600260205260409020546001600160a01b0316156116bb5760405162461bcd60e51b815260206004820152601c60248201527f4552433732313a20746f6b656e20616c7265616479206d696e7465640000000060448201526064016104eb565b6116c96000838360016112eb565b6000818152600260205260409020546001600160a01b03161561172e5760405162461bcd60e51b815260206004820152601c60248201527f4552433732313a20746f6b656e20616c7265616479206d696e7465640000000060448201526064016104eb565b6001600160a01b038216600081815260036020908152604080832080546001019055848352600290915280822080546001600160a01b0319168417905551839291907fddf252ad1be2c89b69c2b068fc378daa952ba7f163c4a11628f55a4df523b3ef908290a45050565b60008072184f03e93ff9f4daa797ed6e38ed64bf6a1f0160401b83106117d85772184f03e93ff9f4daa797ed6e38ed64bf6a1f0160401b830492506040015b6d04ee2d6d415b85acef81000000008310611804576d04ee2d6d415b85acef8100000000830492506020015b662386f26fc10000831061182257662386f26fc10000830492506010015b6305f5e100831061183a576305f5e100830492506008015b612710831061184e57612710830492506004015b60648310611860576064830492506002015b600a83106103b85760010192915050565b6001811115610c3a576001600160a01b038416156118b7576001600160a01b038416600090815260036020526040812080548392906118b1908490611d4d565b90915550505b6001600160a01b03831615610c3a576001600160a01b038316600090815260036020526040812080548392906118ee908490611ddc565b909155505050505050565b6001600160e01b031981168114610e5e57600080fd5b60006020828403121561192157600080fd5b8135611294816118f9565b60005b8381101561194757818101518382015260200161192f565b50506000910152565b6000815180845261196881602086016020860161192c565b601f01601f19169290920160200192915050565b6020815260006112946020830184611950565b6000602082840312156119a157600080fd5b5035919050565b6001600160a01b0381168114610e5e57600080fd5b600080604083850312156119d057600080fd5b82356119db816119a8565b946020939093013593505050565b600080600080600060808688031215611a0157600080fd5b8535611a0c816119a8565b94506020860135611a1c816119a8565b935060408601359250606086013567ffffffffffffffff80821115611a4057600080fd5b818801915088601f830112611a5457600080fd5b813581811115611a6357600080fd5b896020828501011115611a7557600080fd5b9699959850939650602001949392505050565b600080600060608486031215611a9d57600080fd5b8335611aa8816119a8565b92506020840135611ab8816119a8565b929592945050506040919091013590565b600060208284031215611adb57600080fd5b8135611294816119a8565b60008060408385031215611af957600080fd5b8235611b04816119a8565b915060208301358015158114611b1957600080fd5b809150509250929050565b634e487b7160e01b600052604160045260246000fd5b60008060008060808587031215611b5057600080fd5b8435611b5b816119a8565b93506020850135611b6b816119a8565b925060408501359150606085013567ffffffffffffffff80821115611b8f57600080fd5b818701915087601f830112611ba357600080fd5b813581811115611bb557611bb5611b24565b604051601f8201601f19908116603f01168101908382118183101715611bdd57611bdd611b24565b816040528281528a6020848701011115611bf657600080fd5b82602086016020830137600060208483010152809550505050505092959194509250565b600080600060608486031215611c2f57600080fd5b833592506020840135611c41816119a8565b9150604084013567ffffffffffffffff81168114611c5e57600080fd5b809150509250925092565b60008060408385031215611c7c57600080fd5b8235611c87816119a8565b91506020830135611b19816119a8565b600181811c90821680611cab57607f821691505b602082108103611ccb57634e487b7160e01b600052602260045260246000fd5b50919050565b6020808252602d908201527f4552433732313a2063616c6c6572206973206e6f7420746f6b656e206f776e6560408201526c1c881bdc88185c1c1c9bdd9959609a1b606082015260800190565b600060208284031215611d3057600080fd5b5051919050565b634e487b7160e01b600052601160045260246000fd5b818103818111156103b8576103b8611d37565b634e487b7160e01b600052603260045260246000fd5b600060208284031215611d8857600080fd5b8151611294816119a8565b60208082526029908201527f4552433732313a2061646472657373207a65726f206973206e6f7420612076616040820152683634b21037bbb732b960b91b606082015260800190565b808201808211156103b8576103b8611d37565b600060018201611e0157611e01611d37565b5060010190565b60208082526025908201527f4552433732313a207472616e736665722066726f6d20696e636f72726563742060408201526437bbb732b960d91b606082015260800190565b60208082526032908201527f4552433732313a207472616e7366657220746f206e6f6e20455243373231526560408201527131b2b4bb32b91034b6b83632b6b2b73a32b960711b606082015260800190565b60008351611eb181846020880161192c565b835190830190611ec581836020880161192c565b01949350505050565b6001600160a01b0385811682528416602082015260408101839052608060608201819052600090610a0390830184611950565b600060208284031215611f1357600080fd5b8151611294816118f956fea264697066735822122043c77c9ff44f331272d5c3d1a17658df5208c352ccd55f7d4691b9b731727d2564736f6c63430008110033",
  "linkReferences": {},
  "deployedLinkReferences": {}
}