{
  "_format": "hh-sol-artifact-1",
  "contractName": "ERC4907Wrapper",
  "sourceName": "contracts/ERC4907/ERC4907Wrapper.sol",
  "abi": [
    {
      "inputs": [
        {
          "internalType": "address",
          "name": "wrapOwner",
          "type": "address"
        },
        {
          "internalType": "string",
          "name": "_name",
          "type": "string"
        },
        {
          "internalType": "string",
          "name": "_symbol",
          "type": "string"
        }
      ],
      "stateMutability": "nonpayable",
      "type": "constructor"
    },
    {
      "anonymous": false,
      "inputs": [
        {
          "indexed": true,
          "internalType": "address",
          "name": "owner",
          "type": "address"
        },
        {
          "indexed": true,
          "internalType": "address",
          "name": "approved",
          "type": "address"
        },
        {
          "indexed": true,
          "internalType": "uint256",
          "name": "tokenId",
          "type": "uint256"
        }
      ],
      "name": "Approval",
      "type": "event"
    },
    {
      "anonymous": false,
      "inputs": [
        {
          "indexed": true,
          "internalType": "address",
          "name": "owner",
          "type": "address"
        },
        {
          "indexed": true,
          "internalType": "address",
          "name": "operator",
          "type": "address"
        },
        {
          "indexed": false,
          "internalType": "bool",
          "name": "approved",
          "type": "bool"
        }
      ],
      "name": "ApprovalForAll",
      "type": "event"
    },
    {
      "anonymous": false,
      "inputs": [
        {
          "indexed": false,
          "internalType": "address",
          "name": "nftAddress",
          "type": "address"
        },
        {
          "indexed": false,
          "internalType": "uint256",
          "name": "tokenId",
          "type": "uint256"
        }
      ],
      "name": "TokenUnWrapped",
      "type": "event"
    },
    {
      "anonymous": false,
      "inputs": [
        {
          "indexed": false,
          "internalType": "address",
          "name": "nftAddress",
          "type": "address"
        },
        {
          "indexed": false,
          "internalType": "uint256",
          "name": "tokenId",
          "type": "uint256"
        }
      ],
      "name": "TokenWrapped",
      "type": "event"
    },
    {
      "anonymous": false,
      "inputs": [
        {
          "indexed": true,
          "internalType": "address",
          "name": "from",
          "type": "address"
        },
        {
          "indexed": true,
          "internalType": "address",
          "name": "to",
          "type": "address"
        },
        {
          "indexed": true,
          "internalType": "uint256",
          "name": "tokenId",
          "type": "uint256"
        }
      ],
      "name": "Transfer",
      "type": "event"
    },
    {
      "anonymous": false,
      "inputs": [
        {
          "indexed": true,
          "internalType": "uint256",
          "name": "tokenId",
          "type": "uint256"
        },
        {
          "indexed": true,
          "internalType": "address",
          "name": "user",
          "type": "address"
        },
        {
          "indexed": false,
          "internalType": "uint64",
          "name": "expires",
          "type": "uint64"
        }
      ],
      "name": "UpdateUser",
      "type": "event"
    },
    {
      "inputs": [],
      "name": "InterfaceIERC4907",
      "outputs": [
        {
          "internalType": "bytes4",
          "name": "",
          "type": "bytes4"
        }
      ],
      "stateMutability": "view",
      "type": "function"
    },
    {
      "inputs": [
        {
          "internalType": "address",
          "name": "to",
          "type": "address"
        },
        {
          "internalType": "uint256",
          "name": "tokenId",
          "type": "uint256"
        }
      ],
      "name": "approve",
      "outputs": [],
      "stateMutability": "nonpayable",
      "type": "function"
    },
    {
      "inputs": [
        {
          "internalType": "address",
          "name": "owner",
          "type": "address"
        }
      ],
      "name": "balanceOf",
      "outputs": [
        {
          "internalType": "uint256",
          "name": "",
          "type": "uint256"
        }
      ],
      "stateMutability": "view",
      "type": "function"
    },
    {
      "inputs": [],
      "name": "getAddress",
      "outputs": [
        {
          "internalType": "address",
          "name": "",
          "type": "address"
        }
      ],
      "stateMutability": "view",
      "type": "function"
    },
    {
      "inputs": [
        {
          "internalType": "uint256",
          "name": "tokenId",
          "type": "uint256"
        }
      ],
      "name": "getApproved",
      "outputs": [
        {
          "internalType": "address",
          "name": "",
          "type": "address"
        }
      ],
      "stateMutability": "view",
      "type": "function"
    },
    {
      "inputs": [
        {
          "internalType": "address",
          "name": "_nftAddress",
          "type": "address"
        },
        {
          "internalType": "uint256",
          "name": "_tokenId",
          "type": "uint256"
        }
      ],
      "name": "getOwner",
      "outputs": [
        {
          "internalType": "address",
          "name": "",
          "type": "address"
        }
      ],
      "stateMutability": "view",
      "type": "function"
    },
    {
      "inputs": [
        {
          "internalType": "address",
          "name": "owner",
          "type": "address"
        },
        {
          "internalType": "address",
          "name": "operator",
          "type": "address"
        }
      ],
      "name": "isApprovedForAll",
      "outputs": [
        {
          "internalType": "bool",
          "name": "",
          "type": "bool"
        }
      ],
      "stateMutability": "view",
      "type": "function"
    },
    {
      "inputs": [],
      "name": "name",
      "outputs": [
        {
          "internalType": "string",
          "name": "",
          "type": "string"
        }
      ],
      "stateMutability": "view",
      "type": "function"
    },
    {
      "inputs": [
        {
          "internalType": "address",
          "name": "operator",
          "type": "address"
        },
        {
          "internalType": "address",
          "name": "from",
          "type": "address"
        },
        {
          "internalType": "uint256",
          "name": "tokenId",
          "type": "uint256"
        },
        {
          "internalType": "bytes",
          "name": "data",
          "type": "bytes"
        }
      ],
      "name": "onERC721Received",
      "outputs": [
        {
          "internalType": "bytes4",
          "name": "",
          "type": "bytes4"
        }
      ],
      "stateMutability": "nonpayable",
      "type": "function"
    },
    {
      "inputs": [
        {
          "internalType": "uint256",
          "name": "tokenId",
          "type": "uint256"
        }
      ],
      "name": "ownerOf",
      "outputs": [
        {
          "internalType": "address",
          "name": "",
          "type": "address"
        }
      ],
      "stateMutability": "view",
      "type": "function"
    },
    {
      "inputs": [
        {
          "internalType": "address",
          "name": "from",
          "type": "address"
        },
        {
          "internalType": "address",
          "name": "to",
          "type": "address"
        },
        {
          "internalType": "uint256",
          "name": "tokenId",
          "type": "uint256"
        }
      ],
      "name": "safeTransferFrom",
      "outputs": [],
      "stateMutability": "nonpayable",
      "type": "function"
    },
    {
      "inputs": [
        {
          "internalType": "address",
          "name": "from",
          "type": "address"
        },
        {
          "internalType": "address",
          "name": "to",
          "type": "address"
        },
        {
          "internalType": "uint256",
          "name": "tokenId",
          "type": "uint256"
        },
        {
          "internalType": "bytes",
          "name": "data",
          "type": "bytes"
        }
      ],
      "name": "safeTransferFrom",
      "outputs": [],
      "stateMutability": "nonpayable",
      "type": "function"
    },
    {
      "inputs": [
        {
          "internalType": "address",
          "name": "operator",
          "type": "address"
        },
        {
          "internalType": "bool",
          "name": "approved",
          "type": "bool"
        }
      ],
      "name": "setApprovalForAll",
      "outputs": [],
      "stateMutability": "nonpayable",
      "type": "function"
    },
    {
      "inputs": [
        {
          "internalType": "uint256",
          "name": "tokenId",
          "type": "uint256"
        },
        {
          "internalType": "address",
          "name": "user",
          "type": "address"
        },
        {
          "internalType": "uint64",
          "name": "expires",
          "type": "uint64"
        }
      ],
      "name": "setUser",
      "outputs": [],
      "stateMutability": "nonpayable",
      "type": "function"
    },
    {
      "inputs": [
        {
          "internalType": "bytes4",
          "name": "interfaceId",
          "type": "bytes4"
        }
      ],
      "name": "supportsInterface",
      "outputs": [
        {
          "internalType": "bool",
          "name": "",
          "type": "bool"
        }
      ],
      "stateMutability": "view",
      "type": "function"
    },
    {
      "inputs": [],
      "name": "symbol",
      "outputs": [
        {
          "internalType": "string",
          "name": "",
          "type": "string"
        }
      ],
      "stateMutability": "view",
      "type": "function"
    },
    {
      "inputs": [
        {
          "internalType": "address",
          "name": "owner",
          "type": "address"
        },
        {
          "internalType": "uint256",
          "name": "index",
          "type": "uint256"
        }
      ],
      "name": "tokenOfOwnerByIndex",
      "outputs": [
        {
          "internalType": "uint256",
          "name": "",
          "type": "uint256"
        }
      ],
      "stateMutability": "view",
      "type": "function"
    },
    {
      "inputs": [
        {
          "internalType": "uint256",
          "name": "tokenId",
          "type": "uint256"
        }
      ],
      "name": "tokenURI",
      "outputs": [
        {
          "internalType": "string",
          "name": "",
          "type": "string"
        }
      ],
      "stateMutability": "view",
      "type": "function"
    },
    {
      "inputs": [
        {
          "internalType": "address",
          "name": "from",
          "type": "address"
        },
        {
          "internalType": "address",
          "name": "to",
          "type": "address"
        },
        {
          "internalType": "uint256",
          "name": "tokenId",
          "type": "uint256"
        }
      ],
      "name": "transferFrom",
      "outputs": [],
      "stateMutability": "nonpayable",
      "type": "function"
    },
    {
      "inputs": [
        {
          "internalType": "uint256",
          "name": "tokenId",
          "type": "uint256"
        }
      ],
      "name": "unwrapToken",
      "outputs": [],
      "stateMutability": "nonpayable",
      "type": "function"
    },
    {
      "inputs": [
        {
          "internalType": "uint256",
          "name": "tokenId",
          "type": "uint256"
        }
      ],
      "name": "userExpires",
      "outputs": [
        {
          "internalType": "uint256",
          "name": "",
          "type": "uint256"
        }
      ],
      "stateMutability": "view",
      "type": "function"
    },
    {
      "inputs": [
        {
          "internalType": "uint256",
          "name": "tokenId",
          "type": "uint256"
        }
      ],
      "name": "userOf",
      "outputs": [
        {
          "internalType": "address",
          "name": "",
          "type": "address"
        }
      ],
      "stateMutability": "view",
      "type": "function"
    },
    {
      "inputs": [
        {
          "internalType": "address",
          "name": "_nftAddress",
          "type": "address"
        },
        {
          "internalType": "uint256",
          "name": "tokenId",
          "type": "uint256"
        }
      ],
      "name": "wrapToken",
      "outputs": [],
      "stateMutability": "nonpayable",
      "type": "function"
    }
  ],
  "bytecode": "0x60806040523480156200001157600080fd5b506040516200247238038062002472833981016040819052620000349162000153565b8181818160006200004683826200026c565b5060016200005582826200026c565b505060016008555050600a80546001600160a81b0319166001600160a01b0390951694909417600160a01b179093555062000338915050565b634e487b7160e01b600052604160045260246000fd5b600082601f830112620000b657600080fd5b81516001600160401b0380821115620000d357620000d36200008e565b604051601f8301601f19908116603f01168101908282118183101715620000fe57620000fe6200008e565b816040528381526020925086838588010111156200011b57600080fd5b600091505b838210156200013f578582018301518183018401529082019062000120565b600093810190920192909252949350505050565b6000806000606084860312156200016957600080fd5b83516001600160a01b03811681146200018157600080fd5b60208501519093506001600160401b03808211156200019f57600080fd5b620001ad87838801620000a4565b93506040860151915080821115620001c457600080fd5b50620001d386828701620000a4565b9150509250925092565b600181811c90821680620001f257607f821691505b6020821081036200021357634e487b7160e01b600052602260045260246000fd5b50919050565b601f8211156200026757600081815260208120601f850160051c81016020861015620002425750805b601f850160051c820191505b8181101562000263578281556001016200024e565b5050505b505050565b81516001600160401b038111156200028857620002886200008e565b620002a081620002998454620001dd565b8462000219565b602080601f831160018114620002d85760008415620002bf5750858301515b600019600386901b1c1916600185901b17855562000263565b600085815260208120601f198616915b828110156200030957888601518255948401946001909101908401620002e8565b5085821015620003285787850151600019600388901b60f8161c191681555b5050505050600190811b01905550565b61212a80620003486000396000f3fe608060405234801561001057600080fd5b506004361061014d5760003560e01c80636352211e116100c3578063a22cb4651161007c578063a22cb465146102fa578063b88d4fde1461030d578063c2f1f14a14610320578063c87b56dd14610333578063e030565e14610346578063e985e9c51461035957600080fd5b80636352211e1461027a57806370a082311461028d57806377b8ed1e146102a05780638fc88c48146102ae578063940997f7146102df57806395d89b41146102f257600080fd5b806323b872dd1161011557806323b872dd146102075780632f634a901461021a5780632f745c591461022d57806338cc48311461024e57806342842e0e14610254578063460b53e31461026757600080fd5b806301ffc9a71461015257806306fdde031461017a578063081812fc1461018f578063095ea7b3146101ba578063150b7a02146101cf575b600080fd5b610165610160366004611ae5565b610395565b60405190151581526020015b60405180910390f35b6101826103c0565b6040516101719190611b52565b6101a261019d366004611b65565b610452565b6040516001600160a01b039091168152602001610171565b6101cd6101c8366004611b93565b610479565b005b6101ee6101dd366004611bbf565b630a85bd0160e11b95945050505050565b6040516001600160e01b03199091168152602001610171565b6101cd610215366004611c5e565b610593565b6101a2610228366004611b93565b6105c4565b61024061023b366004611b93565b610637565b604051908152602001610171565b306101a2565b6101cd610262366004611c5e565b610772565b6101cd610275366004611b93565b61078d565b6101a2610288366004611b65565b6109fc565b61024061029b366004611c9f565b610a5c565b6101ee632b424ad760e21b81565b6102406102bc366004611b65565b600090815260066020526040902054600160a01b900467ffffffffffffffff1690565b6101cd6102ed366004611b65565b610b52565b610182610d6f565b6101cd610308366004611cbc565b610d7e565b6101cd61031b366004611d10565b610d89565b6101a261032e366004611b65565b610dc1565b610182610341366004611b65565b610e0c565b6101cd610354366004611df0565b610e17565b610165610367366004611e3f565b6001600160a01b03918216600090815260056020908152604080832093909416825291909152205460ff1690565b60006001600160e01b03198216632b424ad760e21b14806103ba57506103ba82610f5b565b92915050565b6060600080546103cf90611e6d565b80601f01602080910402602001604051908101604052809291908181526020018280546103fb90611e6d565b80156104485780601f1061041d57610100808354040283529160200191610448565b820191906000526020600020905b81548152906001019060200180831161042b57829003601f168201915b5050505050905090565b600061045d82610f80565b506000908152600460205260409020546001600160a01b031690565b6000610484826109fc565b9050806001600160a01b0316836001600160a01b0316036104f65760405162461bcd60e51b815260206004820152602160248201527f4552433732313a20617070726f76616c20746f2063757272656e74206f776e656044820152603960f91b60648201526084015b60405180910390fd5b336001600160a01b038216148061051257506105128133610367565b6105845760405162461bcd60e51b815260206004820152603d60248201527f4552433732313a20617070726f76652063616c6c6572206973206e6f7420746f60448201527f6b656e206f776e6572206f7220617070726f76656420666f7220616c6c00000060648201526084016104ed565b61058e8383610fdf565b505050565b61059d338261104d565b6105b95760405162461bcd60e51b81526004016104ed90611ea7565b61058e8383836110cc565b6040516331a9108f60e11b8152600481018290526000906001600160a01b03841690636352211e90602401602060405180830381865afa15801561060c573d6000803e3d6000fd5b505050506040513d601f19601f820116820180604052508101906106309190611ef4565b9392505050565b600061064283610a5c565b82106106905760405162461bcd60e51b815260206004820152601c60248201527f455243343930373a20496e646578206f7574206f6620626f756e64730000000060448201526064016104ed565b600061069b8461123d565b90508083101561071d57604051632f745c5960e01b81526001600160a01b038516600482018190526024820185905290632f745c5990604401602060405180830381865afa1580156106f1573d6000803e3d6000fd5b505050506040513d601f19601f820116820180604052508101906107159190611f11565b9150506103ba565b60006107298285611f40565b6001600160a01b03861660009081526007602052604090208054919250908290811061075757610757611f53565b906000526020600020906002020160000154925050506103ba565b61058e83838360405180602001604052806000815250610d89565b600a54600160a01b900460ff1615156001146107eb5760405162461bcd60e51b815260206004820152601d60248201527f5772617070696e6720686173206e6f74206265656e20726573756d656400000060448201526064016104ed565b6107f3611281565b6040516331a9108f60e11b8152600481018290526000906001600160a01b03841690636352211e90602401602060405180830381865afa15801561083b573d6000803e3d6000fd5b505050506040513d601f19601f8201168201806040525081019061085f9190611ef4565b90506001600160a01b03811633146108b95760405162461bcd60e51b815260206004820152601960248201527f4f6e6c79206f776e65722063616e207772617020746f6b656e0000000000000060448201526064016104ed565b60006108c460095490565b604051632142170760e11b8152336004820152306024820152604481018590529091506001600160a01b038516906342842e0e90606401600060405180830381600087803b15801561091557600080fd5b505af1158015610929573d6000803e3d6000fd5b5050505061093733826112da565b604080516060810182526001600160a01b0380871682526020808301878152338486019081526000878152600b90935294909120925183549083166001600160a01b03199182161784559051600184015592516002909201805492909116919092161790556109aa600980546001019055565b604080516001600160a01b0386168152602081018390527f2273a99739c31a37346636a3013c2cedebee7cd5b4c560faded39d298c1dd45c910160405180910390a150506109f86001600855565b5050565b6000818152600260205260408120546001600160a01b0316806103ba5760405162461bcd60e51b8152602060048201526018602482015277115490cdcc8c4e881a5b9d985b1a59081d1bdad95b88125160421b60448201526064016104ed565b60006001600160a01b038216610a845760405162461bcd60e51b81526004016104ed90611f69565b6000610a8f8361123d565b6001600160a01b038416600090815260076020526040812054919250805b82811015610b3b576001600160a01b0386166000908152600760205260408120805483908110610adf57610adf611f53565b600091825260209182902060408051808201909152600290920201805482526001015467ffffffffffffffff1691810182905291504211610b2857610b25600184611fb2565b92505b5080610b3381611fc5565b915050610aad565b506000610b488285611fb2565b9695505050505050565b610b5a611281565b6000818152600b6020526040908190208054600182015492516331a9108f60e11b815291926001600160a01b039091169130918391636352211e91610ba59160040190815260200190565b602060405180830381865afa158015610bc2573d6000803e3d6000fd5b505050506040513d601f19601f82011682018060405250810190610be69190611ef4565b6001600160a01b031614610c465760405162461bcd60e51b815260206004820152602160248201527f496e76616c6964207772617070656420746f6b656e49642070726f76696465646044820152601760f91b60648201526084016104ed565b60028201546001600160a01b03163314610ca25760405162461bcd60e51b815260206004820152601e60248201527f4f6e6c79206f726967696e616c206f776e65722063616e20756e77726170000060448201526064016104ed565b610cab836112f4565b81546001830154604051632142170760e11b815230600482015233602482015260448101919091526001600160a01b03909116906342842e0e90606401600060405180830381600087803b158015610d0257600080fd5b505af1158015610d16573d6000803e3d6000fd5b50508354604080516001600160a01b039092168252602082018790527feccdd2138cf9b77bd01ea625b20f5ce098bcf23bc855ed4c71526fdba9612141935001905060405180910390a15050610d6c6001600855565b50565b6060600180546103cf90611e6d565b6109f83383836112fd565b610d93338361104d565b610daf5760405162461bcd60e51b81526004016104ed90611ea7565b610dbb848484846113cb565b50505050565b60008181526006602052604081205442600160a01b90910467ffffffffffffffff1610610e0457506000908152600660205260409020546001600160a01b031690565b506000919050565b60606103ba826113fe565b610e21338461104d565b610e875760405162461bcd60e51b815260206004820152603160248201527f4552433732313a207472616e736665722063616c6c6572206973206e6f74206f6044820152701ddb995c881b9bdc88185c1c1c9bdd9959607a1b60648201526084016104ed565b600083815260066020908152604080832080546001600160a01b0387166001600160e01b03199091168117600160a01b67ffffffffffffffff888116918202929092178455845180860186528a815280870182815284895260078852868920805460018181018355918b529989902083516002909b0201998a5590519801805467ffffffffffffffff191698909316979097179091559251928352909392909187917f4e06b4e7000e659094299b3533b47b6aa8ad048e95e872d23d1f4ee55af89cfe910160405180910390a35050505050565b60006001600160e01b03198216632b424ad760e21b14806103ba57506103ba82611471565b6000818152600260205260409020546001600160a01b0316610d6c5760405162461bcd60e51b8152602060048201526018602482015277115490cdcc8c4e881a5b9d985b1a59081d1bdad95b88125160421b60448201526064016104ed565b600081815260046020526040902080546001600160a01b0319166001600160a01b0384169081179091558190611014826109fc565b6001600160a01b03167f8c5be1e5ebec7d5bd14f71427d1e84f3dd0314c0f7b2291e5b200ac8c7c3b92560405160405180910390a45050565b600080611059836109fc565b9050806001600160a01b0316846001600160a01b031614806110a057506001600160a01b0380821660009081526005602090815260408083209388168352929052205460ff165b806110c45750836001600160a01b03166110b984610452565b6001600160a01b0316145b949350505050565b826001600160a01b03166110df826109fc565b6001600160a01b0316146111055760405162461bcd60e51b81526004016104ed90611fde565b6001600160a01b0382166111675760405162461bcd60e51b8152602060048201526024808201527f4552433732313a207472616e7366657220746f20746865207a65726f206164646044820152637265737360e01b60648201526084016104ed565b61117483838360016114c1565b826001600160a01b0316611187826109fc565b6001600160a01b0316146111ad5760405162461bcd60e51b81526004016104ed90611fde565b600081815260046020908152604080832080546001600160a01b03199081169091556001600160a01b0387811680865260038552838620805460001901905590871680865283862080546001019055868652600290945282852080549092168417909155905184937fddf252ad1be2c89b69c2b068fc378daa952ba7f163c4a11628f55a4df523b3ef91a4505050565b60006001600160a01b0382166112655760405162461bcd60e51b81526004016104ed90611f69565b506001600160a01b031660009081526003602052604090205490565b6002600854036112d35760405162461bcd60e51b815260206004820152601f60248201527f5265656e7472616e637947756172643a207265656e7472616e742063616c6c0060448201526064016104ed565b6002600855565b6109f8828260405180602001604052806000815250611560565b610d6c81611593565b816001600160a01b0316836001600160a01b03160361135e5760405162461bcd60e51b815260206004820152601960248201527f4552433732313a20617070726f766520746f2063616c6c65720000000000000060448201526064016104ed565b6001600160a01b03838116600081815260056020908152604080832094871680845294825291829020805460ff191686151590811790915591519182527f17307eab39ab6107e8899845ad3d59bd9653f200f220920489ca2b5937696c31910160405180910390a3505050565b6113d68484846110cc565b6113e284848484611636565b610dbb5760405162461bcd60e51b81526004016104ed90612023565b606061140982610f80565b600061142060408051602081019091526000815290565b905060008151116114405760405180602001604052806000815250610630565b8061144a84611737565b60405160200161145b929190612075565b6040516020818303038152906040529392505050565b60006001600160e01b031982166380ac58cd60e01b14806114a257506001600160e01b03198216635b5e139f60e01b145b806103ba57506301ffc9a760e01b6001600160e01b03198316146103ba565b6114cd848484846117ca565b826001600160a01b0316846001600160a01b03161415801561150557506000828152600660205260409020546001600160a01b031615155b15610dbb57600082815260066020908152604080832080546001600160e01b03191690555182815284917f4e06b4e7000e659094299b3533b47b6aa8ad048e95e872d23d1f4ee55af89cfe910160405180910390a350505050565b61156a83836117d6565b6115776000848484611636565b61058e5760405162461bcd60e51b81526004016104ed90612023565b600061159e826109fc565b90506115ae8160008460016114c1565b6115b7826109fc565b600083815260046020908152604080832080546001600160a01b03199081169091556001600160a01b0385168085526003845282852080546000190190558785526002909352818420805490911690555192935084927fddf252ad1be2c89b69c2b068fc378daa952ba7f163c4a11628f55a4df523b3ef908390a45050565b60006001600160a01b0384163b1561172c57604051630a85bd0160e11b81526001600160a01b0385169063150b7a029061167a9033908990889088906004016120a4565b6020604051808303816000875af19250505080156116b5575060408051601f3d908101601f191682019092526116b2918101906120d7565b60015b611712573d8080156116e3576040519150601f19603f3d011682016040523d82523d6000602084013e6116e8565b606091505b50805160000361170a5760405162461bcd60e51b81526004016104ed90612023565b805181602001fd5b6001600160e01b031916630a85bd0160e11b1490506110c4565b506001949350505050565b606060006117448361196f565b600101905060008167ffffffffffffffff81111561176457611764611cfa565b6040519080825280601f01601f19166020018201604052801561178e576020820181803683370190505b5090508181016020015b600019016f181899199a1a9b1b9c1cb0b131b232b360811b600a86061a8153600a850494508461179857509392505050565b6114cd84848484611a47565b6001600160a01b03821661182c5760405162461bcd60e51b815260206004820181905260248201527f4552433732313a206d696e7420746f20746865207a65726f206164647265737360448201526064016104ed565b6000818152600260205260409020546001600160a01b0316156118915760405162461bcd60e51b815260206004820152601c60248201527f4552433732313a20746f6b656e20616c7265616479206d696e7465640000000060448201526064016104ed565b61189f6000838360016114c1565b6000818152600260205260409020546001600160a01b0316156119045760405162461bcd60e51b815260206004820152601c60248201527f4552433732313a20746f6b656e20616c7265616479206d696e7465640000000060448201526064016104ed565b6001600160a01b038216600081815260036020908152604080832080546001019055848352600290915280822080546001600160a01b0319168417905551839291907fddf252ad1be2c89b69c2b068fc378daa952ba7f163c4a11628f55a4df523b3ef908290a45050565b60008072184f03e93ff9f4daa797ed6e38ed64bf6a1f0160401b83106119ae5772184f03e93ff9f4daa797ed6e38ed64bf6a1f0160401b830492506040015b6d04ee2d6d415b85acef810000000083106119da576d04ee2d6d415b85acef8100000000830492506020015b662386f26fc1000083106119f857662386f26fc10000830492506010015b6305f5e1008310611a10576305f5e100830492506008015b6127108310611a2457612710830492506004015b60648310611a36576064830492506002015b600a83106103ba5760010192915050565b6001811115610dbb576001600160a01b03841615611a8d576001600160a01b03841660009081526003602052604081208054839290611a87908490611f40565b90915550505b6001600160a01b03831615610dbb576001600160a01b03831660009081526003602052604081208054839290611ac4908490611fb2565b909155505050505050565b6001600160e01b031981168114610d6c57600080fd5b600060208284031215611af757600080fd5b813561063081611acf565b60005b83811015611b1d578181015183820152602001611b05565b50506000910152565b60008151808452611b3e816020860160208601611b02565b601f01601f19169290920160200192915050565b6020815260006106306020830184611b26565b600060208284031215611b7757600080fd5b5035919050565b6001600160a01b0381168114610d6c57600080fd5b60008060408385031215611ba657600080fd5b8235611bb181611b7e565b946020939093013593505050565b600080600080600060808688031215611bd757600080fd5b8535611be281611b7e565b94506020860135611bf281611b7e565b935060408601359250606086013567ffffffffffffffff80821115611c1657600080fd5b818801915088601f830112611c2a57600080fd5b813581811115611c3957600080fd5b896020828501011115611c4b57600080fd5b9699959850939650602001949392505050565b600080600060608486031215611c7357600080fd5b8335611c7e81611b7e565b92506020840135611c8e81611b7e565b929592945050506040919091013590565b600060208284031215611cb157600080fd5b813561063081611b7e565b60008060408385031215611ccf57600080fd5b8235611cda81611b7e565b915060208301358015158114611cef57600080fd5b809150509250929050565b634e487b7160e01b600052604160045260246000fd5b60008060008060808587031215611d2657600080fd5b8435611d3181611b7e565b93506020850135611d4181611b7e565b925060408501359150606085013567ffffffffffffffff80821115611d6557600080fd5b818701915087601f830112611d7957600080fd5b813581811115611d8b57611d8b611cfa565b604051601f8201601f19908116603f01168101908382118183101715611db357611db3611cfa565b816040528281528a6020848701011115611dcc57600080fd5b82602086016020830137600060208483010152809550505050505092959194509250565b600080600060608486031215611e0557600080fd5b833592506020840135611e1781611b7e565b9150604084013567ffffffffffffffff81168114611e3457600080fd5b809150509250925092565b60008060408385031215611e5257600080fd5b8235611e5d81611b7e565b91506020830135611cef81611b7e565b600181811c90821680611e8157607f821691505b602082108103611ea157634e487b7160e01b600052602260045260246000fd5b50919050565b6020808252602d908201527f4552433732313a2063616c6c6572206973206e6f7420746f6b656e206f776e6560408201526c1c881bdc88185c1c1c9bdd9959609a1b606082015260800190565b600060208284031215611f0657600080fd5b815161063081611b7e565b600060208284031215611f2357600080fd5b5051919050565b634e487b7160e01b600052601160045260246000fd5b818103818111156103ba576103ba611f2a565b634e487b7160e01b600052603260045260246000fd5b60208082526029908201527f4552433732313a2061646472657373207a65726f206973206e6f7420612076616040820152683634b21037bbb732b960b91b606082015260800190565b808201808211156103ba576103ba611f2a565b600060018201611fd757611fd7611f2a565b5060010190565b60208082526025908201527f4552433732313a207472616e736665722066726f6d20696e636f72726563742060408201526437bbb732b960d91b606082015260800190565b60208082526032908201527f4552433732313a207472616e7366657220746f206e6f6e20455243373231526560408201527131b2b4bb32b91034b6b83632b6b2b73a32b960711b606082015260800190565b60008351612087818460208801611b02565b83519083019061209b818360208801611b02565b01949350505050565b6001600160a01b0385811682528416602082015260408101839052608060608201819052600090610b4890830184611b26565b6000602082840312156120e957600080fd5b815161063081611acf56fea26469706673582212200983303fe628abbd0a26f2871214a4ccd51f9d1696383269eb3ff046eade543b64736f6c63430008110033",
  "linkReferences": {},
  "deployedLinkReferences": {}
}