{
  "_format": "hh-sol-artifact-1",
  "contractName": "MarketplaceDC",
  "sourceName": "contracts/MarketplaceDC.sol",
  "abi": [
    {
      "inputs": [
        {
          "internalType": "address",
          "name": "_owner",
          "type": "address"
        },
        {
          "internalType": "address",
          "name": "_feeCollector",
          "type": "address"
        },
        {
          "internalType": "uint256",
          "name": "_fee",
          "type": "uint256"
        },
        {
          "internalType": "uint256",
          "name": "_commsPercentage",
          "type": "uint256"
        }
      ],
      "stateMutability": "nonpayable",
      "type": "constructor"
    },
    {
      "anonymous": false,
      "inputs": [
        {
          "indexed": false,
          "internalType": "address",
          "name": "rentee",
          "type": "address"
        },
        {
          "indexed": false,
          "internalType": "uint256",
          "name": "bidAmt",
          "type": "uint256"
        }
      ],
      "name": "BidReceived",
      "type": "event"
    },
    {
      "anonymous": false,
      "inputs": [
        {
          "indexed": false,
          "internalType": "address",
          "name": "bidder",
          "type": "address"
        },
        {
          "indexed": false,
          "internalType": "uint256",
          "name": "bidAmt",
          "type": "uint256"
        }
      ],
      "name": "BidReturned",
      "type": "event"
    },
    {
      "anonymous": false,
      "inputs": [
        {
          "indexed": false,
          "internalType": "address",
          "name": "feeCollector",
          "type": "address"
        },
        {
          "indexed": false,
          "internalType": "uint256",
          "name": "feeWithdrawn",
          "type": "uint256"
        }
      ],
      "name": "ComissionWithdrawn",
      "type": "event"
    },
    {
      "anonymous": false,
      "inputs": [
        {
          "indexed": false,
          "internalType": "uint256",
          "name": "_from",
          "type": "uint256"
        },
        {
          "indexed": false,
          "internalType": "uint256",
          "name": "_to",
          "type": "uint256"
        },
        {
          "indexed": false,
          "internalType": "address",
          "name": "_sender",
          "type": "address"
        }
      ],
      "name": "FeeUpdated",
      "type": "event"
    },
    {
      "anonymous": false,
      "inputs": [
        {
          "indexed": true,
          "internalType": "address",
          "name": "_nftAddress",
          "type": "address"
        },
        {
          "indexed": true,
          "internalType": "uint256",
          "name": "tokenId",
          "type": "uint256"
        },
        {
          "indexed": false,
          "internalType": "uint256",
          "name": "rentalDays",
          "type": "uint256"
        },
        {
          "indexed": false,
          "internalType": "uint256",
          "name": "bidAmt",
          "type": "uint256"
        }
      ],
      "name": "TokenBid",
      "type": "event"
    },
    {
      "anonymous": false,
      "inputs": [
        {
          "indexed": true,
          "internalType": "address",
          "name": "_nftAddress",
          "type": "address"
        },
        {
          "indexed": true,
          "internalType": "uint256",
          "name": "tokenId",
          "type": "uint256"
        },
        {
          "indexed": false,
          "internalType": "address",
          "name": "_sender",
          "type": "address"
        }
      ],
      "name": "TokenClaimed",
      "type": "event"
    },
    {
      "anonymous": false,
      "inputs": [
        {
          "indexed": false,
          "internalType": "address",
          "name": "_nftAddress",
          "type": "address"
        },
        {
          "indexed": false,
          "internalType": "uint256",
          "name": "tokenId",
          "type": "uint256"
        },
        {
          "indexed": false,
          "internalType": "bool",
          "name": "availableToRent",
          "type": "bool"
        }
      ],
      "name": "TokenDelisted",
      "type": "event"
    },
    {
      "anonymous": false,
      "inputs": [
        {
          "indexed": true,
          "internalType": "address",
          "name": "_nftAddress",
          "type": "address"
        },
        {
          "indexed": true,
          "internalType": "uint256",
          "name": "tokenId",
          "type": "uint256"
        },
        {
          "indexed": false,
          "internalType": "uint256",
          "name": "pricePerDay",
          "type": "uint256"
        },
        {
          "indexed": false,
          "internalType": "uint256",
          "name": "minRentalDays",
          "type": "uint256"
        },
        {
          "indexed": false,
          "internalType": "uint256",
          "name": "maxRentalDays",
          "type": "uint256"
        },
        {
          "indexed": false,
          "internalType": "uint256",
          "name": "listingExpiry",
          "type": "uint256"
        }
      ],
      "name": "TokenListed",
      "type": "event"
    },
    {
      "anonymous": false,
      "inputs": [
        {
          "indexed": true,
          "internalType": "address",
          "name": "_nftAddress",
          "type": "address"
        },
        {
          "indexed": true,
          "internalType": "uint256",
          "name": "tokenId",
          "type": "uint256"
        },
        {
          "indexed": false,
          "internalType": "address",
          "name": "rentee",
          "type": "address"
        },
        {
          "indexed": false,
          "internalType": "uint256",
          "name": "pricePerDay",
          "type": "uint256"
        },
        {
          "indexed": false,
          "internalType": "uint256",
          "name": "rentalDays",
          "type": "uint256"
        },
        {
          "indexed": false,
          "internalType": "address",
          "name": "_sender",
          "type": "address"
        }
      ],
      "name": "TokenRented",
      "type": "event"
    },
    {
      "anonymous": false,
      "inputs": [
        {
          "indexed": false,
          "internalType": "uint256",
          "name": "_from",
          "type": "uint256"
        },
        {
          "indexed": false,
          "internalType": "uint256",
          "name": "_to",
          "type": "uint256"
        },
        {
          "indexed": false,
          "internalType": "address",
          "name": "sender",
          "type": "address"
        }
      ],
      "name": "commsUpdated",
      "type": "event"
    },
    {
      "anonymous": false,
      "inputs": [
        {
          "indexed": false,
          "internalType": "address",
          "name": "_from",
          "type": "address"
        },
        {
          "indexed": false,
          "internalType": "address",
          "name": "_to",
          "type": "address"
        },
        {
          "indexed": false,
          "internalType": "address",
          "name": "_sender",
          "type": "address"
        }
      ],
      "name": "feeCollectorUpdated",
      "type": "event"
    },
    {
      "inputs": [
        {
          "internalType": "address",
          "name": "_nftAddress",
          "type": "address"
        },
        {
          "internalType": "uint256",
          "name": "tokenId",
          "type": "uint256"
        },
        {
          "internalType": "address",
          "name": "rentee",
          "type": "address"
        }
      ],
      "name": "acceptBid",
      "outputs": [],
      "stateMutability": "payable",
      "type": "function"
    },
    {
      "inputs": [
        {
          "internalType": "address",
          "name": "_nftAddress",
          "type": "address"
        },
        {
          "internalType": "uint256",
          "name": "tokenId",
          "type": "uint256"
        },
        {
          "internalType": "uint256",
          "name": "rentalDays",
          "type": "uint256"
        }
      ],
      "name": "bidNFT",
      "outputs": [],
      "stateMutability": "payable",
      "type": "function"
    },
    {
      "inputs": [
        {
          "internalType": "address",
          "name": "_nftAddress",
          "type": "address"
        },
        {
          "internalType": "uint256",
          "name": "tokenId",
          "type": "uint256"
        }
      ],
      "name": "claimNFT",
      "outputs": [],
      "stateMutability": "nonpayable",
      "type": "function"
    },
    {
      "inputs": [
        {
          "internalType": "address",
          "name": "_nftAddress",
          "type": "address"
        },
        {
          "internalType": "uint256",
          "name": "tokenId",
          "type": "uint256"
        }
      ],
      "name": "delistNFT",
      "outputs": [],
      "stateMutability": "nonpayable",
      "type": "function"
    },
    {
      "inputs": [
        {
          "internalType": "address",
          "name": "_nftAddress",
          "type": "address"
        },
        {
          "internalType": "uint256",
          "name": "tokenId",
          "type": "uint256"
        }
      ],
      "name": "getAllBids",
      "outputs": [
        {
          "components": [
            {
              "internalType": "address",
              "name": "contractAddress",
              "type": "address"
            },
            {
              "internalType": "uint256",
              "name": "tokenId",
              "type": "uint256"
            },
            {
              "internalType": "address payable",
              "name": "rentee",
              "type": "address"
            },
            {
              "internalType": "uint256",
              "name": "pricePerDay",
              "type": "uint256"
            },
            {
              "internalType": "uint256",
              "name": "rentalDays",
              "type": "uint256"
            },
            {
              "internalType": "uint256",
              "name": "totalBid",
              "type": "uint256"
            }
          ],
          "internalType": "struct MarketplaceDC.Bid[]",
          "name": "",
          "type": "tuple[]"
        }
      ],
      "stateMutability": "view",
      "type": "function"
    },
    {
      "inputs": [],
      "name": "getAllListings",
      "outputs": [
        {
          "components": [
            {
              "internalType": "address",
              "name": "contractAddress",
              "type": "address"
            },
            {
              "internalType": "uint256",
              "name": "tokenId",
              "type": "uint256"
            },
            {
              "internalType": "address payable",
              "name": "owner",
              "type": "address"
            },
            {
              "internalType": "uint256",
              "name": "pricePerDay",
              "type": "uint256"
            },
            {
              "internalType": "uint256",
              "name": "minRentalDays",
              "type": "uint256"
            },
            {
              "internalType": "uint256",
              "name": "maxRentalDays",
              "type": "uint256"
            },
            {
              "internalType": "uint256",
              "name": "listingExpiry",
              "type": "uint256"
            },
            {
              "internalType": "bool",
              "name": "availableToRent",
              "type": "bool"
            }
          ],
          "internalType": "struct MarketplaceDC.Listing[]",
          "name": "",
          "type": "tuple[]"
        }
      ],
      "stateMutability": "view",
      "type": "function"
    },
    {
      "inputs": [],
      "name": "getAvailableListings",
      "outputs": [
        {
          "components": [
            {
              "internalType": "address",
              "name": "contractAddress",
              "type": "address"
            },
            {
              "internalType": "uint256",
              "name": "tokenId",
              "type": "uint256"
            },
            {
              "internalType": "address payable",
              "name": "owner",
              "type": "address"
            },
            {
              "internalType": "uint256",
              "name": "pricePerDay",
              "type": "uint256"
            },
            {
              "internalType": "uint256",
              "name": "minRentalDays",
              "type": "uint256"
            },
            {
              "internalType": "uint256",
              "name": "maxRentalDays",
              "type": "uint256"
            },
            {
              "internalType": "uint256",
              "name": "listingExpiry",
              "type": "uint256"
            },
            {
              "internalType": "bool",
              "name": "availableToRent",
              "type": "bool"
            }
          ],
          "internalType": "struct MarketplaceDC.Listing[]",
          "name": "",
          "type": "tuple[]"
        }
      ],
      "stateMutability": "view",
      "type": "function"
    },
    {
      "inputs": [],
      "name": "getComissionBalance",
      "outputs": [
        {
          "internalType": "uint256",
          "name": "",
          "type": "uint256"
        }
      ],
      "stateMutability": "view",
      "type": "function"
    },
    {
      "inputs": [],
      "name": "getCurrentlyRented",
      "outputs": [
        {
          "components": [
            {
              "internalType": "address payable",
              "name": "owner",
              "type": "address"
            },
            {
              "internalType": "address payable",
              "name": "rentee",
              "type": "address"
            },
            {
              "internalType": "uint256",
              "name": "rentalEnd",
              "type": "uint256"
            }
          ],
          "internalType": "struct MarketplaceDC.Rental[]",
          "name": "",
          "type": "tuple[]"
        }
      ],
      "stateMutability": "view",
      "type": "function"
    },
    {
      "inputs": [],
      "name": "getListingFee",
      "outputs": [
        {
          "internalType": "uint256",
          "name": "",
          "type": "uint256"
        }
      ],
      "stateMutability": "view",
      "type": "function"
    },
    {
      "inputs": [],
      "name": "getOwnedListings",
      "outputs": [
        {
          "components": [
            {
              "internalType": "address",
              "name": "contractAddress",
              "type": "address"
            },
            {
              "internalType": "uint256",
              "name": "tokenId",
              "type": "uint256"
            },
            {
              "internalType": "address payable",
              "name": "owner",
              "type": "address"
            },
            {
              "internalType": "uint256",
              "name": "pricePerDay",
              "type": "uint256"
            },
            {
              "internalType": "uint256",
              "name": "minRentalDays",
              "type": "uint256"
            },
            {
              "internalType": "uint256",
              "name": "maxRentalDays",
              "type": "uint256"
            },
            {
              "internalType": "uint256",
              "name": "listingExpiry",
              "type": "uint256"
            },
            {
              "internalType": "bool",
              "name": "availableToRent",
              "type": "bool"
            }
          ],
          "internalType": "struct MarketplaceDC.Listing[]",
          "name": "",
          "type": "tuple[]"
        }
      ],
      "stateMutability": "view",
      "type": "function"
    },
    {
      "inputs": [
        {
          "internalType": "address",
          "name": "_nftAddress",
          "type": "address"
        },
        {
          "internalType": "uint256",
          "name": "tokenId",
          "type": "uint256"
        },
        {
          "internalType": "uint256",
          "name": "pricePerDay",
          "type": "uint256"
        },
        {
          "internalType": "uint256",
          "name": "minRentalDays",
          "type": "uint256"
        },
        {
          "internalType": "uint256",
          "name": "maxRentalDays",
          "type": "uint256"
        },
        {
          "internalType": "uint256",
          "name": "listingExpiry",
          "type": "uint256"
        }
      ],
      "name": "listNFT",
      "outputs": [],
      "stateMutability": "payable",
      "type": "function"
    },
    {
      "inputs": [
        {
          "internalType": "address",
          "name": "operator",
          "type": "address"
        },
        {
          "internalType": "address",
          "name": "from",
          "type": "address"
        },
        {
          "internalType": "uint256",
          "name": "tokenId",
          "type": "uint256"
        },
        {
          "internalType": "bytes",
          "name": "data",
          "type": "bytes"
        }
      ],
      "name": "onERC721Received",
      "outputs": [
        {
          "internalType": "bytes4",
          "name": "",
          "type": "bytes4"
        }
      ],
      "stateMutability": "nonpayable",
      "type": "function"
    },
    {
      "inputs": [
        {
          "internalType": "address",
          "name": "_nftAddress",
          "type": "address"
        },
        {
          "internalType": "uint256",
          "name": "tokenId",
          "type": "uint256"
        },
        {
          "internalType": "uint64",
          "name": "rentalDays",
          "type": "uint64"
        }
      ],
      "name": "rentNFT",
      "outputs": [],
      "stateMutability": "payable",
      "type": "function"
    },
    {
      "inputs": [],
      "name": "resumeAll",
      "outputs": [],
      "stateMutability": "nonpayable",
      "type": "function"
    },
    {
      "inputs": [],
      "name": "stopAll",
      "outputs": [],
      "stateMutability": "nonpayable",
      "type": "function"
    },
    {
      "inputs": [
        {
          "internalType": "uint256",
          "name": "_commsPercentage",
          "type": "uint256"
        }
      ],
      "name": "updateComission",
      "outputs": [],
      "stateMutability": "nonpayable",
      "type": "function"
    },
    {
      "inputs": [
        {
          "internalType": "uint256",
          "name": "newFee",
          "type": "uint256"
        }
      ],
      "name": "updateFee",
      "outputs": [],
      "stateMutability": "nonpayable",
      "type": "function"
    },
    {
      "inputs": [
        {
          "internalType": "address",
          "name": "newCollector",
          "type": "address"
        }
      ],
      "name": "updateFeeCollector",
      "outputs": [],
      "stateMutability": "nonpayable",
      "type": "function"
    },
    {
      "inputs": [],
      "name": "withdrawComission",
      "outputs": [],
      "stateMutability": "payable",
      "type": "function"
    },
    {
      "stateMutability": "payable",
      "type": "receive"
    }
  ],
  "bytecode": "0x608060405260006004556005805460ff191690553480156200002057600080fd5b5060405162003812380380620038128339810160408190526200004391620000a4565b6001600081905580546001600160a01b039586166001600160a01b0319918216179091556002805494909516931692909217909255600391909155600455620000ec565b80516001600160a01b03811681146200009f57600080fd5b919050565b60008060008060808587031215620000bb57600080fd5b620000c68562000087565b9350620000d66020860162000087565b6040860151606090960151949790965092505050565b61371680620000fc6000396000f3fe6080604052600436106101235760003560e01c80639a34f003116100a0578063ae73ccec11610064578063ae73ccec14610330578063af3d104f14610345578063b8fe6abe1461035a578063d2c35ce81461036f578063f0881ae61461038f57600080fd5b80639a34f003146102a5578063a17a7094146102b8578063a5802620146102d8578063aa032827146102eb578063ad6b02b51461030d57600080fd5b806361281516116100e7578063612815161461020e57806367aab2431461023b57806368082c351461025d5780638cbbbf98146102725780639012c4a81461028557600080fd5b8063150b7a02146101675780632e89b77a146101b157806333a10cc1146101d35780633c6d570a146101f35780634c62a6441461020657600080fd5b3661016257604080513381523460208201527f9a0fa8b9e74b6a70081d4c7ce0cab294a0781d754833b19e1c96e2107f6310ea910160405180910390a1005b600080fd5b34801561017357600080fd5b5061019361018236600461317a565b630a85bd0160e11b95945050505050565b6040516001600160e01b031990911681526020015b60405180910390f35b3480156101bd57600080fd5b506101d16101cc366004613218565b6103a4565b005b3480156101df57600080fd5b506101d16101ee366004613231565b610427565b6101d161020136600461325d565b610725565b6101d1610d78565b34801561021a57600080fd5b5061022e610229366004613231565b610e49565b6040516101a891906132a9565b34801561024757600080fd5b50610250610fdd565b6040516101a8919061332d565b34801561026957600080fd5b506102506111f5565b6101d16102803660046133bb565b6113fe565b34801561029157600080fd5b506101d16102a0366004613218565b611a81565b6101d16102b33660046133f0565b611af3565b3480156102c457600080fd5b506101d16102d3366004613231565b6120f3565b6101d16102e636600461343e565b6125ab565b3480156102f757600080fd5b50610300612730565b6040516101a89190613475565b34801561031957600080fd5b506103226128db565b6040519081526020016101a8565b34801561033c57600080fd5b50610250612952565b34801561035157600080fd5b506101d1612a0f565b34801561036657600080fd5b50600354610322565b34801561037b57600080fd5b506101d161038a3660046134cd565b612a45565b34801561039b57600080fd5b506101d1612ad3565b6001546001600160a01b031633146103d75760405162461bcd60e51b81526004016103ce906134f1565b60405180910390fd5b6004805490829055604080518281526020810184905233918101919091527f795071f083765ff6f8aa0d6e12423dba989580d0ce456f1e407b240b7442e388906060015b60405180910390a15050565b6001600160a01b0380831660009081526006602090815260408083208584529091529020600281015490911633146104a15760405162461bcd60e51b815260206004820152601d60248201527f4f6e6c79206f776e65722063616e20636c61696d206261636b204e465400000060448201526064016103ce565b600781015460ff16156105065760405162461bcd60e51b815260206004820152602760248201527f546f6b656e20686173206e6f74206265656e2064656c69737465642066726f6d604482015266081b585c9ad95d60ca1b60648201526084016103ce565b6040516323b872dd60e01b8152306004820152336024820152604481018390526001600160a01b038416906323b872dd90606401600060405180830381600087803b15801561055457600080fd5b505af1158015610568573d6000803e3d6000fd5b505050506001600160a01b0383166000908152600a60209081526040808320858452909152902054600b8054829081106105a4576105a4613539565b9060005260206000209060080201600080820160006101000a8154906001600160a01b03021916905560018201600090556002820160006101000a8154906001600160a01b03021916905560038201600090556004820160009055600582016000905560068201600090556007820160006101000a81549060ff0219169055505060066000856001600160a01b03166001600160a01b031681526020019081526020016000206000848152602001908152602001600020600080820160006101000a8154906001600160a01b03021916905560018201600090556002820160006101000a8154906001600160a01b03021916905560038201600090556004820160009055600582016000905560068201600090556007820160006101000a81549060ff0219169055505082846001600160a01b03167ff08bc7b248ec1a2916edaa0ea75d3b79151c53c790c568e83c1c8811d99fe4353360405161071791906001600160a01b0391909116815260200190565b60405180910390a350505050565b61072d612b0c565b85856000826001600160a01b0316636352211e836040518263ffffffff1660e01b815260040161075f91815260200190565b602060405180830381865afa15801561077c573d6000803e3d6000fd5b505050506040513d601f19601f820116820180604052508101906107a0919061354f565b90506001600160a01b038116331461080a5760405162461bcd60e51b815260206004820152602760248201527f4552433732313a2043616c6c6572206973206e6f74206f776e6572206f7220616044820152661c1c1c9bdd995960ca1b60648201526084016103ce565b60055460ff161561082d5760405162461bcd60e51b81526004016103ce9061356c565b6040516301ffc9a760e01b8152632b424ad760e21b60048201526001600160a01b038a16906301ffc9a790602401602060405180830381865afa158015610878573d6000803e3d6000fd5b505050506040513d601f19601f8201168201806040525081019061089c91906135ae565b15156001146108fd5760405162461bcd60e51b815260206004820152602760248201527f546f6b656e206973206e6f7420455243343930372c20706c656173652077726160448201526638103a37b5b2b760c91b60648201526084016103ce565b60035434101561095f5760405162461bcd60e51b815260206004820152602760248201527f4e6f7420656e6f7567682045544820746f2070617920666f7220706c6174666f604482015266726d206665657360c81b60648201526084016103ce565b600087116109af5760405162461bcd60e51b815260206004820152601e60248201527f5072696365206d75737420626520686967686572207468616e207a65726f000060448201526064016103ce565b428411610a175760405162461bcd60e51b815260206004820152603060248201527f4c697374696e6720657870697279206d757374206265206c6f6e67657220746860448201526f30b71031bab93932b73a103a34b6b29760811b60648201526084016103ce565b604051632142170760e11b8152336004820152306024820152604481018990526001600160a01b038a16906342842e0e90606401600060405180830381600087803b158015610a6557600080fd5b505af1158015610a79573d6000803e3d6000fd5b50506040513092503480156108fc029250906000818181858888f19350505050158015610aaa573d6000803e3d6000fd5b5060006040518061010001604052808b6001600160a01b031681526020018a8152602001336001600160a01b0316815260200189815260200188815260200187815260200186815260200160011515815250905080600660008c6001600160a01b03166001600160a01b0316815260200190815260200160002060008b815260200190815260200160002060008201518160000160006101000a8154816001600160a01b0302191690836001600160a01b031602179055506020820151816001015560408201518160020160006101000a8154816001600160a01b0302191690836001600160a01b03160217905550606082015181600301556080820151816004015560a0820151816005015560c0820151816006015560e08201518160070160006101000a81548160ff0219169083151502179055509050506000600b80549050905080600a60008d6001600160a01b03166001600160a01b0316815260200190815260200160002060008c815260200190815260200160002081905550600b82908060018154018082558091505060019003906000526020600020906008020160009091909190915060008201518160000160006101000a8154816001600160a01b0302191690836001600160a01b031602179055506020820151816001015560408201518160020160006101000a8154816001600160a01b0302191690836001600160a01b03160217905550606082015181600301556080820151816004015560a0820151816005015560c0820151816006015560e08201518160070160006101000a81548160ff0219169083151502179055505050898b6001600160a01b03167f2b8a5411e19b0bb6d4cfe00ece7d2c9c7f4deb89112788d88e307035195b23c98b8b8b8b604051610d59949392919093845260208401929092526040830152606082015260800190565b60405180910390a35050505050610d706001600055565b505050505050565b6002546001600160a01b03163314610dd25760405162461bcd60e51b815260206004820152601e60248201527f4f6e6c7920666565436f6c6c6563746f722063616e207769746864726177000060448201526064016103ce565b60025460405147916001600160a01b03169082156108fc029083906000818181858888f19350505050158015610e0c573d6000803e3d6000fd5b5060408051338152602081018390527fadeb6f23bed4a1ff793b31a6b5449e43a8613c3b28981d283e8e9a29e85a7d95910160405180910390a150565b6001600160a01b0380831660009081526006602081815260408084208685528252928390208351610100810185528154861681526001820154928101929092526002810154909416928101839052600384015460608281019190915260048501546080830152600585015460a08301529184015460c082015260079093015460ff16151560e084015291903314610f1e5760405162461bcd60e51b815260206004820152601960248201527821b0b63632b91034b9903737ba103a37b5b2b71037bbb732b960391b60448201526064016103ce565b6001600160a01b0384166000908152600960209081526040808320868452825280832080548251818502810185019093528083529193909284015b82821015610fcf5760008481526020908190206040805160c0810182526006860290920180546001600160a01b0390811684526001808301548587015260028301549091169284019290925260038101546060840152600481015460808401526005015460a08301529083529092019101610f59565b505050509150505b92915050565b60606000805b600b548110156110ab576000600b828154811061100257611002613539565b60009182526020918290206040805161010081018252600890930290910180546001600160a01b03908116845260018201549484019490945260028101549093169082018190526003830154606083015260048301546080830152600583015460a0830152600683015460c083015260079092015460ff16151560e08201529150339003611098576110956001846135e6565b92505b50806110a3816135f9565b915050610fe3565b506000816001600160401b038111156110c6576110c6613612565b6040519080825280602002602001820160405280156110ff57816020015b6110ec61309b565b8152602001906001900390816110e45790505b5090506000805b600b548110156111ec576000600b828154811061112557611125613539565b60009182526020918290206040805161010081018252600890930290910180546001600160a01b03908116845260018201549484019490945260028101549093169082018190526003830154606083015260048301546080830152600583015460a0830152600683015460c083015260079092015460ff16151560e082015291503390036111d957808484815181106111c0576111c0613539565b60209081029190910101526111d66001846135e6565b92505b50806111e4816135f9565b915050611106565b50909392505050565b60606000805b600b548110156112c0576000600b828154811061121a5761121a613539565b60009182526020918290206040805161010081018252600890930290910180546001600160a01b0390811684526001820154948401949094526002810154909316908201526003820154606082015260048201546080820152600582015460a0820152600682015460c082015260079091015460ff1615801560e08301529091506112ad576112aa6001846135e6565b92505b50806112b8816135f9565b9150506111fb565b506000816001600160401b038111156112db576112db613612565b60405190808252806020026020018201604052801561131457816020015b61130161309b565b8152602001906001900390816112f95790505b5090506000805b600b548110156111ec576000600b828154811061133a5761133a613539565b60009182526020918290206040805161010081018252600890930290910180546001600160a01b0390811684526001820154948401949094526002810154909316908201526003820154606082015260048201546080820152600582015460a0820152600682015460c082015260079091015460ff1615801560e08301529091506113eb57808484815181106113d2576113d2613539565b60209081029190910101526113e86001846135e6565b92505b50806113f6816135f9565b91505061131b565b611406612b0c565b60055460ff16156114295760405162461bcd60e51b81526004016103ce9061356c565b6001600160a01b0380841660009081526006602090815260408083208684529091529020600281015490911633036114af5760405162461bcd60e51b815260206004820152602360248201527f4f776e65722063616e6e6f742062696420666f72207468656972206f776e204e60448201526246547360e81b60648201526084016103ce565b336114fc5760405162461bcd60e51b815260206004820181905260248201527f4269646465722063616e6e6f742062652066726f6d206164647265737328302960448201526064016103ce565b80600401548210156115635760405162461bcd60e51b815260206004820152602a60248201527f52656e74616c20446179732063616e6e6f742062652073686f72746572207468604482015269616e206d696e696d756d60b01b60648201526084016103ce565b80600501548211156115c95760405162461bcd60e51b815260206004820152602960248201527f52656e74616c20446179732063616e6e6f74206265206c6f6e676572207468616044820152686e206d6178696d756d60b81b60648201526084016103ce565b428160060154116116125760405162461bcd60e51b8152602060048201526013602482015272131a5cdd1a5b99c81a185cc8195e1c1a5c9959606a1b60448201526064016103ce565b60008282600301546116249190613628565b9050803410156116825760405162461bcd60e51b8152602060048201526024808201527f426964206c6f776572207468616e206d696e696d756d2072656e74616c2070726044820152636963652160e01b60648201526084016103ce565b600782015460ff1615156001146116ab5760405162461bcd60e51b81526004016103ce9061363f565b6001600160a01b03851660009081526008602090815260408083208784529091529020600201541561171b5760405162461bcd60e51b8152602060048201526019602482015278151bdad95b881a185cc81899595b881c995b9d1959081bdd5d603a1b60448201526064016103ce565b60006040518060c00160405280876001600160a01b03168152602001868152602001336001600160a01b03168152602001846003015481526020018581526020013481525090508060076000886001600160a01b03166001600160a01b0316815260200190815260200160002060008781526020019081526020016000206000336001600160a01b03166001600160a01b0316815260200190815260200160002060008201518160000160006101000a8154816001600160a01b0302191690836001600160a01b031602179055506020820151816001015560408201518160020160006101000a8154816001600160a01b0302191690836001600160a01b03160217905550606082015181600301556080820151816004015560a08201518160050155905050600060096000886001600160a01b03166001600160a01b031681526020019081526020016000206000878152602001908152602001600020805480602002602001604051908101604052809291908181526020016000905b8282101561190f5760008481526020908190206040805160c0810182526006860290920180546001600160a01b0390811684526001808301548587015260028301549091169284019290925260038101546060840152600481015460808401526005015460a08301529083529092019101611899565b5050505090506000805b825181101561199357600083828151811061193657611936613539565b60200260200101519050336001600160a01b031681604001516001600160a01b031603611980578484838151811061197057611970613539565b6020026020010181905250600192505b508061198b816135f9565b915050611919565b5080611a27576001600160a01b0380891660009081526009602090815260408083208b8452825280832080546001818101835591855293839020885160069095020180549486166001600160a01b0319958616178155928801519083015586015160028201805491909416921691909117909155606084015160038201556080840151600482015560a08401516005909101555b6040805187815234602082015288916001600160a01b038b16917f925277ab476e47a4c3eabacf94055594c3ecb681c66035f85dfbf6e15f3cab3c91015b60405180910390a35050505050611a7c6001600055565b505050565b6001546001600160a01b03163314611aab5760405162461bcd60e51b81526004016103ce906134f1565b6003805490829055604080518281526020810184905233918101919091527f8d6ad40ad37637106f0ca2d682205c774e73f8cf7789162ce1c0b6ac0791a4849060600161041b565b611afb612b0c565b60055460ff1615611b1e5760405162461bcd60e51b81526004016103ce9061356c565b6001600160a01b0383166000908152600660209081526040808320858452909152902060048101546001600160401b0383161015611ba85760405162461bcd60e51b815260206004820152602160248201527f43616e6e6f742072656e7420666f72206c657373207468616e206d696e696d756044820152606d60f81b60648201526084016103ce565b8060050154826001600160401b03161115611c0f5760405162461bcd60e51b815260206004820152602160248201527f43616e6e6f742072656e7420666f72206d6f7265207468616e206d6178696d756044820152606d60f81b60648201526084016103ce565b6000826001600160401b03168260030154611c2a9190613628565b90506000611c39846018613680565b611c4490603c613680565b611c4f90603c613680565b611c62906001600160401b0316426135e6565b905042836006015411611cad5760405162461bcd60e51b8152602060048201526013602482015272131a5cdd1a5b99c81a185cc8195e1c1a5c9959606a1b60448201526064016103ce565b81341015611d095760405162461bcd60e51b8152602060048201526024808201527f496e73756666696369656e7420657468657220746f2070617920666f722072656044820152631b9d185b60e21b60648201526084016103ce565b600783015460ff161515600114611d325760405162461bcd60e51b81526004016103ce9061363f565b6001600160a01b038616600090815260086020908152604080832088845290915290206002015415611da25760405162461bcd60e51b8152602060048201526019602482015278151bdad95b881a185cc81899595b881c995b9d1959081bdd5d603a1b60448201526064016103ce565b6000606460045434611db49190613628565b611dbe91906136ab565b90506000611dcc82346136cd565b60028601546040519192506001600160a01b03169082156108fc029083906000818181858888f19350505050158015611e09573d6000803e3d6000fd5b50604051309083156108fc029084906000818181858888f19350505050158015611e37573d6000803e3d6000fd5b5084546040516370182b2f60e11b8152600481018990523360248201526001600160401b03851660448201526001600160a01b039091169063e030565e90606401600060405180830381600087803b158015611e9257600080fd5b505af1158015611ea6573d6000803e3d6000fd5b50505050600060405180606001604052808760020160009054906101000a90046001600160a01b03166001600160a01b03168152602001336001600160a01b0316815260200185815250905080600860008b6001600160a01b03166001600160a01b0316815260200190815260200160002060008a815260200190815260200160002060008201518160000160006101000a8154816001600160a01b0302191690836001600160a01b0316021790555060208201518160010160006101000a8154816001600160a01b0302191690836001600160a01b03160217905550604082015181600201559050506000600d80549050905080600c60008c6001600160a01b03166001600160a01b0316815260200190815260200160002060008b815260200190815260200160002081905550600d82908060018154018082558091505060019003906000526020600020906003020160009091909190915060008201518160000160006101000a8154816001600160a01b0302191690836001600160a01b0316021790555060208201518160010160006101000a8154816001600160a01b0302191690836001600160a01b03160217905550604082015181600201555050888a6001600160a01b03167f5c2efca37e15a36ac693710f773e3290322aca5dd85fd110263c1d0f81254e96338b8b60030154336040516120da94939291906001600160a01b0394851681526001600160401b039390931660208401526040830191909152909116606082015260800190565b60405180910390a350505050505050611a7c6001600055565b6001600160a01b03808316600081815260086020908152604080832086845282528083209383526006825280832086845290915290206002810154919290911633146121795760405162461bcd60e51b815260206004820152601560248201527413db9b1e481bdddb995c8818d85b8819195b1a5cdd605a1b60448201526064016103ce565b6002820154158061218d5750428260020154105b6121cf5760405162461bcd60e51b8152602060048201526013602482015272151bdad95b881a5cc81c995b9d1959081bdd5d606a1b60448201526064016103ce565b604051636178f8a560e11b8152600481018490526000906001600160a01b0386169063c2f1f14a90602401602060405180830381865afa158015612217573d6000803e3d6000fd5b505050506040513d601f19601f8201168201806040525081019061223b919061354f565b6001600160a01b0316146122895760405162461bcd60e51b815260206004820152601560248201527452656e74616c20686173206e6f7420656e6465642160581b60448201526064016103ce565b6000604051806101000160405280866001600160a01b03168152602001858152602001336001600160a01b03168152602001836003015481526020018360040154815260200183600501548152602001836006015481526020016000151581525090508060066000876001600160a01b03166001600160a01b03168152602001908152602001600020600086815260200190815260200160002060008201518160000160006101000a8154816001600160a01b0302191690836001600160a01b031602179055506020820151816001015560408201518160020160006101000a8154816001600160a01b0302191690836001600160a01b03160217905550606082015181600301556080820151816004015560a0820151816005015560c0820151816006015560e08201518160070160006101000a81548160ff0219169083151502179055509050506000600a6000876001600160a01b03166001600160a01b03168152602001908152602001600020600086815260200190815260200160002054905081600b828154811061242157612421613539565b600091825260209182902083516008929092020180546001600160a01b03199081166001600160a01b039384161782559284015160018201556040840151600280830180549095169190931617909255606083015160038301556080830151600483015560a0830151600583015560c0830151600683015560e0909201516007909101805460ff19169115159190911790558401541561255a576001600160a01b0386166000908152600c60209081526040808320888452909152902054600d8054829081106124f3576124f3613539565b60009182526020808320600390920290910180546001600160a01b03199081168255600180830180548316905560029283018590556001600160a01b038c1685526008845260408086208c8752909452928420805482168155928301805490911690550155505b604080516001600160a01b03881681526020810187905260008183015290517fd1d5cc10af783a2cd8ee03e77792cd5dd211ef55ba189b315ae226047587affb9181900360600190a1505050505050565b6125b3612b0c565b60055460ff16156125d65760405162461bcd60e51b81526004016103ce9061356c565b6001600160a01b03808416600081815260066020908152604080832087845282528083209383526007825280832087845282528083208686168452825291829020825160c08101845281548616815260018201549281019290925260028082015486169383019390935260038101546060830152600481015460808301526005015460a082015290820154919290911633146126b05760405162461bcd60e51b815260206004820152601960248201527821b0b63632b91034b9903737ba103a37b5b2b71037bbb732b960391b60448201526064016103ce565b608081015160a082015160028401546001600160a01b03166126d6888883898787612b65565b6003850154604080516001600160a01b03898116825260208201879052918101929092523360608301528891908a16907f5c2efca37e15a36ac693710f773e3290322aca5dd85fd110263c1d0f81254e9690608001611a65565b60606000805b600d548110156127c3576000600d828154811061275557612755613539565b600091825260209182902060408051606081018252600390930290910180546001600160a01b03908116808552600183015490911694840194909452600201549082015291503390036127b0576127ad6001846135e6565b92505b50806127bb816135f9565b915050612736565b506000816001600160401b038111156127de576127de613612565b60405190808252806020026020018201604052801561282957816020015b60408051606081018252600080825260208083018290529282015282526000199092019101816127fc5790505b5090506000805b600d548110156111ec576000600d828154811061284f5761284f613539565b600091825260209182902060408051606081018252600390930290910180546001600160a01b03908116808552600183015490911694840194909452600201549082015291503390036128c857808484815181106128af576128af613539565b60209081029190910101526128c56001846135e6565b92505b50806128d3816135f9565b915050612830565b6002546000906001600160a01b031633148061290157506001546001600160a01b031633145b61294d5760405162461bcd60e51b815260206004820152601d60248201527f4e6f207065726d697373696f6e20746f20766965772062616c616e636500000060448201526064016103ce565b504790565b6060600b805480602002602001604051908101604052809291908181526020016000905b82821015612a0657600084815260209081902060408051610100810182526008860290920180546001600160a01b039081168452600180830154858701526002830154909116928401929092526003810154606084015260048101546080840152600581015460a0840152600681015460c08401526007015460ff16151560e08301529083529092019101612976565b50505050905090565b6001546001600160a01b03163314612a395760405162461bcd60e51b81526004016103ce906134f1565b6005805460ff19169055565b6001546001600160a01b03163314612a6f5760405162461bcd60e51b81526004016103ce906134f1565b600280546001600160a01b038381166001600160a01b0319831681179093556040805191909216808252602082019390935233918101919091527f68a44a48069a61547e9d05149485c3542057bf135d5834d3455fed76d4639e549060600161041b565b6001546001600160a01b03163314612afd5760405162461bcd60e51b81526004016103ce906134f1565b6005805460ff19166001179055565b600260005403612b5e5760405162461bcd60e51b815260206004820152601f60248201527f5265656e7472616e637947756172643a207265656e7472616e742063616c6c0060448201526064016103ce565b6002600055565b80836001600160a01b0316311015612bce5760405162461bcd60e51b815260206004820152602660248201527f496e73756666696369656e742062616c616e636520746f2070617920666f72206044820152651c995b9d185b60d21b60648201526084016103ce565b6001600160a01b0386166000908152600960209081526040808320888452825280832080548251818502810185019093528083529192909190849084015b82821015612c825760008481526020908190206040805160c0810182526006860290920180546001600160a01b0390811684526001808301548587015260028301549091169284019290925260038101546060840152600481015460808401526005015460a08301529083529092019101612c0c565b5050505090506000606460045484612c9a9190613628565b612ca491906136ab565b90506000612cb282856136cd565b6040519091506001600160a01b0388169082156108fc029083906000818181858888f19350505050158015612ceb573d6000803e3d6000fd5b50604051309083156108fc029084906000818181858888f19350505050158015612d19573d6000803e3d6000fd5b506000612d27866018613628565b612d3290603c613628565b612d3d90603c613628565b612d4790426135e6565b6040516370182b2f60e11b8152600481018b90526001600160a01b0389811660248301526001600160401b0383166044830152919250908b169063e030565e90606401600060405180830381600087803b158015612da457600080fd5b505af1158015612db8573d6000803e3d6000fd5b50505050600060405180606001604052808a6001600160a01b03168152602001336001600160a01b0316815260200183815250905080600860008d6001600160a01b03166001600160a01b0316815260200190815260200160002060008c815260200190815260200160002060008201518160000160006101000a8154816001600160a01b0302191690836001600160a01b0316021790555060208201518160010160006101000a8154816001600160a01b0302191690836001600160a01b03160217905550604082015181600201559050506000600d80549050905080600c60008e6001600160a01b03166001600160a01b0316815260200190815260200160002060008d815260200190815260200160002081905550600d82908060018154018082558091505060019003906000526020600020906003020160009091909190915060008201518160000160006101000a8154816001600160a01b0302191690836001600160a01b0316021790555060208201518160010160006101000a8154816001600160a01b0302191690836001600160a01b0316021790555060408201518160020155505060005b8651811015612fe0576000878281518110612f8257612f82613539565b602002602001015190508a6001600160a01b031681604001516001600160a01b031614158015612fb65750888160a0015114155b15612fcd57612fcd81604001518260a0015161301b565b5080612fd8816135f9565b915050612f65565b506001600160a01b038c1660009081526009602090815260408083208e8452909152812061300d916130f4565b505050505050505050505050565b60405182906001600160a01b0382169083156108fc029084906000818181858888f19350505050158015613053573d6000803e3d6000fd5b50604080516001600160a01b0385168152602081018490527f75a0cba827b0d4e7ad9c64bb1011c21a622c376c3cb72ffbe500b6d0c3cc2596910160405180910390a1505050565b60405180610100016040528060006001600160a01b031681526020016000815260200160006001600160a01b03168152602001600081526020016000815260200160008152602001600081526020016000151581525090565b50805460008255600602906000526020600020908101906131159190613118565b50565b5b808211156131615780546001600160a01b0319908116825560006001830181905560028301805490921690915560038201819055600482018190556005820155600601613119565b5090565b6001600160a01b038116811461311557600080fd5b60008060008060006080868803121561319257600080fd5b853561319d81613165565b945060208601356131ad81613165565b93506040860135925060608601356001600160401b03808211156131d057600080fd5b818801915088601f8301126131e457600080fd5b8135818111156131f357600080fd5b89602082850101111561320557600080fd5b9699959850939650602001949392505050565b60006020828403121561322a57600080fd5b5035919050565b6000806040838503121561324457600080fd5b823561324f81613165565b946020939093013593505050565b60008060008060008060c0878903121561327657600080fd5b863561328181613165565b9860208801359850604088013597606081013597506080810135965060a00135945092505050565b602080825282518282018190526000919060409081850190868401855b8281101561332057815180516001600160a01b0390811686528782015188870152868201511686860152606080820151908601526080808201519086015260a0908101519085015260c090930192908501906001016132c6565b5091979650505050505050565b602080825282518282018190526000919060409081850190868401855b8281101561332057815180516001600160a01b0390811686528782015188870152868201511686860152606080820151908601526080808201519086015260a0808201519086015260c0808201519086015260e090810151151590850152610100909301929085019060010161334a565b6000806000606084860312156133d057600080fd5b83356133db81613165565b95602085013595506040909401359392505050565b60008060006060848603121561340557600080fd5b833561341081613165565b92506020840135915060408401356001600160401b038116811461343357600080fd5b809150509250925092565b60008060006060848603121561345357600080fd5b833561345e81613165565b925060208401359150604084013561343381613165565b602080825282518282018190526000919060409081850190868401855b8281101561332057815180516001600160a01b0390811686528782015116878601528501518585015260609093019290850190600101613492565b6000602082840312156134df57600080fd5b81356134ea81613165565b9392505050565b60208082526028908201527f596f7520617265206e6f7420746865206f776e6572206f6620746865206d61726040820152676b6574706c61636560c01b606082015260800190565b634e487b7160e01b600052603260045260246000fd5b60006020828403121561356157600080fd5b81516134ea81613165565b60208082526022908201527f4c697374696e6720616e642072656e74616c20686173206265656e2068616c74604082015261195960f21b606082015260800190565b6000602082840312156135c057600080fd5b815180151581146134ea57600080fd5b634e487b7160e01b600052601160045260246000fd5b80820180821115610fd757610fd76135d0565b60006001820161360b5761360b6135d0565b5060010190565b634e487b7160e01b600052604160045260246000fd5b8082028115828204841417610fd757610fd76135d0565b60208082526021908201527f546f6b656e206973206e6f7420617661696c61626c6520666f722052656e74616040820152601b60fa1b606082015260800190565b6001600160401b038181168382160280821691908281146136a3576136a36135d0565b505092915050565b6000826136c857634e487b7160e01b600052601260045260246000fd5b500490565b81810381811115610fd757610fd76135d056fea264697066735822122091717c3d5fa1cb509470bb62d84027bbc289f0629cde74a2a906dae48b32906d64736f6c63430008110033",
  "linkReferences": {},
  "deployedLinkReferences": {}
}