{
  "_format": "hh-sol-artifact-1",
  "contractName": "MarketplaceDC",
  "sourceName": "contracts/MarketplaceDC.sol",
  "abi": [
    {
      "inputs": [
        {
          "internalType": "address",
          "name": "_owner",
          "type": "address"
        },
        {
          "internalType": "address",
          "name": "_feeCollector",
          "type": "address"
        },
        {
          "internalType": "uint256",
          "name": "_fee",
          "type": "uint256"
        }
      ],
      "stateMutability": "nonpayable",
      "type": "constructor"
    },
    {
      "anonymous": false,
      "inputs": [
        {
          "indexed": false,
          "internalType": "address",
          "name": "rentee",
          "type": "address"
        },
        {
          "indexed": false,
          "internalType": "uint256",
          "name": "bidAmt",
          "type": "uint256"
        }
      ],
      "name": "BidReceived",
      "type": "event"
    },
    {
      "anonymous": false,
      "inputs": [
        {
          "indexed": false,
          "internalType": "address",
          "name": "bidder",
          "type": "address"
        },
        {
          "indexed": false,
          "internalType": "uint256",
          "name": "bidAmt",
          "type": "uint256"
        }
      ],
      "name": "BidReturned",
      "type": "event"
    },
    {
      "anonymous": false,
      "inputs": [
        {
          "indexed": false,
          "internalType": "uint256",
          "name": "_from",
          "type": "uint256"
        },
        {
          "indexed": false,
          "internalType": "uint256",
          "name": "_to",
          "type": "uint256"
        },
        {
          "indexed": false,
          "internalType": "address",
          "name": "_sender",
          "type": "address"
        }
      ],
      "name": "FeeUpdated",
      "type": "event"
    },
    {
      "anonymous": false,
      "inputs": [
        {
          "indexed": true,
          "internalType": "address",
          "name": "_nftAddress",
          "type": "address"
        },
        {
          "indexed": true,
          "internalType": "uint256",
          "name": "tokenId",
          "type": "uint256"
        },
        {
          "indexed": false,
          "internalType": "uint256",
          "name": "rentalDays",
          "type": "uint256"
        },
        {
          "indexed": false,
          "internalType": "uint256",
          "name": "bidAmt",
          "type": "uint256"
        }
      ],
      "name": "TokenBid",
      "type": "event"
    },
    {
      "anonymous": false,
      "inputs": [
        {
          "indexed": true,
          "internalType": "address",
          "name": "_nftAddress",
          "type": "address"
        },
        {
          "indexed": true,
          "internalType": "uint256",
          "name": "tokenId",
          "type": "uint256"
        },
        {
          "indexed": false,
          "internalType": "address",
          "name": "_sender",
          "type": "address"
        }
      ],
      "name": "TokenClaimed",
      "type": "event"
    },
    {
      "anonymous": false,
      "inputs": [
        {
          "indexed": false,
          "internalType": "address",
          "name": "_nftAddress",
          "type": "address"
        },
        {
          "indexed": false,
          "internalType": "uint256",
          "name": "tokenId",
          "type": "uint256"
        },
        {
          "indexed": false,
          "internalType": "bool",
          "name": "availableToRent",
          "type": "bool"
        }
      ],
      "name": "TokenDelisted",
      "type": "event"
    },
    {
      "anonymous": false,
      "inputs": [
        {
          "indexed": true,
          "internalType": "address",
          "name": "_nftAddress",
          "type": "address"
        },
        {
          "indexed": true,
          "internalType": "uint256",
          "name": "tokenId",
          "type": "uint256"
        },
        {
          "indexed": false,
          "internalType": "uint256",
          "name": "pricePerDay",
          "type": "uint256"
        },
        {
          "indexed": false,
          "internalType": "uint256",
          "name": "minRentalDays",
          "type": "uint256"
        },
        {
          "indexed": false,
          "internalType": "uint256",
          "name": "maxRentalDays",
          "type": "uint256"
        },
        {
          "indexed": false,
          "internalType": "uint256",
          "name": "listingExpiry",
          "type": "uint256"
        }
      ],
      "name": "TokenListed",
      "type": "event"
    },
    {
      "anonymous": false,
      "inputs": [
        {
          "indexed": true,
          "internalType": "address",
          "name": "_nftAddress",
          "type": "address"
        },
        {
          "indexed": true,
          "internalType": "uint256",
          "name": "tokenId",
          "type": "uint256"
        },
        {
          "indexed": false,
          "internalType": "address",
          "name": "rentee",
          "type": "address"
        },
        {
          "indexed": false,
          "internalType": "uint256",
          "name": "pricePerDay",
          "type": "uint256"
        },
        {
          "indexed": false,
          "internalType": "uint256",
          "name": "rentalDays",
          "type": "uint256"
        },
        {
          "indexed": false,
          "internalType": "address",
          "name": "_sender",
          "type": "address"
        }
      ],
      "name": "TokenRented",
      "type": "event"
    },
    {
      "anonymous": false,
      "inputs": [
        {
          "indexed": false,
          "internalType": "address",
          "name": "_from",
          "type": "address"
        },
        {
          "indexed": false,
          "internalType": "address",
          "name": "_to",
          "type": "address"
        },
        {
          "indexed": false,
          "internalType": "address",
          "name": "_sender",
          "type": "address"
        }
      ],
      "name": "feeCollectorUpdated",
      "type": "event"
    },
    {
      "inputs": [
        {
          "internalType": "address",
          "name": "_nftAddress",
          "type": "address"
        },
        {
          "internalType": "uint256",
          "name": "tokenId",
          "type": "uint256"
        },
        {
          "internalType": "address",
          "name": "rentee",
          "type": "address"
        }
      ],
      "name": "acceptBid",
      "outputs": [],
      "stateMutability": "payable",
      "type": "function"
    },
    {
      "inputs": [
        {
          "internalType": "address",
          "name": "_nftAddress",
          "type": "address"
        },
        {
          "internalType": "uint256",
          "name": "tokenId",
          "type": "uint256"
        },
        {
          "internalType": "uint256",
          "name": "rentalDays",
          "type": "uint256"
        }
      ],
      "name": "bidNFT",
      "outputs": [],
      "stateMutability": "payable",
      "type": "function"
    },
    {
      "inputs": [
        {
          "internalType": "address",
          "name": "_nftAddress",
          "type": "address"
        },
        {
          "internalType": "uint256",
          "name": "tokenId",
          "type": "uint256"
        }
      ],
      "name": "claimNFT",
      "outputs": [],
      "stateMutability": "nonpayable",
      "type": "function"
    },
    {
      "inputs": [
        {
          "internalType": "address",
          "name": "_nftAddress",
          "type": "address"
        },
        {
          "internalType": "uint256",
          "name": "tokenId",
          "type": "uint256"
        }
      ],
      "name": "delistNFT",
      "outputs": [],
      "stateMutability": "nonpayable",
      "type": "function"
    },
    {
      "inputs": [
        {
          "internalType": "address",
          "name": "_nftAddress",
          "type": "address"
        },
        {
          "internalType": "uint256",
          "name": "tokenId",
          "type": "uint256"
        }
      ],
      "name": "getAllBids",
      "outputs": [
        {
          "components": [
            {
              "internalType": "address",
              "name": "contractAddress",
              "type": "address"
            },
            {
              "internalType": "uint256",
              "name": "tokenId",
              "type": "uint256"
            },
            {
              "internalType": "address payable",
              "name": "rentee",
              "type": "address"
            },
            {
              "internalType": "uint256",
              "name": "pricePerDay",
              "type": "uint256"
            },
            {
              "internalType": "uint256",
              "name": "rentalDays",
              "type": "uint256"
            },
            {
              "internalType": "uint256",
              "name": "totalBid",
              "type": "uint256"
            }
          ],
          "internalType": "struct MarketplaceDC.Bid[]",
          "name": "",
          "type": "tuple[]"
        }
      ],
      "stateMutability": "view",
      "type": "function"
    },
    {
      "inputs": [],
      "name": "getAllListings",
      "outputs": [
        {
          "components": [
            {
              "internalType": "address",
              "name": "contractAddress",
              "type": "address"
            },
            {
              "internalType": "uint256",
              "name": "tokenId",
              "type": "uint256"
            },
            {
              "internalType": "address payable",
              "name": "owner",
              "type": "address"
            },
            {
              "internalType": "uint256",
              "name": "pricePerDay",
              "type": "uint256"
            },
            {
              "internalType": "uint256",
              "name": "minRentalDays",
              "type": "uint256"
            },
            {
              "internalType": "uint256",
              "name": "maxRentalDays",
              "type": "uint256"
            },
            {
              "internalType": "uint256",
              "name": "listingExpiry",
              "type": "uint256"
            },
            {
              "internalType": "bool",
              "name": "availableToRent",
              "type": "bool"
            }
          ],
          "internalType": "struct MarketplaceDC.Listing[]",
          "name": "",
          "type": "tuple[]"
        }
      ],
      "stateMutability": "view",
      "type": "function"
    },
    {
      "inputs": [],
      "name": "getAvailableListings",
      "outputs": [
        {
          "components": [
            {
              "internalType": "address",
              "name": "contractAddress",
              "type": "address"
            },
            {
              "internalType": "uint256",
              "name": "tokenId",
              "type": "uint256"
            },
            {
              "internalType": "address payable",
              "name": "owner",
              "type": "address"
            },
            {
              "internalType": "uint256",
              "name": "pricePerDay",
              "type": "uint256"
            },
            {
              "internalType": "uint256",
              "name": "minRentalDays",
              "type": "uint256"
            },
            {
              "internalType": "uint256",
              "name": "maxRentalDays",
              "type": "uint256"
            },
            {
              "internalType": "uint256",
              "name": "listingExpiry",
              "type": "uint256"
            },
            {
              "internalType": "bool",
              "name": "availableToRent",
              "type": "bool"
            }
          ],
          "internalType": "struct MarketplaceDC.Listing[]",
          "name": "",
          "type": "tuple[]"
        }
      ],
      "stateMutability": "view",
      "type": "function"
    },
    {
      "inputs": [],
      "name": "getCurrentlyRented",
      "outputs": [
        {
          "components": [
            {
              "internalType": "address payable",
              "name": "owner",
              "type": "address"
            },
            {
              "internalType": "address payable",
              "name": "rentee",
              "type": "address"
            },
            {
              "internalType": "uint256",
              "name": "rentalEnd",
              "type": "uint256"
            }
          ],
          "internalType": "struct MarketplaceDC.Rental[]",
          "name": "",
          "type": "tuple[]"
        }
      ],
      "stateMutability": "view",
      "type": "function"
    },
    {
      "inputs": [],
      "name": "getListingFee",
      "outputs": [
        {
          "internalType": "uint256",
          "name": "",
          "type": "uint256"
        }
      ],
      "stateMutability": "view",
      "type": "function"
    },
    {
      "inputs": [],
      "name": "getOwnedListings",
      "outputs": [
        {
          "components": [
            {
              "internalType": "address",
              "name": "contractAddress",
              "type": "address"
            },
            {
              "internalType": "uint256",
              "name": "tokenId",
              "type": "uint256"
            },
            {
              "internalType": "address payable",
              "name": "owner",
              "type": "address"
            },
            {
              "internalType": "uint256",
              "name": "pricePerDay",
              "type": "uint256"
            },
            {
              "internalType": "uint256",
              "name": "minRentalDays",
              "type": "uint256"
            },
            {
              "internalType": "uint256",
              "name": "maxRentalDays",
              "type": "uint256"
            },
            {
              "internalType": "uint256",
              "name": "listingExpiry",
              "type": "uint256"
            },
            {
              "internalType": "bool",
              "name": "availableToRent",
              "type": "bool"
            }
          ],
          "internalType": "struct MarketplaceDC.Listing[]",
          "name": "",
          "type": "tuple[]"
        }
      ],
      "stateMutability": "view",
      "type": "function"
    },
    {
      "inputs": [
        {
          "internalType": "address",
          "name": "_nftAddress",
          "type": "address"
        },
        {
          "internalType": "uint256",
          "name": "tokenId",
          "type": "uint256"
        },
        {
          "internalType": "uint256",
          "name": "pricePerDay",
          "type": "uint256"
        },
        {
          "internalType": "uint256",
          "name": "minRentalDays",
          "type": "uint256"
        },
        {
          "internalType": "uint256",
          "name": "maxRentalDays",
          "type": "uint256"
        },
        {
          "internalType": "uint256",
          "name": "listingExpiry",
          "type": "uint256"
        }
      ],
      "name": "listNFT",
      "outputs": [],
      "stateMutability": "payable",
      "type": "function"
    },
    {
      "inputs": [
        {
          "internalType": "address",
          "name": "operator",
          "type": "address"
        },
        {
          "internalType": "address",
          "name": "from",
          "type": "address"
        },
        {
          "internalType": "uint256",
          "name": "tokenId",
          "type": "uint256"
        },
        {
          "internalType": "bytes",
          "name": "data",
          "type": "bytes"
        }
      ],
      "name": "onERC721Received",
      "outputs": [
        {
          "internalType": "bytes4",
          "name": "",
          "type": "bytes4"
        }
      ],
      "stateMutability": "nonpayable",
      "type": "function"
    },
    {
      "inputs": [
        {
          "internalType": "address",
          "name": "_nftAddress",
          "type": "address"
        },
        {
          "internalType": "uint256",
          "name": "tokenId",
          "type": "uint256"
        },
        {
          "internalType": "uint64",
          "name": "rentalDays",
          "type": "uint64"
        }
      ],
      "name": "rentNFT",
      "outputs": [],
      "stateMutability": "payable",
      "type": "function"
    },
    {
      "inputs": [],
      "name": "resumeAll",
      "outputs": [],
      "stateMutability": "nonpayable",
      "type": "function"
    },
    {
      "inputs": [],
      "name": "stopAll",
      "outputs": [],
      "stateMutability": "nonpayable",
      "type": "function"
    },
    {
      "inputs": [
        {
          "internalType": "uint256",
          "name": "newFee",
          "type": "uint256"
        }
      ],
      "name": "updateFee",
      "outputs": [],
      "stateMutability": "nonpayable",
      "type": "function"
    },
    {
      "inputs": [
        {
          "internalType": "address",
          "name": "newCollector",
          "type": "address"
        }
      ],
      "name": "updateFeeCollector",
      "outputs": [],
      "stateMutability": "nonpayable",
      "type": "function"
    },
    {
      "stateMutability": "payable",
      "type": "receive"
    }
  ],
  "bytecode": "0x60806040526004805460ff191690553480156200001b57600080fd5b50604051620034a6380380620034a68339810160408190526200003e9162000099565b6001600081905580546001600160a01b039485166001600160a01b0319918216179091556002805493909416921691909117909155600355620000da565b80516001600160a01b03811681146200009457600080fd5b919050565b600080600060608486031215620000af57600080fd5b620000ba846200007c565b9250620000ca602085016200007c565b9150604084015190509250925092565b6133bc80620000ea6000396000f3fe6080604052600436106101025760003560e01c80639a34f00311610095578063ae73ccec11610064578063ae73ccec146102c4578063af3d104f146102d9578063b8fe6abe146102ee578063d2c35ce81461030c578063f0881ae61461032c57600080fd5b80639a34f0031461025c578063a17a70941461026f578063a58026201461028f578063aa032827146102a257600080fd5b806367aab243116100d157806367aab243146101f257806368082c35146102145780638cbbbf98146102295780639012c4a81461023c57600080fd5b8063150b7a021461014657806333a10cc1146101905780633c6d570a146101b257806361281516146101c557600080fd5b3661014157604080513381523460208201527f9a0fa8b9e74b6a70081d4c7ce0cab294a0781d754833b19e1c96e2107f6310ea910160405180910390a1005b600080fd5b34801561015257600080fd5b50610172610161366004612e55565b630a85bd0160e11b95945050505050565b6040516001600160e01b031990911681526020015b60405180910390f35b34801561019c57600080fd5b506101b06101ab366004612ef3565b610341565b005b6101b06101c0366004612f1f565b610644565b3480156101d157600080fd5b506101e56101e0366004612ef3565b610caf565b6040516101879190612f6b565b3480156101fe57600080fd5b50610207610e43565b6040516101879190612fef565b34801561022057600080fd5b5061020761105b565b6101b061023736600461307d565b611264565b34801561024857600080fd5b506101b06102573660046130b2565b61189a565b6101b061026a3660046130cb565b611914565b34801561027b57600080fd5b506101b061028a366004612ef3565b611ea1565b6101b061029d366004613119565b612359565b3480156102ae57600080fd5b506102b76124de565b6040516101879190613150565b3480156102d057600080fd5b50610207612689565b3480156102e557600080fd5b506101b0612746565b3480156102fa57600080fd5b50600354604051908152602001610187565b34801561031857600080fd5b506101b06103273660046131a8565b61277c565b34801561033857600080fd5b506101b061280a565b6001600160a01b0380831660009081526005602090815260408083208584529091529020600281015490911633146103c05760405162461bcd60e51b815260206004820152601d60248201527f4f6e6c79206f776e65722063616e20636c61696d206261636b204e465400000060448201526064015b60405180910390fd5b600781015460ff16156104255760405162461bcd60e51b815260206004820152602760248201527f546f6b656e20686173206e6f74206265656e2064656c69737465642066726f6d604482015266081b585c9ad95d60ca1b60648201526084016103b7565b6040516323b872dd60e01b8152306004820152336024820152604481018390526001600160a01b038416906323b872dd90606401600060405180830381600087803b15801561047357600080fd5b505af1158015610487573d6000803e3d6000fd5b505050506001600160a01b0383166000908152600960209081526040808320858452909152902054600a8054829081106104c3576104c36131cc565b9060005260206000209060080201600080820160006101000a8154906001600160a01b03021916905560018201600090556002820160006101000a8154906001600160a01b03021916905560038201600090556004820160009055600582016000905560068201600090556007820160006101000a81549060ff0219169055505060056000856001600160a01b03166001600160a01b031681526020019081526020016000206000848152602001908152602001600020600080820160006101000a8154906001600160a01b03021916905560018201600090556002820160006101000a8154906001600160a01b03021916905560038201600090556004820160009055600582016000905560068201600090556007820160006101000a81549060ff0219169055505082846001600160a01b03167ff08bc7b248ec1a2916edaa0ea75d3b79151c53c790c568e83c1c8811d99fe4353360405161063691906001600160a01b0391909116815260200190565b60405180910390a350505050565b61064c612843565b85856000826001600160a01b0316636352211e836040518263ffffffff1660e01b815260040161067e91815260200190565b602060405180830381865afa15801561069b573d6000803e3d6000fd5b505050506040513d601f19601f820116820180604052508101906106bf91906131e2565b90506001600160a01b03811633146107295760405162461bcd60e51b815260206004820152602760248201527f4552433732313a2043616c6c6572206973206e6f74206f776e6572206f7220616044820152661c1c1c9bdd995960ca1b60648201526084016103b7565b60045460ff161561074c5760405162461bcd60e51b81526004016103b7906131ff565b6003543410156107ae5760405162461bcd60e51b815260206004820152602760248201527f4e6f7420656e6f7567682045544820746f2070617920666f7220706c6174666f604482015266726d206665657360c81b60648201526084016103b7565b600087116107fe5760405162461bcd60e51b815260206004820152601e60248201527f5072696365206d75737420626520686967686572207468616e207a65726f000060448201526064016103b7565b4284116108665760405162461bcd60e51b815260206004820152603060248201527f4c697374696e6720657870697279206d757374206265206c6f6e67657220746860448201526f30b71031bab93932b73a103a34b6b29760811b60648201526084016103b7565b6040516301ffc9a760e01b8152632b424ad760e21b60048201526001600160a01b038a16906301ffc9a790602401602060405180830381865afa1580156108b1573d6000803e3d6000fd5b505050506040513d601f19601f820116820180604052508101906108d59190613241565b15156001146109365760405162461bcd60e51b815260206004820152602760248201527f546f6b656e206973206e6f7420455243343930372c20706c656173652077726160448201526638103a37b5b2b760c91b60648201526084016103b7565b604051632142170760e11b8152336004820152306024820152604481018990526001600160a01b038a16906342842e0e90606401600060405180830381600087803b15801561098457600080fd5b505af1158015610998573d6000803e3d6000fd5b5050505060006040518061010001604052808b6001600160a01b031681526020018a8152602001336001600160a01b0316815260200189815260200188815260200187815260200186815260200160011515815250905080600560008c6001600160a01b03166001600160a01b0316815260200190815260200160002060008b815260200190815260200160002060008201518160000160006101000a8154816001600160a01b0302191690836001600160a01b031602179055506020820151816001015560408201518160020160006101000a8154816001600160a01b0302191690836001600160a01b03160217905550606082015181600301556080820151816004015560a0820151816005015560c0820151816006015560e08201518160070160006101000a81548160ff0219169083151502179055509050506000600a80549050905080600960008d6001600160a01b03166001600160a01b0316815260200190815260200160002060008c815260200190815260200160002081905550600a82908060018154018082558091505060019003906000526020600020906008020160009091909190915060008201518160000160006101000a8154816001600160a01b0302191690836001600160a01b031602179055506020820151816001015560408201518160020160006101000a8154816001600160a01b0302191690836001600160a01b03160217905550606082015181600301556080820151816004015560a0820151816005015560c0820151816006015560e08201518160070160006101000a81548160ff0219169083151502179055505050600260009054906101000a90046001600160a01b03166001600160a01b03166108fc349081150290604051600060405180830381858888f19350505050158015610c42573d6000803e3d6000fd5b50604080518a8152602081018a9052908101889052606081018790528a906001600160a01b038d16907f2b8a5411e19b0bb6d4cfe00ece7d2c9c7f4deb89112788d88e307035195b23c99060800160405180910390a35050505050610ca76001600055565b505050505050565b6001600160a01b03808316600090815260056020818152604080842086855282529283902083516101008101855281548616815260018201549281019290925260028101549094169281018390526003840154606082810191909152600485015460808301529184015460a0820152600684015460c082015260079093015460ff16151560e084015291903314610d845760405162461bcd60e51b815260206004820152601960248201527821b0b63632b91034b9903737ba103a37b5b2b71037bbb732b960391b60448201526064016103b7565b6001600160a01b0384166000908152600860209081526040808320868452825280832080548251818502810185019093528083529193909284015b82821015610e355760008481526020908190206040805160c0810182526006860290920180546001600160a01b0390811684526001808301548587015260028301549091169284019290925260038101546060840152600481015460808401526005015460a08301529083529092019101610dbf565b505050509150505b92915050565b60606000805b600a54811015610f11576000600a8281548110610e6857610e686131cc565b60009182526020918290206040805161010081018252600890930290910180546001600160a01b03908116845260018201549484019490945260028101549093169082018190526003830154606083015260048301546080830152600583015460a0830152600683015460c083015260079092015460ff16151560e08201529150339003610efe57610efb600184613279565b92505b5080610f098161328c565b915050610e49565b506000816001600160401b03811115610f2c57610f2c6132a5565b604051908082528060200260200182016040528015610f6557816020015b610f52612d76565b815260200190600190039081610f4a5790505b5090506000805b600a54811015611052576000600a8281548110610f8b57610f8b6131cc565b60009182526020918290206040805161010081018252600890930290910180546001600160a01b03908116845260018201549484019490945260028101549093169082018190526003830154606083015260048301546080830152600583015460a0830152600683015460c083015260079092015460ff16151560e0820152915033900361103f5780848481518110611026576110266131cc565b602090810291909101015261103c600184613279565b92505b508061104a8161328c565b915050610f6c565b50909392505050565b60606000805b600a54811015611126576000600a8281548110611080576110806131cc565b60009182526020918290206040805161010081018252600890930290910180546001600160a01b0390811684526001820154948401949094526002810154909316908201526003820154606082015260048201546080820152600582015460a0820152600682015460c082015260079091015460ff1615801560e083015290915061111357611110600184613279565b92505b508061111e8161328c565b915050611061565b506000816001600160401b03811115611141576111416132a5565b60405190808252806020026020018201604052801561117a57816020015b611167612d76565b81526020019060019003908161115f5790505b5090506000805b600a54811015611052576000600a82815481106111a0576111a06131cc565b60009182526020918290206040805161010081018252600890930290910180546001600160a01b0390811684526001820154948401949094526002810154909316908201526003820154606082015260048201546080820152600582015460a0820152600682015460c082015260079091015460ff1615801560e08301529091506112515780848481518110611238576112386131cc565b602090810291909101015261124e600184613279565b92505b508061125c8161328c565b915050611181565b61126c612843565b60045460ff161561128f5760405162461bcd60e51b81526004016103b7906131ff565b6001600160a01b0380841660009081526005602090815260408083208684529091529020600281015490911633036113155760405162461bcd60e51b815260206004820152602360248201527f4f776e65722063616e6e6f742062696420666f72207468656972206f776e204e60448201526246547360e81b60648201526084016103b7565b806004015482101561137c5760405162461bcd60e51b815260206004820152602a60248201527f52656e74616c20446179732063616e6e6f742062652073686f72746572207468604482015269616e206d696e696d756d60b01b60648201526084016103b7565b80600501548211156113e25760405162461bcd60e51b815260206004820152602960248201527f52656e74616c20446179732063616e6e6f74206265206c6f6e676572207468616044820152686e206d6178696d756d60b81b60648201526084016103b7565b4281600601541161142b5760405162461bcd60e51b8152602060048201526013602482015272131a5cdd1a5b99c81a185cc8195e1c1a5c9959606a1b60448201526064016103b7565b600082826003015461143d91906132bb565b90508034101561149b5760405162461bcd60e51b8152602060048201526024808201527f426964206c6f776572207468616e206d696e696d756d2072656e74616c2070726044820152636963652160e01b60648201526084016103b7565b600782015460ff1615156001146114c45760405162461bcd60e51b81526004016103b7906132d2565b6001600160a01b0385166000908152600760209081526040808320878452909152902060020154156115345760405162461bcd60e51b8152602060048201526019602482015278151bdad95b881a185cc81899595b881c995b9d1959081bdd5d603a1b60448201526064016103b7565b60006040518060c00160405280876001600160a01b03168152602001868152602001336001600160a01b03168152602001846003015481526020018581526020013481525090508060066000886001600160a01b03166001600160a01b0316815260200190815260200160002060008781526020019081526020016000206000336001600160a01b03166001600160a01b0316815260200190815260200160002060008201518160000160006101000a8154816001600160a01b0302191690836001600160a01b031602179055506020820151816001015560408201518160020160006101000a8154816001600160a01b0302191690836001600160a01b03160217905550606082015181600301556080820151816004015560a08201518160050155905050600060086000886001600160a01b03166001600160a01b031681526020019081526020016000206000878152602001908152602001600020805480602002602001604051908101604052809291908181526020016000905b828210156117285760008481526020908190206040805160c0810182526006860290920180546001600160a01b0390811684526001808301548587015260028301549091169284019290925260038101546060840152600481015460808401526005015460a083015290835290920191016116b2565b5050505090506000805b82518110156117ac57600083828151811061174f5761174f6131cc565b60200260200101519050336001600160a01b031681604001516001600160a01b0316036117995784848381518110611789576117896131cc565b6020026020010181905250600192505b50806117a48161328c565b915050611732565b5080611840576001600160a01b0380891660009081526008602090815260408083208b8452825280832080546001818101835591855293839020885160069095020180549486166001600160a01b0319958616178155928801519083015586015160028201805491909416921691909117909155606084015160038201556080840151600482015560a08401516005909101555b6040805187815234602082015288916001600160a01b038b16917f925277ab476e47a4c3eabacf94055594c3ecb681c66035f85dfbf6e15f3cab3c91015b60405180910390a350505050506118956001600055565b505050565b6001546001600160a01b031633146118c45760405162461bcd60e51b81526004016103b790613313565b6003805490829055604080518281526020810184905233918101919091527f8d6ad40ad37637106f0ca2d682205c774e73f8cf7789162ce1c0b6ac0791a484906060015b60405180910390a15050565b61191c612843565b60045460ff161561193f5760405162461bcd60e51b81526004016103b7906131ff565b6001600160a01b0383166000908152600560209081526040808320858452909152902060048101546001600160401b03831610156119c95760405162461bcd60e51b815260206004820152602160248201527f43616e6e6f742072656e7420666f72206c657373207468616e206d696e696d756044820152606d60f81b60648201526084016103b7565b8060050154826001600160401b03161115611a305760405162461bcd60e51b815260206004820152602160248201527f43616e6e6f742072656e7420666f72206d6f7265207468616e206d6178696d756044820152606d60f81b60648201526084016103b7565b6000826001600160401b03168260030154611a4b91906132bb565b90506000611a5a84601861335b565b611a6590603c61335b565b611a7090603c61335b565b611a83906001600160401b031642613279565b905042836006015411611ace5760405162461bcd60e51b8152602060048201526013602482015272131a5cdd1a5b99c81a185cc8195e1c1a5c9959606a1b60448201526064016103b7565b81341015611b2a5760405162461bcd60e51b8152602060048201526024808201527f496e73756666696369656e7420657468657220746f2070617920666f722072656044820152631b9d185b60e21b60648201526084016103b7565b600783015460ff161515600114611b535760405162461bcd60e51b81526004016103b7906132d2565b6001600160a01b038616600090815260076020908152604080832088845290915290206002015415611bc35760405162461bcd60e51b8152602060048201526019602482015278151bdad95b881a185cc81899595b881c995b9d1959081bdd5d603a1b60448201526064016103b7565b60028301546040516001600160a01b03909116903480156108fc02916000818181858888f19350505050158015611bfe573d6000803e3d6000fd5b5082546040516370182b2f60e11b8152600481018790523360248201526001600160401b03831660448201526001600160a01b039091169063e030565e90606401600060405180830381600087803b158015611c5957600080fd5b505af1158015611c6d573d6000803e3d6000fd5b50505050600060405180606001604052808560020160009054906101000a90046001600160a01b03166001600160a01b03168152602001336001600160a01b031681526020018381525090508060076000896001600160a01b03166001600160a01b03168152602001908152602001600020600088815260200190815260200160002060008201518160000160006101000a8154816001600160a01b0302191690836001600160a01b0316021790555060208201518160010160006101000a8154816001600160a01b0302191690836001600160a01b03160217905550604082015181600201559050506000600c80549050905080600b60008a6001600160a01b03166001600160a01b03168152602001908152602001600020600089815260200190815260200160002081905550600c82908060018154018082558091505060019003906000526020600020906003020160009091909190915060008201518160000160006101000a8154816001600160a01b0302191690836001600160a01b0316021790555060208201518160010160006101000a8154816001600160a01b0302191690836001600160a01b0316021790555060408201518160020155505086886001600160a01b03167f5c2efca37e15a36ac693710f773e3290322aca5dd85fd110263c1d0f81254e96338989600301543360405161187e94939291906001600160a01b0394851681526001600160401b039390931660208401526040830191909152909116606082015260800190565b6001600160a01b0380831660008181526007602090815260408083208684528252808320938352600582528083208684529091529020600281015491929091163314611f275760405162461bcd60e51b815260206004820152601560248201527413db9b1e481bdddb995c8818d85b8819195b1a5cdd605a1b60448201526064016103b7565b60028201541580611f3b5750428260020154105b611f7d5760405162461bcd60e51b8152602060048201526013602482015272151bdad95b881a5cc81c995b9d1959081bdd5d606a1b60448201526064016103b7565b604051636178f8a560e11b8152600481018490526000906001600160a01b0386169063c2f1f14a90602401602060405180830381865afa158015611fc5573d6000803e3d6000fd5b505050506040513d601f19601f82011682018060405250810190611fe991906131e2565b6001600160a01b0316146120375760405162461bcd60e51b815260206004820152601560248201527452656e74616c20686173206e6f7420656e6465642160581b60448201526064016103b7565b6000604051806101000160405280866001600160a01b03168152602001858152602001336001600160a01b03168152602001836003015481526020018360040154815260200183600501548152602001836006015481526020016000151581525090508060056000876001600160a01b03166001600160a01b03168152602001908152602001600020600086815260200190815260200160002060008201518160000160006101000a8154816001600160a01b0302191690836001600160a01b031602179055506020820151816001015560408201518160020160006101000a8154816001600160a01b0302191690836001600160a01b03160217905550606082015181600301556080820151816004015560a0820151816005015560c0820151816006015560e08201518160070160006101000a81548160ff021916908315150217905550905050600060096000876001600160a01b03166001600160a01b03168152602001908152602001600020600086815260200190815260200160002054905081600a82815481106121cf576121cf6131cc565b600091825260209182902083516008929092020180546001600160a01b03199081166001600160a01b039384161782559284015160018201556040840151600280830180549095169190931617909255606083015160038301556080830151600483015560a0830151600583015560c0830151600683015560e0909201516007909101805460ff191691151591909117905584015415612308576001600160a01b0386166000908152600b60209081526040808320888452909152902054600c8054829081106122a1576122a16131cc565b60009182526020808320600390920290910180546001600160a01b03199081168255600180830180548316905560029283018590556001600160a01b038c1685526007845260408086208c8752909452928420805482168155928301805490911690550155505b604080516001600160a01b03881681526020810187905260008183015290517fd1d5cc10af783a2cd8ee03e77792cd5dd211ef55ba189b315ae226047587affb9181900360600190a1505050505050565b612361612843565b60045460ff16156123845760405162461bcd60e51b81526004016103b7906131ff565b6001600160a01b03808416600081815260056020818152604080842088855282528084209484526006825280842088855282528084208787168552825292839020835160c08101855281548716815260018201549281019290925260028082015487169483019490945260038101546060830152600481015460808301529091015460a0820152908201549192909116331461245e5760405162461bcd60e51b815260206004820152601960248201527821b0b63632b91034b9903737ba103a37b5b2b71037bbb732b960391b60448201526064016103b7565b608081015160a082015160028401546001600160a01b031661248488888389878761289c565b6003850154604080516001600160a01b03898116825260208201879052918101929092523360608301528891908a16907f5c2efca37e15a36ac693710f773e3290322aca5dd85fd110263c1d0f81254e969060800161187e565b60606000805b600c54811015612571576000600c8281548110612503576125036131cc565b600091825260209182902060408051606081018252600390930290910180546001600160a01b039081168085526001830154909116948401949094526002015490820152915033900361255e5761255b600184613279565b92505b50806125698161328c565b9150506124e4565b506000816001600160401b0381111561258c5761258c6132a5565b6040519080825280602002602001820160405280156125d757816020015b60408051606081018252600080825260208083018290529282015282526000199092019101816125aa5790505b5090506000805b600c54811015611052576000600c82815481106125fd576125fd6131cc565b600091825260209182902060408051606081018252600390930290910180546001600160a01b0390811680855260018301549091169484019490945260020154908201529150339003612676578084848151811061265d5761265d6131cc565b6020908102919091010152612673600184613279565b92505b50806126818161328c565b9150506125de565b6060600a805480602002602001604051908101604052809291908181526020016000905b8282101561273d57600084815260209081902060408051610100810182526008860290920180546001600160a01b039081168452600180830154858701526002830154909116928401929092526003810154606084015260048101546080840152600581015460a0840152600681015460c08401526007015460ff16151560e083015290835290920191016126ad565b50505050905090565b6001546001600160a01b031633146127705760405162461bcd60e51b81526004016103b790613313565b6004805460ff19169055565b6001546001600160a01b031633146127a65760405162461bcd60e51b81526004016103b790613313565b600280546001600160a01b038381166001600160a01b0319831681179093556040805191909216808252602082019390935233918101919091527f68a44a48069a61547e9d05149485c3542057bf135d5834d3455fed76d4639e5490606001611908565b6001546001600160a01b031633146128345760405162461bcd60e51b81526004016103b790613313565b6004805460ff19166001179055565b6002600054036128955760405162461bcd60e51b815260206004820152601f60248201527f5265656e7472616e637947756172643a207265656e7472616e742063616c6c0060448201526064016103b7565b6002600055565b80836001600160a01b03163110156129055760405162461bcd60e51b815260206004820152602660248201527f496e73756666696369656e742062616c616e636520746f2070617920666f72206044820152651c995b9d185b60d21b60648201526084016103b7565b6001600160a01b0386166000908152600860209081526040808320888452825280832080548251818502810185019093528083529192909190849084015b828210156129b95760008481526020908190206040805160c0810182526006860290920180546001600160a01b0390811684526001808301548587015260028301549091169284019290925260038101546060840152600481015460808401526005015460a08301529083529092019101612943565b5050604051929350506001600160a01b0387169184156108fc02915084906000818181858888f193505050501580156129f6573d6000803e3d6000fd5b506000612a048460186132bb565b612a0f90603c6132bb565b612a1a90603c6132bb565b612a249042613279565b6040516370182b2f60e11b8152600481018990526001600160a01b0387811660248301526001600160401b03831660448301529192509089169063e030565e90606401600060405180830381600087803b158015612a8157600080fd5b505af1158015612a95573d6000803e3d6000fd5b5050505060006040518060600160405280886001600160a01b03168152602001336001600160a01b0316815260200183815250905080600760008b6001600160a01b03166001600160a01b0316815260200190815260200160002060008a815260200190815260200160002060008201518160000160006101000a8154816001600160a01b0302191690836001600160a01b0316021790555060208201518160010160006101000a8154816001600160a01b0302191690836001600160a01b03160217905550604082015181600201559050506000600c80549050905080600b60008c6001600160a01b03166001600160a01b0316815260200190815260200160002060008b815260200190815260200160002081905550600c82908060018154018082558091505060019003906000526020600020906003020160009091909190915060008201518160000160006101000a8154816001600160a01b0302191690836001600160a01b0316021790555060208201518160010160006101000a8154816001600160a01b0302191690836001600160a01b0316021790555060408201518160020155505060005b8451811015612cbd576000858281518110612c5f57612c5f6131cc565b60200260200101519050886001600160a01b031681604001516001600160a01b031614158015612c935750868160a0015114155b15612caa57612caa81604001518260a00151612cf6565b5080612cb58161328c565b915050612c42565b506001600160a01b038a1660009081526008602090815260408083208c84529091528120612cea91612dcf565b50505050505050505050565b60405182906001600160a01b0382169083156108fc029084906000818181858888f19350505050158015612d2e573d6000803e3d6000fd5b50604080516001600160a01b0385168152602081018490527f75a0cba827b0d4e7ad9c64bb1011c21a622c376c3cb72ffbe500b6d0c3cc2596910160405180910390a1505050565b60405180610100016040528060006001600160a01b031681526020016000815260200160006001600160a01b03168152602001600081526020016000815260200160008152602001600081526020016000151581525090565b5080546000825560060290600052602060002090810190612df09190612df3565b50565b5b80821115612e3c5780546001600160a01b0319908116825560006001830181905560028301805490921690915560038201819055600482018190556005820155600601612df4565b5090565b6001600160a01b0381168114612df057600080fd5b600080600080600060808688031215612e6d57600080fd5b8535612e7881612e40565b94506020860135612e8881612e40565b93506040860135925060608601356001600160401b0380821115612eab57600080fd5b818801915088601f830112612ebf57600080fd5b813581811115612ece57600080fd5b896020828501011115612ee057600080fd5b9699959850939650602001949392505050565b60008060408385031215612f0657600080fd5b8235612f1181612e40565b946020939093013593505050565b60008060008060008060c08789031215612f3857600080fd5b8635612f4381612e40565b9860208801359850604088013597606081013597506080810135965060a00135945092505050565b602080825282518282018190526000919060409081850190868401855b82811015612fe257815180516001600160a01b0390811686528782015188870152868201511686860152606080820151908601526080808201519086015260a0908101519085015260c09093019290850190600101612f88565b5091979650505050505050565b602080825282518282018190526000919060409081850190868401855b82811015612fe257815180516001600160a01b0390811686528782015188870152868201511686860152606080820151908601526080808201519086015260a0808201519086015260c0808201519086015260e090810151151590850152610100909301929085019060010161300c565b60008060006060848603121561309257600080fd5b833561309d81612e40565b95602085013595506040909401359392505050565b6000602082840312156130c457600080fd5b5035919050565b6000806000606084860312156130e057600080fd5b83356130eb81612e40565b92506020840135915060408401356001600160401b038116811461310e57600080fd5b809150509250925092565b60008060006060848603121561312e57600080fd5b833561313981612e40565b925060208401359150604084013561310e81612e40565b602080825282518282018190526000919060409081850190868401855b82811015612fe257815180516001600160a01b039081168652878201511687860152850151858501526060909301929085019060010161316d565b6000602082840312156131ba57600080fd5b81356131c581612e40565b9392505050565b634e487b7160e01b600052603260045260246000fd5b6000602082840312156131f457600080fd5b81516131c581612e40565b60208082526022908201527f4c697374696e6720616e642072656e74616c20686173206265656e2068616c74604082015261195960f21b606082015260800190565b60006020828403121561325357600080fd5b815180151581146131c557600080fd5b634e487b7160e01b600052601160045260246000fd5b80820180821115610e3d57610e3d613263565b60006001820161329e5761329e613263565b5060010190565b634e487b7160e01b600052604160045260246000fd5b8082028115828204841417610e3d57610e3d613263565b60208082526021908201527f546f6b656e206973206e6f7420617661696c61626c6520666f722052656e74616040820152601b60fa1b606082015260800190565b60208082526028908201527f596f7520617265206e6f7420746865206f776e6572206f6620746865206d61726040820152676b6574706c61636560c01b606082015260800190565b6001600160401b0381811683821602808216919082811461337e5761337e613263565b50509291505056fea26469706673582212204589cdb77c03552fbb8e383c9045b3d0dc582d79596448e78c10079685b3982564736f6c63430008110033",
  "linkReferences": {},
  "deployedLinkReferences": {}
}