{
  "_format": "hh-sol-artifact-1",
  "contractName": "MarketplaceDC",
  "sourceName": "contracts/MarketplaceDC.sol",
  "abi": [
    {
      "inputs": [
        {
          "internalType": "address",
          "name": "_owner",
          "type": "address"
        },
        {
          "internalType": "address",
          "name": "_feeCollector",
          "type": "address"
        },
        {
          "internalType": "uint256",
          "name": "_fee",
          "type": "uint256"
        }
      ],
      "stateMutability": "nonpayable",
      "type": "constructor"
    },
    {
      "anonymous": false,
      "inputs": [
        {
          "indexed": false,
          "internalType": "uint256",
          "name": "_from",
          "type": "uint256"
        },
        {
          "indexed": false,
          "internalType": "uint256",
          "name": "_to",
          "type": "uint256"
        },
        {
          "indexed": false,
          "internalType": "address",
          "name": "_sender",
          "type": "address"
        }
      ],
      "name": "FeeUpdated",
      "type": "event"
    },
    {
      "anonymous": false,
      "inputs": [
        {
          "indexed": true,
          "internalType": "address",
          "name": "_nftAddress",
          "type": "address"
        },
        {
          "indexed": true,
          "internalType": "uint256",
          "name": "tokenId",
          "type": "uint256"
        },
        {
          "indexed": false,
          "internalType": "address",
          "name": "_sender",
          "type": "address"
        }
      ],
      "name": "TokenClaimed",
      "type": "event"
    },
    {
      "anonymous": false,
      "inputs": [
        {
          "indexed": false,
          "internalType": "address",
          "name": "_nftAddress",
          "type": "address"
        },
        {
          "indexed": false,
          "internalType": "uint256",
          "name": "tokenId",
          "type": "uint256"
        },
        {
          "indexed": false,
          "internalType": "bool",
          "name": "availableToRent",
          "type": "bool"
        }
      ],
      "name": "TokenDelisted",
      "type": "event"
    },
    {
      "anonymous": false,
      "inputs": [
        {
          "indexed": true,
          "internalType": "address",
          "name": "_nftAddress",
          "type": "address"
        },
        {
          "indexed": true,
          "internalType": "uint256",
          "name": "tokenId",
          "type": "uint256"
        },
        {
          "indexed": false,
          "internalType": "uint256",
          "name": "pricePerDay",
          "type": "uint256"
        },
        {
          "indexed": false,
          "internalType": "uint256",
          "name": "minRentalDays",
          "type": "uint256"
        },
        {
          "indexed": false,
          "internalType": "uint256",
          "name": "maxRentalDays",
          "type": "uint256"
        },
        {
          "indexed": false,
          "internalType": "uint256",
          "name": "listingExpiry",
          "type": "uint256"
        }
      ],
      "name": "TokenListed",
      "type": "event"
    },
    {
      "anonymous": false,
      "inputs": [
        {
          "indexed": true,
          "internalType": "address",
          "name": "_nftAddress",
          "type": "address"
        },
        {
          "indexed": true,
          "internalType": "uint256",
          "name": "tokenId",
          "type": "uint256"
        },
        {
          "indexed": false,
          "internalType": "address",
          "name": "rentee",
          "type": "address"
        },
        {
          "indexed": false,
          "internalType": "uint256",
          "name": "pricePerDay",
          "type": "uint256"
        },
        {
          "indexed": false,
          "internalType": "uint256",
          "name": "rentalDays",
          "type": "uint256"
        },
        {
          "indexed": false,
          "internalType": "address",
          "name": "_sender",
          "type": "address"
        }
      ],
      "name": "TokenRented",
      "type": "event"
    },
    {
      "anonymous": false,
      "inputs": [
        {
          "indexed": false,
          "internalType": "address",
          "name": "_from",
          "type": "address"
        },
        {
          "indexed": false,
          "internalType": "address",
          "name": "_to",
          "type": "address"
        },
        {
          "indexed": false,
          "internalType": "address",
          "name": "_sender",
          "type": "address"
        }
      ],
      "name": "feeCollectorUpdated",
      "type": "event"
    },
    {
      "inputs": [
        {
          "internalType": "address",
          "name": "_nftAddress",
          "type": "address"
        },
        {
          "internalType": "uint256",
          "name": "tokenId",
          "type": "uint256"
        }
      ],
      "name": "claimNFT",
      "outputs": [],
      "stateMutability": "nonpayable",
      "type": "function"
    },
    {
      "inputs": [
        {
          "internalType": "address",
          "name": "_nftAddress",
          "type": "address"
        },
        {
          "internalType": "uint256",
          "name": "tokenId",
          "type": "uint256"
        }
      ],
      "name": "delistNFT",
      "outputs": [],
      "stateMutability": "nonpayable",
      "type": "function"
    },
    {
      "inputs": [],
      "name": "getAllListings",
      "outputs": [
        {
          "components": [
            {
              "internalType": "address",
              "name": "contractAddress",
              "type": "address"
            },
            {
              "internalType": "uint256",
              "name": "tokenId",
              "type": "uint256"
            },
            {
              "internalType": "address payable",
              "name": "owner",
              "type": "address"
            },
            {
              "internalType": "uint256",
              "name": "pricePerDay",
              "type": "uint256"
            },
            {
              "internalType": "uint256",
              "name": "minRentalDays",
              "type": "uint256"
            },
            {
              "internalType": "uint256",
              "name": "maxRentalDays",
              "type": "uint256"
            },
            {
              "internalType": "uint256",
              "name": "listingExpiry",
              "type": "uint256"
            },
            {
              "internalType": "bool",
              "name": "availableToRent",
              "type": "bool"
            }
          ],
          "internalType": "struct MarketplaceDC.Listing[]",
          "name": "",
          "type": "tuple[]"
        }
      ],
      "stateMutability": "view",
      "type": "function"
    },
    {
      "inputs": [],
      "name": "getAvailableListings",
      "outputs": [
        {
          "components": [
            {
              "internalType": "address",
              "name": "contractAddress",
              "type": "address"
            },
            {
              "internalType": "uint256",
              "name": "tokenId",
              "type": "uint256"
            },
            {
              "internalType": "address payable",
              "name": "owner",
              "type": "address"
            },
            {
              "internalType": "uint256",
              "name": "pricePerDay",
              "type": "uint256"
            },
            {
              "internalType": "uint256",
              "name": "minRentalDays",
              "type": "uint256"
            },
            {
              "internalType": "uint256",
              "name": "maxRentalDays",
              "type": "uint256"
            },
            {
              "internalType": "uint256",
              "name": "listingExpiry",
              "type": "uint256"
            },
            {
              "internalType": "bool",
              "name": "availableToRent",
              "type": "bool"
            }
          ],
          "internalType": "struct MarketplaceDC.Listing[]",
          "name": "",
          "type": "tuple[]"
        }
      ],
      "stateMutability": "view",
      "type": "function"
    },
    {
      "inputs": [],
      "name": "getCurrentlyRented",
      "outputs": [
        {
          "components": [
            {
              "internalType": "address payable",
              "name": "owner",
              "type": "address"
            },
            {
              "internalType": "address payable",
              "name": "rentee",
              "type": "address"
            },
            {
              "internalType": "uint256",
              "name": "rentalEnd",
              "type": "uint256"
            }
          ],
          "internalType": "struct MarketplaceDC.Rental[]",
          "name": "",
          "type": "tuple[]"
        }
      ],
      "stateMutability": "view",
      "type": "function"
    },
    {
      "inputs": [],
      "name": "getListingFee",
      "outputs": [
        {
          "internalType": "uint256",
          "name": "",
          "type": "uint256"
        }
      ],
      "stateMutability": "view",
      "type": "function"
    },
    {
      "inputs": [
        {
          "internalType": "address",
          "name": "_nftAddress",
          "type": "address"
        },
        {
          "internalType": "uint256",
          "name": "tokenId",
          "type": "uint256"
        },
        {
          "internalType": "uint256",
          "name": "pricePerDay",
          "type": "uint256"
        },
        {
          "internalType": "uint256",
          "name": "minRentalDays",
          "type": "uint256"
        },
        {
          "internalType": "uint256",
          "name": "maxRentalDays",
          "type": "uint256"
        },
        {
          "internalType": "uint256",
          "name": "listingExpiry",
          "type": "uint256"
        }
      ],
      "name": "listNFT",
      "outputs": [],
      "stateMutability": "payable",
      "type": "function"
    },
    {
      "inputs": [
        {
          "internalType": "address",
          "name": "operator",
          "type": "address"
        },
        {
          "internalType": "address",
          "name": "from",
          "type": "address"
        },
        {
          "internalType": "uint256",
          "name": "tokenId",
          "type": "uint256"
        },
        {
          "internalType": "bytes",
          "name": "data",
          "type": "bytes"
        }
      ],
      "name": "onERC721Received",
      "outputs": [
        {
          "internalType": "bytes4",
          "name": "",
          "type": "bytes4"
        }
      ],
      "stateMutability": "nonpayable",
      "type": "function"
    },
    {
      "inputs": [
        {
          "internalType": "address",
          "name": "_nftAddress",
          "type": "address"
        },
        {
          "internalType": "uint256",
          "name": "tokenId",
          "type": "uint256"
        },
        {
          "internalType": "uint64",
          "name": "rentalDays",
          "type": "uint64"
        }
      ],
      "name": "rentNFT",
      "outputs": [],
      "stateMutability": "payable",
      "type": "function"
    },
    {
      "inputs": [],
      "name": "resumeAll",
      "outputs": [],
      "stateMutability": "nonpayable",
      "type": "function"
    },
    {
      "inputs": [],
      "name": "stopAll",
      "outputs": [],
      "stateMutability": "nonpayable",
      "type": "function"
    },
    {
      "inputs": [
        {
          "internalType": "uint256",
          "name": "newFee",
          "type": "uint256"
        }
      ],
      "name": "updateFee",
      "outputs": [],
      "stateMutability": "nonpayable",
      "type": "function"
    },
    {
      "inputs": [
        {
          "internalType": "address",
          "name": "newCollector",
          "type": "address"
        }
      ],
      "name": "updateFeeCollector",
      "outputs": [],
      "stateMutability": "nonpayable",
      "type": "function"
    }
  ],
  "bytecode": "0x60806040526004805460ff191690553480156200001b57600080fd5b50604051620021e7380380620021e78339810160408190526200003e9162000099565b6001600081905580546001600160a01b039485166001600160a01b0319918216179091556002805493909416921691909117909155600355620000da565b80516001600160a01b03811681146200009457600080fd5b919050565b600080600060608486031215620000af57600080fd5b620000ba846200007c565b9250620000ca602085016200007c565b9150604084015190509250925092565b6120fd80620000ea6000396000f3fe6080604052600436106100c25760003560e01c8063a17a70941161007f578063af3d104f11610059578063af3d104f146101f2578063b8fe6abe14610207578063d2c35ce814610225578063f0881ae61461024557600080fd5b8063a17a70941461019b578063aa032827146101bb578063ae73ccec146101dd57600080fd5b8063150b7a02146100c757806333a10cc1146101115780633c6d570a1461013357806368082c35146101465780639012c4a8146101685780639a34f00314610188575b600080fd5b3480156100d357600080fd5b506100f36100e2366004611cb1565b630a85bd0160e11b95945050505050565b6040516001600160e01b031990911681526020015b60405180910390f35b34801561011d57600080fd5b5061013161012c366004611d50565b61025a565b005b610131610141366004611d7c565b61055d565b34801561015257600080fd5b5061015b610bc8565b6040516101089190611dc8565b34801561017457600080fd5b50610131610183366004611e63565b610e2f565b610131610196366004611e7c565b610ea9565b3480156101a757600080fd5b506101316101b6366004611d50565b611422565b3480156101c757600080fd5b506101d06118da565b6040516101089190611ecb565b3480156101e957600080fd5b5061015b611a86565b3480156101fe57600080fd5b50610131611b43565b34801561021357600080fd5b50600354604051908152602001610108565b34801561023157600080fd5b50610131610240366004611f23565b611b79565b34801561025157600080fd5b50610131611c07565b6001600160a01b0380831660009081526005602090815260408083208584529091529020600281015490911633146102d95760405162461bcd60e51b815260206004820152601d60248201527f4f6e6c79206f776e65722063616e20636c61696d206261636b204e465400000060448201526064015b60405180910390fd5b600781015460ff161561033e5760405162461bcd60e51b815260206004820152602760248201527f546f6b656e20686173206e6f74206265656e2064656c69737465642066726f6d604482015266081b585c9ad95d60ca1b60648201526084016102d0565b6040516323b872dd60e01b8152306004820152336024820152604481018390526001600160a01b038416906323b872dd90606401600060405180830381600087803b15801561038c57600080fd5b505af11580156103a0573d6000803e3d6000fd5b505050506001600160a01b0383166000908152600960209081526040808320858452909152902054600a8054829081106103dc576103dc611f47565b9060005260206000209060080201600080820160006101000a8154906001600160a01b03021916905560018201600090556002820160006101000a8154906001600160a01b03021916905560038201600090556004820160009055600582016000905560068201600090556007820160006101000a81549060ff0219169055505060056000856001600160a01b03166001600160a01b031681526020019081526020016000206000848152602001908152602001600020600080820160006101000a8154906001600160a01b03021916905560018201600090556002820160006101000a8154906001600160a01b03021916905560038201600090556004820160009055600582016000905560068201600090556007820160006101000a81549060ff0219169055505082846001600160a01b03167ff08bc7b248ec1a2916edaa0ea75d3b79151c53c790c568e83c1c8811d99fe4353360405161054f91906001600160a01b0391909116815260200190565b60405180910390a350505050565b610565611c40565b85856000826001600160a01b0316636352211e836040518263ffffffff1660e01b815260040161059791815260200190565b602060405180830381865afa1580156105b4573d6000803e3d6000fd5b505050506040513d601f19601f820116820180604052508101906105d89190611f5d565b90506001600160a01b03811633146106425760405162461bcd60e51b815260206004820152602760248201527f4552433732313a2043616c6c6572206973206e6f74206f776e6572206f7220616044820152661c1c1c9bdd995960ca1b60648201526084016102d0565b60045460ff16156106655760405162461bcd60e51b81526004016102d090611f7a565b6003543410156106c75760405162461bcd60e51b815260206004820152602760248201527f4e6f7420656e6f7567682045544820746f2070617920666f7220706c6174666f604482015266726d206665657360c81b60648201526084016102d0565b600087116107175760405162461bcd60e51b815260206004820152601e60248201527f5072696365206d75737420626520686967686572207468616e207a65726f000060448201526064016102d0565b42841161077f5760405162461bcd60e51b815260206004820152603060248201527f4c697374696e6720657870697279206d757374206265206c6f6e67657220746860448201526f30b71031bab93932b73a103a34b6b29760811b60648201526084016102d0565b6040516301ffc9a760e01b8152632b424ad760e21b60048201526001600160a01b038a16906301ffc9a790602401602060405180830381865afa1580156107ca573d6000803e3d6000fd5b505050506040513d601f19601f820116820180604052508101906107ee9190611fbc565b151560011461084f5760405162461bcd60e51b815260206004820152602760248201527f546f6b656e206973206e6f7420455243343930372c20706c656173652077726160448201526638103a37b5b2b760c91b60648201526084016102d0565b604051632142170760e11b8152336004820152306024820152604481018990526001600160a01b038a16906342842e0e90606401600060405180830381600087803b15801561089d57600080fd5b505af11580156108b1573d6000803e3d6000fd5b5050505060006040518061010001604052808b6001600160a01b031681526020018a8152602001336001600160a01b0316815260200189815260200188815260200187815260200186815260200160011515815250905080600560008c6001600160a01b03166001600160a01b0316815260200190815260200160002060008b815260200190815260200160002060008201518160000160006101000a8154816001600160a01b0302191690836001600160a01b031602179055506020820151816001015560408201518160020160006101000a8154816001600160a01b0302191690836001600160a01b03160217905550606082015181600301556080820151816004015560a0820151816005015560c0820151816006015560e08201518160070160006101000a81548160ff0219169083151502179055509050506000600a80549050905080600960008d6001600160a01b03166001600160a01b0316815260200190815260200160002060008c815260200190815260200160002081905550600a82908060018154018082558091505060019003906000526020600020906008020160009091909190915060008201518160000160006101000a8154816001600160a01b0302191690836001600160a01b031602179055506020820151816001015560408201518160020160006101000a8154816001600160a01b0302191690836001600160a01b03160217905550606082015181600301556080820151816004015560a0820151816005015560c0820151816006015560e08201518160070160006101000a81548160ff0219169083151502179055505050600260009054906101000a90046001600160a01b03166001600160a01b03166108fc349081150290604051600060405180830381858888f19350505050158015610b5b573d6000803e3d6000fd5b50604080518a8152602081018a9052908101889052606081018790528a906001600160a01b038d16907f2b8a5411e19b0bb6d4cfe00ece7d2c9c7f4deb89112788d88e307035195b23c99060800160405180910390a35050505050610bc06001600055565b505050505050565b60606000805b600a54811015610c93576000600a8281548110610bed57610bed611f47565b60009182526020918290206040805161010081018252600890930290910180546001600160a01b0390811684526001820154948401949094526002810154909316908201526003820154606082015260048201546080820152600582015460a0820152600682015460c082015260079091015460ff1615801560e0830152909150610c8057610c7d600184611ff4565b92505b5080610c8b8161200d565b915050610bce565b5060008167ffffffffffffffff811115610caf57610caf612026565b604051908082528060200260200182016040528015610d3c57816020015b610d2960405180610100016040528060006001600160a01b031681526020016000815260200160006001600160a01b03168152602001600081526020016000815260200160008152602001600081526020016000151581525090565b815260200190600190039081610ccd5790505b5090506000805b600a54811015610e26576000600a8281548110610d6257610d62611f47565b60009182526020918290206040805161010081018252600890930290910180546001600160a01b0390811684526001820154948401949094526002810154909316908201526003820154606082015260048201546080820152600582015460a0820152600682015460c082015260079091015460ff1615801560e0830152909150610e135780848481518110610dfa57610dfa611f47565b6020908102919091010152610e10600184611ff4565b92505b5080610e1e8161200d565b915050610d43565b50909392505050565b6001546001600160a01b03163314610e595760405162461bcd60e51b81526004016102d09061203c565b6003805490829055604080518281526020810184905233918101919091527f8d6ad40ad37637106f0ca2d682205c774e73f8cf7789162ce1c0b6ac0791a484906060015b60405180910390a15050565b610eb1611c40565b60045460ff1615610ed45760405162461bcd60e51b81526004016102d090611f7a565b6001600160a01b03831660009081526005602090815260408083208584529091529020600481015467ffffffffffffffff83161015610f5f5760405162461bcd60e51b815260206004820152602160248201527f43616e6e6f742072656e7420666f72206c657373207468616e206d696e696d756044820152606d60f81b60648201526084016102d0565b80600501548267ffffffffffffffff161115610fc75760405162461bcd60e51b815260206004820152602160248201527f43616e6e6f742072656e7420666f72206d6f7265207468616e206d6178696d756044820152606d60f81b60648201526084016102d0565b60008267ffffffffffffffff168260030154610fe39190612084565b90506000610ff284601861209b565b610ffd90603c61209b565b61100890603c61209b565b61101c9067ffffffffffffffff1642611ff4565b9050428360060154116110675760405162461bcd60e51b8152602060048201526013602482015272131a5cdd1a5b99c81a185cc8195e1c1a5c9959606a1b60448201526064016102d0565b813410156110c35760405162461bcd60e51b8152602060048201526024808201527f496e73756666696369656e7420657468657220746f2070617920666f722072656044820152631b9d185b60e21b60648201526084016102d0565b600783015460ff1615156001146111265760405162461bcd60e51b815260206004820152602160248201527f546f6b656e206973206e6f7420617661696c61626c6520666f722052656e74616044820152601b60fa1b60648201526084016102d0565b60028301546040516001600160a01b03909116903480156108fc02916000818181858888f19350505050158015611161573d6000803e3d6000fd5b5082546040516370182b2f60e11b81526004810187905233602482015267ffffffffffffffff831660448201526001600160a01b039091169063e030565e90606401600060405180830381600087803b1580156111bd57600080fd5b505af11580156111d1573d6000803e3d6000fd5b50505050600060405180606001604052808560020160009054906101000a90046001600160a01b03166001600160a01b03168152602001336001600160a01b031681526020018381525090508060076000896001600160a01b03166001600160a01b03168152602001908152602001600020600088815260200190815260200160002060008201518160000160006101000a8154816001600160a01b0302191690836001600160a01b0316021790555060208201518160010160006101000a8154816001600160a01b0302191690836001600160a01b03160217905550604082015181600201559050506000600c80549050905080600b60008a6001600160a01b03166001600160a01b03168152602001908152602001600020600089815260200190815260200160002081905550600c82908060018154018082558091505060019003906000526020600020906003020160009091909190915060008201518160000160006101000a8154816001600160a01b0302191690836001600160a01b0316021790555060208201518160010160006101000a8154816001600160a01b0302191690836001600160a01b0316021790555060408201518160020155505086886001600160a01b03167f5c2efca37e15a36ac693710f773e3290322aca5dd85fd110263c1d0f81254e96338989600301543360405161140694939291906001600160a01b03948516815267ffffffffffffffff9390931660208401526040830191909152909116606082015260800190565b60405180910390a3505050505061141d6001600055565b505050565b6001600160a01b03808316600081815260076020908152604080832086845282528083209383526005825280832086845290915290206002810154919290911633146114a85760405162461bcd60e51b815260206004820152601560248201527413db9b1e481bdddb995c8818d85b8819195b1a5cdd605a1b60448201526064016102d0565b600282015415806114bc5750428260020154105b6114fe5760405162461bcd60e51b8152602060048201526013602482015272151bdad95b881a5cc81c995b9d1959081bdd5d606a1b60448201526064016102d0565b604051636178f8a560e11b8152600481018490526000906001600160a01b0386169063c2f1f14a90602401602060405180830381865afa158015611546573d6000803e3d6000fd5b505050506040513d601f19601f8201168201806040525081019061156a9190611f5d565b6001600160a01b0316146115b85760405162461bcd60e51b815260206004820152601560248201527452656e74616c20686173206e6f7420656e6465642160581b60448201526064016102d0565b6000604051806101000160405280866001600160a01b03168152602001858152602001336001600160a01b03168152602001836003015481526020018360040154815260200183600501548152602001836006015481526020016000151581525090508060056000876001600160a01b03166001600160a01b03168152602001908152602001600020600086815260200190815260200160002060008201518160000160006101000a8154816001600160a01b0302191690836001600160a01b031602179055506020820151816001015560408201518160020160006101000a8154816001600160a01b0302191690836001600160a01b03160217905550606082015181600301556080820151816004015560a0820151816005015560c0820151816006015560e08201518160070160006101000a81548160ff021916908315150217905550905050600060096000876001600160a01b03166001600160a01b03168152602001908152602001600020600086815260200190815260200160002054905081600a828154811061175057611750611f47565b600091825260209182902083516008929092020180546001600160a01b03199081166001600160a01b039384161782559284015160018201556040840151600280830180549095169190931617909255606083015160038301556080830151600483015560a0830151600583015560c0830151600683015560e0909201516007909101805460ff191691151591909117905584015415611889576001600160a01b0386166000908152600b60209081526040808320888452909152902054600c80548290811061182257611822611f47565b60009182526020808320600390920290910180546001600160a01b03199081168255600180830180548316905560029283018590556001600160a01b038c1685526007845260408086208c8752909452928420805482168155928301805490911690550155505b604080516001600160a01b03881681526020810187905260008183015290517fd1d5cc10af783a2cd8ee03e77792cd5dd211ef55ba189b315ae226047587affb9181900360600190a1505050505050565b60606000805b600c5481101561196d576000600c82815481106118ff576118ff611f47565b600091825260209182902060408051606081018252600390930290910180546001600160a01b039081168085526001830154909116948401949094526002015490820152915033900361195a57611957600184611ff4565b92505b50806119658161200d565b9150506118e0565b5060008167ffffffffffffffff81111561198957611989612026565b6040519080825280602002602001820160405280156119d457816020015b60408051606081018252600080825260208083018290529282015282526000199092019101816119a75790505b5090506000805b600c54811015610e26576000600c82815481106119fa576119fa611f47565b600091825260209182902060408051606081018252600390930290910180546001600160a01b0390811680855260018301549091169484019490945260020154908201529150339003611a735780848481518110611a5a57611a5a611f47565b6020908102919091010152611a70600184611ff4565b92505b5080611a7e8161200d565b9150506119db565b6060600a805480602002602001604051908101604052809291908181526020016000905b82821015611b3a57600084815260209081902060408051610100810182526008860290920180546001600160a01b039081168452600180830154858701526002830154909116928401929092526003810154606084015260048101546080840152600581015460a0840152600681015460c08401526007015460ff16151560e08301529083529092019101611aaa565b50505050905090565b6001546001600160a01b03163314611b6d5760405162461bcd60e51b81526004016102d09061203c565b6004805460ff19169055565b6001546001600160a01b03163314611ba35760405162461bcd60e51b81526004016102d09061203c565b600280546001600160a01b038381166001600160a01b0319831681179093556040805191909216808252602082019390935233918101919091527f68a44a48069a61547e9d05149485c3542057bf135d5834d3455fed76d4639e5490606001610e9d565b6001546001600160a01b03163314611c315760405162461bcd60e51b81526004016102d09061203c565b6004805460ff19166001179055565b600260005403611c925760405162461bcd60e51b815260206004820152601f60248201527f5265656e7472616e637947756172643a207265656e7472616e742063616c6c0060448201526064016102d0565b6002600055565b6001600160a01b0381168114611cae57600080fd5b50565b600080600080600060808688031215611cc957600080fd5b8535611cd481611c99565b94506020860135611ce481611c99565b935060408601359250606086013567ffffffffffffffff80821115611d0857600080fd5b818801915088601f830112611d1c57600080fd5b813581811115611d2b57600080fd5b896020828501011115611d3d57600080fd5b9699959850939650602001949392505050565b60008060408385031215611d6357600080fd5b8235611d6e81611c99565b946020939093013593505050565b60008060008060008060c08789031215611d9557600080fd5b8635611da081611c99565b9860208801359850604088013597606081013597506080810135965060a00135945092505050565b602080825282518282018190526000919060409081850190868401855b82811015611e5657815180516001600160a01b0390811686528782015188870152868201511686860152606080820151908601526080808201519086015260a0808201519086015260c0808201519086015260e0908101511515908501526101009093019290850190600101611de5565b5091979650505050505050565b600060208284031215611e7557600080fd5b5035919050565b600080600060608486031215611e9157600080fd5b8335611e9c81611c99565b925060208401359150604084013567ffffffffffffffff81168114611ec057600080fd5b809150509250925092565b602080825282518282018190526000919060409081850190868401855b82811015611e5657815180516001600160a01b0390811686528782015116878601528501518585015260609093019290850190600101611ee8565b600060208284031215611f3557600080fd5b8135611f4081611c99565b9392505050565b634e487b7160e01b600052603260045260246000fd5b600060208284031215611f6f57600080fd5b8151611f4081611c99565b60208082526022908201527f4c697374696e6720616e642072656e74616c20686173206265656e2068616c74604082015261195960f21b606082015260800190565b600060208284031215611fce57600080fd5b81518015158114611f4057600080fd5b634e487b7160e01b600052601160045260246000fd5b8082018082111561200757612007611fde565b92915050565b60006001820161201f5761201f611fde565b5060010190565b634e487b7160e01b600052604160045260246000fd5b60208082526028908201527f596f7520617265206e6f7420746865206f776e6572206f6620746865206d61726040820152676b6574706c61636560c01b606082015260800190565b808202811582820484141761200757612007611fde565b67ffffffffffffffff8181168382160280821691908281146120bf576120bf611fde565b50509291505056fea2646970667358221220e573afe2d149dab22889cf57f8b6cfc2865c57e2acc3f5980f9b73ee69685d8164736f6c63430008110033",
  "linkReferences": {},
  "deployedLinkReferences": {}
}