{
  "_format": "hh-sol-artifact-1",
  "contractName": "MarketplaceDC",
  "sourceName": "contracts/MarketplaceDC.sol",
  "abi": [
    {
      "inputs": [
        {
          "internalType": "address",
          "name": "_owner",
          "type": "address"
        },
        {
          "internalType": "address",
          "name": "_feeCollector",
          "type": "address"
        },
        {
          "internalType": "uint256",
          "name": "_fee",
          "type": "uint256"
        },
        {
          "internalType": "uint256",
          "name": "_commsPercentage",
          "type": "uint256"
        }
      ],
      "stateMutability": "nonpayable",
      "type": "constructor"
    },
    {
      "anonymous": false,
      "inputs": [
        {
          "indexed": false,
          "internalType": "address",
          "name": "rentee",
          "type": "address"
        },
        {
          "indexed": false,
          "internalType": "uint256",
          "name": "bidAmt",
          "type": "uint256"
        }
      ],
      "name": "BidReceived",
      "type": "event"
    },
    {
      "anonymous": false,
      "inputs": [
        {
          "indexed": false,
          "internalType": "address",
          "name": "bidder",
          "type": "address"
        },
        {
          "indexed": false,
          "internalType": "uint256",
          "name": "bidAmt",
          "type": "uint256"
        }
      ],
      "name": "BidReturned",
      "type": "event"
    },
    {
      "anonymous": false,
      "inputs": [
        {
          "indexed": false,
          "internalType": "address",
          "name": "feeCollector",
          "type": "address"
        },
        {
          "indexed": false,
          "internalType": "uint256",
          "name": "feeWithdrawn",
          "type": "uint256"
        }
      ],
      "name": "ComissionWithdrawn",
      "type": "event"
    },
    {
      "anonymous": false,
      "inputs": [
        {
          "indexed": false,
          "internalType": "uint256",
          "name": "_from",
          "type": "uint256"
        },
        {
          "indexed": false,
          "internalType": "uint256",
          "name": "_to",
          "type": "uint256"
        },
        {
          "indexed": false,
          "internalType": "address",
          "name": "_sender",
          "type": "address"
        }
      ],
      "name": "FeeUpdated",
      "type": "event"
    },
    {
      "anonymous": false,
      "inputs": [
        {
          "indexed": true,
          "internalType": "address",
          "name": "_nftAddress",
          "type": "address"
        },
        {
          "indexed": true,
          "internalType": "uint256",
          "name": "tokenId",
          "type": "uint256"
        },
        {
          "indexed": false,
          "internalType": "uint256",
          "name": "rentalDays",
          "type": "uint256"
        },
        {
          "indexed": false,
          "internalType": "uint256",
          "name": "bidAmt",
          "type": "uint256"
        }
      ],
      "name": "TokenBid",
      "type": "event"
    },
    {
      "anonymous": false,
      "inputs": [
        {
          "indexed": true,
          "internalType": "address",
          "name": "_nftAddress",
          "type": "address"
        },
        {
          "indexed": true,
          "internalType": "uint256",
          "name": "tokenId",
          "type": "uint256"
        },
        {
          "indexed": false,
          "internalType": "address",
          "name": "_sender",
          "type": "address"
        }
      ],
      "name": "TokenClaimed",
      "type": "event"
    },
    {
      "anonymous": false,
      "inputs": [
        {
          "indexed": false,
          "internalType": "address",
          "name": "_nftAddress",
          "type": "address"
        },
        {
          "indexed": false,
          "internalType": "uint256",
          "name": "tokenId",
          "type": "uint256"
        },
        {
          "indexed": false,
          "internalType": "bool",
          "name": "availableToRent",
          "type": "bool"
        }
      ],
      "name": "TokenDelisted",
      "type": "event"
    },
    {
      "anonymous": false,
      "inputs": [
        {
          "indexed": true,
          "internalType": "address",
          "name": "_nftAddress",
          "type": "address"
        },
        {
          "indexed": true,
          "internalType": "uint256",
          "name": "tokenId",
          "type": "uint256"
        },
        {
          "indexed": false,
          "internalType": "uint256",
          "name": "pricePerDay",
          "type": "uint256"
        },
        {
          "indexed": false,
          "internalType": "uint256",
          "name": "minRentalDays",
          "type": "uint256"
        },
        {
          "indexed": false,
          "internalType": "uint256",
          "name": "maxRentalDays",
          "type": "uint256"
        },
        {
          "indexed": false,
          "internalType": "uint256",
          "name": "listingExpiry",
          "type": "uint256"
        }
      ],
      "name": "TokenListed",
      "type": "event"
    },
    {
      "anonymous": false,
      "inputs": [
        {
          "indexed": true,
          "internalType": "address",
          "name": "_nftAddress",
          "type": "address"
        },
        {
          "indexed": true,
          "internalType": "uint256",
          "name": "tokenId",
          "type": "uint256"
        },
        {
          "indexed": false,
          "internalType": "address",
          "name": "rentee",
          "type": "address"
        },
        {
          "indexed": false,
          "internalType": "uint256",
          "name": "pricePerDay",
          "type": "uint256"
        },
        {
          "indexed": false,
          "internalType": "uint256",
          "name": "rentalDays",
          "type": "uint256"
        },
        {
          "indexed": false,
          "internalType": "address",
          "name": "_sender",
          "type": "address"
        }
      ],
      "name": "TokenRented",
      "type": "event"
    },
    {
      "anonymous": false,
      "inputs": [
        {
          "indexed": false,
          "internalType": "uint256",
          "name": "_from",
          "type": "uint256"
        },
        {
          "indexed": false,
          "internalType": "uint256",
          "name": "_to",
          "type": "uint256"
        },
        {
          "indexed": false,
          "internalType": "address",
          "name": "sender",
          "type": "address"
        }
      ],
      "name": "commsUpdated",
      "type": "event"
    },
    {
      "anonymous": false,
      "inputs": [
        {
          "indexed": false,
          "internalType": "address",
          "name": "_from",
          "type": "address"
        },
        {
          "indexed": false,
          "internalType": "address",
          "name": "_to",
          "type": "address"
        },
        {
          "indexed": false,
          "internalType": "address",
          "name": "_sender",
          "type": "address"
        }
      ],
      "name": "feeCollectorUpdated",
      "type": "event"
    },
    {
      "inputs": [
        {
          "internalType": "address",
          "name": "_nftAddress",
          "type": "address"
        },
        {
          "internalType": "uint256",
          "name": "tokenId",
          "type": "uint256"
        },
        {
          "internalType": "address",
          "name": "rentee",
          "type": "address"
        }
      ],
      "name": "acceptBid",
      "outputs": [],
      "stateMutability": "payable",
      "type": "function"
    },
    {
      "inputs": [
        {
          "internalType": "address",
          "name": "_nftAddress",
          "type": "address"
        },
        {
          "internalType": "uint256",
          "name": "tokenId",
          "type": "uint256"
        },
        {
          "internalType": "uint256",
          "name": "rentalDays",
          "type": "uint256"
        }
      ],
      "name": "bidNFT",
      "outputs": [],
      "stateMutability": "payable",
      "type": "function"
    },
    {
      "inputs": [
        {
          "internalType": "address",
          "name": "_nftAddress",
          "type": "address"
        },
        {
          "internalType": "uint256",
          "name": "tokenId",
          "type": "uint256"
        }
      ],
      "name": "claimNFT",
      "outputs": [],
      "stateMutability": "nonpayable",
      "type": "function"
    },
    {
      "inputs": [
        {
          "internalType": "address",
          "name": "_nftAddress",
          "type": "address"
        },
        {
          "internalType": "uint256",
          "name": "tokenId",
          "type": "uint256"
        }
      ],
      "name": "delistNFT",
      "outputs": [],
      "stateMutability": "nonpayable",
      "type": "function"
    },
    {
      "inputs": [
        {
          "internalType": "address",
          "name": "_nftAddress",
          "type": "address"
        },
        {
          "internalType": "uint256",
          "name": "tokenId",
          "type": "uint256"
        }
      ],
      "name": "getAllBids",
      "outputs": [
        {
          "components": [
            {
              "internalType": "address",
              "name": "contractAddress",
              "type": "address"
            },
            {
              "internalType": "uint256",
              "name": "tokenId",
              "type": "uint256"
            },
            {
              "internalType": "address payable",
              "name": "rentee",
              "type": "address"
            },
            {
              "internalType": "uint256",
              "name": "pricePerDay",
              "type": "uint256"
            },
            {
              "internalType": "uint256",
              "name": "rentalDays",
              "type": "uint256"
            },
            {
              "internalType": "uint256",
              "name": "totalBid",
              "type": "uint256"
            },
            {
              "internalType": "uint256",
              "name": "bidTime",
              "type": "uint256"
            }
          ],
          "internalType": "struct MarketplaceDC.Bid[]",
          "name": "",
          "type": "tuple[]"
        }
      ],
      "stateMutability": "view",
      "type": "function"
    },
    {
      "inputs": [],
      "name": "getAllListings",
      "outputs": [
        {
          "components": [
            {
              "internalType": "address",
              "name": "contractAddress",
              "type": "address"
            },
            {
              "internalType": "uint256",
              "name": "tokenId",
              "type": "uint256"
            },
            {
              "internalType": "address payable",
              "name": "owner",
              "type": "address"
            },
            {
              "internalType": "uint256",
              "name": "pricePerDay",
              "type": "uint256"
            },
            {
              "internalType": "uint256",
              "name": "minRentalDays",
              "type": "uint256"
            },
            {
              "internalType": "uint256",
              "name": "maxRentalDays",
              "type": "uint256"
            },
            {
              "internalType": "uint256",
              "name": "listingExpiry",
              "type": "uint256"
            },
            {
              "internalType": "bool",
              "name": "availableToRent",
              "type": "bool"
            }
          ],
          "internalType": "struct MarketplaceDC.Listing[]",
          "name": "",
          "type": "tuple[]"
        }
      ],
      "stateMutability": "view",
      "type": "function"
    },
    {
      "inputs": [],
      "name": "getAvailableListings",
      "outputs": [
        {
          "components": [
            {
              "internalType": "address",
              "name": "contractAddress",
              "type": "address"
            },
            {
              "internalType": "uint256",
              "name": "tokenId",
              "type": "uint256"
            },
            {
              "internalType": "address payable",
              "name": "owner",
              "type": "address"
            },
            {
              "internalType": "uint256",
              "name": "pricePerDay",
              "type": "uint256"
            },
            {
              "internalType": "uint256",
              "name": "minRentalDays",
              "type": "uint256"
            },
            {
              "internalType": "uint256",
              "name": "maxRentalDays",
              "type": "uint256"
            },
            {
              "internalType": "uint256",
              "name": "listingExpiry",
              "type": "uint256"
            },
            {
              "internalType": "bool",
              "name": "availableToRent",
              "type": "bool"
            }
          ],
          "internalType": "struct MarketplaceDC.Listing[]",
          "name": "",
          "type": "tuple[]"
        }
      ],
      "stateMutability": "view",
      "type": "function"
    },
    {
      "inputs": [],
      "name": "getComissionBalance",
      "outputs": [
        {
          "internalType": "uint256",
          "name": "",
          "type": "uint256"
        }
      ],
      "stateMutability": "view",
      "type": "function"
    },
    {
      "inputs": [],
      "name": "getCurrentlyRented",
      "outputs": [
        {
          "components": [
            {
              "internalType": "address payable",
              "name": "owner",
              "type": "address"
            },
            {
              "internalType": "address payable",
              "name": "rentee",
              "type": "address"
            },
            {
              "internalType": "uint256",
              "name": "rentalEnd",
              "type": "uint256"
            }
          ],
          "internalType": "struct MarketplaceDC.Rental[]",
          "name": "",
          "type": "tuple[]"
        }
      ],
      "stateMutability": "view",
      "type": "function"
    },
    {
      "inputs": [],
      "name": "getListingFee",
      "outputs": [
        {
          "internalType": "uint256",
          "name": "",
          "type": "uint256"
        }
      ],
      "stateMutability": "view",
      "type": "function"
    },
    {
      "inputs": [],
      "name": "getMyBids",
      "outputs": [
        {
          "components": [
            {
              "internalType": "address",
              "name": "contractAddress",
              "type": "address"
            },
            {
              "internalType": "uint256",
              "name": "tokenId",
              "type": "uint256"
            },
            {
              "internalType": "address payable",
              "name": "rentee",
              "type": "address"
            },
            {
              "internalType": "uint256",
              "name": "pricePerDay",
              "type": "uint256"
            },
            {
              "internalType": "uint256",
              "name": "rentalDays",
              "type": "uint256"
            },
            {
              "internalType": "uint256",
              "name": "totalBid",
              "type": "uint256"
            },
            {
              "internalType": "uint256",
              "name": "bidTime",
              "type": "uint256"
            }
          ],
          "internalType": "struct MarketplaceDC.Bid[]",
          "name": "",
          "type": "tuple[]"
        }
      ],
      "stateMutability": "view",
      "type": "function"
    },
    {
      "inputs": [],
      "name": "getOwnedListings",
      "outputs": [
        {
          "components": [
            {
              "internalType": "address",
              "name": "contractAddress",
              "type": "address"
            },
            {
              "internalType": "uint256",
              "name": "tokenId",
              "type": "uint256"
            },
            {
              "internalType": "address payable",
              "name": "owner",
              "type": "address"
            },
            {
              "internalType": "uint256",
              "name": "pricePerDay",
              "type": "uint256"
            },
            {
              "internalType": "uint256",
              "name": "minRentalDays",
              "type": "uint256"
            },
            {
              "internalType": "uint256",
              "name": "maxRentalDays",
              "type": "uint256"
            },
            {
              "internalType": "uint256",
              "name": "listingExpiry",
              "type": "uint256"
            },
            {
              "internalType": "bool",
              "name": "availableToRent",
              "type": "bool"
            }
          ],
          "internalType": "struct MarketplaceDC.Listing[]",
          "name": "",
          "type": "tuple[]"
        }
      ],
      "stateMutability": "view",
      "type": "function"
    },
    {
      "inputs": [
        {
          "internalType": "address",
          "name": "_nftAddress",
          "type": "address"
        },
        {
          "internalType": "uint256",
          "name": "tokenId",
          "type": "uint256"
        },
        {
          "internalType": "uint256",
          "name": "pricePerDay",
          "type": "uint256"
        },
        {
          "internalType": "uint256",
          "name": "minRentalDays",
          "type": "uint256"
        },
        {
          "internalType": "uint256",
          "name": "maxRentalDays",
          "type": "uint256"
        },
        {
          "internalType": "uint256",
          "name": "listingExpiry",
          "type": "uint256"
        }
      ],
      "name": "listNFT",
      "outputs": [],
      "stateMutability": "payable",
      "type": "function"
    },
    {
      "inputs": [
        {
          "internalType": "address",
          "name": "operator",
          "type": "address"
        },
        {
          "internalType": "address",
          "name": "from",
          "type": "address"
        },
        {
          "internalType": "uint256",
          "name": "tokenId",
          "type": "uint256"
        },
        {
          "internalType": "bytes",
          "name": "data",
          "type": "bytes"
        }
      ],
      "name": "onERC721Received",
      "outputs": [
        {
          "internalType": "bytes4",
          "name": "",
          "type": "bytes4"
        }
      ],
      "stateMutability": "nonpayable",
      "type": "function"
    },
    {
      "inputs": [
        {
          "internalType": "address",
          "name": "_nftAddress",
          "type": "address"
        },
        {
          "internalType": "uint256",
          "name": "tokenId",
          "type": "uint256"
        },
        {
          "internalType": "address",
          "name": "rentee",
          "type": "address"
        }
      ],
      "name": "rejectBid",
      "outputs": [],
      "stateMutability": "payable",
      "type": "function"
    },
    {
      "inputs": [
        {
          "internalType": "address",
          "name": "_nftAddress",
          "type": "address"
        },
        {
          "internalType": "uint256",
          "name": "tokenId",
          "type": "uint256"
        },
        {
          "internalType": "uint64",
          "name": "rentalDays",
          "type": "uint64"
        }
      ],
      "name": "rentNFT",
      "outputs": [],
      "stateMutability": "payable",
      "type": "function"
    },
    {
      "inputs": [],
      "name": "resumeAll",
      "outputs": [],
      "stateMutability": "nonpayable",
      "type": "function"
    },
    {
      "inputs": [],
      "name": "stopAll",
      "outputs": [],
      "stateMutability": "nonpayable",
      "type": "function"
    },
    {
      "inputs": [
        {
          "internalType": "uint256",
          "name": "_commsPercentage",
          "type": "uint256"
        }
      ],
      "name": "updateComission",
      "outputs": [],
      "stateMutability": "nonpayable",
      "type": "function"
    },
    {
      "inputs": [
        {
          "internalType": "uint256",
          "name": "newFee",
          "type": "uint256"
        }
      ],
      "name": "updateFee",
      "outputs": [],
      "stateMutability": "nonpayable",
      "type": "function"
    },
    {
      "inputs": [
        {
          "internalType": "address",
          "name": "newCollector",
          "type": "address"
        }
      ],
      "name": "updateFeeCollector",
      "outputs": [],
      "stateMutability": "nonpayable",
      "type": "function"
    },
    {
      "inputs": [
        {
          "internalType": "address",
          "name": "_nftAddress",
          "type": "address"
        },
        {
          "internalType": "uint256",
          "name": "tokenId",
          "type": "uint256"
        }
      ],
      "name": "withdrawBid",
      "outputs": [],
      "stateMutability": "payable",
      "type": "function"
    },
    {
      "inputs": [],
      "name": "withdrawComission",
      "outputs": [],
      "stateMutability": "payable",
      "type": "function"
    },
    {
      "stateMutability": "payable",
      "type": "receive"
    }
  ],
  "bytecode": "0x608060405260006004556005805460ff191690553480156200002057600080fd5b5060405162004875380380620048758339810160408190526200004391620000a4565b6001600081905580546001600160a01b039586166001600160a01b0319918216179091556002805494909516931692909217909255600391909155600455620000ec565b80516001600160a01b03811681146200009f57600080fd5b919050565b60008060008060808587031215620000bb57600080fd5b620000c68562000087565b9350620000d66020860162000087565b6040860151606090960151949790965092505050565b61477980620000fc6000396000f3fe6080604052600436106101445760003560e01c80638cbbbf98116100b6578063ad6b02b51161006f578063ad6b02b514610369578063ae73ccec1461038c578063af3d104f146103a1578063b8fe6abe146103b6578063d2c35ce8146103cb578063f0881ae6146103eb57600080fd5b80638cbbbf98146102ce5780639012c4a8146102e15780639a34f00314610301578063a17a709414610314578063a580262014610334578063aa0328271461034757600080fd5b80634c62a644116101085780634c62a6441461023a5780634cb8ef5b14610242578063612815161461025557806367aab2431461028257806368082c35146102a4578063788077a7146102b957600080fd5b8063150b7a02146101885780631d33c9d3146101d25780632e89b77a146101e757806333a10cc1146102075780633c6d570a1461022757600080fd5b3661018357604080513381523460208201527f9a0fa8b9e74b6a70081d4c7ce0cab294a0781d754833b19e1c96e2107f6310ea910160405180910390a1005b600080fd5b34801561019457600080fd5b506101b46101a3366004614186565b630a85bd0160e11b95945050505050565b6040516001600160e01b031990911681526020015b60405180910390f35b6101e56101e0366004614224565b610400565b005b3480156101f357600080fd5b506101e5610202366004614266565b610839565b34801561021357600080fd5b506101e561022236600461427f565b6108b3565b6101e56102353660046142ab565b610bb1565b6101e5611204565b6101e561025036600461427f565b6112d5565b34801561026157600080fd5b5061027561027036600461427f565b61168a565b6040516101c991906142f7565b34801561028e57600080fd5b506102976119b4565b6040516101c99190614385565b3480156102b057600080fd5b50610297611bcc565b3480156102c557600080fd5b50610275611dd5565b6101e56102dc366004614413565b611e8d565b3480156102ed57600080fd5b506101e56102fc366004614266565b61260d565b6101e561030f366004614448565b61267f565b34801561032057600080fd5b506101e561032f36600461427f565b612c7f565b6101e5610342366004614224565b613137565b34801561035357600080fd5b5061035c61329a565b6040516101c9919061448b565b34801561037557600080fd5b5061037e613445565b6040519081526020016101c9565b34801561039857600080fd5b506102976134bc565b3480156103ad57600080fd5b506101e5613570565b3480156103c257600080fd5b5060035461037e565b3480156103d757600080fd5b506101e56103e63660046144e3565b6135a6565b3480156103f757600080fd5b506101e5613634565b61040861366d565b60055460ff16156104345760405162461bcd60e51b815260040161042b90614507565b60405180910390fd5b6001600160a01b03808416600081815260066020818152604080842088855282528084209484526007825280842088855282528084208787168552825292839020835160e0810185528154871681526001820154928101929092526002808201548716948301949094526003810154606083015260048101546080830152600581015460a08301529091015460c082015290820154919290911633146104ec5760405162461bcd60e51b815260040161042b90614549565b60408101516001600160a01b031661053b5760405162461bcd60e51b8152602060048201526012602482015271109a5908191bd95cc81b9bdd08195e1a5cdd60721b604482015260640161042b565b6001600160a01b0385166000908152600960209081526040808320878452909152812090805b825481101561060d57600083828154811061057e5761057e614580565b60009182526020918290206040805160e081018252600790930290910180546001600160a01b039081168452600182015494840194909452600281015484169183018290526003810154606084015260048101546080840152600581015460a08401526006015460c083015290925090881690036105fa578192505b5080610605816145ac565b915050610561565b50805b825461061e906001906145c5565b8110156106e757826106318260016145d8565b8154811061064157610641614580565b906000526020600020906007020183828154811061066157610661614580565b60009182526020909120825460079092020180546001600160a01b039283166001600160a01b031991821617825560018085015490830155600280850154908301805491909416911617909155600380830154908201556004808301549082015560058083015490820155600691820154910155806106df816145ac565b915050610610565b50818054806106f8576106f86145eb565b6000828152602080822060076000199094019384020180546001600160a01b03199081168255600182018490556002820180549091169055600381018390556004810183905560058101839055600601829055919092556001600160a01b03891682526009815260408083208984529091529020825461077a91908490613fee565b506107868787876136c6565b6001600160a01b0386166000908152600a6020526040902081546107aa9290613fee565b5060a08301516107ba86826138e4565b5050506001600160a01b0380861660009081526007602090815260408083208884528252808320938716835292905290812080546001600160a01b03199081168255600182018390556002820180549091169055600381018290556004810182905560058101829055600601555061083490506001600055565b505050565b6001546001600160a01b031633146108635760405162461bcd60e51b815260040161042b90614601565b6004805490829055604080518281526020810184905233918101919091527f795071f083765ff6f8aa0d6e12423dba989580d0ce456f1e407b240b7442e388906060015b60405180910390a15050565b6001600160a01b03808316600090815260066020908152604080832085845290915290206002810154909116331461092d5760405162461bcd60e51b815260206004820152601d60248201527f4f6e6c79206f776e65722063616e20636c61696d206261636b204e4654000000604482015260640161042b565b600781015460ff16156109925760405162461bcd60e51b815260206004820152602760248201527f546f6b656e20686173206e6f74206265656e2064656c69737465642066726f6d604482015266081b585c9ad95d60ca1b606482015260840161042b565b6040516323b872dd60e01b8152306004820152336024820152604481018390526001600160a01b038416906323b872dd90606401600060405180830381600087803b1580156109e057600080fd5b505af11580156109f4573d6000803e3d6000fd5b505050506001600160a01b0383166000908152600b60209081526040808320858452909152902054600c805482908110610a3057610a30614580565b9060005260206000209060080201600080820160006101000a8154906001600160a01b03021916905560018201600090556002820160006101000a8154906001600160a01b03021916905560038201600090556004820160009055600582016000905560068201600090556007820160006101000a81549060ff0219169055505060066000856001600160a01b03166001600160a01b031681526020019081526020016000206000848152602001908152602001600020600080820160006101000a8154906001600160a01b03021916905560018201600090556002820160006101000a8154906001600160a01b03021916905560038201600090556004820160009055600582016000905560068201600090556007820160006101000a81549060ff0219169055505082846001600160a01b03167ff08bc7b248ec1a2916edaa0ea75d3b79151c53c790c568e83c1c8811d99fe43533604051610ba391906001600160a01b0391909116815260200190565b60405180910390a350505050565b610bb961366d565b85856000826001600160a01b0316636352211e836040518263ffffffff1660e01b8152600401610beb91815260200190565b602060405180830381865afa158015610c08573d6000803e3d6000fd5b505050506040513d601f19601f82011682018060405250810190610c2c9190614649565b90506001600160a01b0381163314610c965760405162461bcd60e51b815260206004820152602760248201527f4552433732313a2043616c6c6572206973206e6f74206f776e6572206f7220616044820152661c1c1c9bdd995960ca1b606482015260840161042b565b60055460ff1615610cb95760405162461bcd60e51b815260040161042b90614507565b6040516301ffc9a760e01b8152632b424ad760e21b60048201526001600160a01b038a16906301ffc9a790602401602060405180830381865afa158015610d04573d6000803e3d6000fd5b505050506040513d601f19601f82011682018060405250810190610d289190614666565b1515600114610d895760405162461bcd60e51b815260206004820152602760248201527f546f6b656e206973206e6f7420455243343930372c20706c656173652077726160448201526638103a37b5b2b760c91b606482015260840161042b565b600354341015610deb5760405162461bcd60e51b815260206004820152602760248201527f4e6f7420656e6f7567682045544820746f2070617920666f7220706c6174666f604482015266726d206665657360c81b606482015260840161042b565b60008711610e3b5760405162461bcd60e51b815260206004820152601e60248201527f5072696365206d75737420626520686967686572207468616e207a65726f0000604482015260640161042b565b428411610ea35760405162461bcd60e51b815260206004820152603060248201527f4c697374696e6720657870697279206d757374206265206c6f6e67657220746860448201526f30b71031bab93932b73a103a34b6b29760811b606482015260840161042b565b604051632142170760e11b8152336004820152306024820152604481018990526001600160a01b038a16906342842e0e90606401600060405180830381600087803b158015610ef157600080fd5b505af1158015610f05573d6000803e3d6000fd5b50506040513092503480156108fc029250906000818181858888f19350505050158015610f36573d6000803e3d6000fd5b5060006040518061010001604052808b6001600160a01b031681526020018a8152602001336001600160a01b0316815260200189815260200188815260200187815260200186815260200160011515815250905080600660008c6001600160a01b03166001600160a01b0316815260200190815260200160002060008b815260200190815260200160002060008201518160000160006101000a8154816001600160a01b0302191690836001600160a01b031602179055506020820151816001015560408201518160020160006101000a8154816001600160a01b0302191690836001600160a01b03160217905550606082015181600301556080820151816004015560a0820151816005015560c0820151816006015560e08201518160070160006101000a81548160ff0219169083151502179055509050506000600c80549050905080600b60008d6001600160a01b03166001600160a01b0316815260200190815260200160002060008c815260200190815260200160002081905550600c82908060018154018082558091505060019003906000526020600020906008020160009091909190915060008201518160000160006101000a8154816001600160a01b0302191690836001600160a01b031602179055506020820151816001015560408201518160020160006101000a8154816001600160a01b0302191690836001600160a01b03160217905550606082015181600301556080820151816004015560a0820151816005015560c0820151816006015560e08201518160070160006101000a81548160ff0219169083151502179055505050898b6001600160a01b03167f2b8a5411e19b0bb6d4cfe00ece7d2c9c7f4deb89112788d88e307035195b23c98b8b8b8b6040516111e5949392919093845260208401929092526040830152606082015260800190565b60405180910390a350505050506111fc6001600055565b505050505050565b6002546001600160a01b0316331461125e5760405162461bcd60e51b815260206004820152601e60248201527f4f6e6c7920666565436f6c6c6563746f722063616e2077697468647261770000604482015260640161042b565b60025460405147916001600160a01b03169082156108fc029083906000818181858888f19350505050158015611298573d6000803e3d6000fd5b5060408051338152602081018390527fadeb6f23bed4a1ff793b31a6b5449e43a8613c3b28981d283e8e9a29e85a7d95910160405180910390a150565b6112dd61366d565b6001600160a01b0380831660009081526007602090815260408083208584528252808320338452825291829020825160e08101845281548516815260018201549281019290925260028101549093169181018290526003830154606082015260048301546080820152600583015460a082015260069092015460c083015261139c5760405162461bcd60e51b8152602060048201526012602482015271109a5908191bd95cc81b9bdd08195e1a5cdd60721b604482015260640161042b565b6001600160a01b0383166000908152600960209081526040808320858452909152812090805b825481101561146e5760008382815481106113df576113df614580565b60009182526020918290206040805160e081018252600790930290910180546001600160a01b03908116845260018201549484019490945260028101549093169082018190526003830154606083015260048301546080830152600583015460a083015260069092015460c0820152915033900361145b578192505b5080611466816145ac565b9150506113c2565b50805b825461147f906001906145c5565b81101561154857826114928260016145d8565b815481106114a2576114a2614580565b90600052602060002090600702018382815481106114c2576114c2614580565b60009182526020909120825460079092020180546001600160a01b039283166001600160a01b03199182161782556001808501549083015560028085015490830180549190941691161790915560038083015490820155600480830154908201556005808301549082015560069182015491015580611540816145ac565b915050611471565b5081805480611559576115596145eb565b6000828152602080822060076000199094019384020180546001600160a01b03199081168255600182018490556002820180549091169055600381018390556004810183905560058101839055600601829055919092556001600160a01b0387168252600981526040808320878452909152902082546115db91908490613fee565b506115e78585336136c6565b336000908152600a6020526040902081546116029290613fee565b5060a083015161161233826138e4565b5050506001600160a01b03831660009081526007602090815260408083208584528252808320338452909152812080546001600160a01b0319908116825560018201839055600282018054909116905560038101829055600481018290556005810182905560060155506116866001600055565b5050565b6001600160a01b0380831660009081526006602081815260408084208685528252928390208351610100810185528154861681526001820154928101929092526002810154909416928101839052600384015460608281019190915260048501546080830152600585015460a08301529184015460c082015260079093015460ff16151560e0840152919033146117335760405162461bcd60e51b815260040161042b90614549565b6001600160a01b038416600090815260096020908152604080832086845290915281209042815b835481101561181e57600084828154811061177757611777614580565b60009182526020918290206040805160e081018252600790930290910180546001600160a01b0390811684526001820154948401949094526002810154909316908201526003820154606082015260048201546080820152600582015460a082015260069091015460c0820181905290915083906117f890620151806145d8565b1061180b576118086001856145d8565b93505b5080611816816145ac565b91505061175a565b50600080836001600160401b0381111561183a5761183a614688565b6040519080825280602002602001820160405280156118bd57816020015b6118aa6040518060e0016040528060006001600160a01b031681526020016000815260200160006001600160a01b03168152602001600081526020016000815260200160008152602001600081525090565b8152602001906001900390816118585790505b50905060005b85548110156119a55760008682815481106118e0576118e0614580565b60009182526020918290206040805160e081018252600790930290910180546001600160a01b0390811684526001820154948401949094526002810154909316908201526003820154606082015260048201546080820152600582015460a082015260069091015460c08201819052909150859061196190620151806145d8565b10611992578083858151811061197957611979614580565b602090810291909101015261198f6001856145d8565b93505b508061199d816145ac565b9150506118c3565b50955050505050505b92915050565b60606000805b600c54811015611a82576000600c82815481106119d9576119d9614580565b60009182526020918290206040805161010081018252600890930290910180546001600160a01b03908116845260018201549484019490945260028101549093169082018190526003830154606083015260048301546080830152600583015460a0830152600683015460c083015260079092015460ff16151560e08201529150339003611a6f57611a6c6001846145d8565b92505b5080611a7a816145ac565b9150506119ba565b506000816001600160401b03811115611a9d57611a9d614688565b604051908082528060200260200182016040528015611ad657816020015b611ac36140a4565b815260200190600190039081611abb5790505b5090506000805b600c54811015611bc3576000600c8281548110611afc57611afc614580565b60009182526020918290206040805161010081018252600890930290910180546001600160a01b03908116845260018201549484019490945260028101549093169082018190526003830154606083015260048301546080830152600583015460a0830152600683015460c083015260079092015460ff16151560e08201529150339003611bb05780848481518110611b9757611b97614580565b6020908102919091010152611bad6001846145d8565b92505b5080611bbb816145ac565b915050611add565b50909392505050565b60606000805b600c54811015611c97576000600c8281548110611bf157611bf1614580565b60009182526020918290206040805161010081018252600890930290910180546001600160a01b0390811684526001820154948401949094526002810154909316908201526003820154606082015260048201546080820152600582015460a0820152600682015460c082015260079091015460ff1615801560e0830152909150611c8457611c816001846145d8565b92505b5080611c8f816145ac565b915050611bd2565b506000816001600160401b03811115611cb257611cb2614688565b604051908082528060200260200182016040528015611ceb57816020015b611cd86140a4565b815260200190600190039081611cd05790505b5090506000805b600c54811015611bc3576000600c8281548110611d1157611d11614580565b60009182526020918290206040805161010081018252600890930290910180546001600160a01b0390811684526001820154948401949094526002810154909316908201526003820154606082015260048201546080820152600582015460a0820152600682015460c082015260079091015460ff1615801560e0830152909150611dc25780848481518110611da957611da9614580565b6020908102919091010152611dbf6001846145d8565b92505b5080611dcd816145ac565b915050611cf2565b336000908152600a60209081526040808320805482518185028101850190935280835260609492939192909184015b82821015611e845760008481526020908190206040805160e0810182526007860290920180546001600160a01b039081168452600180830154858701526002830154909116928401929092526003810154606084015260048101546080840152600581015460a08401526006015460c08301529083529092019101611e04565b50505050905090565b611e9561366d565b60055460ff1615611eb85760405162461bcd60e51b815260040161042b90614507565b6001600160a01b038084166000908152600660209081526040808320868452909152902060028101549091163303611f3e5760405162461bcd60e51b815260206004820152602360248201527f4f776e65722063616e6e6f742062696420666f72207468656972206f776e204e60448201526246547360e81b606482015260840161042b565b33611f8b5760405162461bcd60e51b815260206004820181905260248201527f4269646465722063616e6e6f742062652066726f6d2061646472657373283029604482015260640161042b565b8060040154821015611ff25760405162461bcd60e51b815260206004820152602a60248201527f52656e74616c20446179732063616e6e6f742062652073686f72746572207468604482015269616e206d696e696d756d60b01b606482015260840161042b565b80600501548211156120585760405162461bcd60e51b815260206004820152602960248201527f52656e74616c20446179732063616e6e6f74206265206c6f6e676572207468616044820152686e206d6178696d756d60b81b606482015260840161042b565b428160060154116120a15760405162461bcd60e51b8152602060048201526013602482015272131a5cdd1a5b99c81a185cc8195e1c1a5c9959606a1b604482015260640161042b565b60008282600301546120b3919061469e565b9050803410156121115760405162461bcd60e51b8152602060048201526024808201527f426964206c6f776572207468616e206d696e696d756d2072656e74616c2070726044820152636963652160e01b606482015260840161042b565b600782015460ff16151560011461213a5760405162461bcd60e51b815260040161042b906146b5565b6001600160a01b0385166000908152600860209081526040808320878452909152902060020154156121aa5760405162461bcd60e51b8152602060048201526019602482015278151bdad95b881a185cc81899595b881c995b9d1959081bdd5d603a1b604482015260640161042b565b60006040518060e00160405280876001600160a01b03168152602001868152602001336001600160a01b03168152602001846003015481526020018581526020013481526020014281525090508060076000886001600160a01b03166001600160a01b0316815260200190815260200160002060008781526020019081526020016000206000336001600160a01b03166001600160a01b0316815260200190815260200160002060008201518160000160006101000a8154816001600160a01b0302191690836001600160a01b031602179055506020820151816001015560408201518160020160006101000a8154816001600160a01b0302191690836001600160a01b03160217905550606082015181600301556080820151816004015560a0820151816005015560c08201518160060155905050600060096000886001600160a01b03166001600160a01b031681526020019081526020016000206000878152602001908152602001600020805480602002602001604051908101604052809291908181526020016000905b828210156123b85760008481526020908190206040805160e0810182526007860290920180546001600160a01b039081168452600180830154858701526002830154909116928401929092526003810154606084015260048101546080840152600581015460a08401526006015460c08301529083529092019101612338565b5050505090506000805b825181101561244a5760008382815181106123df576123df614580565b60200260200101519050336001600160a01b031681604001516001600160a01b03160361243757612414338260a001516138e4565b8484838151811061242757612427614580565b6020026020010181905250600192505b5080612442816145ac565b9150506123c2565b50806124e8576001600160a01b0380891660009081526009602090815260408083208b8452825280832080546001818101835591855293839020885160079095020180549486166001600160a01b0319958616178155928801519083015586015160028201805491909416921691909117909155606084015160038201556080840151600482015560a0840151600582015560c08401516006909101555b336000908152600a602052604090205415612528576125078333613964565b336000908152600a6020526040902081546125229290613fee565b506125b8565b336000908152600a6020908152604080832080546001808201835591855293839020875160079095020180546001600160a01b03199081166001600160a01b039687161782559388015191810191909155908601516002820180549093169316929092179055606084015160038201556080840151600482015560a0840151600582015560c08401516006909101555b6040805187815234602082015288916001600160a01b038b16917f925277ab476e47a4c3eabacf94055594c3ecb681c66035f85dfbf6e15f3cab3c91015b60405180910390a350505050506108346001600055565b6001546001600160a01b031633146126375760405162461bcd60e51b815260040161042b90614601565b6003805490829055604080518281526020810184905233918101919091527f8d6ad40ad37637106f0ca2d682205c774e73f8cf7789162ce1c0b6ac0791a484906060016108a7565b61268761366d565b60055460ff16156126aa5760405162461bcd60e51b815260040161042b90614507565b6001600160a01b0383166000908152600660209081526040808320858452909152902060048101546001600160401b03831610156127345760405162461bcd60e51b815260206004820152602160248201527f43616e6e6f742072656e7420666f72206c657373207468616e206d696e696d756044820152606d60f81b606482015260840161042b565b8060050154826001600160401b0316111561279b5760405162461bcd60e51b815260206004820152602160248201527f43616e6e6f742072656e7420666f72206d6f7265207468616e206d6178696d756044820152606d60f81b606482015260840161042b565b6000826001600160401b031682600301546127b6919061469e565b905060006127c58460186146f6565b6127d090603c6146f6565b6127db90603c6146f6565b6127ee906001600160401b0316426145d8565b9050428360060154116128395760405162461bcd60e51b8152602060048201526013602482015272131a5cdd1a5b99c81a185cc8195e1c1a5c9959606a1b604482015260640161042b565b813410156128955760405162461bcd60e51b8152602060048201526024808201527f496e73756666696369656e7420657468657220746f2070617920666f722072656044820152631b9d185b60e21b606482015260840161042b565b600783015460ff1615156001146128be5760405162461bcd60e51b815260040161042b906146b5565b6001600160a01b03861660009081526008602090815260408083208884529091529020600201541561292e5760405162461bcd60e51b8152602060048201526019602482015278151bdad95b881a185cc81899595b881c995b9d1959081bdd5d603a1b604482015260640161042b565b6000606460045434612940919061469e565b61294a9190614721565b9050600061295882346145c5565b60028601546040519192506001600160a01b03169082156108fc029083906000818181858888f19350505050158015612995573d6000803e3d6000fd5b50604051309083156108fc029084906000818181858888f193505050501580156129c3573d6000803e3d6000fd5b5084546040516370182b2f60e11b8152600481018990523360248201526001600160401b03851660448201526001600160a01b039091169063e030565e90606401600060405180830381600087803b158015612a1e57600080fd5b505af1158015612a32573d6000803e3d6000fd5b50505050600060405180606001604052808760020160009054906101000a90046001600160a01b03166001600160a01b03168152602001336001600160a01b0316815260200185815250905080600860008b6001600160a01b03166001600160a01b0316815260200190815260200160002060008a815260200190815260200160002060008201518160000160006101000a8154816001600160a01b0302191690836001600160a01b0316021790555060208201518160010160006101000a8154816001600160a01b0302191690836001600160a01b03160217905550604082015181600201559050506000600e80549050905080600d60008c6001600160a01b03166001600160a01b0316815260200190815260200160002060008b815260200190815260200160002081905550600e82908060018154018082558091505060019003906000526020600020906003020160009091909190915060008201518160000160006101000a8154816001600160a01b0302191690836001600160a01b0316021790555060208201518160010160006101000a8154816001600160a01b0302191690836001600160a01b03160217905550604082015181600201555050888a6001600160a01b03167f5c2efca37e15a36ac693710f773e3290322aca5dd85fd110263c1d0f81254e96338b8b6003015433604051612c6694939291906001600160a01b0394851681526001600160401b039390931660208401526040830191909152909116606082015260800190565b60405180910390a3505050505050506108346001600055565b6001600160a01b0380831660008181526008602090815260408083208684528252808320938352600682528083208684529091529020600281015491929091163314612d055760405162461bcd60e51b815260206004820152601560248201527413db9b1e481bdddb995c8818d85b8819195b1a5cdd605a1b604482015260640161042b565b60028201541580612d195750428260020154105b612d5b5760405162461bcd60e51b8152602060048201526013602482015272151bdad95b881a5cc81c995b9d1959081bdd5d606a1b604482015260640161042b565b604051636178f8a560e11b8152600481018490526000906001600160a01b0386169063c2f1f14a90602401602060405180830381865afa158015612da3573d6000803e3d6000fd5b505050506040513d601f19601f82011682018060405250810190612dc79190614649565b6001600160a01b031614612e155760405162461bcd60e51b815260206004820152601560248201527452656e74616c20686173206e6f7420656e6465642160581b604482015260640161042b565b6000604051806101000160405280866001600160a01b03168152602001858152602001336001600160a01b03168152602001836003015481526020018360040154815260200183600501548152602001836006015481526020016000151581525090508060066000876001600160a01b03166001600160a01b03168152602001908152602001600020600086815260200190815260200160002060008201518160000160006101000a8154816001600160a01b0302191690836001600160a01b031602179055506020820151816001015560408201518160020160006101000a8154816001600160a01b0302191690836001600160a01b03160217905550606082015181600301556080820151816004015560a0820151816005015560c0820151816006015560e08201518160070160006101000a81548160ff0219169083151502179055509050506000600b6000876001600160a01b03166001600160a01b03168152602001908152602001600020600086815260200190815260200160002054905081600c8281548110612fad57612fad614580565b600091825260209182902083516008929092020180546001600160a01b03199081166001600160a01b039384161782559284015160018201556040840151600280830180549095169190931617909255606083015160038301556080830151600483015560a0830151600583015560c0830151600683015560e0909201516007909101805460ff1916911515919091179055840154156130e6576001600160a01b0386166000908152600d60209081526040808320888452909152902054600e80548290811061307f5761307f614580565b60009182526020808320600390920290910180546001600160a01b03199081168255600180830180548316905560029283018590556001600160a01b038c1685526008845260408086208c8752909452928420805482168155928301805490911690550155505b604080516001600160a01b03881681526020810187905260008183015290517fd1d5cc10af783a2cd8ee03e77792cd5dd211ef55ba189b315ae226047587affb9181900360600190a1505050505050565b61313f61366d565b60055460ff16156131625760405162461bcd60e51b815260040161042b90614507565b6001600160a01b03808416600081815260066020818152604080842088855282528084209484526007825280842088855282528084208787168552825292839020835160e0810185528154871681526001820154928101929092526002808201548716948301949094526003810154606083015260048101546080830152600581015460a08301529091015460c0820152908201549192909116331461321a5760405162461bcd60e51b815260040161042b90614549565b608081015160a082015160028401546001600160a01b0316613240888883898787613b60565b6003850154604080516001600160a01b03898116825260208201879052918101929092523360608301528891908a16907f5c2efca37e15a36ac693710f773e3290322aca5dd85fd110263c1d0f81254e96906080016125f6565b60606000805b600e5481101561332d576000600e82815481106132bf576132bf614580565b600091825260209182902060408051606081018252600390930290910180546001600160a01b039081168085526001830154909116948401949094526002015490820152915033900361331a576133176001846145d8565b92505b5080613325816145ac565b9150506132a0565b506000816001600160401b0381111561334857613348614688565b60405190808252806020026020018201604052801561339357816020015b60408051606081018252600080825260208083018290529282015282526000199092019101816133665790505b5090506000805b600e54811015611bc3576000600e82815481106133b9576133b9614580565b600091825260209182902060408051606081018252600390930290910180546001600160a01b0390811680855260018301549091169484019490945260020154908201529150339003613432578084848151811061341957613419614580565b602090810291909101015261342f6001846145d8565b92505b508061343d816145ac565b91505061339a565b6002546000906001600160a01b031633148061346b57506001546001600160a01b031633145b6134b75760405162461bcd60e51b815260206004820152601d60248201527f4e6f207065726d697373696f6e20746f20766965772062616c616e6365000000604482015260640161042b565b504790565b6060600c805480602002602001604051908101604052809291908181526020016000905b82821015611e8457600084815260209081902060408051610100810182526008860290920180546001600160a01b039081168452600180830154858701526002830154909116928401929092526003810154606084015260048101546080840152600581015460a0840152600681015460c08401526007015460ff16151560e083015290835290920191016134e0565b6001546001600160a01b0316331461359a5760405162461bcd60e51b815260040161042b90614601565b6005805460ff19169055565b6001546001600160a01b031633146135d05760405162461bcd60e51b815260040161042b90614601565b600280546001600160a01b038381166001600160a01b0319831681179093556040805191909216808252602082019390935233918101919091527f68a44a48069a61547e9d05149485c3542057bf135d5834d3455fed76d4639e54906060016108a7565b6001546001600160a01b0316331461365e5760405162461bcd60e51b815260040161042b90614601565b6005805460ff19166001179055565b6002600054036136bf5760405162461bcd60e51b815260206004820152601f60248201527f5265656e7472616e637947756172643a207265656e7472616e742063616c6c00604482015260640161042b565b6002600055565b6001600160a01b0381166000908152600a6020526040812081805b825481101561379d5760008382815481106136fe576136fe614580565b60009182526020918290206040805160e081018252600790930290910180546001600160a01b0390811680855260018301549585019590955260028201548116928401929092526003810154606084015260048101546080840152600581015460a08401526006015460c083015290925089161480156137815750868160200151145b1561378a578192505b5080613795816145ac565b9150506136e1565b50805b82546137ae906001906145c5565b81101561387757826137c18260016145d8565b815481106137d1576137d1614580565b90600052602060002090600702018382815481106137f1576137f1614580565b60009182526020909120825460079092020180546001600160a01b039283166001600160a01b0319918216178255600180850154908301556002808501549083018054919094169116179091556003808301549082015560048083015490820155600580830154908201556006918201549101558061386f816145ac565b9150506137a0565b5081805480613888576138886145eb565b60008281526020812060076000199093019283020180546001600160a01b031990811682556001820183905560028201805490911690556003810182905560048101829055600581018290556006015590555090509392505050565b60405182906001600160a01b0382169083156108fc029084906000818181858888f1935050505015801561391c573d6000803e3d6000fd5b50604080516001600160a01b0385168152602081018490527f75a0cba827b0d4e7ad9c64bb1011c21a622c376c3cb72ffbe500b6d0c3cc2596910160405180910390a1505050565b6001600160a01b0381166000908152600a6020526040812081805b8254811015613ad057600083828154811061399c5761399c614580565b60009182526020918290206040805160e081018252600790930290910180546001600160a01b0390811680855260018301549585019590955260028201548116928401929092526003810154606084015260048101546080840152600581015460a08401526006015460c0830152895191935016148015613a24575086602001518160200151145b15613abd5786848381548110613a3c57613a3c614580565b600091825260209182902083516007929092020180546001600160a01b03199081166001600160a01b03938416178255928401516001808301919091556040850151600283018054909516931692909217909255606083015160038301556080830151600483015560a0830151600583015560c09092015160069091015592505b5080613ac8816145ac565b91505061397f565b5080613b58578154600181810184556000848152602090819020885160079094020180546001600160a01b039485166001600160a01b03199182161782559189015192810192909255604088015160028301805491909416911617909155606086015160038201556080860151600482015560a0860151600582015560c08601516006909101555b509392505050565b6001600160a01b0386166000908152600960209081526040808320888452825280832080548251818502810185019093528083529192909190849084015b82821015613c1e5760008481526020908190206040805160e0810182526007860290920180546001600160a01b039081168452600180830154858701526002830154909116928401929092526003810154606084015260048101546080840152600581015460a08401526006015460c08301529083529092019101613b9e565b5050505090506000606460045484613c36919061469e565b613c409190614721565b90506000613c4e82856145c5565b6040519091506001600160a01b0388169082156108fc029083906000818181858888f19350505050158015613c87573d6000803e3d6000fd5b50604051309083156108fc029084906000818181858888f19350505050158015613cb5573d6000803e3d6000fd5b506000613cc386601861469e565b613cce90603c61469e565b613cd990603c61469e565b613ce390426145d8565b6040516370182b2f60e11b8152600481018b90526001600160a01b0389811660248301526001600160401b0383166044830152919250908b169063e030565e90606401600060405180830381600087803b158015613d4057600080fd5b505af1158015613d54573d6000803e3d6000fd5b50505050600060405180606001604052808a6001600160a01b03168152602001336001600160a01b0316815260200183815250905080600860008d6001600160a01b03166001600160a01b0316815260200190815260200160002060008c815260200190815260200160002060008201518160000160006101000a8154816001600160a01b0302191690836001600160a01b0316021790555060208201518160010160006101000a8154816001600160a01b0302191690836001600160a01b03160217905550604082015181600201559050506000600e80549050905080600d60008e6001600160a01b03166001600160a01b0316815260200190815260200160002060008d815260200190815260200160002081905550600e82908060018154018082558091505060019003906000526020600020906003020160009091909190915060008201518160000160006101000a8154816001600160a01b0302191690836001600160a01b0316021790555060208201518160010160006101000a8154816001600160a01b0302191690836001600160a01b0316021790555060408201518160020155505060005b8651811015613fb3576000878281518110613f1e57613f1e614580565b602002602001015190508a6001600160a01b031681604001516001600160a01b031614158015613f525750888160a0015114155b15613fa057613f6981604001518260a001516138e4565b613f788e8e83604001516136c6565b6040808301516001600160a01b03166000908152600a602052208154613f9e9290613fee565b505b5080613fab816145ac565b915050613f01565b506001600160a01b038c1660009081526009602090815260408083208e84529091528120613fe0916140fd565b505050505050505050505050565b8280548282559060005260206000209060070281019282156140945760005260206000209160070282015b8281111561409457825482546001600160a01b039182166001600160a01b03199182161784556001808601549085015560028086015490850180549190931691161790556003808401549083015560048084015490830155600580840154908301556006808401549083015560079283019290910190614019565b506140a0929150614121565b5090565b60405180610100016040528060006001600160a01b031681526020016000815260200160006001600160a01b03168152602001600081526020016000815260200160008152602001600081526020016000151581525090565b508054600082556007029060005260206000209081019061411e9190614121565b50565b5b808211156140a05780546001600160a01b031990811682556000600183018190556002830180549092169091556003820181905560048201819055600582018190556006820155600701614122565b6001600160a01b038116811461411e57600080fd5b60008060008060006080868803121561419e57600080fd5b85356141a981614171565b945060208601356141b981614171565b93506040860135925060608601356001600160401b03808211156141dc57600080fd5b818801915088601f8301126141f057600080fd5b8135818111156141ff57600080fd5b89602082850101111561421157600080fd5b9699959850939650602001949392505050565b60008060006060848603121561423957600080fd5b833561424481614171565b925060208401359150604084013561425b81614171565b809150509250925092565b60006020828403121561427857600080fd5b5035919050565b6000806040838503121561429257600080fd5b823561429d81614171565b946020939093013593505050565b60008060008060008060c087890312156142c457600080fd5b86356142cf81614171565b9860208801359850604088013597606081013597506080810135965060a00135945092505050565b602080825282518282018190526000919060409081850190868401855b8281101561437857815180516001600160a01b0390811686528782015188870152868201511686860152606080820151908601526080808201519086015260a0808201519086015260c0908101519085015260e09093019290850190600101614314565b5091979650505050505050565b602080825282518282018190526000919060409081850190868401855b8281101561437857815180516001600160a01b0390811686528782015188870152868201511686860152606080820151908601526080808201519086015260a0808201519086015260c0808201519086015260e09081015115159085015261010090930192908501906001016143a2565b60008060006060848603121561442857600080fd5b833561443381614171565b95602085013595506040909401359392505050565b60008060006060848603121561445d57600080fd5b833561446881614171565b92506020840135915060408401356001600160401b038116811461425b57600080fd5b602080825282518282018190526000919060409081850190868401855b8281101561437857815180516001600160a01b03908116865287820151168786015285015185850152606090930192908501906001016144a8565b6000602082840312156144f557600080fd5b813561450081614171565b9392505050565b60208082526022908201527f4c697374696e6720616e642072656e74616c20686173206265656e2068616c74604082015261195960f21b606082015260800190565b60208082526019908201527f43616c6c6572206973206e6f7420746f6b656e206f776e657200000000000000604082015260600190565b634e487b7160e01b600052603260045260246000fd5b634e487b7160e01b600052601160045260246000fd5b6000600182016145be576145be614596565b5060010190565b818103818111156119ae576119ae614596565b808201808211156119ae576119ae614596565b634e487b7160e01b600052603160045260246000fd5b60208082526028908201527f596f7520617265206e6f7420746865206f776e6572206f6620746865206d61726040820152676b6574706c61636560c01b606082015260800190565b60006020828403121561465b57600080fd5b815161450081614171565b60006020828403121561467857600080fd5b8151801515811461450057600080fd5b634e487b7160e01b600052604160045260246000fd5b80820281158282048414176119ae576119ae614596565b60208082526021908201527f546f6b656e206973206e6f7420617661696c61626c6520666f722052656e74616040820152601b60fa1b606082015260800190565b6001600160401b0381811683821602808216919082811461471957614719614596565b505092915050565b60008261473e57634e487b7160e01b600052601260045260246000fd5b50049056fea26469706673582212204204155c3a330865322c25350a786b034e036d5e310fcc32114387c68ed17ea364736f6c63430008110033",
  "linkReferences": {},
  "deployedLinkReferences": {}
}