{
  "_format": "hh-sol-artifact-1",
  "contractName": "MarketplaceDC",
  "sourceName": "contracts/MarketplaceDC.sol",
  "abi": [
    {
      "inputs": [
        {
          "internalType": "address",
          "name": "_owner",
          "type": "address"
        },
        {
          "internalType": "address",
          "name": "_feeCollector",
          "type": "address"
        },
        {
          "internalType": "uint256",
          "name": "_fee",
          "type": "uint256"
        },
        {
          "internalType": "uint256",
          "name": "_commsPercentage",
          "type": "uint256"
        }
      ],
      "stateMutability": "nonpayable",
      "type": "constructor"
    },
    {
      "anonymous": false,
      "inputs": [
        {
          "indexed": false,
          "internalType": "address",
          "name": "rentee",
          "type": "address"
        },
        {
          "indexed": false,
          "internalType": "uint256",
          "name": "bidAmt",
          "type": "uint256"
        }
      ],
      "name": "BidReceived",
      "type": "event"
    },
    {
      "anonymous": false,
      "inputs": [
        {
          "indexed": false,
          "internalType": "address",
          "name": "bidder",
          "type": "address"
        },
        {
          "indexed": false,
          "internalType": "uint256",
          "name": "bidAmt",
          "type": "uint256"
        }
      ],
      "name": "BidReturned",
      "type": "event"
    },
    {
      "anonymous": false,
      "inputs": [
        {
          "indexed": false,
          "internalType": "address",
          "name": "feeCollector",
          "type": "address"
        },
        {
          "indexed": false,
          "internalType": "uint256",
          "name": "feeWithdrawn",
          "type": "uint256"
        }
      ],
      "name": "ComissionWithdrawn",
      "type": "event"
    },
    {
      "anonymous": false,
      "inputs": [
        {
          "indexed": false,
          "internalType": "uint256",
          "name": "_from",
          "type": "uint256"
        },
        {
          "indexed": false,
          "internalType": "uint256",
          "name": "_to",
          "type": "uint256"
        },
        {
          "indexed": false,
          "internalType": "address",
          "name": "_sender",
          "type": "address"
        }
      ],
      "name": "FeeUpdated",
      "type": "event"
    },
    {
      "anonymous": false,
      "inputs": [
        {
          "indexed": true,
          "internalType": "address",
          "name": "_nftAddress",
          "type": "address"
        },
        {
          "indexed": true,
          "internalType": "uint256",
          "name": "tokenId",
          "type": "uint256"
        },
        {
          "indexed": false,
          "internalType": "uint256",
          "name": "rentalDays",
          "type": "uint256"
        },
        {
          "indexed": false,
          "internalType": "uint256",
          "name": "bidAmt",
          "type": "uint256"
        }
      ],
      "name": "TokenBid",
      "type": "event"
    },
    {
      "anonymous": false,
      "inputs": [
        {
          "indexed": true,
          "internalType": "address",
          "name": "_nftAddress",
          "type": "address"
        },
        {
          "indexed": true,
          "internalType": "uint256",
          "name": "tokenId",
          "type": "uint256"
        },
        {
          "indexed": false,
          "internalType": "address",
          "name": "_sender",
          "type": "address"
        }
      ],
      "name": "TokenClaimed",
      "type": "event"
    },
    {
      "anonymous": false,
      "inputs": [
        {
          "indexed": false,
          "internalType": "address",
          "name": "_nftAddress",
          "type": "address"
        },
        {
          "indexed": false,
          "internalType": "uint256",
          "name": "tokenId",
          "type": "uint256"
        },
        {
          "indexed": false,
          "internalType": "bool",
          "name": "availableToRent",
          "type": "bool"
        }
      ],
      "name": "TokenDelisted",
      "type": "event"
    },
    {
      "anonymous": false,
      "inputs": [
        {
          "indexed": true,
          "internalType": "address",
          "name": "_nftAddress",
          "type": "address"
        },
        {
          "indexed": true,
          "internalType": "uint256",
          "name": "tokenId",
          "type": "uint256"
        },
        {
          "indexed": false,
          "internalType": "uint256",
          "name": "pricePerDay",
          "type": "uint256"
        },
        {
          "indexed": false,
          "internalType": "uint256",
          "name": "minRentalDays",
          "type": "uint256"
        },
        {
          "indexed": false,
          "internalType": "uint256",
          "name": "maxRentalDays",
          "type": "uint256"
        },
        {
          "indexed": false,
          "internalType": "uint256",
          "name": "listingExpiry",
          "type": "uint256"
        }
      ],
      "name": "TokenListed",
      "type": "event"
    },
    {
      "anonymous": false,
      "inputs": [
        {
          "indexed": true,
          "internalType": "address",
          "name": "_nftAddress",
          "type": "address"
        },
        {
          "indexed": true,
          "internalType": "uint256",
          "name": "tokenId",
          "type": "uint256"
        },
        {
          "indexed": false,
          "internalType": "address",
          "name": "rentee",
          "type": "address"
        },
        {
          "indexed": false,
          "internalType": "uint256",
          "name": "pricePerDay",
          "type": "uint256"
        },
        {
          "indexed": false,
          "internalType": "uint256",
          "name": "rentalDays",
          "type": "uint256"
        },
        {
          "indexed": false,
          "internalType": "address",
          "name": "_sender",
          "type": "address"
        }
      ],
      "name": "TokenRented",
      "type": "event"
    },
    {
      "anonymous": false,
      "inputs": [
        {
          "indexed": false,
          "internalType": "address",
          "name": "_from",
          "type": "address"
        },
        {
          "indexed": false,
          "internalType": "address",
          "name": "_to",
          "type": "address"
        },
        {
          "indexed": false,
          "internalType": "address",
          "name": "_sender",
          "type": "address"
        }
      ],
      "name": "feeCollectorUpdated",
      "type": "event"
    },
    {
      "inputs": [
        {
          "internalType": "address",
          "name": "_nftAddress",
          "type": "address"
        },
        {
          "internalType": "uint256",
          "name": "tokenId",
          "type": "uint256"
        },
        {
          "internalType": "address",
          "name": "rentee",
          "type": "address"
        }
      ],
      "name": "acceptBid",
      "outputs": [],
      "stateMutability": "payable",
      "type": "function"
    },
    {
      "inputs": [
        {
          "internalType": "address",
          "name": "_nftAddress",
          "type": "address"
        },
        {
          "internalType": "uint256",
          "name": "tokenId",
          "type": "uint256"
        },
        {
          "internalType": "uint256",
          "name": "rentalDays",
          "type": "uint256"
        }
      ],
      "name": "bidNFT",
      "outputs": [],
      "stateMutability": "payable",
      "type": "function"
    },
    {
      "inputs": [
        {
          "internalType": "address",
          "name": "_nftAddress",
          "type": "address"
        },
        {
          "internalType": "uint256",
          "name": "tokenId",
          "type": "uint256"
        }
      ],
      "name": "claimNFT",
      "outputs": [],
      "stateMutability": "nonpayable",
      "type": "function"
    },
    {
      "inputs": [
        {
          "internalType": "address",
          "name": "_nftAddress",
          "type": "address"
        },
        {
          "internalType": "uint256",
          "name": "tokenId",
          "type": "uint256"
        }
      ],
      "name": "delistNFT",
      "outputs": [],
      "stateMutability": "nonpayable",
      "type": "function"
    },
    {
      "inputs": [
        {
          "internalType": "address",
          "name": "_nftAddress",
          "type": "address"
        },
        {
          "internalType": "uint256",
          "name": "tokenId",
          "type": "uint256"
        }
      ],
      "name": "getAllBids",
      "outputs": [
        {
          "components": [
            {
              "internalType": "address",
              "name": "contractAddress",
              "type": "address"
            },
            {
              "internalType": "uint256",
              "name": "tokenId",
              "type": "uint256"
            },
            {
              "internalType": "address payable",
              "name": "rentee",
              "type": "address"
            },
            {
              "internalType": "uint256",
              "name": "pricePerDay",
              "type": "uint256"
            },
            {
              "internalType": "uint256",
              "name": "rentalDays",
              "type": "uint256"
            },
            {
              "internalType": "uint256",
              "name": "totalBid",
              "type": "uint256"
            }
          ],
          "internalType": "struct MarketplaceDC.Bid[]",
          "name": "",
          "type": "tuple[]"
        }
      ],
      "stateMutability": "view",
      "type": "function"
    },
    {
      "inputs": [],
      "name": "getAllListings",
      "outputs": [
        {
          "components": [
            {
              "internalType": "address",
              "name": "contractAddress",
              "type": "address"
            },
            {
              "internalType": "uint256",
              "name": "tokenId",
              "type": "uint256"
            },
            {
              "internalType": "address payable",
              "name": "owner",
              "type": "address"
            },
            {
              "internalType": "uint256",
              "name": "pricePerDay",
              "type": "uint256"
            },
            {
              "internalType": "uint256",
              "name": "minRentalDays",
              "type": "uint256"
            },
            {
              "internalType": "uint256",
              "name": "maxRentalDays",
              "type": "uint256"
            },
            {
              "internalType": "uint256",
              "name": "listingExpiry",
              "type": "uint256"
            },
            {
              "internalType": "bool",
              "name": "availableToRent",
              "type": "bool"
            }
          ],
          "internalType": "struct MarketplaceDC.Listing[]",
          "name": "",
          "type": "tuple[]"
        }
      ],
      "stateMutability": "view",
      "type": "function"
    },
    {
      "inputs": [],
      "name": "getAvailableListings",
      "outputs": [
        {
          "components": [
            {
              "internalType": "address",
              "name": "contractAddress",
              "type": "address"
            },
            {
              "internalType": "uint256",
              "name": "tokenId",
              "type": "uint256"
            },
            {
              "internalType": "address payable",
              "name": "owner",
              "type": "address"
            },
            {
              "internalType": "uint256",
              "name": "pricePerDay",
              "type": "uint256"
            },
            {
              "internalType": "uint256",
              "name": "minRentalDays",
              "type": "uint256"
            },
            {
              "internalType": "uint256",
              "name": "maxRentalDays",
              "type": "uint256"
            },
            {
              "internalType": "uint256",
              "name": "listingExpiry",
              "type": "uint256"
            },
            {
              "internalType": "bool",
              "name": "availableToRent",
              "type": "bool"
            }
          ],
          "internalType": "struct MarketplaceDC.Listing[]",
          "name": "",
          "type": "tuple[]"
        }
      ],
      "stateMutability": "view",
      "type": "function"
    },
    {
      "inputs": [],
      "name": "getComissionBalance",
      "outputs": [
        {
          "internalType": "uint256",
          "name": "",
          "type": "uint256"
        }
      ],
      "stateMutability": "view",
      "type": "function"
    },
    {
      "inputs": [],
      "name": "getCurrentlyRented",
      "outputs": [
        {
          "components": [
            {
              "internalType": "address payable",
              "name": "owner",
              "type": "address"
            },
            {
              "internalType": "address payable",
              "name": "rentee",
              "type": "address"
            },
            {
              "internalType": "uint256",
              "name": "rentalEnd",
              "type": "uint256"
            }
          ],
          "internalType": "struct MarketplaceDC.Rental[]",
          "name": "",
          "type": "tuple[]"
        }
      ],
      "stateMutability": "view",
      "type": "function"
    },
    {
      "inputs": [],
      "name": "getListingFee",
      "outputs": [
        {
          "internalType": "uint256",
          "name": "",
          "type": "uint256"
        }
      ],
      "stateMutability": "view",
      "type": "function"
    },
    {
      "inputs": [],
      "name": "getOwnedListings",
      "outputs": [
        {
          "components": [
            {
              "internalType": "address",
              "name": "contractAddress",
              "type": "address"
            },
            {
              "internalType": "uint256",
              "name": "tokenId",
              "type": "uint256"
            },
            {
              "internalType": "address payable",
              "name": "owner",
              "type": "address"
            },
            {
              "internalType": "uint256",
              "name": "pricePerDay",
              "type": "uint256"
            },
            {
              "internalType": "uint256",
              "name": "minRentalDays",
              "type": "uint256"
            },
            {
              "internalType": "uint256",
              "name": "maxRentalDays",
              "type": "uint256"
            },
            {
              "internalType": "uint256",
              "name": "listingExpiry",
              "type": "uint256"
            },
            {
              "internalType": "bool",
              "name": "availableToRent",
              "type": "bool"
            }
          ],
          "internalType": "struct MarketplaceDC.Listing[]",
          "name": "",
          "type": "tuple[]"
        }
      ],
      "stateMutability": "view",
      "type": "function"
    },
    {
      "inputs": [
        {
          "internalType": "address",
          "name": "_nftAddress",
          "type": "address"
        },
        {
          "internalType": "uint256",
          "name": "tokenId",
          "type": "uint256"
        },
        {
          "internalType": "uint256",
          "name": "pricePerDay",
          "type": "uint256"
        },
        {
          "internalType": "uint256",
          "name": "minRentalDays",
          "type": "uint256"
        },
        {
          "internalType": "uint256",
          "name": "maxRentalDays",
          "type": "uint256"
        },
        {
          "internalType": "uint256",
          "name": "listingExpiry",
          "type": "uint256"
        }
      ],
      "name": "listNFT",
      "outputs": [],
      "stateMutability": "payable",
      "type": "function"
    },
    {
      "inputs": [
        {
          "internalType": "address",
          "name": "operator",
          "type": "address"
        },
        {
          "internalType": "address",
          "name": "from",
          "type": "address"
        },
        {
          "internalType": "uint256",
          "name": "tokenId",
          "type": "uint256"
        },
        {
          "internalType": "bytes",
          "name": "data",
          "type": "bytes"
        }
      ],
      "name": "onERC721Received",
      "outputs": [
        {
          "internalType": "bytes4",
          "name": "",
          "type": "bytes4"
        }
      ],
      "stateMutability": "nonpayable",
      "type": "function"
    },
    {
      "inputs": [
        {
          "internalType": "address",
          "name": "_nftAddress",
          "type": "address"
        },
        {
          "internalType": "uint256",
          "name": "tokenId",
          "type": "uint256"
        },
        {
          "internalType": "uint64",
          "name": "rentalDays",
          "type": "uint64"
        }
      ],
      "name": "rentNFT",
      "outputs": [],
      "stateMutability": "payable",
      "type": "function"
    },
    {
      "inputs": [],
      "name": "resumeAll",
      "outputs": [],
      "stateMutability": "nonpayable",
      "type": "function"
    },
    {
      "inputs": [],
      "name": "stopAll",
      "outputs": [],
      "stateMutability": "nonpayable",
      "type": "function"
    },
    {
      "inputs": [
        {
          "internalType": "uint256",
          "name": "newFee",
          "type": "uint256"
        }
      ],
      "name": "updateFee",
      "outputs": [],
      "stateMutability": "nonpayable",
      "type": "function"
    },
    {
      "inputs": [
        {
          "internalType": "address",
          "name": "newCollector",
          "type": "address"
        }
      ],
      "name": "updateFeeCollector",
      "outputs": [],
      "stateMutability": "nonpayable",
      "type": "function"
    },
    {
      "inputs": [],
      "name": "withdrawComission",
      "outputs": [],
      "stateMutability": "payable",
      "type": "function"
    },
    {
      "stateMutability": "payable",
      "type": "receive"
    }
  ],
  "bytecode": "0x608060405260006004556005805460ff191690553480156200002057600080fd5b5060405162003724380380620037248339810160408190526200004391620000a4565b6001600081905580546001600160a01b039586166001600160a01b0319918216179091556002805494909516931692909217909255600391909155600455620000ec565b80516001600160a01b03811681146200009f57600080fd5b919050565b60008060008060808587031215620000bb57600080fd5b620000c68562000087565b9350620000d66020860162000087565b6040860151606090960151949790965092505050565b61362880620000fc6000396000f3fe6080604052600436106101185760003560e01c80639a34f003116100a0578063ae73ccec11610064578063ae73ccec14610305578063af3d104f1461031a578063b8fe6abe1461032f578063d2c35ce814610344578063f0881ae61461036457600080fd5b80639a34f0031461027a578063a17a70941461028d578063a5802620146102ad578063aa032827146102c0578063ad6b02b5146102e257600080fd5b806361281516116100e757806361281516146101e357806367aab2431461021057806368082c35146102325780638cbbbf98146102475780639012c4a81461025a57600080fd5b8063150b7a021461015c57806333a10cc1146101a65780633c6d570a146101c85780634c62a644146101db57600080fd5b3661015757604080513381523460208201527f9a0fa8b9e74b6a70081d4c7ce0cab294a0781d754833b19e1c96e2107f6310ea910160405180910390a1005b600080fd5b34801561016857600080fd5b5061018861017736600461308c565b630a85bd0160e11b95945050505050565b6040516001600160e01b031990911681526020015b60405180910390f35b3480156101b257600080fd5b506101c66101c136600461312a565b610379565b005b6101c66101d6366004613156565b61067c565b6101c6610ccf565b3480156101ef57600080fd5b506102036101fe36600461312a565b610da0565b60405161019d91906131a2565b34801561021c57600080fd5b50610225610f34565b60405161019d9190613226565b34801561023e57600080fd5b5061022561114c565b6101c66102553660046132b4565b611355565b34801561026657600080fd5b506101c66102753660046132e9565b61198b565b6101c6610288366004613302565b611a05565b34801561029957600080fd5b506101c66102a836600461312a565b612005565b6101c66102bb366004613350565b6124bd565b3480156102cc57600080fd5b506102d5612642565b60405161019d9190613387565b3480156102ee57600080fd5b506102f76127ed565b60405190815260200161019d565b34801561031157600080fd5b50610225612864565b34801561032657600080fd5b506101c6612921565b34801561033b57600080fd5b506003546102f7565b34801561035057600080fd5b506101c661035f3660046133df565b612957565b34801561037057600080fd5b506101c66129e5565b6001600160a01b0380831660009081526006602090815260408083208584529091529020600281015490911633146103f85760405162461bcd60e51b815260206004820152601d60248201527f4f6e6c79206f776e65722063616e20636c61696d206261636b204e465400000060448201526064015b60405180910390fd5b600781015460ff161561045d5760405162461bcd60e51b815260206004820152602760248201527f546f6b656e20686173206e6f74206265656e2064656c69737465642066726f6d604482015266081b585c9ad95d60ca1b60648201526084016103ef565b6040516323b872dd60e01b8152306004820152336024820152604481018390526001600160a01b038416906323b872dd90606401600060405180830381600087803b1580156104ab57600080fd5b505af11580156104bf573d6000803e3d6000fd5b505050506001600160a01b0383166000908152600a60209081526040808320858452909152902054600b8054829081106104fb576104fb613403565b9060005260206000209060080201600080820160006101000a8154906001600160a01b03021916905560018201600090556002820160006101000a8154906001600160a01b03021916905560038201600090556004820160009055600582016000905560068201600090556007820160006101000a81549060ff0219169055505060066000856001600160a01b03166001600160a01b031681526020019081526020016000206000848152602001908152602001600020600080820160006101000a8154906001600160a01b03021916905560018201600090556002820160006101000a8154906001600160a01b03021916905560038201600090556004820160009055600582016000905560068201600090556007820160006101000a81549060ff0219169055505082846001600160a01b03167ff08bc7b248ec1a2916edaa0ea75d3b79151c53c790c568e83c1c8811d99fe4353360405161066e91906001600160a01b0391909116815260200190565b60405180910390a350505050565b610684612a1e565b85856000826001600160a01b0316636352211e836040518263ffffffff1660e01b81526004016106b691815260200190565b602060405180830381865afa1580156106d3573d6000803e3d6000fd5b505050506040513d601f19601f820116820180604052508101906106f79190613419565b90506001600160a01b03811633146107615760405162461bcd60e51b815260206004820152602760248201527f4552433732313a2043616c6c6572206973206e6f74206f776e6572206f7220616044820152661c1c1c9bdd995960ca1b60648201526084016103ef565b60055460ff16156107845760405162461bcd60e51b81526004016103ef90613436565b6003543410156107e65760405162461bcd60e51b815260206004820152602760248201527f4e6f7420656e6f7567682045544820746f2070617920666f7220706c6174666f604482015266726d206665657360c81b60648201526084016103ef565b600087116108365760405162461bcd60e51b815260206004820152601e60248201527f5072696365206d75737420626520686967686572207468616e207a65726f000060448201526064016103ef565b42841161089e5760405162461bcd60e51b815260206004820152603060248201527f4c697374696e6720657870697279206d757374206265206c6f6e67657220746860448201526f30b71031bab93932b73a103a34b6b29760811b60648201526084016103ef565b6040516301ffc9a760e01b8152632b424ad760e21b60048201526001600160a01b038a16906301ffc9a790602401602060405180830381865afa1580156108e9573d6000803e3d6000fd5b505050506040513d601f19601f8201168201806040525081019061090d9190613478565b151560011461096e5760405162461bcd60e51b815260206004820152602760248201527f546f6b656e206973206e6f7420455243343930372c20706c656173652077726160448201526638103a37b5b2b760c91b60648201526084016103ef565b604051632142170760e11b8152336004820152306024820152604481018990526001600160a01b038a16906342842e0e90606401600060405180830381600087803b1580156109bc57600080fd5b505af11580156109d0573d6000803e3d6000fd5b50506040513092503480156108fc029250906000818181858888f19350505050158015610a01573d6000803e3d6000fd5b5060006040518061010001604052808b6001600160a01b031681526020018a8152602001336001600160a01b0316815260200189815260200188815260200187815260200186815260200160011515815250905080600660008c6001600160a01b03166001600160a01b0316815260200190815260200160002060008b815260200190815260200160002060008201518160000160006101000a8154816001600160a01b0302191690836001600160a01b031602179055506020820151816001015560408201518160020160006101000a8154816001600160a01b0302191690836001600160a01b03160217905550606082015181600301556080820151816004015560a0820151816005015560c0820151816006015560e08201518160070160006101000a81548160ff0219169083151502179055509050506000600b80549050905080600a60008d6001600160a01b03166001600160a01b0316815260200190815260200160002060008c815260200190815260200160002081905550600b82908060018154018082558091505060019003906000526020600020906008020160009091909190915060008201518160000160006101000a8154816001600160a01b0302191690836001600160a01b031602179055506020820151816001015560408201518160020160006101000a8154816001600160a01b0302191690836001600160a01b03160217905550606082015181600301556080820151816004015560a0820151816005015560c0820151816006015560e08201518160070160006101000a81548160ff0219169083151502179055505050898b6001600160a01b03167f2b8a5411e19b0bb6d4cfe00ece7d2c9c7f4deb89112788d88e307035195b23c98b8b8b8b604051610cb0949392919093845260208401929092526040830152606082015260800190565b60405180910390a35050505050610cc76001600055565b505050505050565b6002546001600160a01b03163314610d295760405162461bcd60e51b815260206004820152601e60248201527f4f6e6c7920666565436f6c6c6563746f722063616e207769746864726177000060448201526064016103ef565b60025460405147916001600160a01b03169082156108fc029083906000818181858888f19350505050158015610d63573d6000803e3d6000fd5b5060408051338152602081018390527fadeb6f23bed4a1ff793b31a6b5449e43a8613c3b28981d283e8e9a29e85a7d95910160405180910390a150565b6001600160a01b0380831660009081526006602081815260408084208685528252928390208351610100810185528154861681526001820154928101929092526002810154909416928101839052600384015460608281019190915260048501546080830152600585015460a08301529184015460c082015260079093015460ff16151560e084015291903314610e755760405162461bcd60e51b815260206004820152601960248201527821b0b63632b91034b9903737ba103a37b5b2b71037bbb732b960391b60448201526064016103ef565b6001600160a01b0384166000908152600960209081526040808320868452825280832080548251818502810185019093528083529193909284015b82821015610f265760008481526020908190206040805160c0810182526006860290920180546001600160a01b0390811684526001808301548587015260028301549091169284019290925260038101546060840152600481015460808401526005015460a08301529083529092019101610eb0565b505050509150505b92915050565b60606000805b600b54811015611002576000600b8281548110610f5957610f59613403565b60009182526020918290206040805161010081018252600890930290910180546001600160a01b03908116845260018201549484019490945260028101549093169082018190526003830154606083015260048301546080830152600583015460a0830152600683015460c083015260079092015460ff16151560e08201529150339003610fef57610fec6001846134b0565b92505b5080610ffa816134c3565b915050610f3a565b506000816001600160401b0381111561101d5761101d6134dc565b60405190808252806020026020018201604052801561105657816020015b611043612fad565b81526020019060019003908161103b5790505b5090506000805b600b54811015611143576000600b828154811061107c5761107c613403565b60009182526020918290206040805161010081018252600890930290910180546001600160a01b03908116845260018201549484019490945260028101549093169082018190526003830154606083015260048301546080830152600583015460a0830152600683015460c083015260079092015460ff16151560e08201529150339003611130578084848151811061111757611117613403565b602090810291909101015261112d6001846134b0565b92505b508061113b816134c3565b91505061105d565b50909392505050565b60606000805b600b54811015611217576000600b828154811061117157611171613403565b60009182526020918290206040805161010081018252600890930290910180546001600160a01b0390811684526001820154948401949094526002810154909316908201526003820154606082015260048201546080820152600582015460a0820152600682015460c082015260079091015460ff1615801560e0830152909150611204576112016001846134b0565b92505b508061120f816134c3565b915050611152565b506000816001600160401b03811115611232576112326134dc565b60405190808252806020026020018201604052801561126b57816020015b611258612fad565b8152602001906001900390816112505790505b5090506000805b600b54811015611143576000600b828154811061129157611291613403565b60009182526020918290206040805161010081018252600890930290910180546001600160a01b0390811684526001820154948401949094526002810154909316908201526003820154606082015260048201546080820152600582015460a0820152600682015460c082015260079091015460ff1615801560e0830152909150611342578084848151811061132957611329613403565b602090810291909101015261133f6001846134b0565b92505b508061134d816134c3565b915050611272565b61135d612a1e565b60055460ff16156113805760405162461bcd60e51b81526004016103ef90613436565b6001600160a01b0380841660009081526006602090815260408083208684529091529020600281015490911633036114065760405162461bcd60e51b815260206004820152602360248201527f4f776e65722063616e6e6f742062696420666f72207468656972206f776e204e60448201526246547360e81b60648201526084016103ef565b806004015482101561146d5760405162461bcd60e51b815260206004820152602a60248201527f52656e74616c20446179732063616e6e6f742062652073686f72746572207468604482015269616e206d696e696d756d60b01b60648201526084016103ef565b80600501548211156114d35760405162461bcd60e51b815260206004820152602960248201527f52656e74616c20446179732063616e6e6f74206265206c6f6e676572207468616044820152686e206d6178696d756d60b81b60648201526084016103ef565b4281600601541161151c5760405162461bcd60e51b8152602060048201526013602482015272131a5cdd1a5b99c81a185cc8195e1c1a5c9959606a1b60448201526064016103ef565b600082826003015461152e91906134f2565b90508034101561158c5760405162461bcd60e51b8152602060048201526024808201527f426964206c6f776572207468616e206d696e696d756d2072656e74616c2070726044820152636963652160e01b60648201526084016103ef565b600782015460ff1615156001146115b55760405162461bcd60e51b81526004016103ef90613509565b6001600160a01b0385166000908152600860209081526040808320878452909152902060020154156116255760405162461bcd60e51b8152602060048201526019602482015278151bdad95b881a185cc81899595b881c995b9d1959081bdd5d603a1b60448201526064016103ef565b60006040518060c00160405280876001600160a01b03168152602001868152602001336001600160a01b03168152602001846003015481526020018581526020013481525090508060076000886001600160a01b03166001600160a01b0316815260200190815260200160002060008781526020019081526020016000206000336001600160a01b03166001600160a01b0316815260200190815260200160002060008201518160000160006101000a8154816001600160a01b0302191690836001600160a01b031602179055506020820151816001015560408201518160020160006101000a8154816001600160a01b0302191690836001600160a01b03160217905550606082015181600301556080820151816004015560a08201518160050155905050600060096000886001600160a01b03166001600160a01b031681526020019081526020016000206000878152602001908152602001600020805480602002602001604051908101604052809291908181526020016000905b828210156118195760008481526020908190206040805160c0810182526006860290920180546001600160a01b0390811684526001808301548587015260028301549091169284019290925260038101546060840152600481015460808401526005015460a083015290835290920191016117a3565b5050505090506000805b825181101561189d57600083828151811061184057611840613403565b60200260200101519050336001600160a01b031681604001516001600160a01b03160361188a578484838151811061187a5761187a613403565b6020026020010181905250600192505b5080611895816134c3565b915050611823565b5080611931576001600160a01b0380891660009081526009602090815260408083208b8452825280832080546001818101835591855293839020885160069095020180549486166001600160a01b0319958616178155928801519083015586015160028201805491909416921691909117909155606084015160038201556080840151600482015560a08401516005909101555b6040805187815234602082015288916001600160a01b038b16917f925277ab476e47a4c3eabacf94055594c3ecb681c66035f85dfbf6e15f3cab3c91015b60405180910390a350505050506119866001600055565b505050565b6001546001600160a01b031633146119b55760405162461bcd60e51b81526004016103ef9061354a565b6003805490829055604080518281526020810184905233918101919091527f8d6ad40ad37637106f0ca2d682205c774e73f8cf7789162ce1c0b6ac0791a484906060015b60405180910390a15050565b611a0d612a1e565b60055460ff1615611a305760405162461bcd60e51b81526004016103ef90613436565b6001600160a01b0383166000908152600660209081526040808320858452909152902060048101546001600160401b0383161015611aba5760405162461bcd60e51b815260206004820152602160248201527f43616e6e6f742072656e7420666f72206c657373207468616e206d696e696d756044820152606d60f81b60648201526084016103ef565b8060050154826001600160401b03161115611b215760405162461bcd60e51b815260206004820152602160248201527f43616e6e6f742072656e7420666f72206d6f7265207468616e206d6178696d756044820152606d60f81b60648201526084016103ef565b6000826001600160401b03168260030154611b3c91906134f2565b90506000611b4b846018613592565b611b5690603c613592565b611b6190603c613592565b611b74906001600160401b0316426134b0565b905042836006015411611bbf5760405162461bcd60e51b8152602060048201526013602482015272131a5cdd1a5b99c81a185cc8195e1c1a5c9959606a1b60448201526064016103ef565b81341015611c1b5760405162461bcd60e51b8152602060048201526024808201527f496e73756666696369656e7420657468657220746f2070617920666f722072656044820152631b9d185b60e21b60648201526084016103ef565b600783015460ff161515600114611c445760405162461bcd60e51b81526004016103ef90613509565b6001600160a01b038616600090815260086020908152604080832088845290915290206002015415611cb45760405162461bcd60e51b8152602060048201526019602482015278151bdad95b881a185cc81899595b881c995b9d1959081bdd5d603a1b60448201526064016103ef565b6000606460045434611cc691906134f2565b611cd091906135bd565b90506000611cde82346135df565b60028601546040519192506001600160a01b03169082156108fc029083906000818181858888f19350505050158015611d1b573d6000803e3d6000fd5b50604051309083156108fc029084906000818181858888f19350505050158015611d49573d6000803e3d6000fd5b5084546040516370182b2f60e11b8152600481018990523360248201526001600160401b03851660448201526001600160a01b039091169063e030565e90606401600060405180830381600087803b158015611da457600080fd5b505af1158015611db8573d6000803e3d6000fd5b50505050600060405180606001604052808760020160009054906101000a90046001600160a01b03166001600160a01b03168152602001336001600160a01b0316815260200185815250905080600860008b6001600160a01b03166001600160a01b0316815260200190815260200160002060008a815260200190815260200160002060008201518160000160006101000a8154816001600160a01b0302191690836001600160a01b0316021790555060208201518160010160006101000a8154816001600160a01b0302191690836001600160a01b03160217905550604082015181600201559050506000600d80549050905080600c60008c6001600160a01b03166001600160a01b0316815260200190815260200160002060008b815260200190815260200160002081905550600d82908060018154018082558091505060019003906000526020600020906003020160009091909190915060008201518160000160006101000a8154816001600160a01b0302191690836001600160a01b0316021790555060208201518160010160006101000a8154816001600160a01b0302191690836001600160a01b03160217905550604082015181600201555050888a6001600160a01b03167f5c2efca37e15a36ac693710f773e3290322aca5dd85fd110263c1d0f81254e96338b8b6003015433604051611fec94939291906001600160a01b0394851681526001600160401b039390931660208401526040830191909152909116606082015260800190565b60405180910390a3505050505050506119866001600055565b6001600160a01b038083166000818152600860209081526040808320868452825280832093835260068252808320868452909152902060028101549192909116331461208b5760405162461bcd60e51b815260206004820152601560248201527413db9b1e481bdddb995c8818d85b8819195b1a5cdd605a1b60448201526064016103ef565b6002820154158061209f5750428260020154105b6120e15760405162461bcd60e51b8152602060048201526013602482015272151bdad95b881a5cc81c995b9d1959081bdd5d606a1b60448201526064016103ef565b604051636178f8a560e11b8152600481018490526000906001600160a01b0386169063c2f1f14a90602401602060405180830381865afa158015612129573d6000803e3d6000fd5b505050506040513d601f19601f8201168201806040525081019061214d9190613419565b6001600160a01b03161461219b5760405162461bcd60e51b815260206004820152601560248201527452656e74616c20686173206e6f7420656e6465642160581b60448201526064016103ef565b6000604051806101000160405280866001600160a01b03168152602001858152602001336001600160a01b03168152602001836003015481526020018360040154815260200183600501548152602001836006015481526020016000151581525090508060066000876001600160a01b03166001600160a01b03168152602001908152602001600020600086815260200190815260200160002060008201518160000160006101000a8154816001600160a01b0302191690836001600160a01b031602179055506020820151816001015560408201518160020160006101000a8154816001600160a01b0302191690836001600160a01b03160217905550606082015181600301556080820151816004015560a0820151816005015560c0820151816006015560e08201518160070160006101000a81548160ff0219169083151502179055509050506000600a6000876001600160a01b03166001600160a01b03168152602001908152602001600020600086815260200190815260200160002054905081600b828154811061233357612333613403565b600091825260209182902083516008929092020180546001600160a01b03199081166001600160a01b039384161782559284015160018201556040840151600280830180549095169190931617909255606083015160038301556080830151600483015560a0830151600583015560c0830151600683015560e0909201516007909101805460ff19169115159190911790558401541561246c576001600160a01b0386166000908152600c60209081526040808320888452909152902054600d80548290811061240557612405613403565b60009182526020808320600390920290910180546001600160a01b03199081168255600180830180548316905560029283018590556001600160a01b038c1685526008845260408086208c8752909452928420805482168155928301805490911690550155505b604080516001600160a01b03881681526020810187905260008183015290517fd1d5cc10af783a2cd8ee03e77792cd5dd211ef55ba189b315ae226047587affb9181900360600190a1505050505050565b6124c5612a1e565b60055460ff16156124e85760405162461bcd60e51b81526004016103ef90613436565b6001600160a01b03808416600081815260066020908152604080832087845282528083209383526007825280832087845282528083208686168452825291829020825160c08101845281548616815260018201549281019290925260028082015486169383019390935260038101546060830152600481015460808301526005015460a082015290820154919290911633146125c25760405162461bcd60e51b815260206004820152601960248201527821b0b63632b91034b9903737ba103a37b5b2b71037bbb732b960391b60448201526064016103ef565b608081015160a082015160028401546001600160a01b03166125e8888883898787612a77565b6003850154604080516001600160a01b03898116825260208201879052918101929092523360608301528891908a16907f5c2efca37e15a36ac693710f773e3290322aca5dd85fd110263c1d0f81254e969060800161196f565b60606000805b600d548110156126d5576000600d828154811061266757612667613403565b600091825260209182902060408051606081018252600390930290910180546001600160a01b03908116808552600183015490911694840194909452600201549082015291503390036126c2576126bf6001846134b0565b92505b50806126cd816134c3565b915050612648565b506000816001600160401b038111156126f0576126f06134dc565b60405190808252806020026020018201604052801561273b57816020015b604080516060810182526000808252602080830182905292820152825260001990920191018161270e5790505b5090506000805b600d54811015611143576000600d828154811061276157612761613403565b600091825260209182902060408051606081018252600390930290910180546001600160a01b03908116808552600183015490911694840194909452600201549082015291503390036127da57808484815181106127c1576127c1613403565b60209081029190910101526127d76001846134b0565b92505b50806127e5816134c3565b915050612742565b6002546000906001600160a01b031633148061281357506001546001600160a01b031633145b61285f5760405162461bcd60e51b815260206004820152601d60248201527f4e6f207065726d697373696f6e20746f20766965772062616c616e636500000060448201526064016103ef565b504790565b6060600b805480602002602001604051908101604052809291908181526020016000905b8282101561291857600084815260209081902060408051610100810182526008860290920180546001600160a01b039081168452600180830154858701526002830154909116928401929092526003810154606084015260048101546080840152600581015460a0840152600681015460c08401526007015460ff16151560e08301529083529092019101612888565b50505050905090565b6001546001600160a01b0316331461294b5760405162461bcd60e51b81526004016103ef9061354a565b6005805460ff19169055565b6001546001600160a01b031633146129815760405162461bcd60e51b81526004016103ef9061354a565b600280546001600160a01b038381166001600160a01b0319831681179093556040805191909216808252602082019390935233918101919091527f68a44a48069a61547e9d05149485c3542057bf135d5834d3455fed76d4639e54906060016119f9565b6001546001600160a01b03163314612a0f5760405162461bcd60e51b81526004016103ef9061354a565b6005805460ff19166001179055565b600260005403612a705760405162461bcd60e51b815260206004820152601f60248201527f5265656e7472616e637947756172643a207265656e7472616e742063616c6c0060448201526064016103ef565b6002600055565b80836001600160a01b0316311015612ae05760405162461bcd60e51b815260206004820152602660248201527f496e73756666696369656e742062616c616e636520746f2070617920666f72206044820152651c995b9d185b60d21b60648201526084016103ef565b6001600160a01b0386166000908152600960209081526040808320888452825280832080548251818502810185019093528083529192909190849084015b82821015612b945760008481526020908190206040805160c0810182526006860290920180546001600160a01b0390811684526001808301548587015260028301549091169284019290925260038101546060840152600481015460808401526005015460a08301529083529092019101612b1e565b5050505090506000606460045484612bac91906134f2565b612bb691906135bd565b90506000612bc482856135df565b6040519091506001600160a01b0388169082156108fc029083906000818181858888f19350505050158015612bfd573d6000803e3d6000fd5b50604051309083156108fc029084906000818181858888f19350505050158015612c2b573d6000803e3d6000fd5b506000612c398660186134f2565b612c4490603c6134f2565b612c4f90603c6134f2565b612c5990426134b0565b6040516370182b2f60e11b8152600481018b90526001600160a01b0389811660248301526001600160401b0383166044830152919250908b169063e030565e90606401600060405180830381600087803b158015612cb657600080fd5b505af1158015612cca573d6000803e3d6000fd5b50505050600060405180606001604052808a6001600160a01b03168152602001336001600160a01b0316815260200183815250905080600860008d6001600160a01b03166001600160a01b0316815260200190815260200160002060008c815260200190815260200160002060008201518160000160006101000a8154816001600160a01b0302191690836001600160a01b0316021790555060208201518160010160006101000a8154816001600160a01b0302191690836001600160a01b03160217905550604082015181600201559050506000600d80549050905080600c60008e6001600160a01b03166001600160a01b0316815260200190815260200160002060008d815260200190815260200160002081905550600d82908060018154018082558091505060019003906000526020600020906003020160009091909190915060008201518160000160006101000a8154816001600160a01b0302191690836001600160a01b0316021790555060208201518160010160006101000a8154816001600160a01b0302191690836001600160a01b0316021790555060408201518160020155505060005b8651811015612ef2576000878281518110612e9457612e94613403565b602002602001015190508a6001600160a01b031681604001516001600160a01b031614158015612ec85750888160a0015114155b15612edf57612edf81604001518260a00151612f2d565b5080612eea816134c3565b915050612e77565b506001600160a01b038c1660009081526009602090815260408083208e84529091528120612f1f91613006565b505050505050505050505050565b60405182906001600160a01b0382169083156108fc029084906000818181858888f19350505050158015612f65573d6000803e3d6000fd5b50604080516001600160a01b0385168152602081018490527f75a0cba827b0d4e7ad9c64bb1011c21a622c376c3cb72ffbe500b6d0c3cc2596910160405180910390a1505050565b60405180610100016040528060006001600160a01b031681526020016000815260200160006001600160a01b03168152602001600081526020016000815260200160008152602001600081526020016000151581525090565b5080546000825560060290600052602060002090810190613027919061302a565b50565b5b808211156130735780546001600160a01b031990811682556000600183018190556002830180549092169091556003820181905560048201819055600582015560060161302b565b5090565b6001600160a01b038116811461302757600080fd5b6000806000806000608086880312156130a457600080fd5b85356130af81613077565b945060208601356130bf81613077565b93506040860135925060608601356001600160401b03808211156130e257600080fd5b818801915088601f8301126130f657600080fd5b81358181111561310557600080fd5b89602082850101111561311757600080fd5b9699959850939650602001949392505050565b6000806040838503121561313d57600080fd5b823561314881613077565b946020939093013593505050565b60008060008060008060c0878903121561316f57600080fd5b863561317a81613077565b9860208801359850604088013597606081013597506080810135965060a00135945092505050565b602080825282518282018190526000919060409081850190868401855b8281101561321957815180516001600160a01b0390811686528782015188870152868201511686860152606080820151908601526080808201519086015260a0908101519085015260c090930192908501906001016131bf565b5091979650505050505050565b602080825282518282018190526000919060409081850190868401855b8281101561321957815180516001600160a01b0390811686528782015188870152868201511686860152606080820151908601526080808201519086015260a0808201519086015260c0808201519086015260e0908101511515908501526101009093019290850190600101613243565b6000806000606084860312156132c957600080fd5b83356132d481613077565b95602085013595506040909401359392505050565b6000602082840312156132fb57600080fd5b5035919050565b60008060006060848603121561331757600080fd5b833561332281613077565b92506020840135915060408401356001600160401b038116811461334557600080fd5b809150509250925092565b60008060006060848603121561336557600080fd5b833561337081613077565b925060208401359150604084013561334581613077565b602080825282518282018190526000919060409081850190868401855b8281101561321957815180516001600160a01b03908116865287820151168786015285015185850152606090930192908501906001016133a4565b6000602082840312156133f157600080fd5b81356133fc81613077565b9392505050565b634e487b7160e01b600052603260045260246000fd5b60006020828403121561342b57600080fd5b81516133fc81613077565b60208082526022908201527f4c697374696e6720616e642072656e74616c20686173206265656e2068616c74604082015261195960f21b606082015260800190565b60006020828403121561348a57600080fd5b815180151581146133fc57600080fd5b634e487b7160e01b600052601160045260246000fd5b80820180821115610f2e57610f2e61349a565b6000600182016134d5576134d561349a565b5060010190565b634e487b7160e01b600052604160045260246000fd5b8082028115828204841417610f2e57610f2e61349a565b60208082526021908201527f546f6b656e206973206e6f7420617661696c61626c6520666f722052656e74616040820152601b60fa1b606082015260800190565b60208082526028908201527f596f7520617265206e6f7420746865206f776e6572206f6620746865206d61726040820152676b6574706c61636560c01b606082015260800190565b6001600160401b038181168382160280821691908281146135b5576135b561349a565b505092915050565b6000826135da57634e487b7160e01b600052601260045260246000fd5b500490565b81810381811115610f2e57610f2e61349a56fea26469706673582212201964fb956636a7187b46be4c425eb49505eb8666e157b46a636ce747d210b30d64736f6c63430008110033",
  "linkReferences": {},
  "deployedLinkReferences": {}
}