{
  "_format": "hh-sol-artifact-1",
  "contractName": "MarketplaceDC",
  "sourceName": "contracts/MarketplaceDC.sol",
  "abi": [
    {
      "inputs": [
        {
          "internalType": "address",
          "name": "_owner",
          "type": "address"
        },
        {
          "internalType": "address",
          "name": "_feeCollector",
          "type": "address"
        },
        {
          "internalType": "uint256",
          "name": "_fee",
          "type": "uint256"
        },
        {
          "internalType": "uint256",
          "name": "_commsPercentage",
          "type": "uint256"
        }
      ],
      "stateMutability": "nonpayable",
      "type": "constructor"
    },
    {
      "anonymous": false,
      "inputs": [
        {
          "indexed": false,
          "internalType": "address",
          "name": "rentee",
          "type": "address"
        },
        {
          "indexed": false,
          "internalType": "uint256",
          "name": "bidAmt",
          "type": "uint256"
        }
      ],
      "name": "BidReceived",
      "type": "event"
    },
    {
      "anonymous": false,
      "inputs": [
        {
          "indexed": false,
          "internalType": "address",
          "name": "bidder",
          "type": "address"
        },
        {
          "indexed": false,
          "internalType": "uint256",
          "name": "bidAmt",
          "type": "uint256"
        }
      ],
      "name": "BidReturned",
      "type": "event"
    },
    {
      "anonymous": false,
      "inputs": [
        {
          "indexed": false,
          "internalType": "address",
          "name": "feeCollector",
          "type": "address"
        },
        {
          "indexed": false,
          "internalType": "uint256",
          "name": "feeWithdrawn",
          "type": "uint256"
        }
      ],
      "name": "ComissionWithdrawn",
      "type": "event"
    },
    {
      "anonymous": false,
      "inputs": [
        {
          "indexed": false,
          "internalType": "uint256",
          "name": "_from",
          "type": "uint256"
        },
        {
          "indexed": false,
          "internalType": "uint256",
          "name": "_to",
          "type": "uint256"
        },
        {
          "indexed": false,
          "internalType": "address",
          "name": "_sender",
          "type": "address"
        }
      ],
      "name": "FeeUpdated",
      "type": "event"
    },
    {
      "anonymous": false,
      "inputs": [
        {
          "indexed": true,
          "internalType": "address",
          "name": "_nftAddress",
          "type": "address"
        },
        {
          "indexed": true,
          "internalType": "uint256",
          "name": "tokenId",
          "type": "uint256"
        },
        {
          "indexed": false,
          "internalType": "uint256",
          "name": "rentalDays",
          "type": "uint256"
        },
        {
          "indexed": false,
          "internalType": "uint256",
          "name": "bidAmt",
          "type": "uint256"
        }
      ],
      "name": "TokenBid",
      "type": "event"
    },
    {
      "anonymous": false,
      "inputs": [
        {
          "indexed": true,
          "internalType": "address",
          "name": "_nftAddress",
          "type": "address"
        },
        {
          "indexed": true,
          "internalType": "uint256",
          "name": "tokenId",
          "type": "uint256"
        },
        {
          "indexed": false,
          "internalType": "address",
          "name": "_sender",
          "type": "address"
        }
      ],
      "name": "TokenClaimed",
      "type": "event"
    },
    {
      "anonymous": false,
      "inputs": [
        {
          "indexed": false,
          "internalType": "address",
          "name": "_nftAddress",
          "type": "address"
        },
        {
          "indexed": false,
          "internalType": "uint256",
          "name": "tokenId",
          "type": "uint256"
        },
        {
          "indexed": false,
          "internalType": "bool",
          "name": "availableToRent",
          "type": "bool"
        }
      ],
      "name": "TokenDelisted",
      "type": "event"
    },
    {
      "anonymous": false,
      "inputs": [
        {
          "indexed": true,
          "internalType": "address",
          "name": "_nftAddress",
          "type": "address"
        },
        {
          "indexed": true,
          "internalType": "uint256",
          "name": "tokenId",
          "type": "uint256"
        },
        {
          "indexed": false,
          "internalType": "uint256",
          "name": "pricePerDay",
          "type": "uint256"
        },
        {
          "indexed": false,
          "internalType": "uint256",
          "name": "minRentalDays",
          "type": "uint256"
        },
        {
          "indexed": false,
          "internalType": "uint256",
          "name": "maxRentalDays",
          "type": "uint256"
        },
        {
          "indexed": false,
          "internalType": "uint256",
          "name": "listingExpiry",
          "type": "uint256"
        },
        {
          "indexed": false,
          "internalType": "bool",
          "name": "isDirect",
          "type": "bool"
        }
      ],
      "name": "TokenListed",
      "type": "event"
    },
    {
      "anonymous": false,
      "inputs": [
        {
          "indexed": true,
          "internalType": "address",
          "name": "_nftAddress",
          "type": "address"
        },
        {
          "indexed": true,
          "internalType": "uint256",
          "name": "tokenId",
          "type": "uint256"
        },
        {
          "indexed": false,
          "internalType": "address",
          "name": "rentee",
          "type": "address"
        },
        {
          "indexed": false,
          "internalType": "uint256",
          "name": "pricePerDay",
          "type": "uint256"
        },
        {
          "indexed": false,
          "internalType": "uint256",
          "name": "rentalDays",
          "type": "uint256"
        },
        {
          "indexed": false,
          "internalType": "address",
          "name": "_sender",
          "type": "address"
        }
      ],
      "name": "TokenRented",
      "type": "event"
    },
    {
      "anonymous": false,
      "inputs": [
        {
          "indexed": false,
          "internalType": "uint256",
          "name": "_from",
          "type": "uint256"
        },
        {
          "indexed": false,
          "internalType": "uint256",
          "name": "_to",
          "type": "uint256"
        },
        {
          "indexed": false,
          "internalType": "address",
          "name": "sender",
          "type": "address"
        }
      ],
      "name": "commsUpdated",
      "type": "event"
    },
    {
      "anonymous": false,
      "inputs": [
        {
          "indexed": false,
          "internalType": "address",
          "name": "_from",
          "type": "address"
        },
        {
          "indexed": false,
          "internalType": "address",
          "name": "_to",
          "type": "address"
        },
        {
          "indexed": false,
          "internalType": "address",
          "name": "_sender",
          "type": "address"
        }
      ],
      "name": "feeCollectorUpdated",
      "type": "event"
    },
    {
      "inputs": [
        {
          "internalType": "address",
          "name": "_nftAddress",
          "type": "address"
        },
        {
          "internalType": "uint256",
          "name": "tokenId",
          "type": "uint256"
        },
        {
          "internalType": "address",
          "name": "rentee",
          "type": "address"
        }
      ],
      "name": "acceptBid",
      "outputs": [],
      "stateMutability": "payable",
      "type": "function"
    },
    {
      "inputs": [
        {
          "internalType": "address",
          "name": "_nftAddress",
          "type": "address"
        },
        {
          "internalType": "uint256",
          "name": "tokenId",
          "type": "uint256"
        },
        {
          "internalType": "uint256",
          "name": "rentalDays",
          "type": "uint256"
        }
      ],
      "name": "bidNFT",
      "outputs": [],
      "stateMutability": "payable",
      "type": "function"
    },
    {
      "inputs": [
        {
          "internalType": "address",
          "name": "_nftAddress",
          "type": "address"
        },
        {
          "internalType": "uint256",
          "name": "tokenId",
          "type": "uint256"
        }
      ],
      "name": "claimNFT",
      "outputs": [],
      "stateMutability": "nonpayable",
      "type": "function"
    },
    {
      "inputs": [
        {
          "internalType": "address",
          "name": "_nftAddress",
          "type": "address"
        },
        {
          "internalType": "uint256",
          "name": "tokenId",
          "type": "uint256"
        }
      ],
      "name": "delistNFT",
      "outputs": [],
      "stateMutability": "nonpayable",
      "type": "function"
    },
    {
      "inputs": [
        {
          "internalType": "address",
          "name": "_nftAddress",
          "type": "address"
        },
        {
          "internalType": "uint256",
          "name": "tokenId",
          "type": "uint256"
        }
      ],
      "name": "getAllBids",
      "outputs": [
        {
          "components": [
            {
              "internalType": "address",
              "name": "contractAddress",
              "type": "address"
            },
            {
              "internalType": "uint256",
              "name": "tokenId",
              "type": "uint256"
            },
            {
              "internalType": "address payable",
              "name": "rentee",
              "type": "address"
            },
            {
              "internalType": "uint256",
              "name": "pricePerDay",
              "type": "uint256"
            },
            {
              "internalType": "uint256",
              "name": "rentalDays",
              "type": "uint256"
            },
            {
              "internalType": "uint256",
              "name": "totalBid",
              "type": "uint256"
            },
            {
              "internalType": "uint256",
              "name": "bidTime",
              "type": "uint256"
            }
          ],
          "internalType": "struct MarketplaceDC.Bid[]",
          "name": "",
          "type": "tuple[]"
        }
      ],
      "stateMutability": "view",
      "type": "function"
    },
    {
      "inputs": [],
      "name": "getAllListings",
      "outputs": [
        {
          "components": [
            {
              "internalType": "address",
              "name": "contractAddress",
              "type": "address"
            },
            {
              "internalType": "uint256",
              "name": "tokenId",
              "type": "uint256"
            },
            {
              "internalType": "address payable",
              "name": "owner",
              "type": "address"
            },
            {
              "internalType": "uint256",
              "name": "pricePerDay",
              "type": "uint256"
            },
            {
              "internalType": "uint256",
              "name": "minRentalDays",
              "type": "uint256"
            },
            {
              "internalType": "uint256",
              "name": "maxRentalDays",
              "type": "uint256"
            },
            {
              "internalType": "uint256",
              "name": "listingExpiry",
              "type": "uint256"
            },
            {
              "internalType": "bool",
              "name": "availableToRent",
              "type": "bool"
            },
            {
              "internalType": "bool",
              "name": "isDirect",
              "type": "bool"
            }
          ],
          "internalType": "struct MarketplaceDC.Listing[]",
          "name": "",
          "type": "tuple[]"
        }
      ],
      "stateMutability": "view",
      "type": "function"
    },
    {
      "inputs": [],
      "name": "getAvailableListings",
      "outputs": [
        {
          "components": [
            {
              "internalType": "address",
              "name": "contractAddress",
              "type": "address"
            },
            {
              "internalType": "uint256",
              "name": "tokenId",
              "type": "uint256"
            },
            {
              "internalType": "address payable",
              "name": "owner",
              "type": "address"
            },
            {
              "internalType": "uint256",
              "name": "pricePerDay",
              "type": "uint256"
            },
            {
              "internalType": "uint256",
              "name": "minRentalDays",
              "type": "uint256"
            },
            {
              "internalType": "uint256",
              "name": "maxRentalDays",
              "type": "uint256"
            },
            {
              "internalType": "uint256",
              "name": "listingExpiry",
              "type": "uint256"
            },
            {
              "internalType": "bool",
              "name": "availableToRent",
              "type": "bool"
            },
            {
              "internalType": "bool",
              "name": "isDirect",
              "type": "bool"
            }
          ],
          "internalType": "struct MarketplaceDC.Listing[]",
          "name": "",
          "type": "tuple[]"
        }
      ],
      "stateMutability": "view",
      "type": "function"
    },
    {
      "inputs": [],
      "name": "getComissionBalance",
      "outputs": [
        {
          "internalType": "uint256",
          "name": "",
          "type": "uint256"
        }
      ],
      "stateMutability": "view",
      "type": "function"
    },
    {
      "inputs": [],
      "name": "getCurrentlyRented",
      "outputs": [
        {
          "components": [
            {
              "internalType": "address payable",
              "name": "owner",
              "type": "address"
            },
            {
              "internalType": "address payable",
              "name": "rentee",
              "type": "address"
            },
            {
              "internalType": "uint256",
              "name": "rentalEnd",
              "type": "uint256"
            }
          ],
          "internalType": "struct MarketplaceDC.Rental[]",
          "name": "",
          "type": "tuple[]"
        }
      ],
      "stateMutability": "view",
      "type": "function"
    },
    {
      "inputs": [],
      "name": "getListingFee",
      "outputs": [
        {
          "internalType": "uint256",
          "name": "",
          "type": "uint256"
        }
      ],
      "stateMutability": "view",
      "type": "function"
    },
    {
      "inputs": [],
      "name": "getMyBids",
      "outputs": [
        {
          "components": [
            {
              "internalType": "address",
              "name": "contractAddress",
              "type": "address"
            },
            {
              "internalType": "uint256",
              "name": "tokenId",
              "type": "uint256"
            },
            {
              "internalType": "address payable",
              "name": "rentee",
              "type": "address"
            },
            {
              "internalType": "uint256",
              "name": "pricePerDay",
              "type": "uint256"
            },
            {
              "internalType": "uint256",
              "name": "rentalDays",
              "type": "uint256"
            },
            {
              "internalType": "uint256",
              "name": "totalBid",
              "type": "uint256"
            },
            {
              "internalType": "uint256",
              "name": "bidTime",
              "type": "uint256"
            }
          ],
          "internalType": "struct MarketplaceDC.Bid[]",
          "name": "",
          "type": "tuple[]"
        }
      ],
      "stateMutability": "view",
      "type": "function"
    },
    {
      "inputs": [],
      "name": "getOwnedListings",
      "outputs": [
        {
          "components": [
            {
              "internalType": "address",
              "name": "contractAddress",
              "type": "address"
            },
            {
              "internalType": "uint256",
              "name": "tokenId",
              "type": "uint256"
            },
            {
              "internalType": "address payable",
              "name": "owner",
              "type": "address"
            },
            {
              "internalType": "uint256",
              "name": "pricePerDay",
              "type": "uint256"
            },
            {
              "internalType": "uint256",
              "name": "minRentalDays",
              "type": "uint256"
            },
            {
              "internalType": "uint256",
              "name": "maxRentalDays",
              "type": "uint256"
            },
            {
              "internalType": "uint256",
              "name": "listingExpiry",
              "type": "uint256"
            },
            {
              "internalType": "bool",
              "name": "availableToRent",
              "type": "bool"
            },
            {
              "internalType": "bool",
              "name": "isDirect",
              "type": "bool"
            }
          ],
          "internalType": "struct MarketplaceDC.Listing[]",
          "name": "",
          "type": "tuple[]"
        }
      ],
      "stateMutability": "view",
      "type": "function"
    },
    {
      "inputs": [
        {
          "internalType": "address",
          "name": "_nftAddress",
          "type": "address"
        },
        {
          "internalType": "uint256",
          "name": "tokenId",
          "type": "uint256"
        },
        {
          "internalType": "uint256",
          "name": "pricePerDay",
          "type": "uint256"
        },
        {
          "internalType": "uint256",
          "name": "minRentalDays",
          "type": "uint256"
        },
        {
          "internalType": "uint256",
          "name": "maxRentalDays",
          "type": "uint256"
        },
        {
          "internalType": "uint256",
          "name": "listingExpiry",
          "type": "uint256"
        },
        {
          "internalType": "bool",
          "name": "isDirect",
          "type": "bool"
        }
      ],
      "name": "listNFT",
      "outputs": [],
      "stateMutability": "payable",
      "type": "function"
    },
    {
      "inputs": [
        {
          "internalType": "address",
          "name": "operator",
          "type": "address"
        },
        {
          "internalType": "address",
          "name": "from",
          "type": "address"
        },
        {
          "internalType": "uint256",
          "name": "tokenId",
          "type": "uint256"
        },
        {
          "internalType": "bytes",
          "name": "data",
          "type": "bytes"
        }
      ],
      "name": "onERC721Received",
      "outputs": [
        {
          "internalType": "bytes4",
          "name": "",
          "type": "bytes4"
        }
      ],
      "stateMutability": "nonpayable",
      "type": "function"
    },
    {
      "inputs": [
        {
          "internalType": "address",
          "name": "_nftAddress",
          "type": "address"
        },
        {
          "internalType": "uint256",
          "name": "tokenId",
          "type": "uint256"
        },
        {
          "internalType": "address",
          "name": "rentee",
          "type": "address"
        }
      ],
      "name": "rejectBid",
      "outputs": [],
      "stateMutability": "payable",
      "type": "function"
    },
    {
      "inputs": [
        {
          "internalType": "address",
          "name": "_nftAddress",
          "type": "address"
        },
        {
          "internalType": "uint256",
          "name": "tokenId",
          "type": "uint256"
        },
        {
          "internalType": "uint64",
          "name": "rentalDays",
          "type": "uint64"
        }
      ],
      "name": "rentNFT",
      "outputs": [],
      "stateMutability": "payable",
      "type": "function"
    },
    {
      "inputs": [],
      "name": "resumeAll",
      "outputs": [],
      "stateMutability": "nonpayable",
      "type": "function"
    },
    {
      "inputs": [],
      "name": "stopAll",
      "outputs": [],
      "stateMutability": "nonpayable",
      "type": "function"
    },
    {
      "inputs": [
        {
          "internalType": "uint256",
          "name": "_commsPercentage",
          "type": "uint256"
        }
      ],
      "name": "updateComission",
      "outputs": [],
      "stateMutability": "nonpayable",
      "type": "function"
    },
    {
      "inputs": [
        {
          "internalType": "uint256",
          "name": "newFee",
          "type": "uint256"
        }
      ],
      "name": "updateFee",
      "outputs": [],
      "stateMutability": "nonpayable",
      "type": "function"
    },
    {
      "inputs": [
        {
          "internalType": "address",
          "name": "newCollector",
          "type": "address"
        }
      ],
      "name": "updateFeeCollector",
      "outputs": [],
      "stateMutability": "nonpayable",
      "type": "function"
    },
    {
      "inputs": [
        {
          "internalType": "address",
          "name": "_nftAddress",
          "type": "address"
        },
        {
          "internalType": "uint256",
          "name": "tokenId",
          "type": "uint256"
        }
      ],
      "name": "withdrawBid",
      "outputs": [],
      "stateMutability": "payable",
      "type": "function"
    },
    {
      "inputs": [],
      "name": "withdrawComission",
      "outputs": [],
      "stateMutability": "payable",
      "type": "function"
    },
    {
      "stateMutability": "payable",
      "type": "receive"
    }
  ],
  "bytecode": "0x608060405260006004556005805460ff191690553480156200002057600080fd5b5060405162004aa938038062004aa98339810160408190526200004391620000a4565b6001600081905580546001600160a01b039586166001600160a01b0319918216179091556002805494909516931692909217909255600391909155600455620000ec565b80516001600160a01b03811681146200009f57600080fd5b919050565b60008060008060808587031215620000bb57600080fd5b620000c68562000087565b9350620000d66020860162000087565b6040860151606090960151949790965092505050565b6149ad80620000fc6000396000f3fe6080604052600436106101445760003560e01c80639012c4a8116100b6578063ae73ccec1161006f578063ae73ccec14610379578063af3d104f1461038e578063b8fe6abe146103a3578063d2c35ce8146103b8578063d5364ca2146103d8578063f0881ae6146103eb57600080fd5b80639012c4a8146102ce5780639a34f003146102ee578063a17a709414610301578063a580262014610321578063aa03282714610334578063ad6b02b51461035657600080fd5b80634cb8ef5b116101085780634cb8ef5b1461022f578063612815161461024257806367aab2431461026f57806368082c3514610291578063788077a7146102a65780638cbbbf98146102bb57600080fd5b8063150b7a02146101885780631d33c9d3146101d25780632e89b77a146101e757806333a10cc1146102075780634c62a6441461022757600080fd5b3661018357604080513381523460208201527f9a0fa8b9e74b6a70081d4c7ce0cab294a0781d754833b19e1c96e2107f6310ea910160405180910390a1005b600080fd5b34801561019457600080fd5b506101b46101a3366004614387565b630a85bd0160e11b95945050505050565b6040516001600160e01b031990911681526020015b60405180910390f35b6101e56101e0366004614425565b610400565b005b3480156101f357600080fd5b506101e5610202366004614467565b610839565b34801561021357600080fd5b506101e5610222366004614480565b6108b3565b6101e5610bd9565b6101e561023d366004614480565b610cbc565b34801561024e57600080fd5b5061026261025d366004614480565b611071565b6040516101c991906144ac565b34801561027b57600080fd5b506102846113ab565b6040516101c9919061453a565b34801561029d57600080fd5b506102846115e3565b3480156102b257600080fd5b50610262611816565b6101e56102c93660046145d5565b6118ce565b3480156102da57600080fd5b506101e56102e9366004614467565b6120a0565b6101e56102fc36600461460a565b612112565b34801561030d57600080fd5b506101e561031c366004614480565b61276b565b6101e561032f366004614425565b612c75565b34801561034057600080fd5b50610349612dd8565b6040516101c9919061464d565b34801561036257600080fd5b5061036b612f83565b6040519081526020016101c9565b34801561038557600080fd5b50610284612ffa565b34801561039a57600080fd5b506101e56130be565b3480156103af57600080fd5b5060035461036b565b3480156103c457600080fd5b506101e56103d33660046146a5565b6130f4565b6101e56103e63660046146d7565b613182565b3480156103f757600080fd5b506101e561382c565b610408613865565b60055460ff16156104345760405162461bcd60e51b815260040161042b90614740565b60405180910390fd5b6001600160a01b03808416600081815260066020818152604080842088855282528084209484526007825280842088855282528084208787168552825292839020835160e0810185528154871681526001820154928101929092526002808201548716948301949094526003810154606083015260048101546080830152600581015460a08301529091015460c082015290820154919290911633146104ec5760405162461bcd60e51b815260040161042b90614782565b60408101516001600160a01b031661053b5760405162461bcd60e51b8152602060048201526012602482015271109a5908191bd95cc81b9bdd08195e1a5cdd60721b604482015260640161042b565b6001600160a01b0385166000908152600960209081526040808320878452909152812090805b825481101561060d57600083828154811061057e5761057e6147b9565b60009182526020918290206040805160e081018252600790930290910180546001600160a01b039081168452600182015494840194909452600281015484169183018290526003810154606084015260048101546080840152600581015460a08401526006015460c083015290925090881690036105fa578192505b5080610605816147e5565b915050610561565b50805b825461061e906001906147fe565b8110156106e75782610631826001614811565b81548110610641576106416147b9565b9060005260206000209060070201838281548110610661576106616147b9565b60009182526020909120825460079092020180546001600160a01b039283166001600160a01b031991821617825560018085015490830155600280850154908301805491909416911617909155600380830154908201556004808301549082015560058083015490820155600691820154910155806106df816147e5565b915050610610565b50818054806106f8576106f8614824565b6000828152602080822060076000199094019384020180546001600160a01b03199081168255600182018490556002820180549091169055600381018390556004810183905560058101839055600601829055919092556001600160a01b03891682526009815260408083208984529091529020825461077a919084906141e6565b506107868787876138be565b6001600160a01b0386166000908152600a6020526040902081546107aa92906141e6565b5060a08301516107ba8682613adc565b5050506001600160a01b0380861660009081526007602090815260408083208884528252808320938716835292905290812080546001600160a01b03199081168255600182018390556002820180549091169055600381018290556004810182905560058101829055600601555061083490506001600055565b505050565b6001546001600160a01b031633146108635760405162461bcd60e51b815260040161042b9061483a565b6004805490829055604080518281526020810184905233918101919091527f795071f083765ff6f8aa0d6e12423dba989580d0ce456f1e407b240b7442e388906060015b60405180910390a15050565b6001600160a01b03808316600090815260066020908152604080832085845290915290206002810154909116331461092d5760405162461bcd60e51b815260206004820152601d60248201527f4f6e6c79206f776e65722063616e20636c61696d206261636b204e4654000000604482015260640161042b565b600781015460ff16156109925760405162461bcd60e51b815260206004820152602760248201527f546f6b656e20686173206e6f74206265656e2064656c69737465642066726f6d604482015266081b585c9ad95d60ca1b606482015260840161042b565b6040516323b872dd60e01b8152306004820152336024820152604481018390526001600160a01b038416906323b872dd90606401600060405180830381600087803b1580156109e057600080fd5b505af11580156109f4573d6000803e3d6000fd5b505050506001600160a01b0383166000908152600b60209081526040808320858452909152902054600c805482908110610a3057610a306147b9565b9060005260206000209060080201600080820160006101000a8154906001600160a01b03021916905560018201600090556002820160006101000a8154906001600160a01b03021916905560038201600090556004820160009055600582016000905560068201600090556007820160006101000a81549060ff02191690556007820160016101000a81549060ff0219169055505060066000856001600160a01b03166001600160a01b031681526020019081526020016000206000848152602001908152602001600020600080820160006101000a8154906001600160a01b03021916905560018201600090556002820160006101000a8154906001600160a01b03021916905560038201600090556004820160009055600582016000905560068201600090556007820160006101000a81549060ff02191690556007820160016101000a81549060ff0219169055505082846001600160a01b03167ff08bc7b248ec1a2916edaa0ea75d3b79151c53c790c568e83c1c8811d99fe43533604051610bcb91906001600160a01b0391909116815260200190565b60405180910390a350505050565b610be1613865565b6002546001600160a01b03163314610c3b5760405162461bcd60e51b815260206004820152601e60248201527f4f6e6c7920666565436f6c6c6563746f722063616e2077697468647261770000604482015260640161042b565b60025460405147916001600160a01b03169082156108fc029083906000818181858888f19350505050158015610c75573d6000803e3d6000fd5b5060408051338152602081018390527fadeb6f23bed4a1ff793b31a6b5449e43a8613c3b28981d283e8e9a29e85a7d95910160405180910390a150610cba6001600055565b565b610cc4613865565b6001600160a01b0380831660009081526007602090815260408083208584528252808320338452825291829020825160e08101845281548516815260018201549281019290925260028101549093169181018290526003830154606082015260048301546080820152600583015460a082015260069092015460c0830152610d835760405162461bcd60e51b8152602060048201526012602482015271109a5908191bd95cc81b9bdd08195e1a5cdd60721b604482015260640161042b565b6001600160a01b0383166000908152600960209081526040808320858452909152812090805b8254811015610e55576000838281548110610dc657610dc66147b9565b60009182526020918290206040805160e081018252600790930290910180546001600160a01b03908116845260018201549484019490945260028101549093169082018190526003830154606083015260048301546080830152600583015460a083015260069092015460c08201529150339003610e42578192505b5080610e4d816147e5565b915050610da9565b50805b8254610e66906001906147fe565b811015610f2f5782610e79826001614811565b81548110610e8957610e896147b9565b9060005260206000209060070201838281548110610ea957610ea96147b9565b60009182526020909120825460079092020180546001600160a01b039283166001600160a01b03199182161782556001808501549083015560028085015490830180549190941691161790915560038083015490820155600480830154908201556005808301549082015560069182015491015580610f27816147e5565b915050610e58565b5081805480610f4057610f40614824565b6000828152602080822060076000199094019384020180546001600160a01b03199081168255600182018490556002820180549091169055600381018390556004810183905560058101839055600601829055919092556001600160a01b038716825260098152604080832087845290915290208254610fc2919084906141e6565b50610fce8585336138be565b336000908152600a602052604090208154610fe992906141e6565b5060a0830151610ff93382613adc565b5050506001600160a01b03831660009081526007602090815260408083208584528252808320338452909152812080546001600160a01b03199081168255600182018390556002820180549091169055600381018290556004810182905560058101829055600601555061106d6001600055565b5050565b6001600160a01b0380831660009081526006602081815260408084208685528252928390208351610120810185528154861681526001820154928101929092526002810154909416928101839052600384015460608281019190915260048501546080830152600585015460a08301529184015460c082015260079093015460ff808216151560e086015261010091829004161515908401529190331461112a5760405162461bcd60e51b815260040161042b90614782565b6001600160a01b038416600090815260096020908152604080832086845290915281209042815b835481101561121557600084828154811061116e5761116e6147b9565b60009182526020918290206040805160e081018252600790930290910180546001600160a01b0390811684526001820154948401949094526002810154909316908201526003820154606082015260048201546080820152600582015460a082015260069091015460c0820181905290915083906111ef9062015180614811565b10611202576111ff600185614811565b93505b508061120d816147e5565b915050611151565b50600080836001600160401b0381111561123157611231614882565b6040519080825280602002602001820160405280156112b457816020015b6112a16040518060e0016040528060006001600160a01b031681526020016000815260200160006001600160a01b03168152602001600081526020016000815260200160008152602001600081525090565b81526020019060019003908161124f5790505b50905060005b855481101561139c5760008682815481106112d7576112d76147b9565b60009182526020918290206040805160e081018252600790930290910180546001600160a01b0390811684526001820154948401949094526002810154909316908201526003820154606082015260048201546080820152600582015460a082015260069091015460c0820181905290915085906113589062015180614811565b106113895780838581518110611370576113706147b9565b6020908102919091010152611386600185614811565b93505b5080611394816147e5565b9150506112ba565b50955050505050505b92915050565b60606000805b600c54811015611489576000600c82815481106113d0576113d06147b9565b60009182526020918290206040805161012081018252600890930290910180546001600160a01b03908116845260018201549484019490945260028101549093169082018190526003830154606083015260048301546080830152600583015460a0830152600683015460c083015260079092015460ff808216151560e08401526101009182900416151590820152915033900361147657611473600184614811565b92505b5080611481816147e5565b9150506113b1565b506000816001600160401b038111156114a4576114a4614882565b6040519080825280602002602001820160405280156114dd57816020015b6114ca61429c565b8152602001906001900390816114c25790505b5090506000805b600c548110156115da576000600c8281548110611503576115036147b9565b60009182526020918290206040805161012081018252600890930290910180546001600160a01b03908116845260018201549484019490945260028101549093169082018190526003830154606083015260048301546080830152600583015460a0830152600683015460c083015260079092015460ff808216151560e0840152610100918290041615159082015291503390036115c757808484815181106115ae576115ae6147b9565b60209081029190910101526115c4600184614811565b92505b50806115d2816147e5565b9150506114e4565b50909392505050565b60606000805b600c548110156116c3576000600c8281548110611608576116086147b9565b60009182526020918290206040805161012081018252600890930290910180546001600160a01b0390811684526001820154948401949094526002810154909316908201526003820154606082015260048201546080820152600582015460a0820152600682015460c082015260079091015460ff80821615801560e0850152610100928390049091161515918301919091529091506116b0576116ad600184614811565b92505b50806116bb816147e5565b9150506115e9565b506000816001600160401b038111156116de576116de614882565b60405190808252806020026020018201604052801561171757816020015b61170461429c565b8152602001906001900390816116fc5790505b5090506000805b600c548110156115da576000600c828154811061173d5761173d6147b9565b60009182526020918290206040805161012081018252600890930290910180546001600160a01b0390811684526001820154948401949094526002810154909316908201526003820154606082015260048201546080820152600582015460a0820152600682015460c082015260079091015460ff80821615801560e08501526101009283900490911615159183019190915290915061180357808484815181106117ea576117ea6147b9565b6020908102919091010152611800600184614811565b92505b508061180e816147e5565b91505061171e565b336000908152600a60209081526040808320805482518185028101850190935280835260609492939192909184015b828210156118c55760008481526020908190206040805160e0810182526007860290920180546001600160a01b039081168452600180830154858701526002830154909116928401929092526003810154606084015260048101546080840152600581015460a08401526006015460c08301529083529092019101611845565b50505050905090565b6118d6613865565b60055460ff16156118f95760405162461bcd60e51b815260040161042b90614740565b6001600160a01b03808416600090815260066020908152604080832086845290915290206002810154909116330361197f5760405162461bcd60e51b815260206004820152602360248201527f4f776e65722063616e6e6f742062696420666f72207468656972206f776e204e60448201526246547360e81b606482015260840161042b565b336119cc5760405162461bcd60e51b815260206004820181905260248201527f4269646465722063616e6e6f742062652066726f6d2061646472657373283029604482015260640161042b565b8060040154821015611a335760405162461bcd60e51b815260206004820152602a60248201527f52656e74616c20446179732063616e6e6f742062652073686f72746572207468604482015269616e206d696e696d756d60b01b606482015260840161042b565b8060050154821115611a995760405162461bcd60e51b815260206004820152602960248201527f52656e74616c20446179732063616e6e6f74206265206c6f6e676572207468616044820152686e206d6178696d756d60b81b606482015260840161042b565b42816006015411611ae25760405162461bcd60e51b8152602060048201526013602482015272131a5cdd1a5b99c81a185cc8195e1c1a5c9959606a1b604482015260640161042b565b6007810154610100900460ff1615611b345760405162461bcd60e51b8152602060048201526015602482015274546f6b656e206973206e6f74206269646461626c6560581b604482015260640161042b565b6000828260030154611b469190614898565b905080341015611ba45760405162461bcd60e51b8152602060048201526024808201527f426964206c6f776572207468616e206d696e696d756d2072656e74616c2070726044820152636963652160e01b606482015260840161042b565b600782015460ff161515600114611bcd5760405162461bcd60e51b815260040161042b906148af565b6001600160a01b038516600090815260086020908152604080832087845290915290206002015415611c3d5760405162461bcd60e51b8152602060048201526019602482015278151bdad95b881a185cc81899595b881c995b9d1959081bdd5d603a1b604482015260640161042b565b60006040518060e00160405280876001600160a01b03168152602001868152602001336001600160a01b03168152602001846003015481526020018581526020013481526020014281525090508060076000886001600160a01b03166001600160a01b0316815260200190815260200160002060008781526020019081526020016000206000336001600160a01b03166001600160a01b0316815260200190815260200160002060008201518160000160006101000a8154816001600160a01b0302191690836001600160a01b031602179055506020820151816001015560408201518160020160006101000a8154816001600160a01b0302191690836001600160a01b03160217905550606082015181600301556080820151816004015560a0820151816005015560c08201518160060155905050600060096000886001600160a01b03166001600160a01b031681526020019081526020016000206000878152602001908152602001600020805480602002602001604051908101604052809291908181526020016000905b82821015611e4b5760008481526020908190206040805160e0810182526007860290920180546001600160a01b039081168452600180830154858701526002830154909116928401929092526003810154606084015260048101546080840152600581015460a08401526006015460c08301529083529092019101611dcb565b5050505090506000805b8251811015611edd576000838281518110611e7257611e726147b9565b60200260200101519050336001600160a01b031681604001516001600160a01b031603611eca57611ea7338260a00151613adc565b84848381518110611eba57611eba6147b9565b6020026020010181905250600192505b5080611ed5816147e5565b915050611e55565b5080611f7b576001600160a01b0380891660009081526009602090815260408083208b8452825280832080546001818101835591855293839020885160079095020180549486166001600160a01b0319958616178155928801519083015586015160028201805491909416921691909117909155606084015160038201556080840151600482015560a0840151600582015560c08401516006909101555b336000908152600a602052604090205415611fbb57611f9a8333613b5c565b336000908152600a602052604090208154611fb592906141e6565b5061204b565b336000908152600a6020908152604080832080546001808201835591855293839020875160079095020180546001600160a01b03199081166001600160a01b039687161782559388015191810191909155908601516002820180549093169316929092179055606084015160038201556080840151600482015560a0840151600582015560c08401516006909101555b6040805187815234602082015288916001600160a01b038b16917f925277ab476e47a4c3eabacf94055594c3ecb681c66035f85dfbf6e15f3cab3c91015b60405180910390a350505050506108346001600055565b6001546001600160a01b031633146120ca5760405162461bcd60e51b815260040161042b9061483a565b6003805490829055604080518281526020810184905233918101919091527f8d6ad40ad37637106f0ca2d682205c774e73f8cf7789162ce1c0b6ac0791a484906060016108a7565b61211a613865565b60055460ff161561213d5760405162461bcd60e51b815260040161042b90614740565b6001600160a01b0383166000908152600660209081526040808320858452909152902060048101546001600160401b03831610156121c75760405162461bcd60e51b815260206004820152602160248201527f43616e6e6f742072656e7420666f72206c657373207468616e206d696e696d756044820152606d60f81b606482015260840161042b565b8060050154826001600160401b0316111561222e5760405162461bcd60e51b815260206004820152602160248201527f43616e6e6f742072656e7420666f72206d6f7265207468616e206d6178696d756044820152606d60f81b606482015260840161042b565b6007810154610100900460ff166122875760405162461bcd60e51b815260206004820152601e60248201527f546f6b656e206973206e6f74206469726563746c792072656e7461626c650000604482015260640161042b565b6000826001600160401b031682600301546122a29190614898565b905060006122b18460186148f0565b6122bc90603c6148f0565b6122c790603c6148f0565b6122da906001600160401b031642614811565b9050428360060154116123255760405162461bcd60e51b8152602060048201526013602482015272131a5cdd1a5b99c81a185cc8195e1c1a5c9959606a1b604482015260640161042b565b813410156123815760405162461bcd60e51b8152602060048201526024808201527f496e73756666696369656e7420657468657220746f2070617920666f722072656044820152631b9d185b60e21b606482015260840161042b565b600783015460ff1615156001146123aa5760405162461bcd60e51b815260040161042b906148af565b6001600160a01b03861660009081526008602090815260408083208884529091529020600201541561241a5760405162461bcd60e51b8152602060048201526019602482015278151bdad95b881a185cc81899595b881c995b9d1959081bdd5d603a1b604482015260640161042b565b600060646004543461242c9190614898565b612436919061491b565b9050600061244482346147fe565b60028601546040519192506001600160a01b03169082156108fc029083906000818181858888f19350505050158015612481573d6000803e3d6000fd5b50604051309083156108fc029084906000818181858888f193505050501580156124af573d6000803e3d6000fd5b5084546040516370182b2f60e11b8152600481018990523360248201526001600160401b03851660448201526001600160a01b039091169063e030565e90606401600060405180830381600087803b15801561250a57600080fd5b505af115801561251e573d6000803e3d6000fd5b50505050600060405180606001604052808760020160009054906101000a90046001600160a01b03166001600160a01b03168152602001336001600160a01b0316815260200185815250905080600860008b6001600160a01b03166001600160a01b0316815260200190815260200160002060008a815260200190815260200160002060008201518160000160006101000a8154816001600160a01b0302191690836001600160a01b0316021790555060208201518160010160006101000a8154816001600160a01b0302191690836001600160a01b03160217905550604082015181600201559050506000600e80549050905080600d60008c6001600160a01b03166001600160a01b0316815260200190815260200160002060008b815260200190815260200160002081905550600e82908060018154018082558091505060019003906000526020600020906003020160009091909190915060008201518160000160006101000a8154816001600160a01b0302191690836001600160a01b0316021790555060208201518160010160006101000a8154816001600160a01b0302191690836001600160a01b03160217905550604082015181600201555050888a6001600160a01b03167f5c2efca37e15a36ac693710f773e3290322aca5dd85fd110263c1d0f81254e96338b8b600301543360405161275294939291906001600160a01b0394851681526001600160401b039390931660208401526040830191909152909116606082015260800190565b60405180910390a3505050505050506108346001600055565b6001600160a01b03808316600081815260086020908152604080832086845282528083209383526006825280832086845290915290206002810154919290911633146127f15760405162461bcd60e51b815260206004820152601560248201527413db9b1e481bdddb995c8818d85b8819195b1a5cdd605a1b604482015260640161042b565b600282015415806128055750428260020154105b6128475760405162461bcd60e51b8152602060048201526013602482015272151bdad95b881a5cc81c995b9d1959081bdd5d606a1b604482015260640161042b565b604051636178f8a560e11b8152600481018490526000906001600160a01b0386169063c2f1f14a90602401602060405180830381865afa15801561288f573d6000803e3d6000fd5b505050506040513d601f19601f820116820180604052508101906128b3919061493d565b6001600160a01b0316146129015760405162461bcd60e51b815260206004820152601560248201527452656e74616c20686173206e6f7420656e6465642160581b604482015260640161042b565b6000604051806101200160405280866001600160a01b03168152602001858152602001336001600160a01b03168152602001836003015481526020018360040154815260200183600501548152602001836006015481526020016000151581526020018360070160019054906101000a900460ff16151581525090508060066000876001600160a01b03166001600160a01b03168152602001908152602001600020600086815260200190815260200160002060008201518160000160006101000a8154816001600160a01b0302191690836001600160a01b031602179055506020820151816001015560408201518160020160006101000a8154816001600160a01b0302191690836001600160a01b03160217905550606082015181600301556080820151816004015560a0820151816005015560c0820151816006015560e08201518160070160006101000a81548160ff0219169083151502179055506101008201518160070160016101000a81548160ff0219169083151502179055509050506000600b6000876001600160a01b03166001600160a01b03168152602001908152602001600020600086815260200190815260200160002054905081600c8281548110612ad357612ad36147b9565b6000918252602091829020835160089092020180546001600160a01b039283166001600160a01b0319918216178255928401516001820155604084015160028083018054929094169190941617909155606083015160038201556080830151600482015560a0830151600582015560c0830151600682015560e08301516007909101805461010094850151151590940261ff00199215159290921661ffff19909416939093171790915584015415612c24576001600160a01b0386166000908152600d60209081526040808320888452909152902054600e805482908110612bbd57612bbd6147b9565b60009182526020808320600390920290910180546001600160a01b03199081168255600180830180548316905560029283018590556001600160a01b038c1685526008845260408086208c8752909452928420805482168155928301805490911690550155505b604080516001600160a01b03881681526020810187905260008183015290517fd1d5cc10af783a2cd8ee03e77792cd5dd211ef55ba189b315ae226047587affb9181900360600190a1505050505050565b612c7d613865565b60055460ff1615612ca05760405162461bcd60e51b815260040161042b90614740565b6001600160a01b03808416600081815260066020818152604080842088855282528084209484526007825280842088855282528084208787168552825292839020835160e0810185528154871681526001820154928101929092526002808201548716948301949094526003810154606083015260048101546080830152600581015460a08301529091015460c08201529082015491929091163314612d585760405162461bcd60e51b815260040161042b90614782565b608081015160a082015160028401546001600160a01b0316612d7e888883898787613d58565b6003850154604080516001600160a01b03898116825260208201879052918101929092523360608301528891908a16907f5c2efca37e15a36ac693710f773e3290322aca5dd85fd110263c1d0f81254e9690608001612089565b60606000805b600e54811015612e6b576000600e8281548110612dfd57612dfd6147b9565b600091825260209182902060408051606081018252600390930290910180546001600160a01b0390811680855260018301549091169484019490945260020154908201529150339003612e5857612e55600184614811565b92505b5080612e63816147e5565b915050612dde565b506000816001600160401b03811115612e8657612e86614882565b604051908082528060200260200182016040528015612ed157816020015b6040805160608101825260008082526020808301829052928201528252600019909201910181612ea45790505b5090506000805b600e548110156115da576000600e8281548110612ef757612ef76147b9565b600091825260209182902060408051606081018252600390930290910180546001600160a01b0390811680855260018301549091169484019490945260020154908201529150339003612f705780848481518110612f5757612f576147b9565b6020908102919091010152612f6d600184614811565b92505b5080612f7b816147e5565b915050612ed8565b6002546000906001600160a01b0316331480612fa957506001546001600160a01b031633145b612ff55760405162461bcd60e51b815260206004820152601d60248201527f4e6f207065726d697373696f6e20746f20766965772062616c616e6365000000604482015260640161042b565b504790565b6060600c805480602002602001604051908101604052809291908181526020016000905b828210156118c557600084815260209081902060408051610120810182526008860290920180546001600160a01b039081168452600180830154858701526002830154909116928401929092526003810154606084015260048101546080840152600581015460a0840152600681015460c08401526007015460ff808216151560e08501526101009182900416151590830152908352909201910161301e565b6001546001600160a01b031633146130e85760405162461bcd60e51b815260040161042b9061483a565b6005805460ff19169055565b6001546001600160a01b0316331461311e5760405162461bcd60e51b815260040161042b9061483a565b600280546001600160a01b038381166001600160a01b0319831681179093556040805191909216808252602082019390935233918101919091527f68a44a48069a61547e9d05149485c3542057bf135d5834d3455fed76d4639e54906060016108a7565b61318a613865565b86866000826001600160a01b0316636352211e836040518263ffffffff1660e01b81526004016131bc91815260200190565b602060405180830381865afa1580156131d9573d6000803e3d6000fd5b505050506040513d601f19601f820116820180604052508101906131fd919061493d565b90506001600160a01b03811633146132675760405162461bcd60e51b815260206004820152602760248201527f4552433732313a2043616c6c6572206973206e6f74206f776e6572206f7220616044820152661c1c1c9bdd995960ca1b606482015260840161042b565b60055460ff161561328a5760405162461bcd60e51b815260040161042b90614740565b6040516301ffc9a760e01b8152632b424ad760e21b60048201526001600160a01b038b16906301ffc9a790602401602060405180830381865afa1580156132d5573d6000803e3d6000fd5b505050506040513d601f19601f820116820180604052508101906132f9919061495a565b151560011461335a5760405162461bcd60e51b815260206004820152602760248201527f546f6b656e206973206e6f7420455243343930372c20706c656173652077726160448201526638103a37b5b2b760c91b606482015260840161042b565b6003543410156133bc5760405162461bcd60e51b815260206004820152602760248201527f4e6f7420656e6f7567682045544820746f2070617920666f7220706c6174666f604482015266726d206665657360c81b606482015260840161042b565b6000881161340c5760405162461bcd60e51b815260206004820152601e60248201527f5072696365206d75737420626520686967686572207468616e207a65726f0000604482015260640161042b565b4285116134745760405162461bcd60e51b815260206004820152603060248201527f4c697374696e6720657870697279206d757374206265206c6f6e67657220746860448201526f30b71031bab93932b73a103a34b6b29760811b606482015260840161042b565b604051632142170760e11b8152336004820152306024820152604481018a90526001600160a01b038b16906342842e0e90606401600060405180830381600087803b1580156134c257600080fd5b505af11580156134d6573d6000803e3d6000fd5b50506040513092503480156108fc029250906000818181858888f19350505050158015613507573d6000803e3d6000fd5b5060006040518061012001604052808c6001600160a01b031681526020018b8152602001336001600160a01b031681526020018a8152602001898152602001888152602001878152602001600115158152602001861515815250905080600660008d6001600160a01b03166001600160a01b0316815260200190815260200160002060008c815260200190815260200160002060008201518160000160006101000a8154816001600160a01b0302191690836001600160a01b031602179055506020820151816001015560408201518160020160006101000a8154816001600160a01b0302191690836001600160a01b03160217905550606082015181600301556080820151816004015560a0820151816005015560c0820151816006015560e08201518160070160006101000a81548160ff0219169083151502179055506101008201518160070160016101000a81548160ff0219169083151502179055509050506000600c80549050905080600b60008e6001600160a01b03166001600160a01b0316815260200190815260200160002060008d815260200190815260200160002081905550600c82908060018154018082558091505060019003906000526020600020906008020160009091909190915060008201518160000160006101000a8154816001600160a01b0302191690836001600160a01b031602179055506020820151816001015560408201518160020160006101000a8154816001600160a01b0302191690836001600160a01b03160217905550606082015181600301556080820151816004015560a0820151816005015560c0820151816006015560e08201518160070160006101000a81548160ff0219169083151502179055506101008201518160070160016101000a81548160ff02191690831515021790555050508a8c6001600160a01b03167f74467593be1ab6d59f3c58895b739bfe676907af3ee11ff2434e5261f7fa71ec8c8c8c8c8c60405161380c9594939291909485526020850193909352604084019190915260608301521515608082015260a00190565b60405180910390a350505050506138236001600055565b50505050505050565b6001546001600160a01b031633146138565760405162461bcd60e51b815260040161042b9061483a565b6005805460ff19166001179055565b6002600054036138b75760405162461bcd60e51b815260206004820152601f60248201527f5265656e7472616e637947756172643a207265656e7472616e742063616c6c00604482015260640161042b565b6002600055565b6001600160a01b0381166000908152600a6020526040812081805b82548110156139955760008382815481106138f6576138f66147b9565b60009182526020918290206040805160e081018252600790930290910180546001600160a01b0390811680855260018301549585019590955260028201548116928401929092526003810154606084015260048101546080840152600581015460a08401526006015460c083015290925089161480156139795750868160200151145b15613982578192505b508061398d816147e5565b9150506138d9565b50805b82546139a6906001906147fe565b811015613a6f57826139b9826001614811565b815481106139c9576139c96147b9565b90600052602060002090600702018382815481106139e9576139e96147b9565b60009182526020909120825460079092020180546001600160a01b039283166001600160a01b03199182161782556001808501549083015560028085015490830180549190941691161790915560038083015490820155600480830154908201556005808301549082015560069182015491015580613a67816147e5565b915050613998565b5081805480613a8057613a80614824565b60008281526020812060076000199093019283020180546001600160a01b031990811682556001820183905560028201805490911690556003810182905560048101829055600581018290556006015590555090509392505050565b60405182906001600160a01b0382169083156108fc029084906000818181858888f19350505050158015613b14573d6000803e3d6000fd5b50604080516001600160a01b0385168152602081018490527f75a0cba827b0d4e7ad9c64bb1011c21a622c376c3cb72ffbe500b6d0c3cc2596910160405180910390a1505050565b6001600160a01b0381166000908152600a6020526040812081805b8254811015613cc8576000838281548110613b9457613b946147b9565b60009182526020918290206040805160e081018252600790930290910180546001600160a01b0390811680855260018301549585019590955260028201548116928401929092526003810154606084015260048101546080840152600581015460a08401526006015460c0830152895191935016148015613c1c575086602001518160200151145b15613cb55786848381548110613c3457613c346147b9565b600091825260209182902083516007929092020180546001600160a01b03199081166001600160a01b03938416178255928401516001808301919091556040850151600283018054909516931692909217909255606083015160038301556080830151600483015560a0830151600583015560c09092015160069091015592505b5080613cc0816147e5565b915050613b77565b5080613d50578154600181810184556000848152602090819020885160079094020180546001600160a01b039485166001600160a01b03199182161782559189015192810192909255604088015160028301805491909416911617909155606086015160038201556080860151600482015560a0860151600582015560c08601516006909101555b509392505050565b6001600160a01b0386166000908152600960209081526040808320888452825280832080548251818502810185019093528083529192909190849084015b82821015613e165760008481526020908190206040805160e0810182526007860290920180546001600160a01b039081168452600180830154858701526002830154909116928401929092526003810154606084015260048101546080840152600581015460a08401526006015460c08301529083529092019101613d96565b5050505090506000606460045484613e2e9190614898565b613e38919061491b565b90506000613e4682856147fe565b6040519091506001600160a01b0388169082156108fc029083906000818181858888f19350505050158015613e7f573d6000803e3d6000fd5b50604051309083156108fc029084906000818181858888f19350505050158015613ead573d6000803e3d6000fd5b506000613ebb866018614898565b613ec690603c614898565b613ed190603c614898565b613edb9042614811565b6040516370182b2f60e11b8152600481018b90526001600160a01b0389811660248301526001600160401b0383166044830152919250908b169063e030565e90606401600060405180830381600087803b158015613f3857600080fd5b505af1158015613f4c573d6000803e3d6000fd5b50505050600060405180606001604052808a6001600160a01b03168152602001336001600160a01b0316815260200183815250905080600860008d6001600160a01b03166001600160a01b0316815260200190815260200160002060008c815260200190815260200160002060008201518160000160006101000a8154816001600160a01b0302191690836001600160a01b0316021790555060208201518160010160006101000a8154816001600160a01b0302191690836001600160a01b03160217905550604082015181600201559050506000600e80549050905080600d60008e6001600160a01b03166001600160a01b0316815260200190815260200160002060008d815260200190815260200160002081905550600e82908060018154018082558091505060019003906000526020600020906003020160009091909190915060008201518160000160006101000a8154816001600160a01b0302191690836001600160a01b0316021790555060208201518160010160006101000a8154816001600160a01b0302191690836001600160a01b0316021790555060408201518160020155505060005b86518110156141ab576000878281518110614116576141166147b9565b602002602001015190508a6001600160a01b031681604001516001600160a01b03161415801561414a5750888160a0015114155b156141985761416181604001518260a00151613adc565b6141708e8e83604001516138be565b6040808301516001600160a01b03166000908152600a60205220815461419692906141e6565b505b50806141a3816147e5565b9150506140f9565b506001600160a01b038c1660009081526009602090815260408083208e845290915281206141d8916142fe565b505050505050505050505050565b82805482825590600052602060002090600702810192821561428c5760005260206000209160070282015b8281111561428c57825482546001600160a01b039182166001600160a01b03199182161784556001808601549085015560028086015490850180549190931691161790556003808401549083015560048084015490830155600580840154908301556006808401549083015560079283019290910190614211565b50614298929150614322565b5090565b60405180610120016040528060006001600160a01b031681526020016000815260200160006001600160a01b03168152602001600081526020016000815260200160008152602001600081526020016000151581526020016000151581525090565b508054600082556007029060005260206000209081019061431f9190614322565b50565b5b808211156142985780546001600160a01b031990811682556000600183018190556002830180549092169091556003820181905560048201819055600582018190556006820155600701614323565b6001600160a01b038116811461431f57600080fd5b60008060008060006080868803121561439f57600080fd5b85356143aa81614372565b945060208601356143ba81614372565b93506040860135925060608601356001600160401b03808211156143dd57600080fd5b818801915088601f8301126143f157600080fd5b81358181111561440057600080fd5b89602082850101111561441257600080fd5b9699959850939650602001949392505050565b60008060006060848603121561443a57600080fd5b833561444581614372565b925060208401359150604084013561445c81614372565b809150509250925092565b60006020828403121561447957600080fd5b5035919050565b6000806040838503121561449357600080fd5b823561449e81614372565b946020939093013593505050565b602080825282518282018190526000919060409081850190868401855b8281101561452d57815180516001600160a01b0390811686528782015188870152868201511686860152606080820151908601526080808201519086015260a0808201519086015260c0908101519085015260e090930192908501906001016144c9565b5091979650505050505050565b602080825282518282018190526000919060409081850190868401855b8281101561452d57815180516001600160a01b0390811686528782015188870152868201511686860152606080820151908601526080808201519086015260a0808201519086015260c0808201519086015260e080820151151590860152610100908101511515908501526101209093019290850190600101614557565b6000806000606084860312156145ea57600080fd5b83356145f581614372565b95602085013595506040909401359392505050565b60008060006060848603121561461f57600080fd5b833561462a81614372565b92506020840135915060408401356001600160401b038116811461445c57600080fd5b602080825282518282018190526000919060409081850190868401855b8281101561452d57815180516001600160a01b039081168652878201511687860152850151858501526060909301929085019060010161466a565b6000602082840312156146b757600080fd5b81356146c281614372565b9392505050565b801515811461431f57600080fd5b600080600080600080600060e0888a0312156146f257600080fd5b87356146fd81614372565b96506020880135955060408801359450606088013593506080880135925060a0880135915060c0880135614730816146c9565b8091505092959891949750929550565b60208082526022908201527f4c697374696e6720616e642072656e74616c20686173206265656e2068616c74604082015261195960f21b606082015260800190565b60208082526019908201527f43616c6c6572206973206e6f7420746f6b656e206f776e657200000000000000604082015260600190565b634e487b7160e01b600052603260045260246000fd5b634e487b7160e01b600052601160045260246000fd5b6000600182016147f7576147f76147cf565b5060010190565b818103818111156113a5576113a56147cf565b808201808211156113a5576113a56147cf565b634e487b7160e01b600052603160045260246000fd5b60208082526028908201527f596f7520617265206e6f7420746865206f776e6572206f6620746865206d61726040820152676b6574706c61636560c01b606082015260800190565b634e487b7160e01b600052604160045260246000fd5b80820281158282048414176113a5576113a56147cf565b60208082526021908201527f546f6b656e206973206e6f7420617661696c61626c6520666f722052656e74616040820152601b60fa1b606082015260800190565b6001600160401b03818116838216028082169190828114614913576149136147cf565b505092915050565b60008261493857634e487b7160e01b600052601260045260246000fd5b500490565b60006020828403121561494f57600080fd5b81516146c281614372565b60006020828403121561496c57600080fd5b81516146c2816146c956fea264697066735822122062d03fe349620818877d61e6956536b651d59a0f5576be702a50e5bf130b0ded64736f6c63430008110033",
  "linkReferences": {},
  "deployedLinkReferences": {}
}