{
  "_format": "hh-sol-artifact-1",
  "contractName": "ERC4907Wrapper",
  "sourceName": "contracts/ERC4907/ERC4907Wrapper.sol",
  "abi": [
    {
      "inputs": [
        {
          "internalType": "string",
          "name": "_name",
          "type": "string"
        },
        {
          "internalType": "string",
          "name": "_symbol",
          "type": "string"
        }
      ],
      "stateMutability": "nonpayable",
      "type": "constructor"
    },
    {
      "anonymous": false,
      "inputs": [
        {
          "indexed": true,
          "internalType": "address",
          "name": "owner",
          "type": "address"
        },
        {
          "indexed": true,
          "internalType": "address",
          "name": "approved",
          "type": "address"
        },
        {
          "indexed": true,
          "internalType": "uint256",
          "name": "tokenId",
          "type": "uint256"
        }
      ],
      "name": "Approval",
      "type": "event"
    },
    {
      "anonymous": false,
      "inputs": [
        {
          "indexed": true,
          "internalType": "address",
          "name": "owner",
          "type": "address"
        },
        {
          "indexed": true,
          "internalType": "address",
          "name": "operator",
          "type": "address"
        },
        {
          "indexed": false,
          "internalType": "bool",
          "name": "approved",
          "type": "bool"
        }
      ],
      "name": "ApprovalForAll",
      "type": "event"
    },
    {
      "anonymous": false,
      "inputs": [
        {
          "indexed": false,
          "internalType": "address",
          "name": "nftAddress",
          "type": "address"
        },
        {
          "indexed": false,
          "internalType": "uint256",
          "name": "tokenId",
          "type": "uint256"
        }
      ],
      "name": "TokenUnWrapped",
      "type": "event"
    },
    {
      "anonymous": false,
      "inputs": [
        {
          "indexed": false,
          "internalType": "address",
          "name": "nftAddress",
          "type": "address"
        },
        {
          "indexed": false,
          "internalType": "uint256",
          "name": "tokenId",
          "type": "uint256"
        }
      ],
      "name": "TokenWrapped",
      "type": "event"
    },
    {
      "anonymous": false,
      "inputs": [
        {
          "indexed": true,
          "internalType": "address",
          "name": "from",
          "type": "address"
        },
        {
          "indexed": true,
          "internalType": "address",
          "name": "to",
          "type": "address"
        },
        {
          "indexed": true,
          "internalType": "uint256",
          "name": "tokenId",
          "type": "uint256"
        }
      ],
      "name": "Transfer",
      "type": "event"
    },
    {
      "anonymous": false,
      "inputs": [
        {
          "indexed": true,
          "internalType": "uint256",
          "name": "tokenId",
          "type": "uint256"
        },
        {
          "indexed": true,
          "internalType": "address",
          "name": "user",
          "type": "address"
        },
        {
          "indexed": false,
          "internalType": "uint64",
          "name": "expires",
          "type": "uint64"
        }
      ],
      "name": "UpdateUser",
      "type": "event"
    },
    {
      "inputs": [],
      "name": "InterfaceIERC4907",
      "outputs": [
        {
          "internalType": "bytes4",
          "name": "",
          "type": "bytes4"
        }
      ],
      "stateMutability": "view",
      "type": "function"
    },
    {
      "inputs": [
        {
          "internalType": "address",
          "name": "to",
          "type": "address"
        },
        {
          "internalType": "uint256",
          "name": "tokenId",
          "type": "uint256"
        }
      ],
      "name": "approve",
      "outputs": [],
      "stateMutability": "nonpayable",
      "type": "function"
    },
    {
      "inputs": [
        {
          "internalType": "address",
          "name": "owner",
          "type": "address"
        }
      ],
      "name": "balanceOf",
      "outputs": [
        {
          "internalType": "uint256",
          "name": "",
          "type": "uint256"
        }
      ],
      "stateMutability": "view",
      "type": "function"
    },
    {
      "inputs": [],
      "name": "getAddress",
      "outputs": [
        {
          "internalType": "address",
          "name": "",
          "type": "address"
        }
      ],
      "stateMutability": "view",
      "type": "function"
    },
    {
      "inputs": [
        {
          "internalType": "uint256",
          "name": "tokenId",
          "type": "uint256"
        }
      ],
      "name": "getApproved",
      "outputs": [
        {
          "internalType": "address",
          "name": "",
          "type": "address"
        }
      ],
      "stateMutability": "view",
      "type": "function"
    },
    {
      "inputs": [
        {
          "internalType": "address",
          "name": "owner",
          "type": "address"
        },
        {
          "internalType": "address",
          "name": "operator",
          "type": "address"
        }
      ],
      "name": "isApprovedForAll",
      "outputs": [
        {
          "internalType": "bool",
          "name": "",
          "type": "bool"
        }
      ],
      "stateMutability": "view",
      "type": "function"
    },
    {
      "inputs": [],
      "name": "name",
      "outputs": [
        {
          "internalType": "string",
          "name": "",
          "type": "string"
        }
      ],
      "stateMutability": "view",
      "type": "function"
    },
    {
      "inputs": [
        {
          "internalType": "address",
          "name": "operator",
          "type": "address"
        },
        {
          "internalType": "address",
          "name": "from",
          "type": "address"
        },
        {
          "internalType": "uint256",
          "name": "tokenId",
          "type": "uint256"
        },
        {
          "internalType": "bytes",
          "name": "data",
          "type": "bytes"
        }
      ],
      "name": "onERC721Received",
      "outputs": [
        {
          "internalType": "bytes4",
          "name": "",
          "type": "bytes4"
        }
      ],
      "stateMutability": "nonpayable",
      "type": "function"
    },
    {
      "inputs": [
        {
          "internalType": "uint256",
          "name": "tokenId",
          "type": "uint256"
        }
      ],
      "name": "ownerOf",
      "outputs": [
        {
          "internalType": "address",
          "name": "",
          "type": "address"
        }
      ],
      "stateMutability": "view",
      "type": "function"
    },
    {
      "inputs": [
        {
          "internalType": "address",
          "name": "from",
          "type": "address"
        },
        {
          "internalType": "address",
          "name": "to",
          "type": "address"
        },
        {
          "internalType": "uint256",
          "name": "tokenId",
          "type": "uint256"
        }
      ],
      "name": "safeTransferFrom",
      "outputs": [],
      "stateMutability": "nonpayable",
      "type": "function"
    },
    {
      "inputs": [
        {
          "internalType": "address",
          "name": "from",
          "type": "address"
        },
        {
          "internalType": "address",
          "name": "to",
          "type": "address"
        },
        {
          "internalType": "uint256",
          "name": "tokenId",
          "type": "uint256"
        },
        {
          "internalType": "bytes",
          "name": "data",
          "type": "bytes"
        }
      ],
      "name": "safeTransferFrom",
      "outputs": [],
      "stateMutability": "nonpayable",
      "type": "function"
    },
    {
      "inputs": [
        {
          "internalType": "address",
          "name": "operator",
          "type": "address"
        },
        {
          "internalType": "bool",
          "name": "approved",
          "type": "bool"
        }
      ],
      "name": "setApprovalForAll",
      "outputs": [],
      "stateMutability": "nonpayable",
      "type": "function"
    },
    {
      "inputs": [
        {
          "internalType": "uint256",
          "name": "tokenId",
          "type": "uint256"
        },
        {
          "internalType": "address",
          "name": "user",
          "type": "address"
        },
        {
          "internalType": "uint64",
          "name": "expires",
          "type": "uint64"
        }
      ],
      "name": "setUser",
      "outputs": [],
      "stateMutability": "nonpayable",
      "type": "function"
    },
    {
      "inputs": [
        {
          "internalType": "bytes4",
          "name": "interfaceId",
          "type": "bytes4"
        }
      ],
      "name": "supportsInterface",
      "outputs": [
        {
          "internalType": "bool",
          "name": "",
          "type": "bool"
        }
      ],
      "stateMutability": "view",
      "type": "function"
    },
    {
      "inputs": [],
      "name": "symbol",
      "outputs": [
        {
          "internalType": "string",
          "name": "",
          "type": "string"
        }
      ],
      "stateMutability": "view",
      "type": "function"
    },
    {
      "inputs": [
        {
          "internalType": "address",
          "name": "owner",
          "type": "address"
        },
        {
          "internalType": "uint256",
          "name": "index",
          "type": "uint256"
        }
      ],
      "name": "tokenOfOwnerByIndex",
      "outputs": [
        {
          "internalType": "uint256",
          "name": "",
          "type": "uint256"
        }
      ],
      "stateMutability": "view",
      "type": "function"
    },
    {
      "inputs": [
        {
          "internalType": "uint256",
          "name": "tokenId",
          "type": "uint256"
        }
      ],
      "name": "tokenURI",
      "outputs": [
        {
          "internalType": "string",
          "name": "",
          "type": "string"
        }
      ],
      "stateMutability": "view",
      "type": "function"
    },
    {
      "inputs": [
        {
          "internalType": "address",
          "name": "from",
          "type": "address"
        },
        {
          "internalType": "address",
          "name": "to",
          "type": "address"
        },
        {
          "internalType": "uint256",
          "name": "tokenId",
          "type": "uint256"
        }
      ],
      "name": "transferFrom",
      "outputs": [],
      "stateMutability": "nonpayable",
      "type": "function"
    },
    {
      "inputs": [
        {
          "internalType": "uint256",
          "name": "tokenId",
          "type": "uint256"
        }
      ],
      "name": "unwrapToken",
      "outputs": [],
      "stateMutability": "nonpayable",
      "type": "function"
    },
    {
      "inputs": [
        {
          "internalType": "uint256",
          "name": "tokenId",
          "type": "uint256"
        }
      ],
      "name": "userExpires",
      "outputs": [
        {
          "internalType": "uint256",
          "name": "",
          "type": "uint256"
        }
      ],
      "stateMutability": "view",
      "type": "function"
    },
    {
      "inputs": [
        {
          "internalType": "uint256",
          "name": "tokenId",
          "type": "uint256"
        }
      ],
      "name": "userOf",
      "outputs": [
        {
          "internalType": "address",
          "name": "",
          "type": "address"
        }
      ],
      "stateMutability": "view",
      "type": "function"
    },
    {
      "inputs": [
        {
          "internalType": "address",
          "name": "_nftAddress",
          "type": "address"
        },
        {
          "internalType": "uint256",
          "name": "tokenId",
          "type": "uint256"
        }
      ],
      "name": "wrapToken",
      "outputs": [],
      "stateMutability": "nonpayable",
      "type": "function"
    }
  ],
  "bytecode": "0x60806040523480156200001157600080fd5b50604051620023b8380380620023b883398101604081905262000034916200014e565b81818181600062000046838262000247565b50600162000055828262000247565b505060016008555050600a805460ff60a01b1933166001600160a81b031990911617600160a01b1790555062000313915050565b634e487b7160e01b600052604160045260246000fd5b600082601f830112620000b157600080fd5b81516001600160401b0380821115620000ce57620000ce62000089565b604051601f8301601f19908116603f01168101908282118183101715620000f957620000f962000089565b816040528381526020925086838588010111156200011657600080fd5b600091505b838210156200013a57858201830151818301840152908201906200011b565b600093810190920192909252949350505050565b600080604083850312156200016257600080fd5b82516001600160401b03808211156200017a57600080fd5b62000188868387016200009f565b935060208501519150808211156200019f57600080fd5b50620001ae858286016200009f565b9150509250929050565b600181811c90821680620001cd57607f821691505b602082108103620001ee57634e487b7160e01b600052602260045260246000fd5b50919050565b601f8211156200024257600081815260208120601f850160051c810160208610156200021d5750805b601f850160051c820191505b818110156200023e5782815560010162000229565b5050505b505050565b81516001600160401b0381111562000263576200026362000089565b6200027b81620002748454620001b8565b84620001f4565b602080601f831160018114620002b357600084156200029a5750858301515b600019600386901b1c1916600185901b1785556200023e565b600085815260208120601f198616915b82811015620002e457888601518255948401946001909101908401620002c3565b5085821015620003035787850151600019600388901b60f8161c191681555b5050505050600190811b01905550565b61209580620003236000396000f3fe608060405234801561001057600080fd5b50600436106101425760003560e01c806370a08231116100b8578063a22cb4651161007c578063a22cb465146102dc578063b88d4fde146102ef578063c2f1f14a14610302578063c87b56dd14610315578063e030565e14610328578063e985e9c51461033b57600080fd5b806370a082311461026f57806377b8ed1e146102825780638fc88c4814610290578063940997f7146102c157806395d89b41146102d457600080fd5b806323b872dd1161010a57806323b872dd146101fc5780632f745c591461020f57806338cc48311461023057806342842e0e14610236578063460b53e3146102495780636352211e1461025c57600080fd5b806301ffc9a71461014757806306fdde031461016f578063081812fc14610184578063095ea7b3146101af578063150b7a02146101c4575b600080fd5b61015a610155366004611a50565b610377565b60405190151581526020015b60405180910390f35b6101776103a2565b6040516101669190611abd565b610197610192366004611ad0565b610434565b6040516001600160a01b039091168152602001610166565b6101c26101bd366004611afe565b61045b565b005b6101e36101d2366004611b2a565b630a85bd0160e11b95945050505050565b6040516001600160e01b03199091168152602001610166565b6101c261020a366004611bc9565b610575565b61022261021d366004611afe565b6105a6565b604051908152602001610166565b30610197565b6101c2610244366004611bc9565b6106e2565b6101c2610257366004611afe565b6106fd565b61019761026a366004611ad0565b61096c565b61022261027d366004611c0a565b6109cc565b6101e3632b424ad760e21b81565b61022261029e366004611ad0565b600090815260066020526040902054600160a01b900467ffffffffffffffff1690565b6101c26102cf366004611ad0565b610ac2565b610177610cd9565b6101c26102ea366004611c27565b610ce8565b6101c26102fd366004611c7b565b610cf3565b610197610310366004611ad0565b610d2b565b610177610323366004611ad0565b610d76565b6101c2610336366004611d5b565b610d81565b61015a610349366004611daa565b6001600160a01b03918216600090815260056020908152604080832093909416825291909152205460ff1690565b60006001600160e01b03198216632b424ad760e21b148061039c575061039c82610ec5565b92915050565b6060600080546103b190611dd8565b80601f01602080910402602001604051908101604052809291908181526020018280546103dd90611dd8565b801561042a5780601f106103ff5761010080835404028352916020019161042a565b820191906000526020600020905b81548152906001019060200180831161040d57829003601f168201915b5050505050905090565b600061043f82610eea565b506000908152600460205260409020546001600160a01b031690565b60006104668261096c565b9050806001600160a01b0316836001600160a01b0316036104d85760405162461bcd60e51b815260206004820152602160248201527f4552433732313a20617070726f76616c20746f2063757272656e74206f776e656044820152603960f91b60648201526084015b60405180910390fd5b336001600160a01b03821614806104f457506104f48133610349565b6105665760405162461bcd60e51b815260206004820152603d60248201527f4552433732313a20617070726f76652063616c6c6572206973206e6f7420746f60448201527f6b656e206f776e6572206f7220617070726f76656420666f7220616c6c00000060648201526084016104cf565b6105708383610f49565b505050565b61057f3382610fb7565b61059b5760405162461bcd60e51b81526004016104cf90611e12565b610570838383611036565b60006105b1836109cc565b82106105ff5760405162461bcd60e51b815260206004820152601c60248201527f455243343930373a20496e646578206f7574206f6620626f756e64730000000060448201526064016104cf565b600061060a846111a7565b90508083101561068c57604051632f745c5960e01b81526001600160a01b038516600482018190526024820185905290632f745c5990604401602060405180830381865afa158015610660573d6000803e3d6000fd5b505050506040513d601f19601f820116820180604052508101906106849190611e5f565b91505061039c565b60006106988285611e8e565b6001600160a01b0386166000908152600760205260409020805491925090829081106106c6576106c6611ea1565b9060005260206000209060020201600001549250505092915050565b61057083838360405180602001604052806000815250610cf3565b600a54600160a01b900460ff16151560011461075b5760405162461bcd60e51b815260206004820152601d60248201527f5772617070696e6720686173206e6f74206265656e20726573756d656400000060448201526064016104cf565b6107636111eb565b6040516331a9108f60e11b8152600481018290526000906001600160a01b03841690636352211e90602401602060405180830381865afa1580156107ab573d6000803e3d6000fd5b505050506040513d601f19601f820116820180604052508101906107cf9190611eb7565b90506001600160a01b03811633146108295760405162461bcd60e51b815260206004820152601960248201527f4f6e6c79206f776e65722063616e207772617020746f6b656e0000000000000060448201526064016104cf565b600061083460095490565b604051632142170760e11b8152336004820152306024820152604481018590529091506001600160a01b038516906342842e0e90606401600060405180830381600087803b15801561088557600080fd5b505af1158015610899573d6000803e3d6000fd5b505050506108a73382611244565b604080516060810182526001600160a01b0380871682526020808301878152338486019081526000878152600b90935294909120925183549083166001600160a01b031991821617845590516001840155925160029092018054929091169190921617905561091a600980546001019055565b604080516001600160a01b0386168152602081018390527f2273a99739c31a37346636a3013c2cedebee7cd5b4c560faded39d298c1dd45c910160405180910390a150506109686001600855565b5050565b6000818152600260205260408120546001600160a01b03168061039c5760405162461bcd60e51b8152602060048201526018602482015277115490cdcc8c4e881a5b9d985b1a59081d1bdad95b88125160421b60448201526064016104cf565b60006001600160a01b0382166109f45760405162461bcd60e51b81526004016104cf90611ed4565b60006109ff836111a7565b6001600160a01b038416600090815260076020526040812054919250805b82811015610aab576001600160a01b0386166000908152600760205260408120805483908110610a4f57610a4f611ea1565b600091825260209182902060408051808201909152600290920201805482526001015467ffffffffffffffff1691810182905291504211610a9857610a95600184611f1d565b92505b5080610aa381611f30565b915050610a1d565b506000610ab88285611f1d565b9695505050505050565b610aca6111eb565b6000818152600b6020526040908190208054600182015492516331a9108f60e11b815291926001600160a01b039091169130918391636352211e91610b159160040190815260200190565b602060405180830381865afa158015610b32573d6000803e3d6000fd5b505050506040513d601f19601f82011682018060405250810190610b569190611eb7565b6001600160a01b031614610bb65760405162461bcd60e51b815260206004820152602160248201527f496e76616c6964207772617070656420746f6b656e49642070726f76696465646044820152601760f91b60648201526084016104cf565b60028201546001600160a01b03163314610c125760405162461bcd60e51b815260206004820152601e60248201527f4f6e6c79206f726967696e616c206f776e65722063616e20756e77726170000060448201526064016104cf565b610c1b8361125e565b8154604051632142170760e11b8152306004820152336024820152604481018590526001600160a01b03909116906342842e0e90606401600060405180830381600087803b158015610c6c57600080fd5b505af1158015610c80573d6000803e3d6000fd5b50508354604080516001600160a01b039092168252602082018790527feccdd2138cf9b77bd01ea625b20f5ce098bcf23bc855ed4c71526fdba9612141935001905060405180910390a15050610cd66001600855565b50565b6060600180546103b190611dd8565b610968338383611267565b610cfd3383610fb7565b610d195760405162461bcd60e51b81526004016104cf90611e12565b610d2584848484611335565b50505050565b60008181526006602052604081205442600160a01b90910467ffffffffffffffff1610610d6e57506000908152600660205260409020546001600160a01b031690565b506000919050565b606061039c82611368565b610d8b3384610fb7565b610df15760405162461bcd60e51b815260206004820152603160248201527f4552433732313a207472616e736665722063616c6c6572206973206e6f74206f6044820152701ddb995c881b9bdc88185c1c1c9bdd9959607a1b60648201526084016104cf565b600083815260066020908152604080832080546001600160a01b0387166001600160e01b03199091168117600160a01b67ffffffffffffffff888116918202929092178455845180860186528a815280870182815284895260078852868920805460018181018355918b529989902083516002909b0201998a5590519801805467ffffffffffffffff191698909316979097179091559251928352909392909187917f4e06b4e7000e659094299b3533b47b6aa8ad048e95e872d23d1f4ee55af89cfe910160405180910390a35050505050565b60006001600160e01b03198216632b424ad760e21b148061039c575061039c826113dc565b6000818152600260205260409020546001600160a01b0316610cd65760405162461bcd60e51b8152602060048201526018602482015277115490cdcc8c4e881a5b9d985b1a59081d1bdad95b88125160421b60448201526064016104cf565b600081815260046020526040902080546001600160a01b0319166001600160a01b0384169081179091558190610f7e8261096c565b6001600160a01b03167f8c5be1e5ebec7d5bd14f71427d1e84f3dd0314c0f7b2291e5b200ac8c7c3b92560405160405180910390a45050565b600080610fc38361096c565b9050806001600160a01b0316846001600160a01b0316148061100a57506001600160a01b0380821660009081526005602090815260408083209388168352929052205460ff165b8061102e5750836001600160a01b031661102384610434565b6001600160a01b0316145b949350505050565b826001600160a01b03166110498261096c565b6001600160a01b03161461106f5760405162461bcd60e51b81526004016104cf90611f49565b6001600160a01b0382166110d15760405162461bcd60e51b8152602060048201526024808201527f4552433732313a207472616e7366657220746f20746865207a65726f206164646044820152637265737360e01b60648201526084016104cf565b6110de838383600161142c565b826001600160a01b03166110f18261096c565b6001600160a01b0316146111175760405162461bcd60e51b81526004016104cf90611f49565b600081815260046020908152604080832080546001600160a01b03199081169091556001600160a01b0387811680865260038552838620805460001901905590871680865283862080546001019055868652600290945282852080549092168417909155905184937fddf252ad1be2c89b69c2b068fc378daa952ba7f163c4a11628f55a4df523b3ef91a4505050565b60006001600160a01b0382166111cf5760405162461bcd60e51b81526004016104cf90611ed4565b506001600160a01b031660009081526003602052604090205490565b60026008540361123d5760405162461bcd60e51b815260206004820152601f60248201527f5265656e7472616e637947756172643a207265656e7472616e742063616c6c0060448201526064016104cf565b6002600855565b6109688282604051806020016040528060008152506114cb565b610cd6816114fe565b816001600160a01b0316836001600160a01b0316036112c85760405162461bcd60e51b815260206004820152601960248201527f4552433732313a20617070726f766520746f2063616c6c65720000000000000060448201526064016104cf565b6001600160a01b03838116600081815260056020908152604080832094871680845294825291829020805460ff191686151590811790915591519182527f17307eab39ab6107e8899845ad3d59bd9653f200f220920489ca2b5937696c31910160405180910390a3505050565b611340848484611036565b61134c848484846115a1565b610d255760405162461bcd60e51b81526004016104cf90611f8e565b606061137382610eea565b600061138a60408051602081019091526000815290565b905060008151116113aa57604051806020016040528060008152506113d5565b806113b4846116a2565b6040516020016113c5929190611fe0565b6040516020818303038152906040525b9392505050565b60006001600160e01b031982166380ac58cd60e01b148061140d57506001600160e01b03198216635b5e139f60e01b145b8061039c57506301ffc9a760e01b6001600160e01b031983161461039c565b61143884848484611735565b826001600160a01b0316846001600160a01b03161415801561147057506000828152600660205260409020546001600160a01b031615155b15610d2557600082815260066020908152604080832080546001600160e01b03191690555182815284917f4e06b4e7000e659094299b3533b47b6aa8ad048e95e872d23d1f4ee55af89cfe910160405180910390a350505050565b6114d58383611741565b6114e260008484846115a1565b6105705760405162461bcd60e51b81526004016104cf90611f8e565b60006115098261096c565b905061151981600084600161142c565b6115228261096c565b600083815260046020908152604080832080546001600160a01b03199081169091556001600160a01b0385168085526003845282852080546000190190558785526002909352818420805490911690555192935084927fddf252ad1be2c89b69c2b068fc378daa952ba7f163c4a11628f55a4df523b3ef908390a45050565b60006001600160a01b0384163b1561169757604051630a85bd0160e11b81526001600160a01b0385169063150b7a02906115e590339089908890889060040161200f565b6020604051808303816000875af1925050508015611620575060408051601f3d908101601f1916820190925261161d91810190612042565b60015b61167d573d80801561164e576040519150601f19603f3d011682016040523d82523d6000602084013e611653565b606091505b5080516000036116755760405162461bcd60e51b81526004016104cf90611f8e565b805181602001fd5b6001600160e01b031916630a85bd0160e11b14905061102e565b506001949350505050565b606060006116af836118da565b600101905060008167ffffffffffffffff8111156116cf576116cf611c65565b6040519080825280601f01601f1916602001820160405280156116f9576020820181803683370190505b5090508181016020015b600019016f181899199a1a9b1b9c1cb0b131b232b360811b600a86061a8153600a850494508461170357509392505050565b611438848484846119b2565b6001600160a01b0382166117975760405162461bcd60e51b815260206004820181905260248201527f4552433732313a206d696e7420746f20746865207a65726f206164647265737360448201526064016104cf565b6000818152600260205260409020546001600160a01b0316156117fc5760405162461bcd60e51b815260206004820152601c60248201527f4552433732313a20746f6b656e20616c7265616479206d696e7465640000000060448201526064016104cf565b61180a60008383600161142c565b6000818152600260205260409020546001600160a01b03161561186f5760405162461bcd60e51b815260206004820152601c60248201527f4552433732313a20746f6b656e20616c7265616479206d696e7465640000000060448201526064016104cf565b6001600160a01b038216600081815260036020908152604080832080546001019055848352600290915280822080546001600160a01b0319168417905551839291907fddf252ad1be2c89b69c2b068fc378daa952ba7f163c4a11628f55a4df523b3ef908290a45050565b60008072184f03e93ff9f4daa797ed6e38ed64bf6a1f0160401b83106119195772184f03e93ff9f4daa797ed6e38ed64bf6a1f0160401b830492506040015b6d04ee2d6d415b85acef81000000008310611945576d04ee2d6d415b85acef8100000000830492506020015b662386f26fc10000831061196357662386f26fc10000830492506010015b6305f5e100831061197b576305f5e100830492506008015b612710831061198f57612710830492506004015b606483106119a1576064830492506002015b600a831061039c5760010192915050565b6001811115610d25576001600160a01b038416156119f8576001600160a01b038416600090815260036020526040812080548392906119f2908490611e8e565b90915550505b6001600160a01b03831615610d25576001600160a01b03831660009081526003602052604081208054839290611a2f908490611f1d565b909155505050505050565b6001600160e01b031981168114610cd657600080fd5b600060208284031215611a6257600080fd5b81356113d581611a3a565b60005b83811015611a88578181015183820152602001611a70565b50506000910152565b60008151808452611aa9816020860160208601611a6d565b601f01601f19169290920160200192915050565b6020815260006113d56020830184611a91565b600060208284031215611ae257600080fd5b5035919050565b6001600160a01b0381168114610cd657600080fd5b60008060408385031215611b1157600080fd5b8235611b1c81611ae9565b946020939093013593505050565b600080600080600060808688031215611b4257600080fd5b8535611b4d81611ae9565b94506020860135611b5d81611ae9565b935060408601359250606086013567ffffffffffffffff80821115611b8157600080fd5b818801915088601f830112611b9557600080fd5b813581811115611ba457600080fd5b896020828501011115611bb657600080fd5b9699959850939650602001949392505050565b600080600060608486031215611bde57600080fd5b8335611be981611ae9565b92506020840135611bf981611ae9565b929592945050506040919091013590565b600060208284031215611c1c57600080fd5b81356113d581611ae9565b60008060408385031215611c3a57600080fd5b8235611c4581611ae9565b915060208301358015158114611c5a57600080fd5b809150509250929050565b634e487b7160e01b600052604160045260246000fd5b60008060008060808587031215611c9157600080fd5b8435611c9c81611ae9565b93506020850135611cac81611ae9565b925060408501359150606085013567ffffffffffffffff80821115611cd057600080fd5b818701915087601f830112611ce457600080fd5b813581811115611cf657611cf6611c65565b604051601f8201601f19908116603f01168101908382118183101715611d1e57611d1e611c65565b816040528281528a6020848701011115611d3757600080fd5b82602086016020830137600060208483010152809550505050505092959194509250565b600080600060608486031215611d7057600080fd5b833592506020840135611d8281611ae9565b9150604084013567ffffffffffffffff81168114611d9f57600080fd5b809150509250925092565b60008060408385031215611dbd57600080fd5b8235611dc881611ae9565b91506020830135611c5a81611ae9565b600181811c90821680611dec57607f821691505b602082108103611e0c57634e487b7160e01b600052602260045260246000fd5b50919050565b6020808252602d908201527f4552433732313a2063616c6c6572206973206e6f7420746f6b656e206f776e6560408201526c1c881bdc88185c1c1c9bdd9959609a1b606082015260800190565b600060208284031215611e7157600080fd5b5051919050565b634e487b7160e01b600052601160045260246000fd5b8181038181111561039c5761039c611e78565b634e487b7160e01b600052603260045260246000fd5b600060208284031215611ec957600080fd5b81516113d581611ae9565b60208082526029908201527f4552433732313a2061646472657373207a65726f206973206e6f7420612076616040820152683634b21037bbb732b960b91b606082015260800190565b8082018082111561039c5761039c611e78565b600060018201611f4257611f42611e78565b5060010190565b60208082526025908201527f4552433732313a207472616e736665722066726f6d20696e636f72726563742060408201526437bbb732b960d91b606082015260800190565b60208082526032908201527f4552433732313a207472616e7366657220746f206e6f6e20455243373231526560408201527131b2b4bb32b91034b6b83632b6b2b73a32b960711b606082015260800190565b60008351611ff2818460208801611a6d565b835190830190612006818360208801611a6d565b01949350505050565b6001600160a01b0385811682528416602082015260408101839052608060608201819052600090610ab890830184611a91565b60006020828403121561205457600080fd5b81516113d581611a3a56fea26469706673582212201bf65e39429fd85b3457ac46b06a1d04cb3d58b0dfd4892481bb2bfe4d13fe8864736f6c63430008110033",
  "linkReferences": {},
  "deployedLinkReferences": {}
}