{
  "_format": "hh-sol-artifact-1",
  "contractName": "RentableNFT",
  "sourceName": "contracts/RentableNFT.sol",
  "abi": [
    {
      "inputs": [
        {
          "internalType": "string",
          "name": "_name",
          "type": "string"
        },
        {
          "internalType": "string",
          "name": "_symbol",
          "type": "string"
        }
      ],
      "stateMutability": "nonpayable",
      "type": "constructor"
    },
    {
      "anonymous": false,
      "inputs": [
        {
          "indexed": true,
          "internalType": "address",
          "name": "owner",
          "type": "address"
        },
        {
          "indexed": true,
          "internalType": "address",
          "name": "approved",
          "type": "address"
        },
        {
          "indexed": true,
          "internalType": "uint256",
          "name": "tokenId",
          "type": "uint256"
        }
      ],
      "name": "Approval",
      "type": "event"
    },
    {
      "anonymous": false,
      "inputs": [
        {
          "indexed": true,
          "internalType": "address",
          "name": "owner",
          "type": "address"
        },
        {
          "indexed": true,
          "internalType": "address",
          "name": "operator",
          "type": "address"
        },
        {
          "indexed": false,
          "internalType": "bool",
          "name": "approved",
          "type": "bool"
        }
      ],
      "name": "ApprovalForAll",
      "type": "event"
    },
    {
      "anonymous": false,
      "inputs": [
        {
          "indexed": true,
          "internalType": "address",
          "name": "from",
          "type": "address"
        },
        {
          "indexed": true,
          "internalType": "address",
          "name": "to",
          "type": "address"
        },
        {
          "indexed": true,
          "internalType": "uint256",
          "name": "tokenId",
          "type": "uint256"
        }
      ],
      "name": "Transfer",
      "type": "event"
    },
    {
      "anonymous": false,
      "inputs": [
        {
          "indexed": true,
          "internalType": "uint256",
          "name": "tokenId",
          "type": "uint256"
        },
        {
          "indexed": true,
          "internalType": "address",
          "name": "user",
          "type": "address"
        },
        {
          "indexed": false,
          "internalType": "uint64",
          "name": "expires",
          "type": "uint64"
        }
      ],
      "name": "UpdateUser",
      "type": "event"
    },
    {
      "inputs": [
        {
          "internalType": "address",
          "name": "to",
          "type": "address"
        },
        {
          "internalType": "uint256",
          "name": "tokenId",
          "type": "uint256"
        }
      ],
      "name": "approve",
      "outputs": [],
      "stateMutability": "nonpayable",
      "type": "function"
    },
    {
      "inputs": [
        {
          "internalType": "address",
          "name": "user",
          "type": "address"
        }
      ],
      "name": "approveUser",
      "outputs": [],
      "stateMutability": "nonpayable",
      "type": "function"
    },
    {
      "inputs": [
        {
          "internalType": "address",
          "name": "owner",
          "type": "address"
        }
      ],
      "name": "balanceOf",
      "outputs": [
        {
          "internalType": "uint256",
          "name": "",
          "type": "uint256"
        }
      ],
      "stateMutability": "view",
      "type": "function"
    },
    {
      "inputs": [
        {
          "internalType": "uint256",
          "name": "tokenId",
          "type": "uint256"
        }
      ],
      "name": "getApproved",
      "outputs": [
        {
          "internalType": "address",
          "name": "",
          "type": "address"
        }
      ],
      "stateMutability": "view",
      "type": "function"
    },
    {
      "inputs": [
        {
          "internalType": "address",
          "name": "owner",
          "type": "address"
        },
        {
          "internalType": "address",
          "name": "operator",
          "type": "address"
        }
      ],
      "name": "isApprovedForAll",
      "outputs": [
        {
          "internalType": "bool",
          "name": "",
          "type": "bool"
        }
      ],
      "stateMutability": "view",
      "type": "function"
    },
    {
      "inputs": [
        {
          "internalType": "address",
          "name": "to",
          "type": "address"
        },
        {
          "internalType": "string",
          "name": "_tokenURI",
          "type": "string"
        }
      ],
      "name": "mint",
      "outputs": [],
      "stateMutability": "nonpayable",
      "type": "function"
    },
    {
      "inputs": [],
      "name": "name",
      "outputs": [
        {
          "internalType": "string",
          "name": "",
          "type": "string"
        }
      ],
      "stateMutability": "view",
      "type": "function"
    },
    {
      "inputs": [
        {
          "internalType": "uint256",
          "name": "tokenId",
          "type": "uint256"
        }
      ],
      "name": "ownerOf",
      "outputs": [
        {
          "internalType": "address",
          "name": "",
          "type": "address"
        }
      ],
      "stateMutability": "view",
      "type": "function"
    },
    {
      "inputs": [
        {
          "internalType": "uint256",
          "name": "_tokenId",
          "type": "uint256"
        },
        {
          "internalType": "address",
          "name": "_user",
          "type": "address"
        },
        {
          "internalType": "uint64",
          "name": "_expires",
          "type": "uint64"
        }
      ],
      "name": "rent",
      "outputs": [],
      "stateMutability": "nonpayable",
      "type": "function"
    },
    {
      "inputs": [
        {
          "internalType": "address",
          "name": "from",
          "type": "address"
        },
        {
          "internalType": "address",
          "name": "to",
          "type": "address"
        },
        {
          "internalType": "uint256",
          "name": "tokenId",
          "type": "uint256"
        }
      ],
      "name": "safeTransferFrom",
      "outputs": [],
      "stateMutability": "nonpayable",
      "type": "function"
    },
    {
      "inputs": [
        {
          "internalType": "address",
          "name": "from",
          "type": "address"
        },
        {
          "internalType": "address",
          "name": "to",
          "type": "address"
        },
        {
          "internalType": "uint256",
          "name": "tokenId",
          "type": "uint256"
        },
        {
          "internalType": "bytes",
          "name": "data",
          "type": "bytes"
        }
      ],
      "name": "safeTransferFrom",
      "outputs": [],
      "stateMutability": "nonpayable",
      "type": "function"
    },
    {
      "inputs": [
        {
          "internalType": "address",
          "name": "operator",
          "type": "address"
        },
        {
          "internalType": "bool",
          "name": "approved",
          "type": "bool"
        }
      ],
      "name": "setApprovalForAll",
      "outputs": [],
      "stateMutability": "nonpayable",
      "type": "function"
    },
    {
      "inputs": [
        {
          "internalType": "uint256",
          "name": "tokenId",
          "type": "uint256"
        },
        {
          "internalType": "address",
          "name": "user",
          "type": "address"
        },
        {
          "internalType": "uint64",
          "name": "expires",
          "type": "uint64"
        }
      ],
      "name": "setUser",
      "outputs": [],
      "stateMutability": "nonpayable",
      "type": "function"
    },
    {
      "inputs": [
        {
          "internalType": "bytes4",
          "name": "interfaceId",
          "type": "bytes4"
        }
      ],
      "name": "supportsInterface",
      "outputs": [
        {
          "internalType": "bool",
          "name": "",
          "type": "bool"
        }
      ],
      "stateMutability": "view",
      "type": "function"
    },
    {
      "inputs": [],
      "name": "symbol",
      "outputs": [
        {
          "internalType": "string",
          "name": "",
          "type": "string"
        }
      ],
      "stateMutability": "view",
      "type": "function"
    },
    {
      "inputs": [
        {
          "internalType": "address",
          "name": "owner",
          "type": "address"
        },
        {
          "internalType": "uint256",
          "name": "index",
          "type": "uint256"
        }
      ],
      "name": "tokenOfOwnerByIndex",
      "outputs": [
        {
          "internalType": "uint256",
          "name": "",
          "type": "uint256"
        }
      ],
      "stateMutability": "view",
      "type": "function"
    },
    {
      "inputs": [
        {
          "internalType": "uint256",
          "name": "_tokenId",
          "type": "uint256"
        }
      ],
      "name": "tokenURI",
      "outputs": [
        {
          "internalType": "string",
          "name": "",
          "type": "string"
        }
      ],
      "stateMutability": "view",
      "type": "function"
    },
    {
      "inputs": [
        {
          "internalType": "uint256",
          "name": "",
          "type": "uint256"
        }
      ],
      "name": "tokenURIs",
      "outputs": [
        {
          "internalType": "string",
          "name": "",
          "type": "string"
        }
      ],
      "stateMutability": "view",
      "type": "function"
    },
    {
      "inputs": [
        {
          "internalType": "address",
          "name": "from",
          "type": "address"
        },
        {
          "internalType": "address",
          "name": "to",
          "type": "address"
        },
        {
          "internalType": "uint256",
          "name": "tokenId",
          "type": "uint256"
        }
      ],
      "name": "transferFrom",
      "outputs": [],
      "stateMutability": "nonpayable",
      "type": "function"
    },
    {
      "inputs": [
        {
          "internalType": "uint256",
          "name": "tokenId",
          "type": "uint256"
        }
      ],
      "name": "userExpires",
      "outputs": [
        {
          "internalType": "uint256",
          "name": "",
          "type": "uint256"
        }
      ],
      "stateMutability": "view",
      "type": "function"
    },
    {
      "inputs": [
        {
          "internalType": "uint256",
          "name": "tokenId",
          "type": "uint256"
        }
      ],
      "name": "userOf",
      "outputs": [
        {
          "internalType": "address",
          "name": "",
          "type": "address"
        }
      ],
      "stateMutability": "view",
      "type": "function"
    }
  ],
  "bytecode": "0x60806040523480156200001157600080fd5b5060405162001dc138038062001dc1833981016040819052620000349162000127565b81818181600062000046838262000220565b50600162000055828262000220565b50505050505050620002ec565b634e487b7160e01b600052604160045260246000fd5b600082601f8301126200008a57600080fd5b81516001600160401b0380821115620000a757620000a762000062565b604051601f8301601f19908116603f01168101908282118183101715620000d257620000d262000062565b81604052838152602092508683858801011115620000ef57600080fd5b600091505b83821015620001135785820183015181830184015290820190620000f4565b600093810190920192909252949350505050565b600080604083850312156200013b57600080fd5b82516001600160401b03808211156200015357600080fd5b620001618683870162000078565b935060208501519150808211156200017857600080fd5b50620001878582860162000078565b9150509250929050565b600181811c90821680620001a657607f821691505b602082108103620001c757634e487b7160e01b600052602260045260246000fd5b50919050565b601f8211156200021b57600081815260208120601f850160051c81016020861015620001f65750805b601f850160051c820191505b81811015620002175782815560010162000202565b5050505b505050565b81516001600160401b038111156200023c576200023c62000062565b62000254816200024d845462000191565b84620001cd565b602080601f8311600181146200028c5760008415620002735750858301515b600019600386901b1c1916600185901b17855562000217565b600085815260208120601f198616915b82811015620002bd578886015182559484019460019091019084016200029c565b5085821015620002dc5787850151600019600388901b60f8161c191681555b5050505050600190811b01905550565b611ac580620002fc6000396000f3fe608060405234801561001057600080fd5b50600436106101375760003560e01c80638fc88c48116100b8578063c87b56dd1161007c578063c87b56dd146102ab578063d0def521146102be578063d624fdb6146102d1578063e030565e146102e4578063e985e9c5146102f7578063fdf80a991461033357600080fd5b80638fc88c481461023957806395d89b411461026a578063a22cb46514610272578063b88d4fde14610285578063c2f1f14a1461029857600080fd5b80632f745c59116100ff5780632f745c59146101cc57806342842e0e146101ed5780636352211e146102005780636c8b703f1461021357806370a082311461022657600080fd5b806301ffc9a71461013c57806306fdde0314610164578063081812fc14610179578063095ea7b3146101a457806323b872dd146101b9575b600080fd5b61014f61014a3660046113f2565b610346565b60405190151581526020015b60405180910390f35b61016c610371565b60405161015b919061145c565b61018c61018736600461146f565b610403565b6040516001600160a01b03909116815260200161015b565b6101b76101b236600461149f565b61042a565b005b6101b76101c73660046114c9565b610544565b6101df6101da36600461149f565b610575565b60405190815260200161015b565b6101b76101fb3660046114c9565b6106b1565b61018c61020e36600461146f565b6106bc565b61016c61022136600461146f565b61071c565b6101df610234366004611505565b6107b6565b6101df61024736600461146f565b600090815260066020526040902054600160a01b900467ffffffffffffffff1690565b61016c6108ac565b6101b7610280366004611520565b6108bb565b6101b76102933660046115e8565b6108ca565b61018c6102a636600461146f565b610902565b61016c6102b936600461146f565b610952565b6101b76102cc366004611664565b6109f4565b6101b76102df366004611505565b610a31565b6101b76102f23660046116c6565b610a3f565b61014f610305366004611713565b6001600160a01b03918216600090815260056020908152604080832093909416825291909152205460ff1690565b6101b76103413660046116c6565b610b83565b60006001600160e01b03198216632b424ad760e21b148061036b575061036b82610bf5565b92915050565b60606000805461038090611746565b80601f01602080910402602001604051908101604052809291908181526020018280546103ac90611746565b80156103f95780601f106103ce576101008083540402835291602001916103f9565b820191906000526020600020905b8154815290600101906020018083116103dc57829003601f168201915b5050505050905090565b600061040e82610c45565b506000908152600460205260409020546001600160a01b031690565b6000610435826106bc565b9050806001600160a01b0316836001600160a01b0316036104a75760405162461bcd60e51b815260206004820152602160248201527f4552433732313a20617070726f76616c20746f2063757272656e74206f776e656044820152603960f91b60648201526084015b60405180910390fd5b336001600160a01b03821614806104c357506104c38133610305565b6105355760405162461bcd60e51b815260206004820152603d60248201527f4552433732313a20617070726f76652063616c6c6572206973206e6f7420746f60448201527f6b656e206f776e6572206f7220617070726f76656420666f7220616c6c000000606482015260840161049e565b61053f8383610ca4565b505050565b61054e3382610d12565b61056a5760405162461bcd60e51b815260040161049e90611780565b61053f838383610d91565b6000610580836107b6565b82106105ce5760405162461bcd60e51b815260206004820152601c60248201527f455243343930373a20496e646578206f7574206f6620626f756e647300000000604482015260640161049e565b60006105d984610f02565b90508083101561065b57604051632f745c5960e01b81526001600160a01b038516600482018190526024820185905290632f745c5990604401602060405180830381865afa15801561062f573d6000803e3d6000fd5b505050506040513d601f19601f8201168201806040525081019061065391906117cd565b91505061036b565b600061066782856117fc565b6001600160a01b0386166000908152600760205260409020805491925090829081106106955761069561180f565b9060005260206000209060020201600001549250505092915050565b61053f838383610f46565b6000818152600260205260408120546001600160a01b03168061036b5760405162461bcd60e51b8152602060048201526018602482015277115490cdcc8c4e881a5b9d985b1a59081d1bdad95b88125160421b604482015260640161049e565b6009602052600090815260409020805461073590611746565b80601f016020809104026020016040519081016040528092919081815260200182805461076190611746565b80156107ae5780601f10610783576101008083540402835291602001916107ae565b820191906000526020600020905b81548152906001019060200180831161079157829003601f168201915b505050505081565b60006001600160a01b0382166107de5760405162461bcd60e51b815260040161049e90611825565b60006107e983610f02565b6001600160a01b038416600090815260076020526040812054919250805b82811015610895576001600160a01b03861660009081526007602052604081208054839081106108395761083961180f565b600091825260209182902060408051808201909152600290920201805482526001015467ffffffffffffffff16918101829052915042116108825761087f60018461186e565b92505b508061088d81611881565b915050610807565b5060006108a2828561186e565b9695505050505050565b60606001805461038090611746565b6108c6338383610f61565b5050565b6108d43383610d12565b6108f05760405162461bcd60e51b815260040161049e90611780565b6108fc8484848461102f565b50505050565b60008181526006602052604081205442600160a01b90910467ffffffffffffffff161061094557506000908152600660205260409020546001600160a01b031690565b506000919050565b919050565b600081815260096020526040902080546060919061096f90611746565b80601f016020809104026020016040519081016040528092919081815260200182805461099b90611746565b80156109e85780601f106109bd576101008083540402835291602001916109e8565b820191906000526020600020905b8154815290600101906020018083116109cb57829003601f168201915b50505050509050919050565b610a02600880546001019055565b6000610a0d60085490565b9050610a198382611062565b60008181526009602052604090206108fc83826118e8565b610a3c8160016108bb565b50565b610a493384610d12565b610aaf5760405162461bcd60e51b815260206004820152603160248201527f4552433732313a207472616e736665722063616c6c6572206973206e6f74206f6044820152701ddb995c881b9bdc88185c1c1c9bdd9959607a1b606482015260840161049e565b600083815260066020908152604080832080546001600160a01b0387166001600160e01b03199091168117600160a01b67ffffffffffffffff888116918202929092178455845180860186528a815280870182815284895260078852868920805460018181018355918b529989902083516002909b0201998a5590519801805467ffffffffffffffff191698909316979097179091559251928352909392909187917f4e06b4e7000e659094299b3533b47b6aa8ad048e95e872d23d1f4ee55af89cfe910160405180910390a35050505050565b82610b8e3382610d12565b610bea5760405162461bcd60e51b815260206004820152602760248201527f4552433732313a2043616c6c6572206973206e6f74206f776e6572206f7220616044820152661c1c1c9bdd995960ca1b606482015260840161049e565b6108fc848484610a3f565b60006001600160e01b031982166380ac58cd60e01b1480610c2657506001600160e01b03198216635b5e139f60e01b145b8061036b57506301ffc9a760e01b6001600160e01b031983161461036b565b6000818152600260205260409020546001600160a01b0316610a3c5760405162461bcd60e51b8152602060048201526018602482015277115490cdcc8c4e881a5b9d985b1a59081d1bdad95b88125160421b604482015260640161049e565b600081815260046020526040902080546001600160a01b0319166001600160a01b0384169081179091558190610cd9826106bc565b6001600160a01b03167f8c5be1e5ebec7d5bd14f71427d1e84f3dd0314c0f7b2291e5b200ac8c7c3b92560405160405180910390a45050565b600080610d1e836106bc565b9050806001600160a01b0316846001600160a01b03161480610d6557506001600160a01b0380821660009081526005602090815260408083209388168352929052205460ff165b80610d895750836001600160a01b0316610d7e84610403565b6001600160a01b0316145b949350505050565b826001600160a01b0316610da4826106bc565b6001600160a01b031614610dca5760405162461bcd60e51b815260040161049e906119a8565b6001600160a01b038216610e2c5760405162461bcd60e51b8152602060048201526024808201527f4552433732313a207472616e7366657220746f20746865207a65726f206164646044820152637265737360e01b606482015260840161049e565b610e39838383600161107c565b826001600160a01b0316610e4c826106bc565b6001600160a01b031614610e725760405162461bcd60e51b815260040161049e906119a8565b600081815260046020908152604080832080546001600160a01b03199081169091556001600160a01b0387811680865260038552838620805460001901905590871680865283862080546001019055868652600290945282852080549092168417909155905184937fddf252ad1be2c89b69c2b068fc378daa952ba7f163c4a11628f55a4df523b3ef91a4505050565b60006001600160a01b038216610f2a5760405162461bcd60e51b815260040161049e90611825565b506001600160a01b031660009081526003602052604090205490565b61053f838383604051806020016040528060008152506108ca565b816001600160a01b0316836001600160a01b031603610fc25760405162461bcd60e51b815260206004820152601960248201527f4552433732313a20617070726f766520746f2063616c6c657200000000000000604482015260640161049e565b6001600160a01b03838116600081815260056020908152604080832094871680845294825291829020805460ff191686151590811790915591519182527f17307eab39ab6107e8899845ad3d59bd9653f200f220920489ca2b5937696c31910160405180910390a3505050565b61103a848484610d91565b6110468484848461110f565b6108fc5760405162461bcd60e51b815260040161049e906119ed565b6108c6828260405180602001604052806000815250611210565b826001600160a01b0316846001600160a01b0316141580156110b457506000828152600660205260409020546001600160a01b031615155b156108fc57600082815260066020908152604080832080546001600160e01b03191690555182815284917f4e06b4e7000e659094299b3533b47b6aa8ad048e95e872d23d1f4ee55af89cfe910160405180910390a350505050565b60006001600160a01b0384163b1561120557604051630a85bd0160e11b81526001600160a01b0385169063150b7a0290611153903390899088908890600401611a3f565b6020604051808303816000875af192505050801561118e575060408051601f3d908101601f1916820190925261118b91810190611a72565b60015b6111eb573d8080156111bc576040519150601f19603f3d011682016040523d82523d6000602084013e6111c1565b606091505b5080516000036111e35760405162461bcd60e51b815260040161049e906119ed565b805181602001fd5b6001600160e01b031916630a85bd0160e11b149050610d89565b506001949350505050565b61121a8383611243565b611227600084848461110f565b61053f5760405162461bcd60e51b815260040161049e906119ed565b6001600160a01b0382166112995760405162461bcd60e51b815260206004820181905260248201527f4552433732313a206d696e7420746f20746865207a65726f2061646472657373604482015260640161049e565b6000818152600260205260409020546001600160a01b0316156112fe5760405162461bcd60e51b815260206004820152601c60248201527f4552433732313a20746f6b656e20616c7265616479206d696e74656400000000604482015260640161049e565b61130c60008383600161107c565b6000818152600260205260409020546001600160a01b0316156113715760405162461bcd60e51b815260206004820152601c60248201527f4552433732313a20746f6b656e20616c7265616479206d696e74656400000000604482015260640161049e565b6001600160a01b038216600081815260036020908152604080832080546001019055848352600290915280822080546001600160a01b0319168417905551839291907fddf252ad1be2c89b69c2b068fc378daa952ba7f163c4a11628f55a4df523b3ef908290a45050565b6001600160e01b031981168114610a3c57600080fd5b60006020828403121561140457600080fd5b813561140f816113dc565b9392505050565b6000815180845260005b8181101561143c57602081850181015186830182015201611420565b506000602082860101526020601f19601f83011685010191505092915050565b60208152600061140f6020830184611416565b60006020828403121561148157600080fd5b5035919050565b80356001600160a01b038116811461094d57600080fd5b600080604083850312156114b257600080fd5b6114bb83611488565b946020939093013593505050565b6000806000606084860312156114de57600080fd5b6114e784611488565b92506114f560208501611488565b9150604084013590509250925092565b60006020828403121561151757600080fd5b61140f82611488565b6000806040838503121561153357600080fd5b61153c83611488565b91506020830135801515811461155157600080fd5b809150509250929050565b634e487b7160e01b600052604160045260246000fd5b600067ffffffffffffffff8084111561158d5761158d61155c565b604051601f8501601f19908116603f011681019082821181831017156115b5576115b561155c565b816040528093508581528686860111156115ce57600080fd5b858560208301376000602087830101525050509392505050565b600080600080608085870312156115fe57600080fd5b61160785611488565b935061161560208601611488565b925060408501359150606085013567ffffffffffffffff81111561163857600080fd5b8501601f8101871361164957600080fd5b61165887823560208401611572565b91505092959194509250565b6000806040838503121561167757600080fd5b61168083611488565b9150602083013567ffffffffffffffff81111561169c57600080fd5b8301601f810185136116ad57600080fd5b6116bc85823560208401611572565b9150509250929050565b6000806000606084860312156116db57600080fd5b833592506116eb60208501611488565b9150604084013567ffffffffffffffff8116811461170857600080fd5b809150509250925092565b6000806040838503121561172657600080fd5b61172f83611488565b915061173d60208401611488565b90509250929050565b600181811c9082168061175a57607f821691505b60208210810361177a57634e487b7160e01b600052602260045260246000fd5b50919050565b6020808252602d908201527f4552433732313a2063616c6c6572206973206e6f7420746f6b656e206f776e6560408201526c1c881bdc88185c1c1c9bdd9959609a1b606082015260800190565b6000602082840312156117df57600080fd5b5051919050565b634e487b7160e01b600052601160045260246000fd5b8181038181111561036b5761036b6117e6565b634e487b7160e01b600052603260045260246000fd5b60208082526029908201527f4552433732313a2061646472657373207a65726f206973206e6f7420612076616040820152683634b21037bbb732b960b91b606082015260800190565b8082018082111561036b5761036b6117e6565b600060018201611893576118936117e6565b5060010190565b601f82111561053f57600081815260208120601f850160051c810160208610156118c15750805b601f850160051c820191505b818110156118e0578281556001016118cd565b505050505050565b815167ffffffffffffffff8111156119025761190261155c565b611916816119108454611746565b8461189a565b602080601f83116001811461194b57600084156119335750858301515b600019600386901b1c1916600185901b1785556118e0565b600085815260208120601f198616915b8281101561197a5788860151825594840194600190910190840161195b565b50858210156119985787850151600019600388901b60f8161c191681555b5050505050600190811b01905550565b60208082526025908201527f4552433732313a207472616e736665722066726f6d20696e636f72726563742060408201526437bbb732b960d91b606082015260800190565b60208082526032908201527f4552433732313a207472616e7366657220746f206e6f6e20455243373231526560408201527131b2b4bb32b91034b6b83632b6b2b73a32b960711b606082015260800190565b6001600160a01b03858116825284166020820152604081018390526080606082018190526000906108a290830184611416565b600060208284031215611a8457600080fd5b815161140f816113dc56fea2646970667358221220b17a6b8443d9379803789a4bd47344425037d927f78de2c330baecc1b41d891064736f6c63430008110033",
  "linkReferences": {},
  "deployedLinkReferences": {}
}