{
  "_format": "hh-sol-artifact-1",
  "contractName": "RentableNFT",
  "sourceName": "contracts/RentableNFT.sol",
  "abi": [
    {
      "inputs": [
        {
          "internalType": "string",
          "name": "_name",
          "type": "string"
        },
        {
          "internalType": "string",
          "name": "_symbol",
          "type": "string"
        }
      ],
      "stateMutability": "nonpayable",
      "type": "constructor"
    },
    {
      "anonymous": false,
      "inputs": [
        {
          "indexed": true,
          "internalType": "address",
          "name": "owner",
          "type": "address"
        },
        {
          "indexed": true,
          "internalType": "address",
          "name": "approved",
          "type": "address"
        },
        {
          "indexed": true,
          "internalType": "uint256",
          "name": "tokenId",
          "type": "uint256"
        }
      ],
      "name": "Approval",
      "type": "event"
    },
    {
      "anonymous": false,
      "inputs": [
        {
          "indexed": true,
          "internalType": "address",
          "name": "owner",
          "type": "address"
        },
        {
          "indexed": true,
          "internalType": "address",
          "name": "operator",
          "type": "address"
        },
        {
          "indexed": false,
          "internalType": "bool",
          "name": "approved",
          "type": "bool"
        }
      ],
      "name": "ApprovalForAll",
      "type": "event"
    },
    {
      "anonymous": false,
      "inputs": [
        {
          "indexed": true,
          "internalType": "address",
          "name": "from",
          "type": "address"
        },
        {
          "indexed": true,
          "internalType": "address",
          "name": "to",
          "type": "address"
        },
        {
          "indexed": true,
          "internalType": "uint256",
          "name": "tokenId",
          "type": "uint256"
        }
      ],
      "name": "Transfer",
      "type": "event"
    },
    {
      "anonymous": false,
      "inputs": [
        {
          "indexed": true,
          "internalType": "uint256",
          "name": "tokenId",
          "type": "uint256"
        },
        {
          "indexed": true,
          "internalType": "address",
          "name": "user",
          "type": "address"
        },
        {
          "indexed": false,
          "internalType": "uint64",
          "name": "expires",
          "type": "uint64"
        }
      ],
      "name": "UpdateUser",
      "type": "event"
    },
    {
      "inputs": [
        {
          "internalType": "address",
          "name": "to",
          "type": "address"
        },
        {
          "internalType": "uint256",
          "name": "tokenId",
          "type": "uint256"
        }
      ],
      "name": "approve",
      "outputs": [],
      "stateMutability": "nonpayable",
      "type": "function"
    },
    {
      "inputs": [
        {
          "internalType": "address",
          "name": "user",
          "type": "address"
        }
      ],
      "name": "approveUser",
      "outputs": [],
      "stateMutability": "nonpayable",
      "type": "function"
    },
    {
      "inputs": [
        {
          "internalType": "address",
          "name": "owner",
          "type": "address"
        }
      ],
      "name": "balanceOf",
      "outputs": [
        {
          "internalType": "uint256",
          "name": "",
          "type": "uint256"
        }
      ],
      "stateMutability": "view",
      "type": "function"
    },
    {
      "inputs": [
        {
          "internalType": "uint256",
          "name": "tokenId",
          "type": "uint256"
        }
      ],
      "name": "getApproved",
      "outputs": [
        {
          "internalType": "address",
          "name": "",
          "type": "address"
        }
      ],
      "stateMutability": "view",
      "type": "function"
    },
    {
      "inputs": [
        {
          "internalType": "address",
          "name": "owner",
          "type": "address"
        },
        {
          "internalType": "address",
          "name": "operator",
          "type": "address"
        }
      ],
      "name": "isApprovedForAll",
      "outputs": [
        {
          "internalType": "bool",
          "name": "",
          "type": "bool"
        }
      ],
      "stateMutability": "view",
      "type": "function"
    },
    {
      "inputs": [
        {
          "internalType": "uint256",
          "name": "_tokenId",
          "type": "uint256"
        },
        {
          "internalType": "string",
          "name": "_tokenURI",
          "type": "string"
        }
      ],
      "name": "mint",
      "outputs": [],
      "stateMutability": "nonpayable",
      "type": "function"
    },
    {
      "inputs": [],
      "name": "name",
      "outputs": [
        {
          "internalType": "string",
          "name": "",
          "type": "string"
        }
      ],
      "stateMutability": "view",
      "type": "function"
    },
    {
      "inputs": [
        {
          "internalType": "uint256",
          "name": "tokenId",
          "type": "uint256"
        }
      ],
      "name": "ownerOf",
      "outputs": [
        {
          "internalType": "address",
          "name": "",
          "type": "address"
        }
      ],
      "stateMutability": "view",
      "type": "function"
    },
    {
      "inputs": [
        {
          "internalType": "uint256",
          "name": "_tokenId",
          "type": "uint256"
        },
        {
          "internalType": "address",
          "name": "_user",
          "type": "address"
        },
        {
          "internalType": "uint64",
          "name": "_expires",
          "type": "uint64"
        }
      ],
      "name": "rent",
      "outputs": [],
      "stateMutability": "nonpayable",
      "type": "function"
    },
    {
      "inputs": [
        {
          "internalType": "address",
          "name": "from",
          "type": "address"
        },
        {
          "internalType": "address",
          "name": "to",
          "type": "address"
        },
        {
          "internalType": "uint256",
          "name": "tokenId",
          "type": "uint256"
        }
      ],
      "name": "safeTransferFrom",
      "outputs": [],
      "stateMutability": "nonpayable",
      "type": "function"
    },
    {
      "inputs": [
        {
          "internalType": "address",
          "name": "from",
          "type": "address"
        },
        {
          "internalType": "address",
          "name": "to",
          "type": "address"
        },
        {
          "internalType": "uint256",
          "name": "tokenId",
          "type": "uint256"
        },
        {
          "internalType": "bytes",
          "name": "data",
          "type": "bytes"
        }
      ],
      "name": "safeTransferFrom",
      "outputs": [],
      "stateMutability": "nonpayable",
      "type": "function"
    },
    {
      "inputs": [
        {
          "internalType": "address",
          "name": "operator",
          "type": "address"
        },
        {
          "internalType": "bool",
          "name": "approved",
          "type": "bool"
        }
      ],
      "name": "setApprovalForAll",
      "outputs": [],
      "stateMutability": "nonpayable",
      "type": "function"
    },
    {
      "inputs": [
        {
          "internalType": "uint256",
          "name": "tokenId",
          "type": "uint256"
        },
        {
          "internalType": "address",
          "name": "user",
          "type": "address"
        },
        {
          "internalType": "uint64",
          "name": "expires",
          "type": "uint64"
        }
      ],
      "name": "setUser",
      "outputs": [],
      "stateMutability": "nonpayable",
      "type": "function"
    },
    {
      "inputs": [
        {
          "internalType": "bytes4",
          "name": "interfaceId",
          "type": "bytes4"
        }
      ],
      "name": "supportsInterface",
      "outputs": [
        {
          "internalType": "bool",
          "name": "",
          "type": "bool"
        }
      ],
      "stateMutability": "view",
      "type": "function"
    },
    {
      "inputs": [],
      "name": "symbol",
      "outputs": [
        {
          "internalType": "string",
          "name": "",
          "type": "string"
        }
      ],
      "stateMutability": "view",
      "type": "function"
    },
    {
      "inputs": [
        {
          "internalType": "address",
          "name": "owner",
          "type": "address"
        },
        {
          "internalType": "uint256",
          "name": "index",
          "type": "uint256"
        }
      ],
      "name": "tokenOfOwnerByIndex",
      "outputs": [
        {
          "internalType": "uint256",
          "name": "",
          "type": "uint256"
        }
      ],
      "stateMutability": "view",
      "type": "function"
    },
    {
      "inputs": [
        {
          "internalType": "uint256",
          "name": "_tokenId",
          "type": "uint256"
        }
      ],
      "name": "tokenURI",
      "outputs": [
        {
          "internalType": "string",
          "name": "",
          "type": "string"
        }
      ],
      "stateMutability": "view",
      "type": "function"
    },
    {
      "inputs": [
        {
          "internalType": "uint256",
          "name": "",
          "type": "uint256"
        }
      ],
      "name": "tokenURIs",
      "outputs": [
        {
          "internalType": "string",
          "name": "",
          "type": "string"
        }
      ],
      "stateMutability": "view",
      "type": "function"
    },
    {
      "inputs": [
        {
          "internalType": "address",
          "name": "from",
          "type": "address"
        },
        {
          "internalType": "address",
          "name": "to",
          "type": "address"
        },
        {
          "internalType": "uint256",
          "name": "tokenId",
          "type": "uint256"
        }
      ],
      "name": "transferFrom",
      "outputs": [],
      "stateMutability": "nonpayable",
      "type": "function"
    },
    {
      "inputs": [
        {
          "internalType": "uint256",
          "name": "tokenId",
          "type": "uint256"
        }
      ],
      "name": "userExpires",
      "outputs": [
        {
          "internalType": "uint256",
          "name": "",
          "type": "uint256"
        }
      ],
      "stateMutability": "view",
      "type": "function"
    },
    {
      "inputs": [
        {
          "internalType": "uint256",
          "name": "tokenId",
          "type": "uint256"
        }
      ],
      "name": "userOf",
      "outputs": [
        {
          "internalType": "address",
          "name": "",
          "type": "address"
        }
      ],
      "stateMutability": "view",
      "type": "function"
    }
  ],
  "bytecode": "0x60806040523480156200001157600080fd5b5060405162001e2838038062001e28833981016040819052620000349162000127565b81818181600062000046838262000220565b50600162000055828262000220565b50505050505050620002ec565b634e487b7160e01b600052604160045260246000fd5b600082601f8301126200008a57600080fd5b81516001600160401b0380821115620000a757620000a762000062565b604051601f8301601f19908116603f01168101908282118183101715620000d257620000d262000062565b81604052838152602092508683858801011115620000ef57600080fd5b600091505b83821015620001135785820183015181830184015290820190620000f4565b600093810190920192909252949350505050565b600080604083850312156200013b57600080fd5b82516001600160401b03808211156200015357600080fd5b620001618683870162000078565b935060208501519150808211156200017857600080fd5b50620001878582860162000078565b9150509250929050565b600181811c90821680620001a657607f821691505b602082108103620001c757634e487b7160e01b600052602260045260246000fd5b50919050565b601f8211156200021b57600081815260208120601f850160051c81016020861015620001f65750805b601f850160051c820191505b81811015620002175782815560010162000202565b5050505b505050565b81516001600160401b038111156200023c576200023c62000062565b62000254816200024d845462000191565b84620001cd565b602080601f8311600181146200028c5760008415620002735750858301515b600019600386901b1c1916600185901b17855562000217565b600085815260208120601f198616915b82811015620002bd578886015182559484019460019091019084016200029c565b5085821015620002dc5787850151600019600388901b60f8161c191681555b5050505050600190811b01905550565b611b2c80620002fc6000396000f3fe608060405234801561001057600080fd5b50600436106101375760003560e01c806377097fc8116100b8578063c2f1f14a1161007c578063c2f1f14a146102ab578063c87b56dd146102be578063d624fdb6146102d1578063e030565e146102e4578063e985e9c5146102f7578063fdf80a991461033357600080fd5b806377097fc8146102395780638fc88c481461024c57806395d89b411461027d578063a22cb46514610285578063b88d4fde1461029857600080fd5b80632f745c59116100ff5780632f745c59146101cc57806342842e0e146101ed5780636352211e146102005780636c8b703f1461021357806370a082311461022657600080fd5b806301ffc9a71461013c57806306fdde0314610164578063081812fc14610179578063095ea7b3146101a457806323b872dd146101b9575b600080fd5b61014f61014a366004611460565b610346565b60405190151581526020015b60405180910390f35b61016c610371565b60405161015b91906114ca565b61018c6101873660046114dd565b610403565b6040516001600160a01b03909116815260200161015b565b6101b76101b236600461150d565b61042a565b005b6101b76101c7366004611537565b610544565b6101df6101da36600461150d565b610575565b60405190815260200161015b565b6101b76101fb366004611537565b6106b1565b61018c61020e3660046114dd565b6106cc565b61016c6102213660046114dd565b61072c565b6101df610234366004611573565b6107c6565b6101b761024736600461161a565b6108bc565b6101df61025a3660046114dd565b600090815260066020526040902054600160a01b900467ffffffffffffffff1690565b61016c6108de565b6101b7610293366004611675565b6108ed565b6101b76102a63660046116b1565b6108fc565b61018c6102b93660046114dd565b610934565b61016c6102cc3660046114dd565b610984565b6101b76102df366004611573565b610a26565b6101b76102f236600461172d565b610a34565b61014f61030536600461177a565b6001600160a01b03918216600090815260056020908152604080832093909416825291909152205460ff1690565b6101b761034136600461172d565b610b78565b60006001600160e01b03198216632b424ad760e21b148061036b575061036b82610bea565b92915050565b606060008054610380906117ad565b80601f01602080910402602001604051908101604052809291908181526020018280546103ac906117ad565b80156103f95780601f106103ce576101008083540402835291602001916103f9565b820191906000526020600020905b8154815290600101906020018083116103dc57829003601f168201915b5050505050905090565b600061040e82610c3a565b506000908152600460205260409020546001600160a01b031690565b6000610435826106cc565b9050806001600160a01b0316836001600160a01b0316036104a75760405162461bcd60e51b815260206004820152602160248201527f4552433732313a20617070726f76616c20746f2063757272656e74206f776e656044820152603960f91b60648201526084015b60405180910390fd5b336001600160a01b03821614806104c357506104c38133610305565b6105355760405162461bcd60e51b815260206004820152603d60248201527f4552433732313a20617070726f76652063616c6c6572206973206e6f7420746f60448201527f6b656e206f776e6572206f7220617070726f76656420666f7220616c6c000000606482015260840161049e565b61053f8383610c99565b505050565b61054e3382610d07565b61056a5760405162461bcd60e51b815260040161049e906117e7565b61053f838383610d86565b6000610580836107c6565b82106105ce5760405162461bcd60e51b815260206004820152601c60248201527f455243343930373a20496e646578206f7574206f6620626f756e647300000000604482015260640161049e565b60006105d984610ef7565b90508083101561065b57604051632f745c5960e01b81526001600160a01b038516600482018190526024820185905290632f745c5990604401602060405180830381865afa15801561062f573d6000803e3d6000fd5b505050506040513d601f19601f820116820180604052508101906106539190611834565b91505061036b565b60006106678285611863565b6001600160a01b03861660009081526007602052604090208054919250908290811061069557610695611876565b9060005260206000209060020201600001549250505092915050565b61053f838383604051806020016040528060008152506108fc565b6000818152600260205260408120546001600160a01b03168061036b5760405162461bcd60e51b8152602060048201526018602482015277115490cdcc8c4e881a5b9d985b1a59081d1bdad95b88125160421b604482015260640161049e565b60086020526000908152604090208054610745906117ad565b80601f0160208091040260200160405190810160405280929190818152602001828054610771906117ad565b80156107be5780601f10610793576101008083540402835291602001916107be565b820191906000526020600020905b8154815290600101906020018083116107a157829003601f168201915b505050505081565b60006001600160a01b0382166107ee5760405162461bcd60e51b815260040161049e9061188c565b60006107f983610ef7565b6001600160a01b038416600090815260076020526040812054919250805b828110156108a5576001600160a01b038616600090815260076020526040812080548390811061084957610849611876565b600091825260209182902060408051808201909152600290920201805482526001015467ffffffffffffffff16918101829052915042116108925761088f6001846118d5565b92505b508061089d816118e8565b915050610817565b5060006108b282856118d5565b9695505050505050565b6108c63383610f3b565b600082815260086020526040902061053f828261194f565b606060018054610380906117ad565b6108f8338383610f55565b5050565b6109063383610d07565b6109225760405162461bcd60e51b815260040161049e906117e7565b61092e84848484611023565b50505050565b60008181526006602052604081205442600160a01b90910467ffffffffffffffff161061097757506000908152600660205260409020546001600160a01b031690565b506000919050565b919050565b60008181526008602052604090208054606091906109a1906117ad565b80601f01602080910402602001604051908101604052809291908181526020018280546109cd906117ad565b8015610a1a5780601f106109ef57610100808354040283529160200191610a1a565b820191906000526020600020905b8154815290600101906020018083116109fd57829003601f168201915b50505050509050919050565b610a318160016108ed565b50565b610a3e3384610d07565b610aa45760405162461bcd60e51b815260206004820152603160248201527f4552433732313a207472616e736665722063616c6c6572206973206e6f74206f6044820152701ddb995c881b9bdc88185c1c1c9bdd9959607a1b606482015260840161049e565b600083815260066020908152604080832080546001600160a01b0387166001600160e01b03199091168117600160a01b67ffffffffffffffff888116918202929092178455845180860186528a815280870182815284895260078852868920805460018181018355918b529989902083516002909b0201998a5590519801805467ffffffffffffffff191698909316979097179091559251928352909392909187917f4e06b4e7000e659094299b3533b47b6aa8ad048e95e872d23d1f4ee55af89cfe910160405180910390a35050505050565b82610b833382610d07565b610bdf5760405162461bcd60e51b815260206004820152602760248201527f4552433732313a2043616c6c6572206973206e6f74206f776e6572206f7220616044820152661c1c1c9bdd995960ca1b606482015260840161049e565b61092e848484610a34565b60006001600160e01b031982166380ac58cd60e01b1480610c1b57506001600160e01b03198216635b5e139f60e01b145b8061036b57506301ffc9a760e01b6001600160e01b031983161461036b565b6000818152600260205260409020546001600160a01b0316610a315760405162461bcd60e51b8152602060048201526018602482015277115490cdcc8c4e881a5b9d985b1a59081d1bdad95b88125160421b604482015260640161049e565b600081815260046020526040902080546001600160a01b0319166001600160a01b0384169081179091558190610cce826106cc565b6001600160a01b03167f8c5be1e5ebec7d5bd14f71427d1e84f3dd0314c0f7b2291e5b200ac8c7c3b92560405160405180910390a45050565b600080610d13836106cc565b9050806001600160a01b0316846001600160a01b03161480610d5a57506001600160a01b0380821660009081526005602090815260408083209388168352929052205460ff165b80610d7e5750836001600160a01b0316610d7384610403565b6001600160a01b0316145b949350505050565b826001600160a01b0316610d99826106cc565b6001600160a01b031614610dbf5760405162461bcd60e51b815260040161049e90611a0f565b6001600160a01b038216610e215760405162461bcd60e51b8152602060048201526024808201527f4552433732313a207472616e7366657220746f20746865207a65726f206164646044820152637265737360e01b606482015260840161049e565b610e2e8383836001611056565b826001600160a01b0316610e41826106cc565b6001600160a01b031614610e675760405162461bcd60e51b815260040161049e90611a0f565b600081815260046020908152604080832080546001600160a01b03199081169091556001600160a01b0387811680865260038552838620805460001901905590871680865283862080546001019055868652600290945282852080549092168417909155905184937fddf252ad1be2c89b69c2b068fc378daa952ba7f163c4a11628f55a4df523b3ef91a4505050565b60006001600160a01b038216610f1f5760405162461bcd60e51b815260040161049e9061188c565b506001600160a01b031660009081526003602052604090205490565b6108f88282604051806020016040528060008152506110f5565b816001600160a01b0316836001600160a01b031603610fb65760405162461bcd60e51b815260206004820152601960248201527f4552433732313a20617070726f766520746f2063616c6c657200000000000000604482015260640161049e565b6001600160a01b03838116600081815260056020908152604080832094871680845294825291829020805460ff191686151590811790915591519182527f17307eab39ab6107e8899845ad3d59bd9653f200f220920489ca2b5937696c31910160405180910390a3505050565b61102e848484610d86565b61103a84848484611128565b61092e5760405162461bcd60e51b815260040161049e90611a54565b61106284848484611229565b826001600160a01b0316846001600160a01b03161415801561109a57506000828152600660205260409020546001600160a01b031615155b1561092e57600082815260066020908152604080832080546001600160e01b03191690555182815284917f4e06b4e7000e659094299b3533b47b6aa8ad048e95e872d23d1f4ee55af89cfe910160405180910390a350505050565b6110ff83836112b1565b61110c6000848484611128565b61053f5760405162461bcd60e51b815260040161049e90611a54565b60006001600160a01b0384163b1561121e57604051630a85bd0160e11b81526001600160a01b0385169063150b7a029061116c903390899088908890600401611aa6565b6020604051808303816000875af19250505080156111a7575060408051601f3d908101601f191682019092526111a491810190611ad9565b60015b611204573d8080156111d5576040519150601f19603f3d011682016040523d82523d6000602084013e6111da565b606091505b5080516000036111fc5760405162461bcd60e51b815260040161049e90611a54565b805181602001fd5b6001600160e01b031916630a85bd0160e11b149050610d7e565b506001949350505050565b600181111561092e576001600160a01b0384161561126f576001600160a01b03841660009081526003602052604081208054839290611269908490611863565b90915550505b6001600160a01b0383161561092e576001600160a01b038316600090815260036020526040812080548392906112a69084906118d5565b909155505050505050565b6001600160a01b0382166113075760405162461bcd60e51b815260206004820181905260248201527f4552433732313a206d696e7420746f20746865207a65726f2061646472657373604482015260640161049e565b6000818152600260205260409020546001600160a01b03161561136c5760405162461bcd60e51b815260206004820152601c60248201527f4552433732313a20746f6b656e20616c7265616479206d696e74656400000000604482015260640161049e565b61137a600083836001611056565b6000818152600260205260409020546001600160a01b0316156113df5760405162461bcd60e51b815260206004820152601c60248201527f4552433732313a20746f6b656e20616c7265616479206d696e74656400000000604482015260640161049e565b6001600160a01b038216600081815260036020908152604080832080546001019055848352600290915280822080546001600160a01b0319168417905551839291907fddf252ad1be2c89b69c2b068fc378daa952ba7f163c4a11628f55a4df523b3ef908290a45050565b6001600160e01b031981168114610a3157600080fd5b60006020828403121561147257600080fd5b813561147d8161144a565b9392505050565b6000815180845260005b818110156114aa5760208185018101518683018201520161148e565b506000602082860101526020601f19601f83011685010191505092915050565b60208152600061147d6020830184611484565b6000602082840312156114ef57600080fd5b5035919050565b80356001600160a01b038116811461097f57600080fd5b6000806040838503121561152057600080fd5b611529836114f6565b946020939093013593505050565b60008060006060848603121561154c57600080fd5b611555846114f6565b9250611563602085016114f6565b9150604084013590509250925092565b60006020828403121561158557600080fd5b61147d826114f6565b634e487b7160e01b600052604160045260246000fd5b600067ffffffffffffffff808411156115bf576115bf61158e565b604051601f8501601f19908116603f011681019082821181831017156115e7576115e761158e565b8160405280935085815286868601111561160057600080fd5b858560208301376000602087830101525050509392505050565b6000806040838503121561162d57600080fd5b82359150602083013567ffffffffffffffff81111561164b57600080fd5b8301601f8101851361165c57600080fd5b61166b858235602084016115a4565b9150509250929050565b6000806040838503121561168857600080fd5b611691836114f6565b9150602083013580151581146116a657600080fd5b809150509250929050565b600080600080608085870312156116c757600080fd5b6116d0856114f6565b93506116de602086016114f6565b925060408501359150606085013567ffffffffffffffff81111561170157600080fd5b8501601f8101871361171257600080fd5b611721878235602084016115a4565b91505092959194509250565b60008060006060848603121561174257600080fd5b83359250611752602085016114f6565b9150604084013567ffffffffffffffff8116811461176f57600080fd5b809150509250925092565b6000806040838503121561178d57600080fd5b611796836114f6565b91506117a4602084016114f6565b90509250929050565b600181811c908216806117c157607f821691505b6020821081036117e157634e487b7160e01b600052602260045260246000fd5b50919050565b6020808252602d908201527f4552433732313a2063616c6c6572206973206e6f7420746f6b656e206f776e6560408201526c1c881bdc88185c1c1c9bdd9959609a1b606082015260800190565b60006020828403121561184657600080fd5b5051919050565b634e487b7160e01b600052601160045260246000fd5b8181038181111561036b5761036b61184d565b634e487b7160e01b600052603260045260246000fd5b60208082526029908201527f4552433732313a2061646472657373207a65726f206973206e6f7420612076616040820152683634b21037bbb732b960b91b606082015260800190565b8082018082111561036b5761036b61184d565b6000600182016118fa576118fa61184d565b5060010190565b601f82111561053f57600081815260208120601f850160051c810160208610156119285750805b601f850160051c820191505b8181101561194757828155600101611934565b505050505050565b815167ffffffffffffffff8111156119695761196961158e565b61197d8161197784546117ad565b84611901565b602080601f8311600181146119b2576000841561199a5750858301515b600019600386901b1c1916600185901b178555611947565b600085815260208120601f198616915b828110156119e1578886015182559484019460019091019084016119c2565b50858210156119ff5787850151600019600388901b60f8161c191681555b5050505050600190811b01905550565b60208082526025908201527f4552433732313a207472616e736665722066726f6d20696e636f72726563742060408201526437bbb732b960d91b606082015260800190565b60208082526032908201527f4552433732313a207472616e7366657220746f206e6f6e20455243373231526560408201527131b2b4bb32b91034b6b83632b6b2b73a32b960711b606082015260800190565b6001600160a01b03858116825284166020820152604081018390526080606082018190526000906108b290830184611484565b600060208284031215611aeb57600080fd5b815161147d8161144a56fea26469706673582212208ae79bced65115bf4f1ac621d5a389f8f2b6a2dfb4eb5d7b3479a2194da5399d64736f6c63430008110033",
  "linkReferences": {},
  "deployedLinkReferences": {}
}