{
  "_format": "hh-sol-artifact-1",
  "contractName": "VoteManager",
  "sourceName": "contracts/VoteManager.sol",
  "abi": [
    {
      "anonymous": false,
      "inputs": [
        {
          "indexed": true,
          "internalType": "address",
          "name": "_candidateAddress",
          "type": "address"
        },
        {
          "indexed": true,
          "internalType": "address",
          "name": "_voterAddress",
          "type": "address"
        },
        {
          "indexed": false,
          "internalType": "uint256",
          "name": "_totalVote",
          "type": "uint256"
        }
      ],
      "name": "Voted",
      "type": "event"
    },
    {
      "anonymous": false,
      "inputs": [
        {
          "indexed": true,
          "internalType": "address",
          "name": "canditateAddress",
          "type": "address"
        },
        {
          "indexed": false,
          "internalType": "string",
          "name": "name",
          "type": "string"
        }
      ],
      "name": "candidateCreated",
      "type": "event"
    },
    {
      "inputs": [],
      "name": "fetchCandidates",
      "outputs": [
        {
          "components": [
            {
              "internalType": "uint256",
              "name": "id",
              "type": "uint256"
            },
            {
              "internalType": "uint256",
              "name": "totalVote",
              "type": "uint256"
            },
            {
              "internalType": "string",
              "name": "name",
              "type": "string"
            },
            {
              "internalType": "string",
              "name": "imageHash",
              "type": "string"
            },
            {
              "internalType": "address",
              "name": "candidateAddress",
              "type": "address"
            }
          ],
          "internalType": "struct VoteManager.Candidate[]",
          "name": "",
          "type": "tuple[]"
        }
      ],
      "stateMutability": "view",
      "type": "function"
    },
    {
      "inputs": [
        {
          "internalType": "string",
          "name": "_name",
          "type": "string"
        },
        {
          "internalType": "string",
          "name": "_imageHash",
          "type": "string"
        }
      ],
      "name": "registerCandidate",
      "outputs": [],
      "stateMutability": "nonpayable",
      "type": "function"
    },
    {
      "inputs": [
        {
          "internalType": "address",
          "name": "_forCandidate",
          "type": "address"
        }
      ],
      "name": "vote",
      "outputs": [],
      "stateMutability": "nonpayable",
      "type": "function"
    }
  ],
  "bytecode": "0x608060405234801561001057600080fd5b50610fb9806100206000396000f3fe608060405234801561001057600080fd5b50600436106100415760003560e01c80630dbce4dd146100465780636dd7d8ea14610062578063c7c0f8d81461007e575b600080fd5b610060600480360381019061005b91906107dc565b61009c565b005b61007c600480360381019061007791906108bb565b610331565b005b610086610434565b6040516100939190610adf565b60405180910390f35b600073ffffffffffffffffffffffffffffffffffffffff163373ffffffffffffffffffffffffffffffffffffffff16036100d557600080fd5b6100df6000610704565b60006100eb600061071a565b9050600033905060006040518060a001604052808481526020016000815260200188888080601f016020809104026020016040519081016040528093929190818152602001838380828437600081840152601f19601f82011690508083019250505050505050815260200186868080601f016020809104026020016040519081016040528093929190818152602001838380828437600081840152601f19601f8201169050808301925050505050505081526020018373ffffffffffffffffffffffffffffffffffffffff16815250905080600160008473ffffffffffffffffffffffffffffffffffffffff1673ffffffffffffffffffffffffffffffffffffffff168152602001908152602001600020600082015181600001556020820151816001015560408201518160020190816102259190610d3c565b50606082015181600301908161023b9190610d3c565b5060808201518160040160006101000a81548173ffffffffffffffffffffffffffffffffffffffff021916908373ffffffffffffffffffffffffffffffffffffffff160217905550905050336002600085815260200190815260200160002060006101000a81548173ffffffffffffffffffffffffffffffffffffffff021916908373ffffffffffffffffffffffffffffffffffffffff1602179055508173ffffffffffffffffffffffffffffffffffffffff167f7fb466ed4996ab249b98fdada0b7c5dd4b5c983b452111224a609f3cf5e060fc8888604051610320929190610e5b565b60405180910390a250505050505050565b60018060008373ffffffffffffffffffffffffffffffffffffffff1673ffffffffffffffffffffffffffffffffffffffff16815260200190815260200160002060010160008282546103839190610eae565b925050819055503373ffffffffffffffffffffffffffffffffffffffff168173ffffffffffffffffffffffffffffffffffffffff167f174ba19ba3c8bb5c679c87e51db79fff7c3f04bb84c1fd55b7dacb470b674aa6600160008573ffffffffffffffffffffffffffffffffffffffff1673ffffffffffffffffffffffffffffffffffffffff168152602001908152602001600020600101546040516104299190610ef1565b60405180910390a350565b60606000610442600061071a565b905060008167ffffffffffffffff8111156104605761045f610b01565b5b60405190808252806020026020018201604052801561049957816020015b610486610728565b81526020019060019003908161047e5790505b50905060005b828110156106fb5760006001826104b69190610eae565b90506000600160006002600085815260200190815260200160002060009054906101000a900473ffffffffffffffffffffffffffffffffffffffff1673ffffffffffffffffffffffffffffffffffffffff1673ffffffffffffffffffffffffffffffffffffffff1681526020019081526020016000206040518060a0016040529081600082015481526020016001820154815260200160028201805461055b90610b5f565b80601f016020809104026020016040519081016040528092919081815260200182805461058790610b5f565b80156105d45780601f106105a9576101008083540402835291602001916105d4565b820191906000526020600020905b8154815290600101906020018083116105b757829003601f168201915b505050505081526020016003820180546105ed90610b5f565b80601f016020809104026020016040519081016040528092919081815260200182805461061990610b5f565b80156106665780601f1061063b57610100808354040283529160200191610666565b820191906000526020600020905b81548152906001019060200180831161064957829003601f168201915b505050505081526020016004820160009054906101000a900473ffffffffffffffffffffffffffffffffffffffff1673ffffffffffffffffffffffffffffffffffffffff1673ffffffffffffffffffffffffffffffffffffffff16815250509050808484815181106106db576106da610f0c565b5b6020026020010181905250505080806106f390610f3b565b91505061049f565b50809250505090565b6001816000016000828254019250508190555050565b600081600001549050919050565b6040518060a0016040528060008152602001600081526020016060815260200160608152602001600073ffffffffffffffffffffffffffffffffffffffff1681525090565b600080fd5b600080fd5b600080fd5b600080fd5b600080fd5b60008083601f84011261079c5761079b610777565b5b8235905067ffffffffffffffff8111156107b9576107b861077c565b5b6020830191508360018202830111156107d5576107d4610781565b5b9250929050565b600080600080604085870312156107f6576107f561076d565b5b600085013567ffffffffffffffff81111561081457610813610772565b5b61082087828801610786565b9450945050602085013567ffffffffffffffff81111561084357610842610772565b5b61084f87828801610786565b925092505092959194509250565b600073ffffffffffffffffffffffffffffffffffffffff82169050919050565b60006108888261085d565b9050919050565b6108988161087d565b81146108a357600080fd5b50565b6000813590506108b58161088f565b92915050565b6000602082840312156108d1576108d061076d565b5b60006108df848285016108a6565b91505092915050565b600081519050919050565b600082825260208201905092915050565b6000819050602082019050919050565b6000819050919050565b61092781610914565b82525050565b600081519050919050565b600082825260208201905092915050565b60005b8381101561096757808201518184015260208101905061094c565b60008484015250505050565b6000601f19601f8301169050919050565b600061098f8261092d565b6109998185610938565b93506109a9818560208601610949565b6109b281610973565b840191505092915050565b6109c68161087d565b82525050565b600060a0830160008301516109e4600086018261091e565b5060208301516109f7602086018261091e565b5060408301518482036040860152610a0f8282610984565b91505060608301518482036060860152610a298282610984565b9150506080830151610a3e60808601826109bd565b508091505092915050565b6000610a5583836109cc565b905092915050565b6000602082019050919050565b6000610a75826108e8565b610a7f81856108f3565b935083602082028501610a9185610904565b8060005b85811015610acd5784840389528151610aae8582610a49565b9450610ab983610a5d565b925060208a01995050600181019050610a95565b50829750879550505050505092915050565b60006020820190508181036000830152610af98184610a6a565b905092915050565b7f4e487b7100000000000000000000000000000000000000000000000000000000600052604160045260246000fd5b7f4e487b7100000000000000000000000000000000000000000000000000000000600052602260045260246000fd5b60006002820490506001821680610b7757607f821691505b602082108103610b8a57610b89610b30565b5b50919050565b60008190508160005260206000209050919050565b60006020601f8301049050919050565b600082821b905092915050565b600060088302610bf27fffffffffffffffffffffffffffffffffffffffffffffffffffffffffffffffff82610bb5565b610bfc8683610bb5565b95508019841693508086168417925050509392505050565b6000819050919050565b6000610c39610c34610c2f84610914565b610c14565b610914565b9050919050565b6000819050919050565b610c5383610c1e565b610c67610c5f82610c40565b848454610bc2565b825550505050565b600090565b610c7c610c6f565b610c87818484610c4a565b505050565b5b81811015610cab57610ca0600082610c74565b600181019050610c8d565b5050565b601f821115610cf057610cc181610b90565b610cca84610ba5565b81016020851015610cd9578190505b610ced610ce585610ba5565b830182610c8c565b50505b505050565b600082821c905092915050565b6000610d1360001984600802610cf5565b1980831691505092915050565b6000610d2c8383610d02565b9150826002028217905092915050565b610d458261092d565b67ffffffffffffffff811115610d5e57610d5d610b01565b5b610d688254610b5f565b610d73828285610caf565b600060209050601f831160018114610da65760008415610d94578287015190505b610d9e8582610d20565b865550610e06565b601f198416610db486610b90565b60005b82811015610ddc57848901518255600182019150602085019450602081019050610db7565b86831015610df95784890151610df5601f891682610d02565b8355505b6001600288020188555050505b505050505050565b600082825260208201905092915050565b82818337600083830152505050565b6000610e3a8385610e0e565b9350610e47838584610e1f565b610e5083610973565b840190509392505050565b60006020820190508181036000830152610e76818486610e2e565b90509392505050565b7f4e487b7100000000000000000000000000000000000000000000000000000000600052601160045260246000fd5b6000610eb982610914565b9150610ec483610914565b9250828201905080821115610edc57610edb610e7f565b5b92915050565b610eeb81610914565b82525050565b6000602082019050610f066000830184610ee2565b92915050565b7f4e487b7100000000000000000000000000000000000000000000000000000000600052603260045260246000fd5b6000610f4682610914565b91507fffffffffffffffffffffffffffffffffffffffffffffffffffffffffffffffff8203610f7857610f77610e7f565b5b60018201905091905056fea264697066735822122092d25dbbee4b9942d83a668737c187391f53eb05e328a9fb22f93496a317b8e664736f6c63430008110033",
  "linkReferences": {},
  "deployedLinkReferences": {}
}