{
  "_format": "hh-sol-artifact-1",
  "contractName": "ERC4907Wrapper",
  "sourceName": "contracts/ERC4907/ERC4907Wrapper.sol",
  "abi": [
    {
      "inputs": [
        {
          "internalType": "address",
          "name": "wrapOwner",
          "type": "address"
        },
        {
          "internalType": "string",
          "name": "_name",
          "type": "string"
        },
        {
          "internalType": "string",
          "name": "_symbol",
          "type": "string"
        }
      ],
      "stateMutability": "nonpayable",
      "type": "constructor"
    },
    {
      "anonymous": false,
      "inputs": [
        {
          "indexed": true,
          "internalType": "address",
          "name": "owner",
          "type": "address"
        },
        {
          "indexed": true,
          "internalType": "address",
          "name": "approved",
          "type": "address"
        },
        {
          "indexed": true,
          "internalType": "uint256",
          "name": "tokenId",
          "type": "uint256"
        }
      ],
      "name": "Approval",
      "type": "event"
    },
    {
      "anonymous": false,
      "inputs": [
        {
          "indexed": true,
          "internalType": "address",
          "name": "owner",
          "type": "address"
        },
        {
          "indexed": true,
          "internalType": "address",
          "name": "operator",
          "type": "address"
        },
        {
          "indexed": false,
          "internalType": "bool",
          "name": "approved",
          "type": "bool"
        }
      ],
      "name": "ApprovalForAll",
      "type": "event"
    },
    {
      "anonymous": false,
      "inputs": [
        {
          "indexed": false,
          "internalType": "address",
          "name": "nftAddress",
          "type": "address"
        },
        {
          "indexed": false,
          "internalType": "uint256",
          "name": "tokenId",
          "type": "uint256"
        }
      ],
      "name": "TokenUnWrapped",
      "type": "event"
    },
    {
      "anonymous": false,
      "inputs": [
        {
          "indexed": false,
          "internalType": "address",
          "name": "nftAddress",
          "type": "address"
        },
        {
          "indexed": false,
          "internalType": "uint256",
          "name": "tokenId",
          "type": "uint256"
        }
      ],
      "name": "TokenWrapped",
      "type": "event"
    },
    {
      "anonymous": false,
      "inputs": [
        {
          "indexed": true,
          "internalType": "address",
          "name": "from",
          "type": "address"
        },
        {
          "indexed": true,
          "internalType": "address",
          "name": "to",
          "type": "address"
        },
        {
          "indexed": true,
          "internalType": "uint256",
          "name": "tokenId",
          "type": "uint256"
        }
      ],
      "name": "Transfer",
      "type": "event"
    },
    {
      "anonymous": false,
      "inputs": [
        {
          "indexed": true,
          "internalType": "uint256",
          "name": "tokenId",
          "type": "uint256"
        },
        {
          "indexed": true,
          "internalType": "address",
          "name": "user",
          "type": "address"
        },
        {
          "indexed": false,
          "internalType": "uint64",
          "name": "expires",
          "type": "uint64"
        }
      ],
      "name": "UpdateUser",
      "type": "event"
    },
    {
      "inputs": [],
      "name": "InterfaceIERC4907",
      "outputs": [
        {
          "internalType": "bytes4",
          "name": "",
          "type": "bytes4"
        }
      ],
      "stateMutability": "view",
      "type": "function"
    },
    {
      "inputs": [
        {
          "internalType": "address",
          "name": "to",
          "type": "address"
        },
        {
          "internalType": "uint256",
          "name": "tokenId",
          "type": "uint256"
        }
      ],
      "name": "approve",
      "outputs": [],
      "stateMutability": "nonpayable",
      "type": "function"
    },
    {
      "inputs": [
        {
          "internalType": "address",
          "name": "owner",
          "type": "address"
        }
      ],
      "name": "balanceOf",
      "outputs": [
        {
          "internalType": "uint256",
          "name": "",
          "type": "uint256"
        }
      ],
      "stateMutability": "view",
      "type": "function"
    },
    {
      "inputs": [],
      "name": "getAddress",
      "outputs": [
        {
          "internalType": "address",
          "name": "",
          "type": "address"
        }
      ],
      "stateMutability": "view",
      "type": "function"
    },
    {
      "inputs": [
        {
          "internalType": "uint256",
          "name": "tokenId",
          "type": "uint256"
        }
      ],
      "name": "getApproved",
      "outputs": [
        {
          "internalType": "address",
          "name": "",
          "type": "address"
        }
      ],
      "stateMutability": "view",
      "type": "function"
    },
    {
      "inputs": [
        {
          "internalType": "address",
          "name": "_nftAddress",
          "type": "address"
        },
        {
          "internalType": "uint256",
          "name": "_tokenId",
          "type": "uint256"
        }
      ],
      "name": "getOwner",
      "outputs": [
        {
          "internalType": "address",
          "name": "",
          "type": "address"
        }
      ],
      "stateMutability": "view",
      "type": "function"
    },
    {
      "inputs": [
        {
          "internalType": "uint256",
          "name": "wrapperID",
          "type": "uint256"
        }
      ],
      "name": "getTokenAddress",
      "outputs": [
        {
          "internalType": "address",
          "name": "",
          "type": "address"
        }
      ],
      "stateMutability": "view",
      "type": "function"
    },
    {
      "inputs": [
        {
          "internalType": "uint256",
          "name": "wrapperID",
          "type": "uint256"
        }
      ],
      "name": "getTokenID",
      "outputs": [
        {
          "internalType": "uint256",
          "name": "",
          "type": "uint256"
        }
      ],
      "stateMutability": "view",
      "type": "function"
    },
    {
      "inputs": [
        {
          "internalType": "address",
          "name": "owner",
          "type": "address"
        },
        {
          "internalType": "address",
          "name": "operator",
          "type": "address"
        }
      ],
      "name": "isApprovedForAll",
      "outputs": [
        {
          "internalType": "bool",
          "name": "",
          "type": "bool"
        }
      ],
      "stateMutability": "view",
      "type": "function"
    },
    {
      "inputs": [],
      "name": "name",
      "outputs": [
        {
          "internalType": "string",
          "name": "",
          "type": "string"
        }
      ],
      "stateMutability": "view",
      "type": "function"
    },
    {
      "inputs": [
        {
          "internalType": "address",
          "name": "operator",
          "type": "address"
        },
        {
          "internalType": "address",
          "name": "from",
          "type": "address"
        },
        {
          "internalType": "uint256",
          "name": "tokenId",
          "type": "uint256"
        },
        {
          "internalType": "bytes",
          "name": "data",
          "type": "bytes"
        }
      ],
      "name": "onERC721Received",
      "outputs": [
        {
          "internalType": "bytes4",
          "name": "",
          "type": "bytes4"
        }
      ],
      "stateMutability": "nonpayable",
      "type": "function"
    },
    {
      "inputs": [
        {
          "internalType": "uint256",
          "name": "tokenId",
          "type": "uint256"
        }
      ],
      "name": "ownerOf",
      "outputs": [
        {
          "internalType": "address",
          "name": "",
          "type": "address"
        }
      ],
      "stateMutability": "view",
      "type": "function"
    },
    {
      "inputs": [
        {
          "internalType": "address",
          "name": "from",
          "type": "address"
        },
        {
          "internalType": "address",
          "name": "to",
          "type": "address"
        },
        {
          "internalType": "uint256",
          "name": "tokenId",
          "type": "uint256"
        }
      ],
      "name": "safeTransferFrom",
      "outputs": [],
      "stateMutability": "nonpayable",
      "type": "function"
    },
    {
      "inputs": [
        {
          "internalType": "address",
          "name": "from",
          "type": "address"
        },
        {
          "internalType": "address",
          "name": "to",
          "type": "address"
        },
        {
          "internalType": "uint256",
          "name": "tokenId",
          "type": "uint256"
        },
        {
          "internalType": "bytes",
          "name": "data",
          "type": "bytes"
        }
      ],
      "name": "safeTransferFrom",
      "outputs": [],
      "stateMutability": "nonpayable",
      "type": "function"
    },
    {
      "inputs": [
        {
          "internalType": "address",
          "name": "operator",
          "type": "address"
        },
        {
          "internalType": "bool",
          "name": "approved",
          "type": "bool"
        }
      ],
      "name": "setApprovalForAll",
      "outputs": [],
      "stateMutability": "nonpayable",
      "type": "function"
    },
    {
      "inputs": [
        {
          "internalType": "uint256",
          "name": "tokenId",
          "type": "uint256"
        },
        {
          "internalType": "address",
          "name": "user",
          "type": "address"
        },
        {
          "internalType": "uint64",
          "name": "expires",
          "type": "uint64"
        }
      ],
      "name": "setUser",
      "outputs": [],
      "stateMutability": "nonpayable",
      "type": "function"
    },
    {
      "inputs": [
        {
          "internalType": "bytes4",
          "name": "interfaceId",
          "type": "bytes4"
        }
      ],
      "name": "supportsInterface",
      "outputs": [
        {
          "internalType": "bool",
          "name": "",
          "type": "bool"
        }
      ],
      "stateMutability": "view",
      "type": "function"
    },
    {
      "inputs": [],
      "name": "symbol",
      "outputs": [
        {
          "internalType": "string",
          "name": "",
          "type": "string"
        }
      ],
      "stateMutability": "view",
      "type": "function"
    },
    {
      "inputs": [
        {
          "internalType": "address",
          "name": "owner",
          "type": "address"
        },
        {
          "internalType": "uint256",
          "name": "index",
          "type": "uint256"
        }
      ],
      "name": "tokenOfOwnerByIndex",
      "outputs": [
        {
          "internalType": "uint256",
          "name": "",
          "type": "uint256"
        }
      ],
      "stateMutability": "view",
      "type": "function"
    },
    {
      "inputs": [
        {
          "internalType": "uint256",
          "name": "tokenId",
          "type": "uint256"
        }
      ],
      "name": "tokenURI",
      "outputs": [
        {
          "internalType": "string",
          "name": "",
          "type": "string"
        }
      ],
      "stateMutability": "view",
      "type": "function"
    },
    {
      "inputs": [
        {
          "internalType": "address",
          "name": "from",
          "type": "address"
        },
        {
          "internalType": "address",
          "name": "to",
          "type": "address"
        },
        {
          "internalType": "uint256",
          "name": "tokenId",
          "type": "uint256"
        }
      ],
      "name": "transferFrom",
      "outputs": [],
      "stateMutability": "nonpayable",
      "type": "function"
    },
    {
      "inputs": [
        {
          "internalType": "uint256",
          "name": "tokenId",
          "type": "uint256"
        }
      ],
      "name": "unwrapToken",
      "outputs": [],
      "stateMutability": "nonpayable",
      "type": "function"
    },
    {
      "inputs": [
        {
          "internalType": "uint256",
          "name": "tokenId",
          "type": "uint256"
        }
      ],
      "name": "userExpires",
      "outputs": [
        {
          "internalType": "uint256",
          "name": "",
          "type": "uint256"
        }
      ],
      "stateMutability": "view",
      "type": "function"
    },
    {
      "inputs": [
        {
          "internalType": "uint256",
          "name": "tokenId",
          "type": "uint256"
        }
      ],
      "name": "userOf",
      "outputs": [
        {
          "internalType": "address",
          "name": "",
          "type": "address"
        }
      ],
      "stateMutability": "view",
      "type": "function"
    },
    {
      "inputs": [
        {
          "internalType": "address",
          "name": "_nftAddress",
          "type": "address"
        },
        {
          "internalType": "uint256",
          "name": "tokenId",
          "type": "uint256"
        }
      ],
      "name": "wrapToken",
      "outputs": [
        {
          "internalType": "uint256",
          "name": "",
          "type": "uint256"
        }
      ],
      "stateMutability": "nonpayable",
      "type": "function"
    }
  ],
  "bytecode": "0x60806040523480156200001157600080fd5b506040516200245938038062002459833981016040819052620000349162000153565b8181818160006200004683826200026c565b5060016200005582826200026c565b505060016008555050600a80546001600160a81b0319166001600160a01b0390951694909417600160a01b179093555062000338915050565b634e487b7160e01b600052604160045260246000fd5b600082601f830112620000b657600080fd5b81516001600160401b0380821115620000d357620000d36200008e565b604051601f8301601f19908116603f01168101908282118183101715620000fe57620000fe6200008e565b816040528381526020925086838588010111156200011b57600080fd5b600091505b838210156200013f578582018301518183018401529082019062000120565b600093810190920192909252949350505050565b6000806000606084860312156200016957600080fd5b83516001600160a01b03811681146200018157600080fd5b60208501519093506001600160401b03808211156200019f57600080fd5b620001ad87838801620000a4565b93506040860151915080821115620001c457600080fd5b50620001d386828701620000a4565b9150509250925092565b600181811c90821680620001f257607f821691505b6020821081036200021357634e487b7160e01b600052602260045260246000fd5b50919050565b601f8211156200026757600081815260208120601f850160051c81016020861015620002425750805b601f850160051c820191505b8181101562000263578281556001016200024e565b5050505b505050565b81516001600160401b038111156200028857620002886200008e565b620002a081620002998454620001dd565b8462000219565b602080601f831160018114620002d85760008415620002bf5750858301515b600019600386901b1c1916600185901b17855562000263565b600085815260208120601f198616915b828110156200030957888601518255948401946001909101908401620002e8565b5085821015620003285787850151600019600388901b60f8161c191681555b5050505050600190811b01905550565b61211180620003486000396000f3fe608060405234801561001057600080fd5b50600436106101735760003560e01c806367ccdf38116100de57806395d89b4111610097578063c2f1f14a11610071578063c2f1f14a14610392578063c87b56dd146103a5578063e030565e146103b8578063e985e9c5146103cb57600080fd5b806395d89b4114610364578063a22cb4651461036c578063b88d4fde1461037f57600080fd5b806367ccdf38146102b357806370a08231146102dc57806377b8ed1e146102ef57806379e1ff0c146102fd5780638fc88c4814610320578063940997f71461035157600080fd5b80632f634a90116101305780632f634a90146102405780632f745c591461025357806338cc48311461027457806342842e0e1461027a578063460b53e31461028d5780636352211e146102a057600080fd5b806301ffc9a71461017857806306fdde03146101a0578063081812fc146101b5578063095ea7b3146101e0578063150b7a02146101f557806323b872dd1461022d575b600080fd5b61018b610186366004611acc565b610407565b60405190151581526020015b60405180910390f35b6101a8610432565b6040516101979190611b39565b6101c86101c3366004611b4c565b6104c4565b6040516001600160a01b039091168152602001610197565b6101f36101ee366004611b7a565b6104eb565b005b610214610203366004611ba6565b630a85bd0160e11b95945050505050565b6040516001600160e01b03199091168152602001610197565b6101f361023b366004611c45565b610605565b6101c861024e366004611b7a565b610636565b610266610261366004611b7a565b6106a9565b604051908152602001610197565b306101c8565b6101f3610288366004611c45565b6107e4565b61026661029b366004611b7a565b6107ff565b6101c86102ae366004611b4c565b610a6e565b6101c86102c1366004611b4c565b6000908152600b60205260409020546001600160a01b031690565b6102666102ea366004611c86565b610ace565b610214632b424ad760e21b81565b61026661030b366004611b4c565b6000908152600b602052604090206001015490565b61026661032e366004611b4c565b600090815260066020526040902054600160a01b900467ffffffffffffffff1690565b6101f361035f366004611b4c565b610bc4565b6101a8610de1565b6101f361037a366004611ca3565b610df0565b6101f361038d366004611cf7565b610dff565b6101c86103a0366004611b4c565b610e37565b6101a86103b3366004611b4c565b610e82565b6101f36103c6366004611dd7565b610e8d565b61018b6103d9366004611e26565b6001600160a01b03918216600090815260056020908152604080832093909416825291909152205460ff1690565b60006001600160e01b03198216632b424ad760e21b148061042c575061042c82610fd1565b92915050565b60606000805461044190611e54565b80601f016020809104026020016040519081016040528092919081815260200182805461046d90611e54565b80156104ba5780601f1061048f576101008083540402835291602001916104ba565b820191906000526020600020905b81548152906001019060200180831161049d57829003601f168201915b5050505050905090565b60006104cf82610ff6565b506000908152600460205260409020546001600160a01b031690565b60006104f682610a6e565b9050806001600160a01b0316836001600160a01b0316036105685760405162461bcd60e51b815260206004820152602160248201527f4552433732313a20617070726f76616c20746f2063757272656e74206f776e656044820152603960f91b60648201526084015b60405180910390fd5b336001600160a01b0382161480610584575061058481336103d9565b6105f65760405162461bcd60e51b815260206004820152603d60248201527f4552433732313a20617070726f76652063616c6c6572206973206e6f7420746f60448201527f6b656e206f776e6572206f7220617070726f76656420666f7220616c6c000000606482015260840161055f565b6106008383611055565b505050565b61060f33826110c3565b61062b5760405162461bcd60e51b815260040161055f90611e8e565b610600838383611142565b6040516331a9108f60e11b8152600481018290526000906001600160a01b03841690636352211e90602401602060405180830381865afa15801561067e573d6000803e3d6000fd5b505050506040513d601f19601f820116820180604052508101906106a29190611edb565b9392505050565b60006106b483610ace565b82106107025760405162461bcd60e51b815260206004820152601c60248201527f455243343930373a20496e646578206f7574206f6620626f756e647300000000604482015260640161055f565b600061070d846112b3565b90508083101561078f57604051632f745c5960e01b81526001600160a01b038516600482018190526024820185905290632f745c5990604401602060405180830381865afa158015610763573d6000803e3d6000fd5b505050506040513d601f19601f820116820180604052508101906107879190611ef8565b91505061042c565b600061079b8285611f27565b6001600160a01b0386166000908152600760205260409020805491925090829081106107c9576107c9611f3a565b9060005260206000209060020201600001549250505061042c565b61060083838360405180602001604052806000815250610dff565b600a54600090600160a01b900460ff1615156001146108605760405162461bcd60e51b815260206004820152601d60248201527f5772617070696e6720686173206e6f74206265656e20726573756d6564000000604482015260640161055f565b6108686112f7565b6040516331a9108f60e11b8152600481018390526000906001600160a01b03851690636352211e90602401602060405180830381865afa1580156108b0573d6000803e3d6000fd5b505050506040513d601f19601f820116820180604052508101906108d49190611edb565b90506001600160a01b038116331461092e5760405162461bcd60e51b815260206004820152601960248201527f4f6e6c79206f776e65722063616e207772617020746f6b656e00000000000000604482015260640161055f565b600061093960095490565b604051632142170760e11b8152336004820152306024820152604481018690529091506001600160a01b038616906342842e0e90606401600060405180830381600087803b15801561098a57600080fd5b505af115801561099e573d6000803e3d6000fd5b505050506109ac3382611350565b604080516060810182526001600160a01b0380881682526020808301888152338486019081526000878152600b90935294909120925183549083166001600160a01b0319918216178455905160018401559251600290920180549290911691909216179055610a1f600980546001019055565b604080516001600160a01b0387168152602081018390527f2273a99739c31a37346636a3013c2cedebee7cd5b4c560faded39d298c1dd45c910160405180910390a191505061042c6001600855565b6000818152600260205260408120546001600160a01b03168061042c5760405162461bcd60e51b8152602060048201526018602482015277115490cdcc8c4e881a5b9d985b1a59081d1bdad95b88125160421b604482015260640161055f565b60006001600160a01b038216610af65760405162461bcd60e51b815260040161055f90611f50565b6000610b01836112b3565b6001600160a01b038416600090815260076020526040812054919250805b82811015610bad576001600160a01b0386166000908152600760205260408120805483908110610b5157610b51611f3a565b600091825260209182902060408051808201909152600290920201805482526001015467ffffffffffffffff1691810182905291504211610b9a57610b97600184611f99565b92505b5080610ba581611fac565b915050610b1f565b506000610bba8285611f99565b9695505050505050565b610bcc6112f7565b6000818152600b6020526040908190208054600182015492516331a9108f60e11b815291926001600160a01b039091169130918391636352211e91610c179160040190815260200190565b602060405180830381865afa158015610c34573d6000803e3d6000fd5b505050506040513d601f19601f82011682018060405250810190610c589190611edb565b6001600160a01b031614610cb85760405162461bcd60e51b815260206004820152602160248201527f496e76616c6964207772617070656420746f6b656e49642070726f76696465646044820152601760f91b606482015260840161055f565b60028201546001600160a01b03163314610d145760405162461bcd60e51b815260206004820152601e60248201527f4f6e6c79206f726967696e616c206f776e65722063616e20756e777261700000604482015260640161055f565b610d1d8361136a565b81546001830154604051632142170760e11b815230600482015233602482015260448101919091526001600160a01b03909116906342842e0e90606401600060405180830381600087803b158015610d7457600080fd5b505af1158015610d88573d6000803e3d6000fd5b50508354604080516001600160a01b039092168252602082018790527feccdd2138cf9b77bd01ea625b20f5ce098bcf23bc855ed4c71526fdba9612141935001905060405180910390a15050610dde6001600855565b50565b60606001805461044190611e54565b610dfb338383611373565b5050565b610e0933836110c3565b610e255760405162461bcd60e51b815260040161055f90611e8e565b610e3184848484611441565b50505050565b60008181526006602052604081205442600160a01b90910467ffffffffffffffff1610610e7a57506000908152600660205260409020546001600160a01b031690565b506000919050565b606061042c82611474565b610e9733846110c3565b610efd5760405162461bcd60e51b815260206004820152603160248201527f4552433732313a207472616e736665722063616c6c6572206973206e6f74206f6044820152701ddb995c881b9bdc88185c1c1c9bdd9959607a1b606482015260840161055f565b600083815260066020908152604080832080546001600160a01b0387166001600160e01b03199091168117600160a01b67ffffffffffffffff888116918202929092178455845180860186528a815280870182815284895260078852868920805460018181018355918b529989902083516002909b0201998a5590519801805467ffffffffffffffff191698909316979097179091559251928352909392909187917f4e06b4e7000e659094299b3533b47b6aa8ad048e95e872d23d1f4ee55af89cfe910160405180910390a35050505050565b60006001600160e01b03198216632b424ad760e21b148061042c575061042c826114e7565b6000818152600260205260409020546001600160a01b0316610dde5760405162461bcd60e51b8152602060048201526018602482015277115490cdcc8c4e881a5b9d985b1a59081d1bdad95b88125160421b604482015260640161055f565b600081815260046020526040902080546001600160a01b0319166001600160a01b038416908117909155819061108a82610a6e565b6001600160a01b03167f8c5be1e5ebec7d5bd14f71427d1e84f3dd0314c0f7b2291e5b200ac8c7c3b92560405160405180910390a45050565b6000806110cf83610a6e565b9050806001600160a01b0316846001600160a01b0316148061111657506001600160a01b0380821660009081526005602090815260408083209388168352929052205460ff165b8061113a5750836001600160a01b031661112f846104c4565b6001600160a01b0316145b949350505050565b826001600160a01b031661115582610a6e565b6001600160a01b03161461117b5760405162461bcd60e51b815260040161055f90611fc5565b6001600160a01b0382166111dd5760405162461bcd60e51b8152602060048201526024808201527f4552433732313a207472616e7366657220746f20746865207a65726f206164646044820152637265737360e01b606482015260840161055f565b6111ea8383836001611537565b826001600160a01b03166111fd82610a6e565b6001600160a01b0316146112235760405162461bcd60e51b815260040161055f90611fc5565b600081815260046020908152604080832080546001600160a01b03199081169091556001600160a01b0387811680865260038552838620805460001901905590871680865283862080546001019055868652600290945282852080549092168417909155905184937fddf252ad1be2c89b69c2b068fc378daa952ba7f163c4a11628f55a4df523b3ef91a4505050565b60006001600160a01b0382166112db5760405162461bcd60e51b815260040161055f90611f50565b506001600160a01b031660009081526003602052604090205490565b6002600854036113495760405162461bcd60e51b815260206004820152601f60248201527f5265656e7472616e637947756172643a207265656e7472616e742063616c6c00604482015260640161055f565b6002600855565b610dfb8282604051806020016040528060008152506115d6565b610dde81611609565b816001600160a01b0316836001600160a01b0316036113d45760405162461bcd60e51b815260206004820152601960248201527f4552433732313a20617070726f766520746f2063616c6c657200000000000000604482015260640161055f565b6001600160a01b03838116600081815260056020908152604080832094871680845294825291829020805460ff191686151590811790915591519182527f17307eab39ab6107e8899845ad3d59bd9653f200f220920489ca2b5937696c31910160405180910390a3505050565b61144c848484611142565b611458848484846116ac565b610e315760405162461bcd60e51b815260040161055f9061200a565b606061147f82610ff6565b600061149660408051602081019091526000815290565b905060008151116114b657604051806020016040528060008152506106a2565b806114c0846117ad565b6040516020016114d192919061205c565b6040516020818303038152906040529392505050565b60006001600160e01b031982166380ac58cd60e01b148061151857506001600160e01b03198216635b5e139f60e01b145b8061042c57506301ffc9a760e01b6001600160e01b031983161461042c565b61154384848484611840565b826001600160a01b0316846001600160a01b03161415801561157b57506000828152600660205260409020546001600160a01b031615155b15610e3157600082815260066020908152604080832080546001600160e01b03191690555182815284917f4e06b4e7000e659094299b3533b47b6aa8ad048e95e872d23d1f4ee55af89cfe910160405180910390a350505050565b6115e08383611845565b6115ed60008484846116ac565b6106005760405162461bcd60e51b815260040161055f9061200a565b600061161482610a6e565b9050611624816000846001611537565b61162d82610a6e565b600083815260046020908152604080832080546001600160a01b03199081169091556001600160a01b0385168085526003845282852080546000190190558785526002909352818420805490911690555192935084927fddf252ad1be2c89b69c2b068fc378daa952ba7f163c4a11628f55a4df523b3ef908390a45050565b60006001600160a01b0384163b156117a257604051630a85bd0160e11b81526001600160a01b0385169063150b7a02906116f090339089908890889060040161208b565b6020604051808303816000875af192505050801561172b575060408051601f3d908101601f19168201909252611728918101906120be565b60015b611788573d808015611759576040519150601f19603f3d011682016040523d82523d6000602084013e61175e565b606091505b5080516000036117805760405162461bcd60e51b815260040161055f9061200a565b805181602001fd5b6001600160e01b031916630a85bd0160e11b14905061113a565b506001949350505050565b606060006117ba836119de565b600101905060008167ffffffffffffffff8111156117da576117da611ce1565b6040519080825280601f01601f191660200182016040528015611804576020820181803683370190505b5090508181016020015b600019016f181899199a1a9b1b9c1cb0b131b232b360811b600a86061a8153600a850494508461180e57509392505050565b611543565b6001600160a01b03821661189b5760405162461bcd60e51b815260206004820181905260248201527f4552433732313a206d696e7420746f20746865207a65726f2061646472657373604482015260640161055f565b6000818152600260205260409020546001600160a01b0316156119005760405162461bcd60e51b815260206004820152601c60248201527f4552433732313a20746f6b656e20616c7265616479206d696e74656400000000604482015260640161055f565b61190e600083836001611537565b6000818152600260205260409020546001600160a01b0316156119735760405162461bcd60e51b815260206004820152601c60248201527f4552433732313a20746f6b656e20616c7265616479206d696e74656400000000604482015260640161055f565b6001600160a01b038216600081815260036020908152604080832080546001019055848352600290915280822080546001600160a01b0319168417905551839291907fddf252ad1be2c89b69c2b068fc378daa952ba7f163c4a11628f55a4df523b3ef908290a45050565b60008072184f03e93ff9f4daa797ed6e38ed64bf6a1f0160401b8310611a1d5772184f03e93ff9f4daa797ed6e38ed64bf6a1f0160401b830492506040015b6d04ee2d6d415b85acef81000000008310611a49576d04ee2d6d415b85acef8100000000830492506020015b662386f26fc100008310611a6757662386f26fc10000830492506010015b6305f5e1008310611a7f576305f5e100830492506008015b6127108310611a9357612710830492506004015b60648310611aa5576064830492506002015b600a831061042c5760010192915050565b6001600160e01b031981168114610dde57600080fd5b600060208284031215611ade57600080fd5b81356106a281611ab6565b60005b83811015611b04578181015183820152602001611aec565b50506000910152565b60008151808452611b25816020860160208601611ae9565b601f01601f19169290920160200192915050565b6020815260006106a26020830184611b0d565b600060208284031215611b5e57600080fd5b5035919050565b6001600160a01b0381168114610dde57600080fd5b60008060408385031215611b8d57600080fd5b8235611b9881611b65565b946020939093013593505050565b600080600080600060808688031215611bbe57600080fd5b8535611bc981611b65565b94506020860135611bd981611b65565b935060408601359250606086013567ffffffffffffffff80821115611bfd57600080fd5b818801915088601f830112611c1157600080fd5b813581811115611c2057600080fd5b896020828501011115611c3257600080fd5b9699959850939650602001949392505050565b600080600060608486031215611c5a57600080fd5b8335611c6581611b65565b92506020840135611c7581611b65565b929592945050506040919091013590565b600060208284031215611c9857600080fd5b81356106a281611b65565b60008060408385031215611cb657600080fd5b8235611cc181611b65565b915060208301358015158114611cd657600080fd5b809150509250929050565b634e487b7160e01b600052604160045260246000fd5b60008060008060808587031215611d0d57600080fd5b8435611d1881611b65565b93506020850135611d2881611b65565b925060408501359150606085013567ffffffffffffffff80821115611d4c57600080fd5b818701915087601f830112611d6057600080fd5b813581811115611d7257611d72611ce1565b604051601f8201601f19908116603f01168101908382118183101715611d9a57611d9a611ce1565b816040528281528a6020848701011115611db357600080fd5b82602086016020830137600060208483010152809550505050505092959194509250565b600080600060608486031215611dec57600080fd5b833592506020840135611dfe81611b65565b9150604084013567ffffffffffffffff81168114611e1b57600080fd5b809150509250925092565b60008060408385031215611e3957600080fd5b8235611e4481611b65565b91506020830135611cd681611b65565b600181811c90821680611e6857607f821691505b602082108103611e8857634e487b7160e01b600052602260045260246000fd5b50919050565b6020808252602d908201527f4552433732313a2063616c6c6572206973206e6f7420746f6b656e206f776e6560408201526c1c881bdc88185c1c1c9bdd9959609a1b606082015260800190565b600060208284031215611eed57600080fd5b81516106a281611b65565b600060208284031215611f0a57600080fd5b5051919050565b634e487b7160e01b600052601160045260246000fd5b8181038181111561042c5761042c611f11565b634e487b7160e01b600052603260045260246000fd5b60208082526029908201527f4552433732313a2061646472657373207a65726f206973206e6f7420612076616040820152683634b21037bbb732b960b91b606082015260800190565b8082018082111561042c5761042c611f11565b600060018201611fbe57611fbe611f11565b5060010190565b60208082526025908201527f4552433732313a207472616e736665722066726f6d20696e636f72726563742060408201526437bbb732b960d91b606082015260800190565b60208082526032908201527f4552433732313a207472616e7366657220746f206e6f6e20455243373231526560408201527131b2b4bb32b91034b6b83632b6b2b73a32b960711b606082015260800190565b6000835161206e818460208801611ae9565b835190830190612082818360208801611ae9565b01949350505050565b6001600160a01b0385811682528416602082015260408101839052608060608201819052600090610bba90830184611b0d565b6000602082840312156120d057600080fd5b81516106a281611ab656fea26469706673582212201f1fd638d1dfaff8976a28e6bde5cfe49fb1bd5f5222b6378b4bf519f91894fa64736f6c63430008110033",
  "linkReferences": {},
  "deployedLinkReferences": {}
}