{
  "_format": "hh-sol-artifact-1",
  "contractName": "NFTRM",
  "sourceName": "contracts/NFTRM.sol",
  "abi": [
    {
      "inputs": [],
      "stateMutability": "nonpayable",
      "type": "constructor"
    },
    {
      "anonymous": false,
      "inputs": [
        {
          "indexed": false,
          "internalType": "address",
          "name": "nftAddress",
          "type": "address"
        },
        {
          "indexed": true,
          "internalType": "uint256",
          "name": "tokenId",
          "type": "uint256"
        },
        {
          "indexed": false,
          "internalType": "address",
          "name": "seller",
          "type": "address"
        },
        {
          "indexed": false,
          "internalType": "address",
          "name": "user",
          "type": "address"
        },
        {
          "indexed": false,
          "internalType": "uint256",
          "name": "price",
          "type": "uint256"
        },
        {
          "indexed": false,
          "internalType": "uint64",
          "name": "expiry",
          "type": "uint64"
        }
      ],
      "name": "LTokenBid",
      "type": "event"
    },
    {
      "anonymous": false,
      "inputs": [
        {
          "indexed": false,
          "internalType": "address",
          "name": "nftAddress",
          "type": "address"
        },
        {
          "indexed": true,
          "internalType": "uint256",
          "name": "tokenId",
          "type": "uint256"
        },
        {
          "indexed": false,
          "internalType": "address",
          "name": "owner",
          "type": "address"
        },
        {
          "indexed": false,
          "internalType": "address",
          "name": "seller",
          "type": "address"
        }
      ],
      "name": "LTokenDelisted",
      "type": "event"
    },
    {
      "anonymous": false,
      "inputs": [
        {
          "indexed": false,
          "internalType": "address",
          "name": "nftAddress",
          "type": "address"
        },
        {
          "indexed": true,
          "internalType": "uint256",
          "name": "tokenId",
          "type": "uint256"
        },
        {
          "indexed": false,
          "internalType": "address",
          "name": "owner",
          "type": "address"
        },
        {
          "indexed": false,
          "internalType": "address",
          "name": "seller",
          "type": "address"
        },
        {
          "indexed": false,
          "internalType": "uint256",
          "name": "price",
          "type": "uint256"
        },
        {
          "indexed": false,
          "internalType": "uint64",
          "name": "expiry",
          "type": "uint64"
        }
      ],
      "name": "LTokenListed",
      "type": "event"
    },
    {
      "anonymous": false,
      "inputs": [
        {
          "indexed": false,
          "internalType": "address",
          "name": "nftAddress",
          "type": "address"
        },
        {
          "indexed": true,
          "internalType": "uint256",
          "name": "tokenId",
          "type": "uint256"
        },
        {
          "indexed": false,
          "internalType": "address",
          "name": "seller",
          "type": "address"
        },
        {
          "indexed": false,
          "internalType": "address",
          "name": "user",
          "type": "address"
        },
        {
          "indexed": false,
          "internalType": "uint256",
          "name": "price",
          "type": "uint256"
        },
        {
          "indexed": false,
          "internalType": "uint64",
          "name": "expiry",
          "type": "uint64"
        }
      ],
      "name": "LTokenRentedOut",
      "type": "event"
    },
    {
      "anonymous": false,
      "inputs": [
        {
          "indexed": false,
          "internalType": "address",
          "name": "nftAddress",
          "type": "address"
        },
        {
          "indexed": true,
          "internalType": "uint256",
          "name": "tokenId",
          "type": "uint256"
        },
        {
          "indexed": false,
          "internalType": "address",
          "name": "seller",
          "type": "address"
        },
        {
          "indexed": false,
          "internalType": "address",
          "name": "user",
          "type": "address"
        },
        {
          "indexed": false,
          "internalType": "uint256",
          "name": "price",
          "type": "uint256"
        },
        {
          "indexed": false,
          "internalType": "uint64",
          "name": "expiry",
          "type": "uint64"
        }
      ],
      "name": "LTokenUpdated",
      "type": "event"
    },
    {
      "anonymous": false,
      "inputs": [
        {
          "indexed": true,
          "internalType": "uint256",
          "name": "tokenId",
          "type": "uint256"
        }
      ],
      "name": "expiredNFT",
      "type": "event"
    },
    {
      "inputs": [
        {
          "internalType": "uint256",
          "name": "tokenId",
          "type": "uint256"
        },
        {
          "internalType": "address",
          "name": "renter",
          "type": "address"
        }
      ],
      "name": "acceptOffer",
      "outputs": [],
      "stateMutability": "payable",
      "type": "function"
    },
    {
      "inputs": [
        {
          "internalType": "address",
          "name": "_nftAddress",
          "type": "address"
        },
        {
          "internalType": "uint256",
          "name": "tokenId",
          "type": "uint256"
        }
      ],
      "name": "delistNFT",
      "outputs": [],
      "stateMutability": "nonpayable",
      "type": "function"
    },
    {
      "inputs": [],
      "name": "getAllNFTs",
      "outputs": [
        {
          "components": [
            {
              "internalType": "address",
              "name": "nftAddress",
              "type": "address"
            },
            {
              "internalType": "uint256",
              "name": "tokenId",
              "type": "uint256"
            },
            {
              "internalType": "address payable",
              "name": "owner",
              "type": "address"
            },
            {
              "internalType": "address payable",
              "name": "seller",
              "type": "address"
            },
            {
              "internalType": "address",
              "name": "user",
              "type": "address"
            },
            {
              "internalType": "uint256",
              "name": "price",
              "type": "uint256"
            },
            {
              "internalType": "uint64",
              "name": "expiry",
              "type": "uint64"
            },
            {
              "internalType": "uint64",
              "name": "listingExpiry",
              "type": "uint64"
            },
            {
              "internalType": "bool",
              "name": "currentlyListed",
              "type": "bool"
            }
          ],
          "internalType": "struct NFTRM.LToken[]",
          "name": "",
          "type": "tuple[]"
        }
      ],
      "stateMutability": "view",
      "type": "function"
    },
    {
      "inputs": [],
      "name": "getListedNFTs",
      "outputs": [
        {
          "components": [
            {
              "internalType": "address",
              "name": "nftAddress",
              "type": "address"
            },
            {
              "internalType": "uint256",
              "name": "tokenId",
              "type": "uint256"
            },
            {
              "internalType": "address payable",
              "name": "owner",
              "type": "address"
            },
            {
              "internalType": "address payable",
              "name": "seller",
              "type": "address"
            },
            {
              "internalType": "address",
              "name": "user",
              "type": "address"
            },
            {
              "internalType": "uint256",
              "name": "price",
              "type": "uint256"
            },
            {
              "internalType": "uint64",
              "name": "expiry",
              "type": "uint64"
            },
            {
              "internalType": "uint64",
              "name": "listingExpiry",
              "type": "uint64"
            },
            {
              "internalType": "bool",
              "name": "currentlyListed",
              "type": "bool"
            }
          ],
          "internalType": "struct NFTRM.LToken[]",
          "name": "",
          "type": "tuple[]"
        }
      ],
      "stateMutability": "view",
      "type": "function"
    },
    {
      "inputs": [],
      "name": "getListingFee",
      "outputs": [
        {
          "internalType": "uint256",
          "name": "",
          "type": "uint256"
        }
      ],
      "stateMutability": "view",
      "type": "function"
    },
    {
      "inputs": [],
      "name": "getMyListedNFTs",
      "outputs": [
        {
          "components": [
            {
              "internalType": "address",
              "name": "nftAddress",
              "type": "address"
            },
            {
              "internalType": "uint256",
              "name": "tokenId",
              "type": "uint256"
            },
            {
              "internalType": "address payable",
              "name": "owner",
              "type": "address"
            },
            {
              "internalType": "address payable",
              "name": "seller",
              "type": "address"
            },
            {
              "internalType": "address",
              "name": "user",
              "type": "address"
            },
            {
              "internalType": "uint256",
              "name": "price",
              "type": "uint256"
            },
            {
              "internalType": "uint64",
              "name": "expiry",
              "type": "uint64"
            },
            {
              "internalType": "uint64",
              "name": "listingExpiry",
              "type": "uint64"
            },
            {
              "internalType": "bool",
              "name": "currentlyListed",
              "type": "bool"
            }
          ],
          "internalType": "struct NFTRM.LToken[]",
          "name": "",
          "type": "tuple[]"
        }
      ],
      "stateMutability": "view",
      "type": "function"
    },
    {
      "inputs": [],
      "name": "getMyNFTs",
      "outputs": [
        {
          "components": [
            {
              "internalType": "address",
              "name": "nftAddress",
              "type": "address"
            },
            {
              "internalType": "uint256",
              "name": "tokenId",
              "type": "uint256"
            },
            {
              "internalType": "address payable",
              "name": "owner",
              "type": "address"
            },
            {
              "internalType": "address payable",
              "name": "seller",
              "type": "address"
            },
            {
              "internalType": "address",
              "name": "user",
              "type": "address"
            },
            {
              "internalType": "uint256",
              "name": "price",
              "type": "uint256"
            },
            {
              "internalType": "uint64",
              "name": "expiry",
              "type": "uint64"
            },
            {
              "internalType": "uint64",
              "name": "listingExpiry",
              "type": "uint64"
            },
            {
              "internalType": "bool",
              "name": "currentlyListed",
              "type": "bool"
            }
          ],
          "internalType": "struct NFTRM.LToken[]",
          "name": "",
          "type": "tuple[]"
        }
      ],
      "stateMutability": "view",
      "type": "function"
    },
    {
      "inputs": [],
      "name": "getMyRentedNFTs",
      "outputs": [
        {
          "components": [
            {
              "internalType": "address",
              "name": "nftAddress",
              "type": "address"
            },
            {
              "internalType": "uint256",
              "name": "tokenId",
              "type": "uint256"
            },
            {
              "internalType": "address payable",
              "name": "owner",
              "type": "address"
            },
            {
              "internalType": "address payable",
              "name": "seller",
              "type": "address"
            },
            {
              "internalType": "address",
              "name": "user",
              "type": "address"
            },
            {
              "internalType": "uint256",
              "name": "price",
              "type": "uint256"
            },
            {
              "internalType": "uint64",
              "name": "expiry",
              "type": "uint64"
            },
            {
              "internalType": "uint64",
              "name": "listingExpiry",
              "type": "uint64"
            },
            {
              "internalType": "bool",
              "name": "currentlyListed",
              "type": "bool"
            }
          ],
          "internalType": "struct NFTRM.LToken[]",
          "name": "",
          "type": "tuple[]"
        }
      ],
      "stateMutability": "view",
      "type": "function"
    },
    {
      "inputs": [
        {
          "internalType": "uint256",
          "name": "tokenId",
          "type": "uint256"
        }
      ],
      "name": "getNFT",
      "outputs": [
        {
          "components": [
            {
              "internalType": "address",
              "name": "nftAddress",
              "type": "address"
            },
            {
              "internalType": "uint256",
              "name": "tokenId",
              "type": "uint256"
            },
            {
              "internalType": "address payable",
              "name": "owner",
              "type": "address"
            },
            {
              "internalType": "address payable",
              "name": "seller",
              "type": "address"
            },
            {
              "internalType": "address",
              "name": "user",
              "type": "address"
            },
            {
              "internalType": "uint256",
              "name": "price",
              "type": "uint256"
            },
            {
              "internalType": "uint64",
              "name": "expiry",
              "type": "uint64"
            },
            {
              "internalType": "uint64",
              "name": "listingExpiry",
              "type": "uint64"
            },
            {
              "internalType": "bool",
              "name": "currentlyListed",
              "type": "bool"
            }
          ],
          "internalType": "struct NFTRM.LToken",
          "name": "",
          "type": "tuple"
        }
      ],
      "stateMutability": "view",
      "type": "function"
    },
    {
      "inputs": [
        {
          "internalType": "uint256",
          "name": "tokenId",
          "type": "uint256"
        }
      ],
      "name": "getNFTOwner",
      "outputs": [
        {
          "internalType": "address",
          "name": "",
          "type": "address"
        }
      ],
      "stateMutability": "view",
      "type": "function"
    },
    {
      "inputs": [
        {
          "internalType": "address",
          "name": "_nftAddress",
          "type": "address"
        },
        {
          "internalType": "uint256",
          "name": "tokenId",
          "type": "uint256"
        },
        {
          "internalType": "uint256",
          "name": "price",
          "type": "uint256"
        },
        {
          "internalType": "uint64",
          "name": "expiry",
          "type": "uint64"
        },
        {
          "internalType": "uint64",
          "name": "listingExpiry",
          "type": "uint64"
        }
      ],
      "name": "listNFT",
      "outputs": [],
      "stateMutability": "payable",
      "type": "function"
    },
    {
      "inputs": [
        {
          "internalType": "uint256",
          "name": "tokenId",
          "type": "uint256"
        },
        {
          "internalType": "uint256",
          "name": "price",
          "type": "uint256"
        },
        {
          "internalType": "uint64",
          "name": "expiry",
          "type": "uint64"
        }
      ],
      "name": "offerToRent",
      "outputs": [],
      "stateMutability": "payable",
      "type": "function"
    },
    {
      "inputs": [
        {
          "internalType": "address",
          "name": "operator",
          "type": "address"
        },
        {
          "internalType": "address",
          "name": "from",
          "type": "address"
        },
        {
          "internalType": "uint256",
          "name": "tokenId",
          "type": "uint256"
        },
        {
          "internalType": "bytes",
          "name": "data",
          "type": "bytes"
        }
      ],
      "name": "onERC721Received",
      "outputs": [
        {
          "internalType": "bytes4",
          "name": "",
          "type": "bytes4"
        }
      ],
      "stateMutability": "nonpayable",
      "type": "function"
    },
    {
      "inputs": [],
      "name": "refreshNFTs",
      "outputs": [],
      "stateMutability": "nonpayable",
      "type": "function"
    },
    {
      "inputs": [
        {
          "internalType": "uint256",
          "name": "tokenId",
          "type": "uint256"
        }
      ],
      "name": "rentNFT",
      "outputs": [],
      "stateMutability": "payable",
      "type": "function"
    },
    {
      "inputs": [
        {
          "internalType": "uint256",
          "name": "tokenId",
          "type": "uint256"
        }
      ],
      "name": "terminateRental",
      "outputs": [],
      "stateMutability": "nonpayable",
      "type": "function"
    },
    {
      "inputs": [
        {
          "internalType": "address",
          "name": "_nftAddress",
          "type": "address"
        },
        {
          "internalType": "uint256",
          "name": "tokenId",
          "type": "uint256"
        },
        {
          "internalType": "uint64",
          "name": "expiry",
          "type": "uint64"
        },
        {
          "internalType": "uint64",
          "name": "listingExpiry",
          "type": "uint64"
        }
      ],
      "name": "updateNFT",
      "outputs": [],
      "stateMutability": "nonpayable",
      "type": "function"
    },
    {
      "inputs": [
        {
          "internalType": "address",
          "name": "_nftAddress",
          "type": "address"
        },
        {
          "internalType": "uint256",
          "name": "tokenId",
          "type": "uint256"
        },
        {
          "internalType": "uint256",
          "name": "price",
          "type": "uint256"
        },
        {
          "internalType": "uint64",
          "name": "expiry",
          "type": "uint64"
        },
        {
          "internalType": "uint64",
          "name": "listingExpiry",
          "type": "uint64"
        }
      ],
      "name": "updateNFT",
      "outputs": [],
      "stateMutability": "nonpayable",
      "type": "function"
    },
    {
      "inputs": [
        {
          "internalType": "address",
          "name": "_nftAddress",
          "type": "address"
        },
        {
          "internalType": "uint256",
          "name": "tokenId",
          "type": "uint256"
        },
        {
          "internalType": "uint256",
          "name": "price",
          "type": "uint256"
        }
      ],
      "name": "updateNFT",
      "outputs": [],
      "stateMutability": "nonpayable",
      "type": "function"
    },
    {
      "inputs": [
        {
          "internalType": "uint256",
          "name": "tokenId",
          "type": "uint256"
        }
      ],
      "name": "viewAllBids",
      "outputs": [
        {
          "components": [
            {
              "internalType": "address",
              "name": "bidder",
              "type": "address"
            },
            {
              "internalType": "uint256",
              "name": "price",
              "type": "uint256"
            },
            {
              "internalType": "uint64",
              "name": "expiry",
              "type": "uint64"
            }
          ],
          "internalType": "struct NFTRM.Bid[]",
          "name": "",
          "type": "tuple[]"
        }
      ],
      "stateMutability": "view",
      "type": "function"
    }
  ],
  "bytecode": "0x6080604052662386f26fc1000060045534801561001b57600080fd5b506001600055600380546001600160a01b03191633179055613777806100426000396000f3fe60806040526004361061011e5760003560e01c8063629cb2e4116100a0578063deaea2e311610064578063deaea2e3146102fa578063e0391b09146103d1578063f9217419146103e6578063f9b8ed2514610406578063fd3600b41461042657600080fd5b8063629cb2e414610267578063918d407d1461027c578063a17a70941461028f578063a7bf7a42146102af578063b8fe6abe146102dc57600080fd5b80631cd27232116100e75780631cd27232146101d057806325dcc570146101e5578063576f7ea7146102055780635f23092e1461023257806360e100ab1461024757600080fd5b8062dc4a4d14610123578063012386f0146101385780630986d5171461016357806314364f1d14610178578063150b7a021461018b575b600080fd5b610136610131366004613003565b610439565b005b34801561014457600080fd5b5061014d610750565b60405161015a91906130c5565b60405180910390f35b34801561016f57600080fd5b5061014d610947565b610136610186366004613114565b610c12565b34801561019757600080fd5b506101b76101a6366004613142565b630a85bd0160e11b95945050505050565b6040516001600160e01b0319909116815260200161015a565b3480156101dc57600080fd5b5061014d610ed9565b3480156101f157600080fd5b506101366102003660046131e0565b611132565b34801561021157600080fd5b50610225610220366004613114565b611330565b60405161015a919061322f565b34801561023e57600080fd5b506101366113d5565b34801561025357600080fd5b50610136610262366004613244565b6114ea565b34801561027357600080fd5b5061014d611733565b61013661028a36600461329d565b611ae3565b34801561029b57600080fd5b506101366102aa3660046132cd565b611e3b565b3480156102bb57600080fd5b506102cf6102ca366004613114565b612051565b60405161015a91906132f9565b3480156102e857600080fd5b5060045460405190815260200161015a565b34801561030657600080fd5b506103b9610315366004613114565b60009081526005602081815260409283902083516101208101855281546001600160a01b03908116825260018301549382019390935260028201548316948101949094526003810154821660608501819052600482015490921660808501529182015460a08401526006909101546001600160401b0380821660c0850152600160401b82041660e0840152600160801b900460ff1615156101009092019190915290565b6040516001600160a01b03909116815260200161015a565b3480156103dd57600080fd5b5061014d6121fd565b3480156103f257600080fd5b50610136610401366004613114565b612394565b34801561041257600080fd5b50610136610421366004613364565b6124f2565b610136610434366004613244565b6128c6565b610441612e3e565b6000838152600560208190526040909120908101548310156104aa5760405162461bcd60e51b815260206004820152601860248201527f7072696365206e6f7420656e6f75676820666f72204e4654000000000000000060448201526064015b60405180910390fd5b6006810154600160801b900460ff1615156001146104da5760405162461bcd60e51b81526004016104a190613399565b42826001600160401b0316116105495760405162461bcd60e51b815260206004820152602e60248201527f4f66666572206578706972792064617465206973206561726c6965722074686160448201526d6e2063757272656e742074696d6560901b60648201526084016104a1565b600681015442600160401b9091046001600160401b03161161057d5760405162461bcd60e51b81526004016104a1906133c4565b60068101546001600160401b03808416911610156105f25760405162461bcd60e51b815260206004820152602c60248201527f4f66666572206578706972792064617465206973206c6f6e676572207468616e60448201526b206c6973746564206461746560a01b60648201526084016104a1565b6000848152600660209081526040808320338452909152812060010154900361063a576000848152600760205260408120805460019290610634908490613407565b90915550505b604080516060810182523380825260208083018781526001600160401b0387811685870190815260008b815260068552878120868252909452868420955186546001600160a01b03199081166001600160a01b03928316178855935160018089019190915591516002909701805467ffffffffffffffff191697909316969096179091556008805491820181559092527ff3f7a9fe364faab93b216da50a3214154f22a0a2b415b23a84c8169e8b636ee390910180549091168217905583546003850154935188947fc3d0a416cabc0aae55919d81fb1eb87da922da5b39e01adadda5a51bcb3d24ba9461073894938116939116918990899061341a565b60405180910390a25061074b6001600055565b505050565b6060600061075d60025490565b90506000805b828110156107bd576005600061077a836001613407565b8152602081019190915260400160002060060154600160801b900460ff16156107ab576107a8600183613407565b91505b806107b581613456565b915050610763565b506000816001600160401b038111156107d8576107d861346f565b60405190808252806020026020018201604052801561081157816020015b6107fe612f9b565b8152602001906001900390816107f65790505b5090506000805b8481101561093d576005600061082f836001613407565b8152602081019190915260400160002060060154600160801b900460ff161561092b5760056000610861836001613407565b8152602080820192909252604090810160002081516101208101835281546001600160a01b039081168252600183015494820194909452600282015484169281019290925260038101548316606083015260048101549092166080820152600582015460a08201526006909101546001600160401b0380821660c0840152600160401b82041660e0830152600160801b900460ff161515610100820152835184908490811061091257610912613485565b6020908102919091010152610928600183613407565b91505b8061093581613456565b915050610818565b5090949350505050565b6060600061095460025490565b90506000805b82811015610a23573360056000610972846001613407565b81526020810191909152604001600020600301546001600160a01b03161480156109c7575042600560006109a7846001613407565b81526020810191909152604001600020600601546001600160401b031610155b80156109fe575060006005816109de846001613407565b81526020810191909152604001600020600401546001600160a01b031614155b15610a1157610a0e600183613407565b91505b80610a1b81613456565b91505061095a565b506000816001600160401b03811115610a3e57610a3e61346f565b604051908082528060200260200182016040528015610a7757816020015b610a64612f9b565b815260200190600190039081610a5c5790505b5090506000805b8481101561093d573360056000610a96846001613407565b81526020810191909152604001600020600301546001600160a01b0316148015610aeb57504260056000610acb846001613407565b81526020810191909152604001600020600601546001600160401b031610155b8015610b2257506000600581610b02846001613407565b81526020810191909152604001600020600401546001600160a01b031614155b15610c005760056000610b36836001613407565b8152602080820192909252604090810160002081516101208101835281546001600160a01b039081168252600183015494820194909452600282015484169281019290925260038101548316606083015260048101549092166080820152600582015460a08201526006909101546001600160401b0380821660c0840152600160401b82041660e0830152600160801b900460ff1615156101008201528351849084908110610be757610be7613485565b6020908102919091010152610bfd600183613407565b91505b80610c0a81613456565b915050610a7e565b610c1a612e3e565b600081815260056020819052604090912090810154341015610c7e5760405162461bcd60e51b815260206004820152601c60248201527f5072696365206e6f7420656e6f75676820746f2072656e74204e46540000000060448201526064016104a1565b6006810154600160801b900460ff161515600114610cae5760405162461bcd60e51b81526004016104a190613399565b6006810154426001600160401b0390911611610cdc5760405162461bcd60e51b81526004016104a19061349b565b600681015442600160401b9091046001600160401b031611610d105760405162461bcd60e51b81526004016104a1906133c4565b346000600a610d208360026134e6565b610d2a91906134fd565b90506000610d38828461351f565b60038501546040519192506001600160a01b03169082156108fc029083906000818181858888f19350505050158015610d75573d6000803e3d6000fd5b50835460068501546040516370182b2f60e11b81526001600160a01b039092169163e030565e91610db891899133916001600160401b0390911690600401613532565b600060405180830381600087803b158015610dd257600080fd5b505af1158015610de6573d6000803e3d6000fd5b50506003546004546001600160a01b0390911692506108fc9150610e0b908590613407565b6040518115909202916000818181858888f19350505050158015610e33573d6000803e3d6000fd5b506004840180546001600160a01b0319163317905560068401805460ff60801b19169055610e65600180546001019055565b83546003850154600686015460405188937f98bbd112ab2a0c7f030556428fa558023444e4194b6354cf269a758ac3e62f5a93610ec0936001600160a01b03928316939190921691339134916001600160401b03169061341a565b60405180910390a250505050610ed66001600055565b50565b60606000610ee660025490565b90506000805b82811015610f7c573360056000610f04846001613407565b81526020810191909152604001600020600301546001600160a01b0316148015610f57575060056000610f38836001613407565b8152602081019190915260400160002060060154600160801b900460ff165b15610f6a57610f67600183613407565b91505b80610f7481613456565b915050610eec565b506000816001600160401b03811115610f9757610f9761346f565b604051908082528060200260200182016040528015610fd057816020015b610fbd612f9b565b815260200190600190039081610fb55790505b5090506000805b8481101561093d573360056000610fef846001613407565b81526020810191909152604001600020600301546001600160a01b0316148015611042575060056000611023836001613407565b8152602081019190915260400160002060060154600160801b900460ff165b156111205760056000611056836001613407565b8152602080820192909252604090810160002081516101208101835281546001600160a01b039081168252600183015494820194909452600282015484169281019290925260038101548316606083015260048101549092166080820152600582015460a08201526006909101546001600160401b0380821660c0840152600160401b82041660e0830152600160801b900460ff161515610100820152835184908490811061110757611107613485565b602090810291909101015261111d600183613407565b91505b8061112a81613456565b915050610fd7565b600083815260056020526040902060038101546001600160a01b0316331461116c5760405162461bcd60e51b81526004016104a19061355a565b6006810154600160801b900460ff16151560011461119c5760405162461bcd60e51b81526004016104a19061359b565b60048101546001600160a01b0316156111c75760405162461bcd60e51b81526004016104a1906135dc565b42836001600160401b0316116111ef5760405162461bcd60e51b81526004016104a190613627565b42826001600160401b0316116112175760405162461bcd60e51b81526004016104a190613676565b60408051610120810182526001600160a01b039687168152602080820187815230838501908152336060850190815260006080860181815260059889015460a088019081526001600160401b039b8c1660c089019081529a8c1660e0890190815260016101008a018181529e8552978b90529890922096518754908e166001600160a01b03199182161788559451958701959095559151600286018054918d1691851691909117905551600385018054918c16918416919091179055915160048401805491909a16911617909755955191860191909155905160069094018054915193511515600160801b0260ff60801b19948416600160401b026001600160801b031990931695909316949094171791909116179055565b611338612f9b565b5060009081526005602081815260409283902083516101208101855281546001600160a01b0390811682526001830154938201939093526002820154831694810194909452600381015482166060850152600481015490911660808401529081015460a0830152600601546001600160401b0380821660c0840152600160401b82041660e0830152600160801b900460ff16151561010082015290565b60006113e060025490565b905060005b818110156114e65760006005816113fd846001613407565b8152602080820192909252604090810160002081516101208101835281546001600160a01b039081168252600183015494820194909452600282015484169281019290925260038101548316606083015260048101549092166080820152600582015460a08201526006909101546001600160401b0380821660c08401819052600160401b830490911660e0840152600160801b90910460ff1615156101008301529091504211156114d3576114b68160200151612e97565b60808101516001600160a01b0316156114d3576114d36001612ee3565b50806114de81613456565b9150506113e5565b5050565b600084815260056020526040902060038101546001600160a01b031633146115245760405162461bcd60e51b81526004016104a19061355a565b6006810154600160801b900460ff1615156001146115545760405162461bcd60e51b81526004016104a19061359b565b60048101546001600160a01b03161561157f5760405162461bcd60e51b81526004016104a1906135dc565b42836001600160401b0316116115a75760405162461bcd60e51b81526004016104a190613627565b42826001600160401b0316116115cf5760405162461bcd60e51b81526004016104a190613676565b600084116116185760405162461bcd60e51b81526020600482015260166024820152755072696365206d75737420626520706f73697469766560501b60448201526064016104a1565b5060408051610120810182526001600160a01b039687168152602080820187815230838501908152336060850190815260006080860181815260a087019a8b526001600160401b03998a1660c08801908152988a1660e08801908152600161010089018181529d84526005978890529890922096518754908e166001600160a01b03199182161788559451978701979097559151600286018054918d1691851691909117905551600385018054918c16918416919091179055935160048401805491909a169116179097559351958401959095555160069092018054945193511515600160801b0260ff60801b19948316600160401b026001600160801b031990961693909216929092179390931791909116919091179055565b6060600061174060025490565b90506000805b8281101561181c57336005600061175e846001613407565b81526020810191909152604001600020600301546001600160a01b0316036117925761178b600183613407565b915061180a565b33600560006117a2846001613407565b81526020810191909152604001600020600401546001600160a01b03161480156117f7575042600560006117d7846001613407565b81526020810191909152604001600020600601546001600160401b031610155b1561180a57611807600183613407565b91505b8061181481613456565b915050611746565b506000816001600160401b038111156118375761183761346f565b60405190808252806020026020018201604052801561187057816020015b61185d612f9b565b8152602001906001900390816118555790505b5090506000805b8481101561093d57336005600061188f846001613407565b81526020810191909152604001600020600301546001600160a01b03160361198e57600560006118c0836001613407565b8152602080820192909252604090810160002081516101208101835281546001600160a01b039081168252600183015494820194909452600282015484169281019290925260038101548316606083015260048101549092166080820152600582015460a08201526006909101546001600160401b0380821660c0840152600160401b82041660e0830152600160801b900460ff161515610100820152835184908490811061197157611971613485565b6020908102919091010152611987600183613407565b9150611ad1565b336005600061199e846001613407565b81526020810191909152604001600020600401546001600160a01b03161480156119f3575042600560006119d3846001613407565b81526020810191909152604001600020600601546001600160401b031610155b15611ad15760056000611a07836001613407565b8152602080820192909252604090810160002081516101208101835281546001600160a01b039081168252600183015494820194909452600282015484169281019290925260038101548316606083015260048101549092166080820152600582015460a08201526006909101546001600160401b0380821660c0840152600160401b82041660e0830152600160801b900460ff1615156101008201528351849084908110611ab857611ab8613485565b6020908102919091010152611ace600183613407565b91505b80611adb81613456565b915050611877565b611aeb612e3e565b600082815260056020526040902060038101546001600160a01b03163314611b515760405162461bcd60e51b815260206004820152601960248201527841646472657373206e6f74206c697374696e6720706172747960381b60448201526064016104a1565b6006810154600160801b900460ff161515600114611b815760405162461bcd60e51b81526004016104a190613399565b6006810154426001600160401b0390911611611baf5760405162461bcd60e51b81526004016104a19061349b565b600681015442600160401b9091046001600160401b031611611be35760405162461bcd60e51b81526004016104a1906133c4565b60008381526006602090815260408083206001600160a01b03808716855290835281842082516060810184528154909216825260018101549382018490526002908101546001600160401b0316928201929092529290600a90611c479084906134e6565b611c5191906134fd565b90506000611c5f828461351f565b60038601546040519192506001600160a01b0316908190600090650e8d4a5100009082818181858883f19350505050158015611c9f573d6000803e3d6000fd5b50855460068701546040516370182b2f60e11b81526001600160a01b039092169163e030565e91611ce2918c918c916001600160401b0390911690600401613532565b600060405180830381600087803b158015611cfc57600080fd5b505af1158015611d10573d6000803e3d6000fd5b50505050600083600454611d249190613407565b9050611d536040518060400160405280600b81526020016a707269636520697320257360a81b81525082612f3a565b6003546040516001600160a01b0390911690600090660e90eda39440009082818181858883f19350505050158015611d8f573d6000803e3d6000fd5b506004870180546001600160a01b0319166001600160a01b038a1617905560068701805460ff60801b19169055600180548101905586546003880154602088015160068a01546040518d947f98bbd112ab2a0c7f030556428fa558023444e4194b6354cf269a758ac3e62f5a94611e22946001600160a01b039283169492909116928f926001600160401b03169061341a565b60405180910390a2505050505050506114e66001600055565b611e43612e3e565b600081815260056020526040902060038101546001600160a01b03163314611ead5760405162461bcd60e51b815260206004820152601960248201527f4f6e6c79204e4654206f776e65722063616e2064656c6973740000000000000060448201526064016104a1565b60048101546001600160a01b03161580611ed557506006810154426001600160401b03909116105b611f215760405162461bcd60e51b815260206004820152601960248201527f55736572206973207374696c6c207573696e6720746f6b656e0000000000000060448201526064016104a1565b6040516323b872dd60e01b8152306004820152336024820152604481018390526001600160a01b038416906323b872dd90606401600060405180830381600087803b158015611f6f57600080fd5b505af1158015611f83573d6000803e3d6000fd5b50505050611f916002612ee3565b600082815260056020818152604080842080546001600160a01b031990811682556001820186905560028201805482169055600382018054821690556004820180549091169055928301939093556006909101805470ffffffffffffffffffffffffffffffffff1916905581516001600160a01b038616815230918101919091523381830152905183917fba76dc689272ac4f883c8bec89c50dac58b0f4eb6d053a0346452a0316e70cbf919081900360600190a2506114e66001600055565b60008181526005602052604090206003810154606091906001600160a01b031633146120bb5760405162461bcd60e51b815260206004820152601960248201527841646472657373206e6f74206c697374696e6720706172747960381b60448201526064016104a1565b6000838152600760205260408120546001600160401b038111156120e1576120e161346f565b60405190808252806020026020018201604052801561212c57816020015b60408051606081018252600080825260208083018290529282015282526000199092019101816120ff5790505b50905060005b6000858152600760205260409020548110156121f5576000858152600660205260408120600880549192918490811061216d5761216d613485565b60009182526020808320909101546001600160a01b039081168452838201949094526040928301909120825160608101845281549094168452600181015491840191909152600201546001600160401b03169082015282518390839081106121d7576121d7613485565b602002602001018190525080806121ed90613456565b915050612132565b509392505050565b6060600061220a60025490565b90506000816001600160401b038111156122265761222661346f565b60405190808252806020026020018201604052801561225f57816020015b61224c612f9b565b8152602001906001900390816122445790505b5090506000805b8381101561238b57600060058161227e846001613407565b81526020810191909152604001600020600201546001600160a01b03161461237957600560006122af836001613407565b8152602080820192909252604090810160002081516101208101835281546001600160a01b039081168252600183015494820194909452600282015484169281019290925260038101548316606083015260048101549092166080820152600582015460a08201526006909101546001600160401b0380821660c0840152600160401b82041660e0830152600160801b900460ff161515610100820152835184908490811061236057612360613485565b6020908102919091010152612376600183613407565b91505b8061238381613456565b915050612266565b50909392505050565b600081815260056020526040902060048101546001600160a01b031633146123fe5760405162461bcd60e51b815260206004820152601e60248201527f4f6e6c7920757365722063616e207465726d696e6174652072656e74616c000060448201526064016104a1565b6006810154426001600160401b039091161061246a5760405162461bcd60e51b815260206004820152602560248201527f43616e6e6f74207465726d696e61746520616c72656164792065787069726564604482015264103637b0b760d91b60648201526084016104a1565b805460068201546040516370182b2f60e11b81526001600160a01b039092169163e030565e916124ad9186916000916001600160401b0390911690600401613532565b600060405180830381600087803b1580156124c757600080fd5b505af11580156124db573d6000803e3d6000fd5b505050506124e96001612ee3565b6114e682612e97565b600082815260056020526040902060038101546001600160a01b0316331461252c5760405162461bcd60e51b81526004016104a19061355a565b6006810154600160801b900460ff16151560011461255c5760405162461bcd60e51b81526004016104a19061359b565b60048101546001600160a01b0316156125875760405162461bcd60e51b81526004016104a1906135dc565b6006810154426001600160401b03909116116125f85760405162461bcd60e51b815260206004820152602a60248201527f4e46542068617320657870697265642c20706c656173652075706461746520656044820152697870697279206461746560b01b60648201526084016104a1565b600681015442600160401b9091046001600160401b0316116126765760405162461bcd60e51b815260206004820152603160248201527f4c697374696e672068617320657870697265642c20706c6561736520757064616044820152707465206c697374696e672065787069727960781b60648201526084016104a1565b600082116126bf5760405162461bcd60e51b81526020600482015260166024820152755072696365206d75737420626520706f73697469766560501b60448201526064016104a1565b604051806101200160405280856001600160a01b03168152602001848152602001306001600160a01b03168152602001336001600160a01b0316815260200160006001600160a01b031681526020018381526020018260060160009054906101000a90046001600160401b03166001600160401b031681526020018260060160089054906101000a90046001600160401b03166001600160401b03168152602001600115158152506005600085815260200190815260200160002060008201518160000160006101000a8154816001600160a01b0302191690836001600160a01b031602179055506020820151816001015560408201518160020160006101000a8154816001600160a01b0302191690836001600160a01b0316021790555060608201518160030160006101000a8154816001600160a01b0302191690836001600160a01b0316021790555060808201518160040160006101000a8154816001600160a01b0302191690836001600160a01b0316021790555060a0820151816005015560c08201518160060160006101000a8154816001600160401b0302191690836001600160401b0316021790555060e08201518160060160086101000a8154816001600160401b0302191690836001600160401b031602179055506101008201518160060160106101000a81548160ff02191690831515021790555090505050505050565b6128ce612e3e565b84846000826001600160a01b0316636352211e836040518263ffffffff1660e01b815260040161290091815260200190565b602060405180830381865afa15801561291d573d6000803e3d6000fd5b505050506040513d601f19601f8201168201806040525081019061294191906136c8565b90506001600160a01b03811633146129ab5760405162461bcd60e51b815260206004820152602760248201527f4552433732313a2043616c6c6572206973206e6f74206f776e6572206f7220616044820152661c1c1c9bdd995960ca1b60648201526084016104a1565b600454341015612a0d5760405162461bcd60e51b815260206004820152602760248201527f4e6f7420656e6f7567682045544820746f2070617920666f7220706c6174666f604482015266726d206665657360c81b60648201526084016104a1565b60008611612a5d5760405162461bcd60e51b815260206004820152601860248201527f50726963652063616e6e6f74206265206e65676174697665000000000000000060448201526064016104a1565b42856001600160401b031611612ac55760405162461bcd60e51b815260206004820152602760248201527f45787069727920646174652063616e6e6f74206265206561726c69657220746860448201526630b7103737bb9760c91b60648201526084016104a1565b42846001600160401b031611612b275760405162461bcd60e51b815260206004820152602160248201527f4c697374696e67206578706972792063616e6e6f74206265206e6567617469766044820152606560f81b60648201526084016104a1565b846001600160401b0316846001600160401b03161115612ba35760405162461bcd60e51b815260206004820152603160248201527f4578706972792074696d652063616e6e6f742062652073686f72746572207468604482015270616e206c697374696e672065787069727960781b60648201526084016104a1565b604051632142170760e11b8152336004820152306024820152604481018890526001600160a01b038916906342842e0e90606401600060405180830381600087803b158015612bf157600080fd5b505af1158015612c05573d6000803e3d6000fd5b50505050612c17600280546001019055565b604051806101200160405280896001600160a01b03168152602001888152602001306001600160a01b03168152602001336001600160a01b0316815260200160006001600160a01b03168152602001878152602001866001600160401b03168152602001856001600160401b03168152602001600115158152506005600089815260200190815260200160002060008201518160000160006101000a8154816001600160a01b0302191690836001600160a01b031602179055506020820151816001015560408201518160020160006101000a8154816001600160a01b0302191690836001600160a01b0316021790555060608201518160030160006101000a8154816001600160a01b0302191690836001600160a01b0316021790555060808201518160040160006101000a8154816001600160a01b0302191690836001600160a01b0316021790555060a0820151816005015560c08201518160060160006101000a8154816001600160401b0302191690836001600160401b0316021790555060e08201518160060160086101000a8154816001600160401b0302191690836001600160401b031602179055506101008201518160060160106101000a81548160ff021916908315150217905550905050867fd39d9f5169359fcea680767f5d3035c69c3090b61114d29cecb2423fe4d87d7d8930338a8a604051612e2295949392919061341a565b60405180910390a2505050612e376001600055565b5050505050565b600260005403612e905760405162461bcd60e51b815260206004820152601f60248201527f5265656e7472616e637947756172643a207265656e7472616e742063616c6c0060448201526064016104a1565b6002600055565b60008181526005602052604080822060068101805460ff60801b191690559051909183917f63cc1ff7e91c4c196e870f5a10dbb5afaf165a2efcc3a7832ffbf487f195061b9190a25050565b805480612f325760405162461bcd60e51b815260206004820152601b60248201527f436f756e7465723a2064656372656d656e74206f766572666c6f77000000000060448201526064016104a1565b600019019055565b6114e68282604051602401612f509291906136ec565b60408051601f198184030181529190526020810180516001600160e01b0316632d839cb360e21b17905280516a636f6e736f6c652e6c6f67602083016000808483855afa5050505050565b6040805161012081018252600080825260208201819052918101829052606081018290526080810182905260a0810182905260c0810182905260e0810182905261010081019190915290565b80356001600160401b0381168114612ffe57600080fd5b919050565b60008060006060848603121561301857600080fd5b833592506020840135915061302f60408501612fe7565b90509250925092565b80516001600160a01b03908116835260208083015190840152604080830151821690840152606080830151821690840152608080830151918216908401525060a081015160a083015260c081015161309b60c08401826001600160401b03169052565b5060e08101516130b660e08401826001600160401b03169052565b50610100908101511515910152565b6020808252825182820181905260009190848201906040850190845b81811015613108576130f4838551613038565b9284019261012092909201916001016130e1565b50909695505050505050565b60006020828403121561312657600080fd5b5035919050565b6001600160a01b0381168114610ed657600080fd5b60008060008060006080868803121561315a57600080fd5b85356131658161312d565b945060208601356131758161312d565b93506040860135925060608601356001600160401b038082111561319857600080fd5b818801915088601f8301126131ac57600080fd5b8135818111156131bb57600080fd5b8960208285010111156131cd57600080fd5b9699959850939650602001949392505050565b600080600080608085870312156131f657600080fd5b84356132018161312d565b93506020850135925061321660408601612fe7565b915061322460608601612fe7565b905092959194509250565b610120810161323e8284613038565b92915050565b600080600080600060a0868803121561325c57600080fd5b85356132678161312d565b9450602086013593506040860135925061328360608701612fe7565b915061329160808701612fe7565b90509295509295909350565b600080604083850312156132b057600080fd5b8235915060208301356132c28161312d565b809150509250929050565b600080604083850312156132e057600080fd5b82356132eb8161312d565b946020939093013593505050565b602080825282518282018190526000919060409081850190868401855b8281101561335757815180516001600160a01b0316855286810151878601528501516001600160401b03168585015260609093019290850190600101613316565b5091979650505050505050565b60008060006060848603121561337957600080fd5b83356133848161312d565b95602085013595506040909401359392505050565b602080825260119082015270139195081a5cc81b9bdd081b1a5cdd1959607a1b604082015260600190565b602080825260139082015272131a5cdd1a5b99c81a185cc8195e1c1a5c9959606a1b604082015260600190565b634e487b7160e01b600052601160045260246000fd5b8082018082111561323e5761323e6133f1565b6001600160a01b039586168152938516602085015291909316604083015260608201929092526001600160401b03909116608082015260a00190565b600060018201613468576134686133f1565b5060010190565b634e487b7160e01b600052604160045260246000fd5b634e487b7160e01b600052603260045260246000fd5b6020808252602b908201527f4e4654206578706972792064617465206973206c6f6e676572207468616e206360408201526a757272656e742074696d6560a81b606082015260800190565b808202811582820484141761323e5761323e6133f1565b60008261351a57634e487b7160e01b600052601260045260246000fd5b500490565b8181038181111561323e5761323e6133f1565b9283526001600160a01b039190911660208301526001600160401b0316604082015260600190565b60208082526021908201527f4f6e6c79206f776e65722063616e20757064617465204e4654206c697374696e6040820152606760f81b606082015260800190565b60208082526021908201527f43616e206f6e6c7920757064617465206578697374696e67206c697374696e676040820152602160f81b606082015260800190565b6020808252602b908201527f43616e6e6f742065646974204e4654206c697374696e67207768696c65204e4660408201526a15081a5cc81c995b9d195960aa1b606082015260800190565b6020808252602f908201527f45787069727920646174652063616e6e6f74206265206561726c69657220746860408201526e616e2063757272656e742074696d6560881b606082015260800190565b60208082526032908201527f4c697374696e67206578706972792063616e6e6f74206265206561726c696572604082015271207468616e2063757272656e742074696d6560701b606082015260800190565b6000602082840312156136da57600080fd5b81516136e58161312d565b9392505050565b604081526000835180604084015260005b8181101561371a57602081870181015160608684010152016136fd565b506000606082850101526060601f19601f830116840101915050826020830152939250505056fea2646970667358221220deaf4d852ce652be17b85caa133024567306f92e26180be3519e2bf56f78d7f164736f6c63430008110033",
  "linkReferences": {},
  "deployedLinkReferences": {}
}