{
  "_format": "hh-sol-artifact-1",
  "contractName": "NFTRM",
  "sourceName": "contracts/NFTRM.sol",
  "abi": [
    {
      "inputs": [],
      "stateMutability": "nonpayable",
      "type": "constructor"
    },
    {
      "anonymous": false,
      "inputs": [
        {
          "indexed": false,
          "internalType": "address",
          "name": "nftAddress",
          "type": "address"
        },
        {
          "indexed": true,
          "internalType": "uint256",
          "name": "tokenId",
          "type": "uint256"
        },
        {
          "indexed": false,
          "internalType": "address",
          "name": "seller",
          "type": "address"
        },
        {
          "indexed": false,
          "internalType": "address",
          "name": "user",
          "type": "address"
        },
        {
          "indexed": false,
          "internalType": "uint256",
          "name": "price",
          "type": "uint256"
        },
        {
          "indexed": false,
          "internalType": "uint64",
          "name": "expiry",
          "type": "uint64"
        }
      ],
      "name": "LTokenBid",
      "type": "event"
    },
    {
      "anonymous": false,
      "inputs": [
        {
          "indexed": false,
          "internalType": "address",
          "name": "nftAddress",
          "type": "address"
        },
        {
          "indexed": true,
          "internalType": "uint256",
          "name": "tokenId",
          "type": "uint256"
        },
        {
          "indexed": false,
          "internalType": "address",
          "name": "owner",
          "type": "address"
        },
        {
          "indexed": false,
          "internalType": "address",
          "name": "seller",
          "type": "address"
        }
      ],
      "name": "LTokenDelisted",
      "type": "event"
    },
    {
      "anonymous": false,
      "inputs": [
        {
          "indexed": false,
          "internalType": "address",
          "name": "nftAddress",
          "type": "address"
        },
        {
          "indexed": true,
          "internalType": "uint256",
          "name": "tokenId",
          "type": "uint256"
        },
        {
          "indexed": false,
          "internalType": "address",
          "name": "owner",
          "type": "address"
        },
        {
          "indexed": false,
          "internalType": "address",
          "name": "seller",
          "type": "address"
        },
        {
          "indexed": false,
          "internalType": "uint256",
          "name": "price",
          "type": "uint256"
        },
        {
          "indexed": false,
          "internalType": "uint64",
          "name": "expiry",
          "type": "uint64"
        }
      ],
      "name": "LTokenListed",
      "type": "event"
    },
    {
      "anonymous": false,
      "inputs": [
        {
          "indexed": false,
          "internalType": "address",
          "name": "nftAddress",
          "type": "address"
        },
        {
          "indexed": true,
          "internalType": "uint256",
          "name": "tokenId",
          "type": "uint256"
        },
        {
          "indexed": false,
          "internalType": "address",
          "name": "seller",
          "type": "address"
        },
        {
          "indexed": false,
          "internalType": "address",
          "name": "user",
          "type": "address"
        },
        {
          "indexed": false,
          "internalType": "uint256",
          "name": "price",
          "type": "uint256"
        },
        {
          "indexed": false,
          "internalType": "uint64",
          "name": "expiry",
          "type": "uint64"
        }
      ],
      "name": "LTokenRentedOut",
      "type": "event"
    },
    {
      "anonymous": false,
      "inputs": [
        {
          "indexed": false,
          "internalType": "address",
          "name": "nftAddress",
          "type": "address"
        },
        {
          "indexed": true,
          "internalType": "uint256",
          "name": "tokenId",
          "type": "uint256"
        },
        {
          "indexed": false,
          "internalType": "address",
          "name": "seller",
          "type": "address"
        },
        {
          "indexed": false,
          "internalType": "address",
          "name": "user",
          "type": "address"
        },
        {
          "indexed": false,
          "internalType": "uint256",
          "name": "price",
          "type": "uint256"
        },
        {
          "indexed": false,
          "internalType": "uint64",
          "name": "expiry",
          "type": "uint64"
        }
      ],
      "name": "LTokenUpdated",
      "type": "event"
    },
    {
      "anonymous": false,
      "inputs": [
        {
          "indexed": true,
          "internalType": "uint256",
          "name": "tokenId",
          "type": "uint256"
        }
      ],
      "name": "expiredNFT",
      "type": "event"
    },
    {
      "inputs": [
        {
          "internalType": "uint256",
          "name": "tokenId",
          "type": "uint256"
        },
        {
          "internalType": "address",
          "name": "renter",
          "type": "address"
        }
      ],
      "name": "acceptOffer",
      "outputs": [],
      "stateMutability": "payable",
      "type": "function"
    },
    {
      "inputs": [
        {
          "internalType": "address",
          "name": "_nftAddress",
          "type": "address"
        },
        {
          "internalType": "uint256",
          "name": "tokenId",
          "type": "uint256"
        }
      ],
      "name": "delistNFT",
      "outputs": [],
      "stateMutability": "nonpayable",
      "type": "function"
    },
    {
      "inputs": [],
      "name": "getAllNFTs",
      "outputs": [
        {
          "components": [
            {
              "internalType": "address",
              "name": "nftAddress",
              "type": "address"
            },
            {
              "internalType": "uint256",
              "name": "tokenId",
              "type": "uint256"
            },
            {
              "internalType": "address payable",
              "name": "owner",
              "type": "address"
            },
            {
              "internalType": "address payable",
              "name": "seller",
              "type": "address"
            },
            {
              "internalType": "address",
              "name": "user",
              "type": "address"
            },
            {
              "internalType": "uint256",
              "name": "price",
              "type": "uint256"
            },
            {
              "internalType": "uint64",
              "name": "expiry",
              "type": "uint64"
            },
            {
              "internalType": "uint64",
              "name": "listingExpiry",
              "type": "uint64"
            },
            {
              "internalType": "bool",
              "name": "currentlyListed",
              "type": "bool"
            }
          ],
          "internalType": "struct NFTRM.LToken[]",
          "name": "",
          "type": "tuple[]"
        }
      ],
      "stateMutability": "view",
      "type": "function"
    },
    {
      "inputs": [],
      "name": "getListedNFTs",
      "outputs": [
        {
          "components": [
            {
              "internalType": "address",
              "name": "nftAddress",
              "type": "address"
            },
            {
              "internalType": "uint256",
              "name": "tokenId",
              "type": "uint256"
            },
            {
              "internalType": "address payable",
              "name": "owner",
              "type": "address"
            },
            {
              "internalType": "address payable",
              "name": "seller",
              "type": "address"
            },
            {
              "internalType": "address",
              "name": "user",
              "type": "address"
            },
            {
              "internalType": "uint256",
              "name": "price",
              "type": "uint256"
            },
            {
              "internalType": "uint64",
              "name": "expiry",
              "type": "uint64"
            },
            {
              "internalType": "uint64",
              "name": "listingExpiry",
              "type": "uint64"
            },
            {
              "internalType": "bool",
              "name": "currentlyListed",
              "type": "bool"
            }
          ],
          "internalType": "struct NFTRM.LToken[]",
          "name": "",
          "type": "tuple[]"
        }
      ],
      "stateMutability": "view",
      "type": "function"
    },
    {
      "inputs": [],
      "name": "getListingFee",
      "outputs": [
        {
          "internalType": "uint256",
          "name": "",
          "type": "uint256"
        }
      ],
      "stateMutability": "view",
      "type": "function"
    },
    {
      "inputs": [],
      "name": "getMyListedNFTs",
      "outputs": [
        {
          "components": [
            {
              "internalType": "address",
              "name": "nftAddress",
              "type": "address"
            },
            {
              "internalType": "uint256",
              "name": "tokenId",
              "type": "uint256"
            },
            {
              "internalType": "address payable",
              "name": "owner",
              "type": "address"
            },
            {
              "internalType": "address payable",
              "name": "seller",
              "type": "address"
            },
            {
              "internalType": "address",
              "name": "user",
              "type": "address"
            },
            {
              "internalType": "uint256",
              "name": "price",
              "type": "uint256"
            },
            {
              "internalType": "uint64",
              "name": "expiry",
              "type": "uint64"
            },
            {
              "internalType": "uint64",
              "name": "listingExpiry",
              "type": "uint64"
            },
            {
              "internalType": "bool",
              "name": "currentlyListed",
              "type": "bool"
            }
          ],
          "internalType": "struct NFTRM.LToken[]",
          "name": "",
          "type": "tuple[]"
        }
      ],
      "stateMutability": "view",
      "type": "function"
    },
    {
      "inputs": [],
      "name": "getMyNFTs",
      "outputs": [
        {
          "components": [
            {
              "internalType": "address",
              "name": "nftAddress",
              "type": "address"
            },
            {
              "internalType": "uint256",
              "name": "tokenId",
              "type": "uint256"
            },
            {
              "internalType": "address payable",
              "name": "owner",
              "type": "address"
            },
            {
              "internalType": "address payable",
              "name": "seller",
              "type": "address"
            },
            {
              "internalType": "address",
              "name": "user",
              "type": "address"
            },
            {
              "internalType": "uint256",
              "name": "price",
              "type": "uint256"
            },
            {
              "internalType": "uint64",
              "name": "expiry",
              "type": "uint64"
            },
            {
              "internalType": "uint64",
              "name": "listingExpiry",
              "type": "uint64"
            },
            {
              "internalType": "bool",
              "name": "currentlyListed",
              "type": "bool"
            }
          ],
          "internalType": "struct NFTRM.LToken[]",
          "name": "",
          "type": "tuple[]"
        }
      ],
      "stateMutability": "view",
      "type": "function"
    },
    {
      "inputs": [],
      "name": "getMyRentedNFTs",
      "outputs": [
        {
          "components": [
            {
              "internalType": "address",
              "name": "nftAddress",
              "type": "address"
            },
            {
              "internalType": "uint256",
              "name": "tokenId",
              "type": "uint256"
            },
            {
              "internalType": "address payable",
              "name": "owner",
              "type": "address"
            },
            {
              "internalType": "address payable",
              "name": "seller",
              "type": "address"
            },
            {
              "internalType": "address",
              "name": "user",
              "type": "address"
            },
            {
              "internalType": "uint256",
              "name": "price",
              "type": "uint256"
            },
            {
              "internalType": "uint64",
              "name": "expiry",
              "type": "uint64"
            },
            {
              "internalType": "uint64",
              "name": "listingExpiry",
              "type": "uint64"
            },
            {
              "internalType": "bool",
              "name": "currentlyListed",
              "type": "bool"
            }
          ],
          "internalType": "struct NFTRM.LToken[]",
          "name": "",
          "type": "tuple[]"
        }
      ],
      "stateMutability": "view",
      "type": "function"
    },
    {
      "inputs": [
        {
          "internalType": "uint256",
          "name": "tokenId",
          "type": "uint256"
        }
      ],
      "name": "getNFT",
      "outputs": [
        {
          "components": [
            {
              "internalType": "address",
              "name": "nftAddress",
              "type": "address"
            },
            {
              "internalType": "uint256",
              "name": "tokenId",
              "type": "uint256"
            },
            {
              "internalType": "address payable",
              "name": "owner",
              "type": "address"
            },
            {
              "internalType": "address payable",
              "name": "seller",
              "type": "address"
            },
            {
              "internalType": "address",
              "name": "user",
              "type": "address"
            },
            {
              "internalType": "uint256",
              "name": "price",
              "type": "uint256"
            },
            {
              "internalType": "uint64",
              "name": "expiry",
              "type": "uint64"
            },
            {
              "internalType": "uint64",
              "name": "listingExpiry",
              "type": "uint64"
            },
            {
              "internalType": "bool",
              "name": "currentlyListed",
              "type": "bool"
            }
          ],
          "internalType": "struct NFTRM.LToken",
          "name": "",
          "type": "tuple"
        }
      ],
      "stateMutability": "view",
      "type": "function"
    },
    {
      "inputs": [
        {
          "internalType": "uint256",
          "name": "tokenId",
          "type": "uint256"
        }
      ],
      "name": "getNFTOwner",
      "outputs": [
        {
          "internalType": "address",
          "name": "",
          "type": "address"
        }
      ],
      "stateMutability": "view",
      "type": "function"
    },
    {
      "inputs": [
        {
          "internalType": "address",
          "name": "_nftAddress",
          "type": "address"
        },
        {
          "internalType": "uint256",
          "name": "tokenId",
          "type": "uint256"
        },
        {
          "internalType": "uint256",
          "name": "price",
          "type": "uint256"
        },
        {
          "internalType": "uint64",
          "name": "expiry",
          "type": "uint64"
        },
        {
          "internalType": "uint64",
          "name": "listingExpiry",
          "type": "uint64"
        }
      ],
      "name": "listNFT",
      "outputs": [],
      "stateMutability": "payable",
      "type": "function"
    },
    {
      "inputs": [
        {
          "internalType": "uint256",
          "name": "tokenId",
          "type": "uint256"
        },
        {
          "internalType": "uint256",
          "name": "price",
          "type": "uint256"
        },
        {
          "internalType": "uint64",
          "name": "expiry",
          "type": "uint64"
        }
      ],
      "name": "offerToRent",
      "outputs": [],
      "stateMutability": "payable",
      "type": "function"
    },
    {
      "inputs": [],
      "name": "refreshNFTs",
      "outputs": [],
      "stateMutability": "nonpayable",
      "type": "function"
    },
    {
      "inputs": [
        {
          "internalType": "uint256",
          "name": "tokenId",
          "type": "uint256"
        }
      ],
      "name": "rentNFT",
      "outputs": [],
      "stateMutability": "payable",
      "type": "function"
    },
    {
      "inputs": [
        {
          "internalType": "uint256",
          "name": "tokenId",
          "type": "uint256"
        }
      ],
      "name": "terminateRental",
      "outputs": [],
      "stateMutability": "nonpayable",
      "type": "function"
    },
    {
      "inputs": [
        {
          "internalType": "address",
          "name": "_nftAddress",
          "type": "address"
        },
        {
          "internalType": "uint256",
          "name": "tokenId",
          "type": "uint256"
        },
        {
          "internalType": "uint64",
          "name": "expiry",
          "type": "uint64"
        },
        {
          "internalType": "uint64",
          "name": "listingExpiry",
          "type": "uint64"
        }
      ],
      "name": "updateNFT",
      "outputs": [],
      "stateMutability": "nonpayable",
      "type": "function"
    },
    {
      "inputs": [
        {
          "internalType": "address",
          "name": "_nftAddress",
          "type": "address"
        },
        {
          "internalType": "uint256",
          "name": "tokenId",
          "type": "uint256"
        },
        {
          "internalType": "uint256",
          "name": "price",
          "type": "uint256"
        },
        {
          "internalType": "uint64",
          "name": "expiry",
          "type": "uint64"
        },
        {
          "internalType": "uint64",
          "name": "listingExpiry",
          "type": "uint64"
        }
      ],
      "name": "updateNFT",
      "outputs": [],
      "stateMutability": "nonpayable",
      "type": "function"
    },
    {
      "inputs": [
        {
          "internalType": "address",
          "name": "_nftAddress",
          "type": "address"
        },
        {
          "internalType": "uint256",
          "name": "tokenId",
          "type": "uint256"
        },
        {
          "internalType": "uint256",
          "name": "price",
          "type": "uint256"
        }
      ],
      "name": "updateNFT",
      "outputs": [],
      "stateMutability": "nonpayable",
      "type": "function"
    },
    {
      "inputs": [
        {
          "internalType": "uint256",
          "name": "tokenId",
          "type": "uint256"
        }
      ],
      "name": "viewAllBids",
      "outputs": [
        {
          "components": [
            {
              "internalType": "address",
              "name": "bidder",
              "type": "address"
            },
            {
              "internalType": "uint256",
              "name": "price",
              "type": "uint256"
            },
            {
              "internalType": "uint64",
              "name": "expiry",
              "type": "uint64"
            }
          ],
          "internalType": "struct NFTRM.Bid[]",
          "name": "",
          "type": "tuple[]"
        }
      ],
      "stateMutability": "view",
      "type": "function"
    }
  ],
  "bytecode": "0x6080604052662386f26fc1000060045534801561001b57600080fd5b506001600055600380546001600160a01b03191633179055613689806100426000396000f3fe6080604052600436106101135760003560e01c8063629cb2e4116100a0578063deaea2e311610064578063deaea2e3146102aa578063e0391b0914610381578063f921741914610396578063f9b8ed25146103b6578063fd3600b4146103d657600080fd5b8063629cb2e414610217578063918d407d1461022c578063a17a70941461023f578063a7bf7a421461025f578063b8fe6abe1461028c57600080fd5b80631cd27232116100e75780631cd272321461018057806325dcc57014610195578063576f7ea7146101b55780635f23092e146101e257806360e100ab146101f757600080fd5b8062dc4a4d14610118578063012386f01461012d5780630986d5171461015857806314364f1d1461016d575b600080fd5b61012b610126366004612fb3565b6103e9565b005b34801561013957600080fd5b50610142610700565b60405161014f9190613075565b60405180910390f35b34801561016457600080fd5b506101426108f7565b61012b61017b3660046130c4565b610bc2565b34801561018c57600080fd5b50610142610e89565b3480156101a157600080fd5b5061012b6101b03660046130f2565b6110e2565b3480156101c157600080fd5b506101d56101d03660046130c4565b6112e0565b60405161014f9190613141565b3480156101ee57600080fd5b5061012b611385565b34801561020357600080fd5b5061012b610212366004613156565b61149a565b34801561022357600080fd5b506101426116e3565b61012b61023a3660046131af565b611a93565b34801561024b57600080fd5b5061012b61025a3660046131df565b611deb565b34801561026b57600080fd5b5061027f61027a3660046130c4565b612001565b60405161014f919061320b565b34801561029857600080fd5b5060045460405190815260200161014f565b3480156102b657600080fd5b506103696102c53660046130c4565b60009081526005602081815260409283902083516101208101855281546001600160a01b03908116825260018301549382019390935260028201548316948101949094526003810154821660608501819052600482015490921660808501529182015460a08401526006909101546001600160401b0380821660c0850152600160401b82041660e0840152600160801b900460ff1615156101009092019190915290565b6040516001600160a01b03909116815260200161014f565b34801561038d57600080fd5b506101426121ad565b3480156103a257600080fd5b5061012b6103b13660046130c4565b612344565b3480156103c257600080fd5b5061012b6103d1366004613276565b6124a2565b61012b6103e4366004613156565b612876565b6103f1612dee565b60008381526005602081905260409091209081015483101561045a5760405162461bcd60e51b815260206004820152601860248201527f7072696365206e6f7420656e6f75676820666f72204e4654000000000000000060448201526064015b60405180910390fd5b6006810154600160801b900460ff16151560011461048a5760405162461bcd60e51b8152600401610451906132ab565b42826001600160401b0316116104f95760405162461bcd60e51b815260206004820152602e60248201527f4f66666572206578706972792064617465206973206561726c6965722074686160448201526d6e2063757272656e742074696d6560901b6064820152608401610451565b600681015442600160401b9091046001600160401b03161161052d5760405162461bcd60e51b8152600401610451906132d6565b60068101546001600160401b03808416911610156105a25760405162461bcd60e51b815260206004820152602c60248201527f4f66666572206578706972792064617465206973206c6f6e676572207468616e60448201526b206c6973746564206461746560a01b6064820152608401610451565b600084815260066020908152604080832033845290915281206001015490036105ea5760008481526007602052604081208054600192906105e4908490613319565b90915550505b604080516060810182523380825260208083018781526001600160401b0387811685870190815260008b815260068552878120868252909452868420955186546001600160a01b03199081166001600160a01b03928316178855935160018089019190915591516002909701805467ffffffffffffffff191697909316969096179091556008805491820181559092527ff3f7a9fe364faab93b216da50a3214154f22a0a2b415b23a84c8169e8b636ee390910180549091168217905583546003850154935188947fc3d0a416cabc0aae55919d81fb1eb87da922da5b39e01adadda5a51bcb3d24ba946106e894938116939116918990899061332c565b60405180910390a2506106fb6001600055565b505050565b6060600061070d60025490565b90506000805b8281101561076d576005600061072a836001613319565b8152602081019190915260400160002060060154600160801b900460ff161561075b57610758600183613319565b91505b8061076581613368565b915050610713565b506000816001600160401b0381111561078857610788613381565b6040519080825280602002602001820160405280156107c157816020015b6107ae612f4b565b8152602001906001900390816107a65790505b5090506000805b848110156108ed57600560006107df836001613319565b8152602081019190915260400160002060060154600160801b900460ff16156108db5760056000610811836001613319565b8152602080820192909252604090810160002081516101208101835281546001600160a01b039081168252600183015494820194909452600282015484169281019290925260038101548316606083015260048101549092166080820152600582015460a08201526006909101546001600160401b0380821660c0840152600160401b82041660e0830152600160801b900460ff16151561010082015283518490849081106108c2576108c2613397565b60209081029190910101526108d8600183613319565b91505b806108e581613368565b9150506107c8565b5090949350505050565b6060600061090460025490565b90506000805b828110156109d3573360056000610922846001613319565b81526020810191909152604001600020600301546001600160a01b031614801561097757504260056000610957846001613319565b81526020810191909152604001600020600601546001600160401b031610155b80156109ae5750600060058161098e846001613319565b81526020810191909152604001600020600401546001600160a01b031614155b156109c1576109be600183613319565b91505b806109cb81613368565b91505061090a565b506000816001600160401b038111156109ee576109ee613381565b604051908082528060200260200182016040528015610a2757816020015b610a14612f4b565b815260200190600190039081610a0c5790505b5090506000805b848110156108ed573360056000610a46846001613319565b81526020810191909152604001600020600301546001600160a01b0316148015610a9b57504260056000610a7b846001613319565b81526020810191909152604001600020600601546001600160401b031610155b8015610ad257506000600581610ab2846001613319565b81526020810191909152604001600020600401546001600160a01b031614155b15610bb05760056000610ae6836001613319565b8152602080820192909252604090810160002081516101208101835281546001600160a01b039081168252600183015494820194909452600282015484169281019290925260038101548316606083015260048101549092166080820152600582015460a08201526006909101546001600160401b0380821660c0840152600160401b82041660e0830152600160801b900460ff1615156101008201528351849084908110610b9757610b97613397565b6020908102919091010152610bad600183613319565b91505b80610bba81613368565b915050610a2e565b610bca612dee565b600081815260056020819052604090912090810154341015610c2e5760405162461bcd60e51b815260206004820152601c60248201527f5072696365206e6f7420656e6f75676820746f2072656e74204e4654000000006044820152606401610451565b6006810154600160801b900460ff161515600114610c5e5760405162461bcd60e51b8152600401610451906132ab565b6006810154426001600160401b0390911611610c8c5760405162461bcd60e51b8152600401610451906133ad565b600681015442600160401b9091046001600160401b031611610cc05760405162461bcd60e51b8152600401610451906132d6565b346000600a610cd08360026133f8565b610cda919061340f565b90506000610ce88284613431565b60038501546040519192506001600160a01b03169082156108fc029083906000818181858888f19350505050158015610d25573d6000803e3d6000fd5b50835460068501546040516370182b2f60e11b81526001600160a01b039092169163e030565e91610d6891899133916001600160401b0390911690600401613444565b600060405180830381600087803b158015610d8257600080fd5b505af1158015610d96573d6000803e3d6000fd5b50506003546004546001600160a01b0390911692506108fc9150610dbb908590613319565b6040518115909202916000818181858888f19350505050158015610de3573d6000803e3d6000fd5b506004840180546001600160a01b0319163317905560068401805460ff60801b19169055610e15600180546001019055565b83546003850154600686015460405188937f98bbd112ab2a0c7f030556428fa558023444e4194b6354cf269a758ac3e62f5a93610e70936001600160a01b03928316939190921691339134916001600160401b03169061332c565b60405180910390a250505050610e866001600055565b50565b60606000610e9660025490565b90506000805b82811015610f2c573360056000610eb4846001613319565b81526020810191909152604001600020600301546001600160a01b0316148015610f07575060056000610ee8836001613319565b8152602081019190915260400160002060060154600160801b900460ff165b15610f1a57610f17600183613319565b91505b80610f2481613368565b915050610e9c565b506000816001600160401b03811115610f4757610f47613381565b604051908082528060200260200182016040528015610f8057816020015b610f6d612f4b565b815260200190600190039081610f655790505b5090506000805b848110156108ed573360056000610f9f846001613319565b81526020810191909152604001600020600301546001600160a01b0316148015610ff2575060056000610fd3836001613319565b8152602081019190915260400160002060060154600160801b900460ff165b156110d05760056000611006836001613319565b8152602080820192909252604090810160002081516101208101835281546001600160a01b039081168252600183015494820194909452600282015484169281019290925260038101548316606083015260048101549092166080820152600582015460a08201526006909101546001600160401b0380821660c0840152600160401b82041660e0830152600160801b900460ff16151561010082015283518490849081106110b7576110b7613397565b60209081029190910101526110cd600183613319565b91505b806110da81613368565b915050610f87565b600083815260056020526040902060038101546001600160a01b0316331461111c5760405162461bcd60e51b81526004016104519061346c565b6006810154600160801b900460ff16151560011461114c5760405162461bcd60e51b8152600401610451906134ad565b60048101546001600160a01b0316156111775760405162461bcd60e51b8152600401610451906134ee565b42836001600160401b03161161119f5760405162461bcd60e51b815260040161045190613539565b42826001600160401b0316116111c75760405162461bcd60e51b815260040161045190613588565b60408051610120810182526001600160a01b039687168152602080820187815230838501908152336060850190815260006080860181815260059889015460a088019081526001600160401b039b8c1660c089019081529a8c1660e0890190815260016101008a018181529e8552978b90529890922096518754908e166001600160a01b03199182161788559451958701959095559151600286018054918d1691851691909117905551600385018054918c16918416919091179055915160048401805491909a16911617909755955191860191909155905160069094018054915193511515600160801b0260ff60801b19948416600160401b026001600160801b031990931695909316949094171791909116179055565b6112e8612f4b565b5060009081526005602081815260409283902083516101208101855281546001600160a01b0390811682526001830154938201939093526002820154831694810194909452600381015482166060850152600481015490911660808401529081015460a0830152600601546001600160401b0380821660c0840152600160401b82041660e0830152600160801b900460ff16151561010082015290565b600061139060025490565b905060005b818110156114965760006005816113ad846001613319565b8152602080820192909252604090810160002081516101208101835281546001600160a01b039081168252600183015494820194909452600282015484169281019290925260038101548316606083015260048101549092166080820152600582015460a08201526006909101546001600160401b0380821660c08401819052600160401b830490911660e0840152600160801b90910460ff161515610100830152909150421115611483576114668160200151612e47565b60808101516001600160a01b031615611483576114836001612e93565b508061148e81613368565b915050611395565b5050565b600084815260056020526040902060038101546001600160a01b031633146114d45760405162461bcd60e51b81526004016104519061346c565b6006810154600160801b900460ff1615156001146115045760405162461bcd60e51b8152600401610451906134ad565b60048101546001600160a01b03161561152f5760405162461bcd60e51b8152600401610451906134ee565b42836001600160401b0316116115575760405162461bcd60e51b815260040161045190613539565b42826001600160401b03161161157f5760405162461bcd60e51b815260040161045190613588565b600084116115c85760405162461bcd60e51b81526020600482015260166024820152755072696365206d75737420626520706f73697469766560501b6044820152606401610451565b5060408051610120810182526001600160a01b039687168152602080820187815230838501908152336060850190815260006080860181815260a087019a8b526001600160401b03998a1660c08801908152988a1660e08801908152600161010089018181529d84526005978890529890922096518754908e166001600160a01b03199182161788559451978701979097559151600286018054918d1691851691909117905551600385018054918c16918416919091179055935160048401805491909a169116179097559351958401959095555160069092018054945193511515600160801b0260ff60801b19948316600160401b026001600160801b031990961693909216929092179390931791909116919091179055565b606060006116f060025490565b90506000805b828110156117cc57336005600061170e846001613319565b81526020810191909152604001600020600301546001600160a01b0316036117425761173b600183613319565b91506117ba565b3360056000611752846001613319565b81526020810191909152604001600020600401546001600160a01b03161480156117a757504260056000611787846001613319565b81526020810191909152604001600020600601546001600160401b031610155b156117ba576117b7600183613319565b91505b806117c481613368565b9150506116f6565b506000816001600160401b038111156117e7576117e7613381565b60405190808252806020026020018201604052801561182057816020015b61180d612f4b565b8152602001906001900390816118055790505b5090506000805b848110156108ed57336005600061183f846001613319565b81526020810191909152604001600020600301546001600160a01b03160361193e5760056000611870836001613319565b8152602080820192909252604090810160002081516101208101835281546001600160a01b039081168252600183015494820194909452600282015484169281019290925260038101548316606083015260048101549092166080820152600582015460a08201526006909101546001600160401b0380821660c0840152600160401b82041660e0830152600160801b900460ff161515610100820152835184908490811061192157611921613397565b6020908102919091010152611937600183613319565b9150611a81565b336005600061194e846001613319565b81526020810191909152604001600020600401546001600160a01b03161480156119a357504260056000611983846001613319565b81526020810191909152604001600020600601546001600160401b031610155b15611a8157600560006119b7836001613319565b8152602080820192909252604090810160002081516101208101835281546001600160a01b039081168252600183015494820194909452600282015484169281019290925260038101548316606083015260048101549092166080820152600582015460a08201526006909101546001600160401b0380821660c0840152600160401b82041660e0830152600160801b900460ff1615156101008201528351849084908110611a6857611a68613397565b6020908102919091010152611a7e600183613319565b91505b80611a8b81613368565b915050611827565b611a9b612dee565b600082815260056020526040902060038101546001600160a01b03163314611b015760405162461bcd60e51b815260206004820152601960248201527841646472657373206e6f74206c697374696e6720706172747960381b6044820152606401610451565b6006810154600160801b900460ff161515600114611b315760405162461bcd60e51b8152600401610451906132ab565b6006810154426001600160401b0390911611611b5f5760405162461bcd60e51b8152600401610451906133ad565b600681015442600160401b9091046001600160401b031611611b935760405162461bcd60e51b8152600401610451906132d6565b60008381526006602090815260408083206001600160a01b03808716855290835281842082516060810184528154909216825260018101549382018490526002908101546001600160401b0316928201929092529290600a90611bf79084906133f8565b611c01919061340f565b90506000611c0f8284613431565b60038601546040519192506001600160a01b0316908190600090650e8d4a5100009082818181858883f19350505050158015611c4f573d6000803e3d6000fd5b50855460068701546040516370182b2f60e11b81526001600160a01b039092169163e030565e91611c92918c918c916001600160401b0390911690600401613444565b600060405180830381600087803b158015611cac57600080fd5b505af1158015611cc0573d6000803e3d6000fd5b50505050600083600454611cd49190613319565b9050611d036040518060400160405280600b81526020016a707269636520697320257360a81b81525082612eea565b6003546040516001600160a01b0390911690600090660e90eda39440009082818181858883f19350505050158015611d3f573d6000803e3d6000fd5b506004870180546001600160a01b0319166001600160a01b038a1617905560068701805460ff60801b19169055600180548101905586546003880154602088015160068a01546040518d947f98bbd112ab2a0c7f030556428fa558023444e4194b6354cf269a758ac3e62f5a94611dd2946001600160a01b039283169492909116928f926001600160401b03169061332c565b60405180910390a2505050505050506114966001600055565b611df3612dee565b600081815260056020526040902060038101546001600160a01b03163314611e5d5760405162461bcd60e51b815260206004820152601960248201527f4f6e6c79204e4654206f776e65722063616e2064656c697374000000000000006044820152606401610451565b60048101546001600160a01b03161580611e8557506006810154426001600160401b03909116105b611ed15760405162461bcd60e51b815260206004820152601960248201527f55736572206973207374696c6c207573696e6720746f6b656e000000000000006044820152606401610451565b6040516323b872dd60e01b8152306004820152336024820152604481018390526001600160a01b038416906323b872dd90606401600060405180830381600087803b158015611f1f57600080fd5b505af1158015611f33573d6000803e3d6000fd5b50505050611f416002612e93565b600082815260056020818152604080842080546001600160a01b031990811682556001820186905560028201805482169055600382018054821690556004820180549091169055928301939093556006909101805470ffffffffffffffffffffffffffffffffff1916905581516001600160a01b038616815230918101919091523381830152905183917fba76dc689272ac4f883c8bec89c50dac58b0f4eb6d053a0346452a0316e70cbf919081900360600190a2506114966001600055565b60008181526005602052604090206003810154606091906001600160a01b0316331461206b5760405162461bcd60e51b815260206004820152601960248201527841646472657373206e6f74206c697374696e6720706172747960381b6044820152606401610451565b6000838152600760205260408120546001600160401b0381111561209157612091613381565b6040519080825280602002602001820160405280156120dc57816020015b60408051606081018252600080825260208083018290529282015282526000199092019101816120af5790505b50905060005b6000858152600760205260409020548110156121a5576000858152600660205260408120600880549192918490811061211d5761211d613397565b60009182526020808320909101546001600160a01b039081168452838201949094526040928301909120825160608101845281549094168452600181015491840191909152600201546001600160401b031690820152825183908390811061218757612187613397565b6020026020010181905250808061219d90613368565b9150506120e2565b509392505050565b606060006121ba60025490565b90506000816001600160401b038111156121d6576121d6613381565b60405190808252806020026020018201604052801561220f57816020015b6121fc612f4b565b8152602001906001900390816121f45790505b5090506000805b8381101561233b57600060058161222e846001613319565b81526020810191909152604001600020600201546001600160a01b031614612329576005600061225f836001613319565b8152602080820192909252604090810160002081516101208101835281546001600160a01b039081168252600183015494820194909452600282015484169281019290925260038101548316606083015260048101549092166080820152600582015460a08201526006909101546001600160401b0380821660c0840152600160401b82041660e0830152600160801b900460ff161515610100820152835184908490811061231057612310613397565b6020908102919091010152612326600183613319565b91505b8061233381613368565b915050612216565b50909392505050565b600081815260056020526040902060048101546001600160a01b031633146123ae5760405162461bcd60e51b815260206004820152601e60248201527f4f6e6c7920757365722063616e207465726d696e6174652072656e74616c00006044820152606401610451565b6006810154426001600160401b039091161061241a5760405162461bcd60e51b815260206004820152602560248201527f43616e6e6f74207465726d696e61746520616c72656164792065787069726564604482015264103637b0b760d91b6064820152608401610451565b805460068201546040516370182b2f60e11b81526001600160a01b039092169163e030565e9161245d9186916000916001600160401b0390911690600401613444565b600060405180830381600087803b15801561247757600080fd5b505af115801561248b573d6000803e3d6000fd5b505050506124996001612e93565b61149682612e47565b600082815260056020526040902060038101546001600160a01b031633146124dc5760405162461bcd60e51b81526004016104519061346c565b6006810154600160801b900460ff16151560011461250c5760405162461bcd60e51b8152600401610451906134ad565b60048101546001600160a01b0316156125375760405162461bcd60e51b8152600401610451906134ee565b6006810154426001600160401b03909116116125a85760405162461bcd60e51b815260206004820152602a60248201527f4e46542068617320657870697265642c20706c656173652075706461746520656044820152697870697279206461746560b01b6064820152608401610451565b600681015442600160401b9091046001600160401b0316116126265760405162461bcd60e51b815260206004820152603160248201527f4c697374696e672068617320657870697265642c20706c6561736520757064616044820152707465206c697374696e672065787069727960781b6064820152608401610451565b6000821161266f5760405162461bcd60e51b81526020600482015260166024820152755072696365206d75737420626520706f73697469766560501b6044820152606401610451565b604051806101200160405280856001600160a01b03168152602001848152602001306001600160a01b03168152602001336001600160a01b0316815260200160006001600160a01b031681526020018381526020018260060160009054906101000a90046001600160401b03166001600160401b031681526020018260060160089054906101000a90046001600160401b03166001600160401b03168152602001600115158152506005600085815260200190815260200160002060008201518160000160006101000a8154816001600160a01b0302191690836001600160a01b031602179055506020820151816001015560408201518160020160006101000a8154816001600160a01b0302191690836001600160a01b0316021790555060608201518160030160006101000a8154816001600160a01b0302191690836001600160a01b0316021790555060808201518160040160006101000a8154816001600160a01b0302191690836001600160a01b0316021790555060a0820151816005015560c08201518160060160006101000a8154816001600160401b0302191690836001600160401b0316021790555060e08201518160060160086101000a8154816001600160401b0302191690836001600160401b031602179055506101008201518160060160106101000a81548160ff02191690831515021790555090505050505050565b61287e612dee565b84846000826001600160a01b0316636352211e836040518263ffffffff1660e01b81526004016128b091815260200190565b602060405180830381865afa1580156128cd573d6000803e3d6000fd5b505050506040513d601f19601f820116820180604052508101906128f191906135da565b90506001600160a01b038116331461295b5760405162461bcd60e51b815260206004820152602760248201527f4552433732313a2043616c6c6572206973206e6f74206f776e6572206f7220616044820152661c1c1c9bdd995960ca1b6064820152608401610451565b6004543410156129bd5760405162461bcd60e51b815260206004820152602760248201527f4e6f7420656e6f7567682045544820746f2070617920666f7220706c6174666f604482015266726d206665657360c81b6064820152608401610451565b60008611612a0d5760405162461bcd60e51b815260206004820152601860248201527f50726963652063616e6e6f74206265206e6567617469766500000000000000006044820152606401610451565b42856001600160401b031611612a755760405162461bcd60e51b815260206004820152602760248201527f45787069727920646174652063616e6e6f74206265206561726c69657220746860448201526630b7103737bb9760c91b6064820152608401610451565b42846001600160401b031611612ad75760405162461bcd60e51b815260206004820152602160248201527f4c697374696e67206578706972792063616e6e6f74206265206e6567617469766044820152606560f81b6064820152608401610451565b846001600160401b0316846001600160401b03161115612b535760405162461bcd60e51b815260206004820152603160248201527f4578706972792074696d652063616e6e6f742062652073686f72746572207468604482015270616e206c697374696e672065787069727960781b6064820152608401610451565b6040516323b872dd60e01b8152336004820152306024820152604481018890526001600160a01b038916906323b872dd90606401600060405180830381600087803b158015612ba157600080fd5b505af1158015612bb5573d6000803e3d6000fd5b50505050612bc7600280546001019055565b604051806101200160405280896001600160a01b03168152602001888152602001306001600160a01b03168152602001336001600160a01b0316815260200160006001600160a01b03168152602001878152602001866001600160401b03168152602001856001600160401b03168152602001600115158152506005600089815260200190815260200160002060008201518160000160006101000a8154816001600160a01b0302191690836001600160a01b031602179055506020820151816001015560408201518160020160006101000a8154816001600160a01b0302191690836001600160a01b0316021790555060608201518160030160006101000a8154816001600160a01b0302191690836001600160a01b0316021790555060808201518160040160006101000a8154816001600160a01b0302191690836001600160a01b0316021790555060a0820151816005015560c08201518160060160006101000a8154816001600160401b0302191690836001600160401b0316021790555060e08201518160060160086101000a8154816001600160401b0302191690836001600160401b031602179055506101008201518160060160106101000a81548160ff021916908315150217905550905050867fd39d9f5169359fcea680767f5d3035c69c3090b61114d29cecb2423fe4d87d7d8930338a8a604051612dd295949392919061332c565b60405180910390a2505050612de76001600055565b5050505050565b600260005403612e405760405162461bcd60e51b815260206004820152601f60248201527f5265656e7472616e637947756172643a207265656e7472616e742063616c6c006044820152606401610451565b6002600055565b60008181526005602052604080822060068101805460ff60801b191690559051909183917f63cc1ff7e91c4c196e870f5a10dbb5afaf165a2efcc3a7832ffbf487f195061b9190a25050565b805480612ee25760405162461bcd60e51b815260206004820152601b60248201527f436f756e7465723a2064656372656d656e74206f766572666c6f7700000000006044820152606401610451565b600019019055565b6114968282604051602401612f009291906135fe565b60408051601f198184030181529190526020810180516001600160e01b0316632d839cb360e21b17905280516a636f6e736f6c652e6c6f67602083016000808483855afa5050505050565b6040805161012081018252600080825260208201819052918101829052606081018290526080810182905260a0810182905260c0810182905260e0810182905261010081019190915290565b80356001600160401b0381168114612fae57600080fd5b919050565b600080600060608486031215612fc857600080fd5b8335925060208401359150612fdf60408501612f97565b90509250925092565b80516001600160a01b03908116835260208083015190840152604080830151821690840152606080830151821690840152608080830151918216908401525060a081015160a083015260c081015161304b60c08401826001600160401b03169052565b5060e081015161306660e08401826001600160401b03169052565b50610100908101511515910152565b6020808252825182820181905260009190848201906040850190845b818110156130b8576130a4838551612fe8565b928401926101209290920191600101613091565b50909695505050505050565b6000602082840312156130d657600080fd5b5035919050565b6001600160a01b0381168114610e8657600080fd5b6000806000806080858703121561310857600080fd5b8435613113816130dd565b93506020850135925061312860408601612f97565b915061313660608601612f97565b905092959194509250565b61012081016131508284612fe8565b92915050565b600080600080600060a0868803121561316e57600080fd5b8535613179816130dd565b9450602086013593506040860135925061319560608701612f97565b91506131a360808701612f97565b90509295509295909350565b600080604083850312156131c257600080fd5b8235915060208301356131d4816130dd565b809150509250929050565b600080604083850312156131f257600080fd5b82356131fd816130dd565b946020939093013593505050565b602080825282518282018190526000919060409081850190868401855b8281101561326957815180516001600160a01b0316855286810151878601528501516001600160401b03168585015260609093019290850190600101613228565b5091979650505050505050565b60008060006060848603121561328b57600080fd5b8335613296816130dd565b95602085013595506040909401359392505050565b602080825260119082015270139195081a5cc81b9bdd081b1a5cdd1959607a1b604082015260600190565b602080825260139082015272131a5cdd1a5b99c81a185cc8195e1c1a5c9959606a1b604082015260600190565b634e487b7160e01b600052601160045260246000fd5b8082018082111561315057613150613303565b6001600160a01b039586168152938516602085015291909316604083015260608201929092526001600160401b03909116608082015260a00190565b60006001820161337a5761337a613303565b5060010190565b634e487b7160e01b600052604160045260246000fd5b634e487b7160e01b600052603260045260246000fd5b6020808252602b908201527f4e4654206578706972792064617465206973206c6f6e676572207468616e206360408201526a757272656e742074696d6560a81b606082015260800190565b808202811582820484141761315057613150613303565b60008261342c57634e487b7160e01b600052601260045260246000fd5b500490565b8181038181111561315057613150613303565b9283526001600160a01b039190911660208301526001600160401b0316604082015260600190565b60208082526021908201527f4f6e6c79206f776e65722063616e20757064617465204e4654206c697374696e6040820152606760f81b606082015260800190565b60208082526021908201527f43616e206f6e6c7920757064617465206578697374696e67206c697374696e676040820152602160f81b606082015260800190565b6020808252602b908201527f43616e6e6f742065646974204e4654206c697374696e67207768696c65204e4660408201526a15081a5cc81c995b9d195960aa1b606082015260800190565b6020808252602f908201527f45787069727920646174652063616e6e6f74206265206561726c69657220746860408201526e616e2063757272656e742074696d6560881b606082015260800190565b60208082526032908201527f4c697374696e67206578706972792063616e6e6f74206265206561726c696572604082015271207468616e2063757272656e742074696d6560701b606082015260800190565b6000602082840312156135ec57600080fd5b81516135f7816130dd565b9392505050565b604081526000835180604084015260005b8181101561362c576020818701810151606086840101520161360f565b506000606082850101526060601f19601f830116840101915050826020830152939250505056fea26469706673582212207a8b530e62fb79ab3dbbcc6d98ce433eb00c1c5e878fd336fd09f4b882db839b64736f6c63430008110033",
  "linkReferences": {},
  "deployedLinkReferences": {}
}