{
  "_format": "hh-sol-artifact-1",
  "contractName": "NFTRM",
  "sourceName": "contracts/NFTRM.sol",
  "abi": [
    {
      "inputs": [],
      "stateMutability": "nonpayable",
      "type": "constructor"
    },
    {
      "anonymous": false,
      "inputs": [
        {
          "indexed": false,
          "internalType": "address",
          "name": "nftAddress",
          "type": "address"
        },
        {
          "indexed": true,
          "internalType": "uint256",
          "name": "tokenId",
          "type": "uint256"
        },
        {
          "indexed": false,
          "internalType": "address",
          "name": "seller",
          "type": "address"
        },
        {
          "indexed": false,
          "internalType": "address",
          "name": "user",
          "type": "address"
        },
        {
          "indexed": false,
          "internalType": "uint256",
          "name": "price",
          "type": "uint256"
        },
        {
          "indexed": false,
          "internalType": "uint64",
          "name": "expiry",
          "type": "uint64"
        }
      ],
      "name": "LTokenBid",
      "type": "event"
    },
    {
      "anonymous": false,
      "inputs": [
        {
          "indexed": false,
          "internalType": "address",
          "name": "nftAddress",
          "type": "address"
        },
        {
          "indexed": true,
          "internalType": "uint256",
          "name": "tokenId",
          "type": "uint256"
        },
        {
          "indexed": false,
          "internalType": "address",
          "name": "owner",
          "type": "address"
        },
        {
          "indexed": false,
          "internalType": "address",
          "name": "seller",
          "type": "address"
        }
      ],
      "name": "LTokenDelisted",
      "type": "event"
    },
    {
      "anonymous": false,
      "inputs": [
        {
          "indexed": false,
          "internalType": "address",
          "name": "nftAddress",
          "type": "address"
        },
        {
          "indexed": true,
          "internalType": "uint256",
          "name": "tokenId",
          "type": "uint256"
        },
        {
          "indexed": false,
          "internalType": "address",
          "name": "owner",
          "type": "address"
        },
        {
          "indexed": false,
          "internalType": "address",
          "name": "seller",
          "type": "address"
        },
        {
          "indexed": false,
          "internalType": "uint256",
          "name": "price",
          "type": "uint256"
        },
        {
          "indexed": false,
          "internalType": "uint64",
          "name": "expiry",
          "type": "uint64"
        }
      ],
      "name": "LTokenListed",
      "type": "event"
    },
    {
      "anonymous": false,
      "inputs": [
        {
          "indexed": false,
          "internalType": "address",
          "name": "nftAddress",
          "type": "address"
        },
        {
          "indexed": true,
          "internalType": "uint256",
          "name": "tokenId",
          "type": "uint256"
        },
        {
          "indexed": false,
          "internalType": "address",
          "name": "seller",
          "type": "address"
        },
        {
          "indexed": false,
          "internalType": "address",
          "name": "user",
          "type": "address"
        },
        {
          "indexed": false,
          "internalType": "uint256",
          "name": "price",
          "type": "uint256"
        },
        {
          "indexed": false,
          "internalType": "uint64",
          "name": "expiry",
          "type": "uint64"
        }
      ],
      "name": "LTokenRentedOut",
      "type": "event"
    },
    {
      "anonymous": false,
      "inputs": [
        {
          "indexed": false,
          "internalType": "address",
          "name": "nftAddress",
          "type": "address"
        },
        {
          "indexed": true,
          "internalType": "uint256",
          "name": "tokenId",
          "type": "uint256"
        },
        {
          "indexed": false,
          "internalType": "address",
          "name": "seller",
          "type": "address"
        },
        {
          "indexed": false,
          "internalType": "address",
          "name": "user",
          "type": "address"
        },
        {
          "indexed": false,
          "internalType": "uint256",
          "name": "price",
          "type": "uint256"
        },
        {
          "indexed": false,
          "internalType": "uint64",
          "name": "expiry",
          "type": "uint64"
        }
      ],
      "name": "LTokenUpdated",
      "type": "event"
    },
    {
      "anonymous": false,
      "inputs": [
        {
          "indexed": true,
          "internalType": "uint256",
          "name": "tokenId",
          "type": "uint256"
        }
      ],
      "name": "expiredNFT",
      "type": "event"
    },
    {
      "inputs": [
        {
          "internalType": "uint256",
          "name": "tokenId",
          "type": "uint256"
        },
        {
          "internalType": "address",
          "name": "renter",
          "type": "address"
        }
      ],
      "name": "acceptOffer",
      "outputs": [],
      "stateMutability": "payable",
      "type": "function"
    },
    {
      "inputs": [
        {
          "internalType": "address",
          "name": "_nftAddress",
          "type": "address"
        },
        {
          "internalType": "uint256",
          "name": "tokenId",
          "type": "uint256"
        }
      ],
      "name": "delistNFT",
      "outputs": [],
      "stateMutability": "nonpayable",
      "type": "function"
    },
    {
      "inputs": [],
      "name": "getAllNFTs",
      "outputs": [
        {
          "components": [
            {
              "internalType": "address",
              "name": "nftAddress",
              "type": "address"
            },
            {
              "internalType": "uint256",
              "name": "tokenId",
              "type": "uint256"
            },
            {
              "internalType": "address payable",
              "name": "owner",
              "type": "address"
            },
            {
              "internalType": "address payable",
              "name": "seller",
              "type": "address"
            },
            {
              "internalType": "address",
              "name": "user",
              "type": "address"
            },
            {
              "internalType": "uint256",
              "name": "price",
              "type": "uint256"
            },
            {
              "internalType": "uint64",
              "name": "expiry",
              "type": "uint64"
            },
            {
              "internalType": "uint64",
              "name": "listingExpiry",
              "type": "uint64"
            },
            {
              "internalType": "bool",
              "name": "currentlyListed",
              "type": "bool"
            }
          ],
          "internalType": "struct NFTRM.LToken[]",
          "name": "",
          "type": "tuple[]"
        }
      ],
      "stateMutability": "view",
      "type": "function"
    },
    {
      "inputs": [],
      "name": "getListedNFTs",
      "outputs": [
        {
          "components": [
            {
              "internalType": "address",
              "name": "nftAddress",
              "type": "address"
            },
            {
              "internalType": "uint256",
              "name": "tokenId",
              "type": "uint256"
            },
            {
              "internalType": "address payable",
              "name": "owner",
              "type": "address"
            },
            {
              "internalType": "address payable",
              "name": "seller",
              "type": "address"
            },
            {
              "internalType": "address",
              "name": "user",
              "type": "address"
            },
            {
              "internalType": "uint256",
              "name": "price",
              "type": "uint256"
            },
            {
              "internalType": "uint64",
              "name": "expiry",
              "type": "uint64"
            },
            {
              "internalType": "uint64",
              "name": "listingExpiry",
              "type": "uint64"
            },
            {
              "internalType": "bool",
              "name": "currentlyListed",
              "type": "bool"
            }
          ],
          "internalType": "struct NFTRM.LToken[]",
          "name": "",
          "type": "tuple[]"
        }
      ],
      "stateMutability": "view",
      "type": "function"
    },
    {
      "inputs": [],
      "name": "getListingFee",
      "outputs": [
        {
          "internalType": "uint256",
          "name": "",
          "type": "uint256"
        }
      ],
      "stateMutability": "view",
      "type": "function"
    },
    {
      "inputs": [],
      "name": "getMyListedNFTs",
      "outputs": [
        {
          "components": [
            {
              "internalType": "address",
              "name": "nftAddress",
              "type": "address"
            },
            {
              "internalType": "uint256",
              "name": "tokenId",
              "type": "uint256"
            },
            {
              "internalType": "address payable",
              "name": "owner",
              "type": "address"
            },
            {
              "internalType": "address payable",
              "name": "seller",
              "type": "address"
            },
            {
              "internalType": "address",
              "name": "user",
              "type": "address"
            },
            {
              "internalType": "uint256",
              "name": "price",
              "type": "uint256"
            },
            {
              "internalType": "uint64",
              "name": "expiry",
              "type": "uint64"
            },
            {
              "internalType": "uint64",
              "name": "listingExpiry",
              "type": "uint64"
            },
            {
              "internalType": "bool",
              "name": "currentlyListed",
              "type": "bool"
            }
          ],
          "internalType": "struct NFTRM.LToken[]",
          "name": "",
          "type": "tuple[]"
        }
      ],
      "stateMutability": "view",
      "type": "function"
    },
    {
      "inputs": [],
      "name": "getMyNFTs",
      "outputs": [
        {
          "components": [
            {
              "internalType": "address",
              "name": "nftAddress",
              "type": "address"
            },
            {
              "internalType": "uint256",
              "name": "tokenId",
              "type": "uint256"
            },
            {
              "internalType": "address payable",
              "name": "owner",
              "type": "address"
            },
            {
              "internalType": "address payable",
              "name": "seller",
              "type": "address"
            },
            {
              "internalType": "address",
              "name": "user",
              "type": "address"
            },
            {
              "internalType": "uint256",
              "name": "price",
              "type": "uint256"
            },
            {
              "internalType": "uint64",
              "name": "expiry",
              "type": "uint64"
            },
            {
              "internalType": "uint64",
              "name": "listingExpiry",
              "type": "uint64"
            },
            {
              "internalType": "bool",
              "name": "currentlyListed",
              "type": "bool"
            }
          ],
          "internalType": "struct NFTRM.LToken[]",
          "name": "",
          "type": "tuple[]"
        }
      ],
      "stateMutability": "view",
      "type": "function"
    },
    {
      "inputs": [],
      "name": "getMyRentedNFTs",
      "outputs": [
        {
          "components": [
            {
              "internalType": "address",
              "name": "nftAddress",
              "type": "address"
            },
            {
              "internalType": "uint256",
              "name": "tokenId",
              "type": "uint256"
            },
            {
              "internalType": "address payable",
              "name": "owner",
              "type": "address"
            },
            {
              "internalType": "address payable",
              "name": "seller",
              "type": "address"
            },
            {
              "internalType": "address",
              "name": "user",
              "type": "address"
            },
            {
              "internalType": "uint256",
              "name": "price",
              "type": "uint256"
            },
            {
              "internalType": "uint64",
              "name": "expiry",
              "type": "uint64"
            },
            {
              "internalType": "uint64",
              "name": "listingExpiry",
              "type": "uint64"
            },
            {
              "internalType": "bool",
              "name": "currentlyListed",
              "type": "bool"
            }
          ],
          "internalType": "struct NFTRM.LToken[]",
          "name": "",
          "type": "tuple[]"
        }
      ],
      "stateMutability": "view",
      "type": "function"
    },
    {
      "inputs": [
        {
          "internalType": "uint256",
          "name": "tokenId",
          "type": "uint256"
        }
      ],
      "name": "getNFT",
      "outputs": [
        {
          "components": [
            {
              "internalType": "address",
              "name": "nftAddress",
              "type": "address"
            },
            {
              "internalType": "uint256",
              "name": "tokenId",
              "type": "uint256"
            },
            {
              "internalType": "address payable",
              "name": "owner",
              "type": "address"
            },
            {
              "internalType": "address payable",
              "name": "seller",
              "type": "address"
            },
            {
              "internalType": "address",
              "name": "user",
              "type": "address"
            },
            {
              "internalType": "uint256",
              "name": "price",
              "type": "uint256"
            },
            {
              "internalType": "uint64",
              "name": "expiry",
              "type": "uint64"
            },
            {
              "internalType": "uint64",
              "name": "listingExpiry",
              "type": "uint64"
            },
            {
              "internalType": "bool",
              "name": "currentlyListed",
              "type": "bool"
            }
          ],
          "internalType": "struct NFTRM.LToken",
          "name": "",
          "type": "tuple"
        }
      ],
      "stateMutability": "view",
      "type": "function"
    },
    {
      "inputs": [
        {
          "internalType": "uint256",
          "name": "tokenId",
          "type": "uint256"
        }
      ],
      "name": "getNFTOwner",
      "outputs": [
        {
          "internalType": "address",
          "name": "",
          "type": "address"
        }
      ],
      "stateMutability": "view",
      "type": "function"
    },
    {
      "inputs": [
        {
          "internalType": "address",
          "name": "_nftAddress",
          "type": "address"
        },
        {
          "internalType": "uint256",
          "name": "tokenId",
          "type": "uint256"
        },
        {
          "internalType": "uint256",
          "name": "price",
          "type": "uint256"
        },
        {
          "internalType": "uint64",
          "name": "expiry",
          "type": "uint64"
        },
        {
          "internalType": "uint64",
          "name": "listingExpiry",
          "type": "uint64"
        }
      ],
      "name": "listNFT",
      "outputs": [],
      "stateMutability": "payable",
      "type": "function"
    },
    {
      "inputs": [
        {
          "internalType": "uint256",
          "name": "tokenId",
          "type": "uint256"
        },
        {
          "internalType": "uint256",
          "name": "price",
          "type": "uint256"
        },
        {
          "internalType": "uint64",
          "name": "expiry",
          "type": "uint64"
        }
      ],
      "name": "offerToRent",
      "outputs": [],
      "stateMutability": "payable",
      "type": "function"
    },
    {
      "inputs": [
        {
          "internalType": "address",
          "name": "operator",
          "type": "address"
        },
        {
          "internalType": "address",
          "name": "from",
          "type": "address"
        },
        {
          "internalType": "uint256",
          "name": "tokenId",
          "type": "uint256"
        },
        {
          "internalType": "bytes",
          "name": "data",
          "type": "bytes"
        }
      ],
      "name": "onERC721Received",
      "outputs": [
        {
          "internalType": "bytes4",
          "name": "",
          "type": "bytes4"
        }
      ],
      "stateMutability": "nonpayable",
      "type": "function"
    },
    {
      "inputs": [],
      "name": "refreshNFTs",
      "outputs": [],
      "stateMutability": "nonpayable",
      "type": "function"
    },
    {
      "inputs": [
        {
          "internalType": "uint256",
          "name": "tokenId",
          "type": "uint256"
        }
      ],
      "name": "rentNFT",
      "outputs": [],
      "stateMutability": "payable",
      "type": "function"
    },
    {
      "inputs": [
        {
          "internalType": "uint256",
          "name": "tokenId",
          "type": "uint256"
        }
      ],
      "name": "terminateRental",
      "outputs": [],
      "stateMutability": "nonpayable",
      "type": "function"
    },
    {
      "inputs": [
        {
          "internalType": "address",
          "name": "_nftAddress",
          "type": "address"
        },
        {
          "internalType": "uint256",
          "name": "tokenId",
          "type": "uint256"
        },
        {
          "internalType": "uint64",
          "name": "expiry",
          "type": "uint64"
        },
        {
          "internalType": "uint64",
          "name": "listingExpiry",
          "type": "uint64"
        }
      ],
      "name": "updateNFT",
      "outputs": [],
      "stateMutability": "nonpayable",
      "type": "function"
    },
    {
      "inputs": [
        {
          "internalType": "address",
          "name": "_nftAddress",
          "type": "address"
        },
        {
          "internalType": "uint256",
          "name": "tokenId",
          "type": "uint256"
        },
        {
          "internalType": "uint256",
          "name": "price",
          "type": "uint256"
        },
        {
          "internalType": "uint64",
          "name": "expiry",
          "type": "uint64"
        },
        {
          "internalType": "uint64",
          "name": "listingExpiry",
          "type": "uint64"
        }
      ],
      "name": "updateNFT",
      "outputs": [],
      "stateMutability": "nonpayable",
      "type": "function"
    },
    {
      "inputs": [
        {
          "internalType": "address",
          "name": "_nftAddress",
          "type": "address"
        },
        {
          "internalType": "uint256",
          "name": "tokenId",
          "type": "uint256"
        },
        {
          "internalType": "uint256",
          "name": "price",
          "type": "uint256"
        }
      ],
      "name": "updateNFT",
      "outputs": [],
      "stateMutability": "nonpayable",
      "type": "function"
    },
    {
      "inputs": [
        {
          "internalType": "uint256",
          "name": "tokenId",
          "type": "uint256"
        }
      ],
      "name": "viewAllBids",
      "outputs": [
        {
          "components": [
            {
              "internalType": "address",
              "name": "bidder",
              "type": "address"
            },
            {
              "internalType": "uint256",
              "name": "price",
              "type": "uint256"
            },
            {
              "internalType": "uint64",
              "name": "expiry",
              "type": "uint64"
            }
          ],
          "internalType": "struct NFTRM.Bid[]",
          "name": "",
          "type": "tuple[]"
        }
      ],
      "stateMutability": "view",
      "type": "function"
    }
  ],
  "bytecode": "0x6080604052662386f26fc1000060045534801561001b57600080fd5b506001600055600380546001600160a01b03191633179055613866806100426000396000f3fe60806040526004361061011e5760003560e01c8063629cb2e4116100a0578063deaea2e311610064578063deaea2e3146102fa578063e0391b09146103d1578063f9217419146103e6578063f9b8ed2514610406578063fd3600b41461042657600080fd5b8063629cb2e414610267578063918d407d1461027c578063a17a70941461028f578063a7bf7a42146102af578063b8fe6abe146102dc57600080fd5b80631cd27232116100e75780631cd27232146101d057806325dcc570146101e5578063576f7ea7146102055780635f23092e1461023257806360e100ab1461024757600080fd5b8062dc4a4d14610123578063012386f0146101385780630986d5171461016357806314364f1d14610178578063150b7a021461018b575b600080fd5b6101366101313660046130d0565b610439565b005b34801561014457600080fd5b5061014d610750565b60405161015a9190613192565b60405180910390f35b34801561016f57600080fd5b5061014d610947565b6101366101863660046131e1565b610c12565b34801561019757600080fd5b506101b76101a636600461320f565b630a85bd0160e11b95945050505050565b6040516001600160e01b0319909116815260200161015a565b3480156101dc57600080fd5b5061014d610ed9565b3480156101f157600080fd5b506101366102003660046132ad565b611132565b34801561021157600080fd5b506102256102203660046131e1565b611330565b60405161015a91906132fc565b34801561023e57600080fd5b506101366113d5565b34801561025357600080fd5b50610136610262366004613311565b6114ea565b34801561027357600080fd5b5061014d611733565b61013661028a36600461336a565b611ae3565b34801561029b57600080fd5b506101366102aa36600461339a565b611e38565b3480156102bb57600080fd5b506102cf6102ca3660046131e1565b61204e565b60405161015a91906133c6565b3480156102e857600080fd5b5060045460405190815260200161015a565b34801561030657600080fd5b506103b96103153660046131e1565b60009081526005602081815260409283902083516101208101855281546001600160a01b03908116825260018301549382019390935260028201548316948101949094526003810154821660608501819052600482015490921660808501529182015460a08401526006909101546001600160401b0380821660c0850152600160401b82041660e0840152600160801b900460ff1615156101009092019190915290565b6040516001600160a01b03909116815260200161015a565b3480156103dd57600080fd5b5061014d6121fa565b3480156103f257600080fd5b506101366104013660046131e1565b612391565b34801561041257600080fd5b50610136610421366004613431565b6124ef565b610136610434366004613311565b6128c3565b610441612f0b565b6000838152600560208190526040909120908101548310156104aa5760405162461bcd60e51b815260206004820152601860248201527f7072696365206e6f7420656e6f75676820666f72204e4654000000000000000060448201526064015b60405180910390fd5b6006810154600160801b900460ff1615156001146104da5760405162461bcd60e51b81526004016104a190613466565b42826001600160401b0316116105495760405162461bcd60e51b815260206004820152602e60248201527f4f66666572206578706972792064617465206973206561726c6965722074686160448201526d6e2063757272656e742074696d6560901b60648201526084016104a1565b600681015442600160401b9091046001600160401b03161161057d5760405162461bcd60e51b81526004016104a190613491565b60068101546001600160401b03808416911610156105f25760405162461bcd60e51b815260206004820152602c60248201527f4f66666572206578706972792064617465206973206c6f6e676572207468616e60448201526b206c6973746564206461746560a01b60648201526084016104a1565b6000848152600660209081526040808320338452909152812060010154900361063a5760008481526007602052604081208054600192906106349084906134d4565b90915550505b604080516060810182523380825260208083018781526001600160401b0387811685870190815260008b815260068552878120868252909452868420955186546001600160a01b03199081166001600160a01b03928316178855935160018089019190915591516002909701805467ffffffffffffffff191697909316969096179091556008805491820181559092527ff3f7a9fe364faab93b216da50a3214154f22a0a2b415b23a84c8169e8b636ee390910180549091168217905583546003850154935188947fc3d0a416cabc0aae55919d81fb1eb87da922da5b39e01adadda5a51bcb3d24ba946107389493811693911691899089906134e7565b60405180910390a25061074b6001600055565b505050565b6060600061075d60025490565b90506000805b828110156107bd576005600061077a8360016134d4565b8152602081019190915260400160002060060154600160801b900460ff16156107ab576107a86001836134d4565b91505b806107b581613523565b915050610763565b506000816001600160401b038111156107d8576107d861353c565b60405190808252806020026020018201604052801561081157816020015b6107fe613068565b8152602001906001900390816107f65790505b5090506000805b8481101561093d576005600061082f8360016134d4565b8152602081019190915260400160002060060154600160801b900460ff161561092b57600560006108618360016134d4565b8152602080820192909252604090810160002081516101208101835281546001600160a01b039081168252600183015494820194909452600282015484169281019290925260038101548316606083015260048101549092166080820152600582015460a08201526006909101546001600160401b0380821660c0840152600160401b82041660e0830152600160801b900460ff161515610100820152835184908490811061091257610912613552565b60209081029190910101526109286001836134d4565b91505b8061093581613523565b915050610818565b5090949350505050565b6060600061095460025490565b90506000805b82811015610a235733600560006109728460016134d4565b81526020810191909152604001600020600301546001600160a01b03161480156109c7575042600560006109a78460016134d4565b81526020810191909152604001600020600601546001600160401b031610155b80156109fe575060006005816109de8460016134d4565b81526020810191909152604001600020600401546001600160a01b031614155b15610a1157610a0e6001836134d4565b91505b80610a1b81613523565b91505061095a565b506000816001600160401b03811115610a3e57610a3e61353c565b604051908082528060200260200182016040528015610a7757816020015b610a64613068565b815260200190600190039081610a5c5790505b5090506000805b8481101561093d573360056000610a968460016134d4565b81526020810191909152604001600020600301546001600160a01b0316148015610aeb57504260056000610acb8460016134d4565b81526020810191909152604001600020600601546001600160401b031610155b8015610b2257506000600581610b028460016134d4565b81526020810191909152604001600020600401546001600160a01b031614155b15610c005760056000610b368360016134d4565b8152602080820192909252604090810160002081516101208101835281546001600160a01b039081168252600183015494820194909452600282015484169281019290925260038101548316606083015260048101549092166080820152600582015460a08201526006909101546001600160401b0380821660c0840152600160401b82041660e0830152600160801b900460ff1615156101008201528351849084908110610be757610be7613552565b6020908102919091010152610bfd6001836134d4565b91505b80610c0a81613523565b915050610a7e565b610c1a612f0b565b600081815260056020819052604090912090810154341015610c7e5760405162461bcd60e51b815260206004820152601c60248201527f5072696365206e6f7420656e6f75676820746f2072656e74204e46540000000060448201526064016104a1565b6006810154600160801b900460ff161515600114610cae5760405162461bcd60e51b81526004016104a190613466565b6006810154426001600160401b0390911611610cdc5760405162461bcd60e51b81526004016104a190613568565b600681015442600160401b9091046001600160401b031611610d105760405162461bcd60e51b81526004016104a190613491565b346000600a610d208360026135b3565b610d2a91906135ca565b90506000610d3882846135ec565b60038501546040519192506001600160a01b03169082156108fc029083906000818181858888f19350505050158015610d75573d6000803e3d6000fd5b50835460068501546040516370182b2f60e11b81526001600160a01b039092169163e030565e91610db891899133916001600160401b03909116906004016135ff565b600060405180830381600087803b158015610dd257600080fd5b505af1158015610de6573d6000803e3d6000fd5b50506003546004546001600160a01b0390911692506108fc9150610e0b9085906134d4565b6040518115909202916000818181858888f19350505050158015610e33573d6000803e3d6000fd5b506004840180546001600160a01b0319163317905560068401805460ff60801b19169055610e65600180546001019055565b83546003850154600686015460405188937f98bbd112ab2a0c7f030556428fa558023444e4194b6354cf269a758ac3e62f5a93610ec0936001600160a01b03928316939190921691339134916001600160401b0316906134e7565b60405180910390a250505050610ed66001600055565b50565b60606000610ee660025490565b90506000805b82811015610f7c573360056000610f048460016134d4565b81526020810191909152604001600020600301546001600160a01b0316148015610f57575060056000610f388360016134d4565b8152602081019190915260400160002060060154600160801b900460ff165b15610f6a57610f676001836134d4565b91505b80610f7481613523565b915050610eec565b506000816001600160401b03811115610f9757610f9761353c565b604051908082528060200260200182016040528015610fd057816020015b610fbd613068565b815260200190600190039081610fb55790505b5090506000805b8481101561093d573360056000610fef8460016134d4565b81526020810191909152604001600020600301546001600160a01b03161480156110425750600560006110238360016134d4565b8152602081019190915260400160002060060154600160801b900460ff165b1561112057600560006110568360016134d4565b8152602080820192909252604090810160002081516101208101835281546001600160a01b039081168252600183015494820194909452600282015484169281019290925260038101548316606083015260048101549092166080820152600582015460a08201526006909101546001600160401b0380821660c0840152600160401b82041660e0830152600160801b900460ff161515610100820152835184908490811061110757611107613552565b602090810291909101015261111d6001836134d4565b91505b8061112a81613523565b915050610fd7565b600083815260056020526040902060038101546001600160a01b0316331461116c5760405162461bcd60e51b81526004016104a190613627565b6006810154600160801b900460ff16151560011461119c5760405162461bcd60e51b81526004016104a190613668565b60048101546001600160a01b0316156111c75760405162461bcd60e51b81526004016104a1906136a9565b42836001600160401b0316116111ef5760405162461bcd60e51b81526004016104a1906136f4565b42826001600160401b0316116112175760405162461bcd60e51b81526004016104a190613743565b60408051610120810182526001600160a01b039687168152602080820187815230838501908152336060850190815260006080860181815260059889015460a088019081526001600160401b039b8c1660c089019081529a8c1660e0890190815260016101008a018181529e8552978b90529890922096518754908e166001600160a01b03199182161788559451958701959095559151600286018054918d1691851691909117905551600385018054918c16918416919091179055915160048401805491909a16911617909755955191860191909155905160069094018054915193511515600160801b0260ff60801b19948416600160401b026001600160801b031990931695909316949094171791909116179055565b611338613068565b5060009081526005602081815260409283902083516101208101855281546001600160a01b0390811682526001830154938201939093526002820154831694810194909452600381015482166060850152600481015490911660808401529081015460a0830152600601546001600160401b0380821660c0840152600160401b82041660e0830152600160801b900460ff16151561010082015290565b60006113e060025490565b905060005b818110156114e65760006005816113fd8460016134d4565b8152602080820192909252604090810160002081516101208101835281546001600160a01b039081168252600183015494820194909452600282015484169281019290925260038101548316606083015260048101549092166080820152600582015460a08201526006909101546001600160401b0380821660c08401819052600160401b830490911660e0840152600160801b90910460ff1615156101008301529091504211156114d3576114b68160200151612f64565b60808101516001600160a01b0316156114d3576114d36001612fb0565b50806114de81613523565b9150506113e5565b5050565b600084815260056020526040902060038101546001600160a01b031633146115245760405162461bcd60e51b81526004016104a190613627565b6006810154600160801b900460ff1615156001146115545760405162461bcd60e51b81526004016104a190613668565b60048101546001600160a01b03161561157f5760405162461bcd60e51b81526004016104a1906136a9565b42836001600160401b0316116115a75760405162461bcd60e51b81526004016104a1906136f4565b42826001600160401b0316116115cf5760405162461bcd60e51b81526004016104a190613743565b600084116116185760405162461bcd60e51b81526020600482015260166024820152755072696365206d75737420626520706f73697469766560501b60448201526064016104a1565b5060408051610120810182526001600160a01b039687168152602080820187815230838501908152336060850190815260006080860181815260a087019a8b526001600160401b03998a1660c08801908152988a1660e08801908152600161010089018181529d84526005978890529890922096518754908e166001600160a01b03199182161788559451978701979097559151600286018054918d1691851691909117905551600385018054918c16918416919091179055935160048401805491909a169116179097559351958401959095555160069092018054945193511515600160801b0260ff60801b19948316600160401b026001600160801b031990961693909216929092179390931791909116919091179055565b6060600061174060025490565b90506000805b8281101561181c57336005600061175e8460016134d4565b81526020810191909152604001600020600301546001600160a01b0316036117925761178b6001836134d4565b915061180a565b33600560006117a28460016134d4565b81526020810191909152604001600020600401546001600160a01b03161480156117f7575042600560006117d78460016134d4565b81526020810191909152604001600020600601546001600160401b031610155b1561180a576118076001836134d4565b91505b8061181481613523565b915050611746565b506000816001600160401b038111156118375761183761353c565b60405190808252806020026020018201604052801561187057816020015b61185d613068565b8152602001906001900390816118555790505b5090506000805b8481101561093d57336005600061188f8460016134d4565b81526020810191909152604001600020600301546001600160a01b03160361198e57600560006118c08360016134d4565b8152602080820192909252604090810160002081516101208101835281546001600160a01b039081168252600183015494820194909452600282015484169281019290925260038101548316606083015260048101549092166080820152600582015460a08201526006909101546001600160401b0380821660c0840152600160401b82041660e0830152600160801b900460ff161515610100820152835184908490811061197157611971613552565b60209081029190910101526119876001836134d4565b9150611ad1565b336005600061199e8460016134d4565b81526020810191909152604001600020600401546001600160a01b03161480156119f3575042600560006119d38460016134d4565b81526020810191909152604001600020600601546001600160401b031610155b15611ad15760056000611a078360016134d4565b8152602080820192909252604090810160002081516101208101835281546001600160a01b039081168252600183015494820194909452600282015484169281019290925260038101548316606083015260048101549092166080820152600582015460a08201526006909101546001600160401b0380821660c0840152600160401b82041660e0830152600160801b900460ff1615156101008201528351849084908110611ab857611ab8613552565b6020908102919091010152611ace6001836134d4565b91505b80611adb81613523565b915050611877565b611aeb612f0b565b600082815260056020526040902060038101546001600160a01b03163314611b515760405162461bcd60e51b815260206004820152601960248201527841646472657373206e6f74206c697374696e6720706172747960381b60448201526064016104a1565b6006810154600160801b900460ff161515600114611b815760405162461bcd60e51b81526004016104a190613466565b6006810154426001600160401b0390911611611baf5760405162461bcd60e51b81526004016104a190613568565b600681015442600160401b9091046001600160401b031611611be35760405162461bcd60e51b81526004016104a190613491565b60008381526006602090815260408083206001600160a01b03808716855290835281842082516060810184528154909216825260018101549382018490526002908101546001600160401b0316928201929092529290600a90611c479084906135b3565b611c5191906135ca565b90506000611c5f82846135ec565b60038601546040519192506001600160a01b031690819083156108fc029084906000818181858888f19350505050158015611c9e573d6000803e3d6000fd5b50855460068701546040516370182b2f60e11b81526001600160a01b039092169163e030565e91611ce1918c918c916001600160401b03909116906004016135ff565b600060405180830381600087803b158015611cfb57600080fd5b505af1158015611d0f573d6000803e3d6000fd5b50505050600083600454611d2391906134d4565b9050611d526040518060400160405280600b81526020016a707269636520697320257360a81b81525082613007565b6003546040516001600160a01b039091169085156108fc029086906000818181858888f19350505050158015611d8c573d6000803e3d6000fd5b506004870180546001600160a01b0319166001600160a01b038a1617905560068701805460ff60801b19169055600180548101905586546003880154602088015160068a01546040518d947f98bbd112ab2a0c7f030556428fa558023444e4194b6354cf269a758ac3e62f5a94611e1f946001600160a01b039283169492909116928f926001600160401b0316906134e7565b60405180910390a2505050505050506114e66001600055565b611e40612f0b565b600081815260056020526040902060038101546001600160a01b03163314611eaa5760405162461bcd60e51b815260206004820152601960248201527f4f6e6c79204e4654206f776e65722063616e2064656c6973740000000000000060448201526064016104a1565b60048101546001600160a01b03161580611ed257506006810154426001600160401b03909116105b611f1e5760405162461bcd60e51b815260206004820152601960248201527f55736572206973207374696c6c207573696e6720746f6b656e0000000000000060448201526064016104a1565b6040516323b872dd60e01b8152306004820152336024820152604481018390526001600160a01b038416906323b872dd90606401600060405180830381600087803b158015611f6c57600080fd5b505af1158015611f80573d6000803e3d6000fd5b50505050611f8e6002612fb0565b600082815260056020818152604080842080546001600160a01b031990811682556001820186905560028201805482169055600382018054821690556004820180549091169055928301939093556006909101805470ffffffffffffffffffffffffffffffffff1916905581516001600160a01b038616815230918101919091523381830152905183917fba76dc689272ac4f883c8bec89c50dac58b0f4eb6d053a0346452a0316e70cbf919081900360600190a2506114e66001600055565b60008181526005602052604090206003810154606091906001600160a01b031633146120b85760405162461bcd60e51b815260206004820152601960248201527841646472657373206e6f74206c697374696e6720706172747960381b60448201526064016104a1565b6000838152600760205260408120546001600160401b038111156120de576120de61353c565b60405190808252806020026020018201604052801561212957816020015b60408051606081018252600080825260208083018290529282015282526000199092019101816120fc5790505b50905060005b6000858152600760205260409020548110156121f2576000858152600660205260408120600880549192918490811061216a5761216a613552565b60009182526020808320909101546001600160a01b039081168452838201949094526040928301909120825160608101845281549094168452600181015491840191909152600201546001600160401b03169082015282518390839081106121d4576121d4613552565b602002602001018190525080806121ea90613523565b91505061212f565b509392505050565b6060600061220760025490565b90506000816001600160401b038111156122235761222361353c565b60405190808252806020026020018201604052801561225c57816020015b612249613068565b8152602001906001900390816122415790505b5090506000805b8381101561238857600060058161227b8460016134d4565b81526020810191909152604001600020600201546001600160a01b03161461237657600560006122ac8360016134d4565b8152602080820192909252604090810160002081516101208101835281546001600160a01b039081168252600183015494820194909452600282015484169281019290925260038101548316606083015260048101549092166080820152600582015460a08201526006909101546001600160401b0380821660c0840152600160401b82041660e0830152600160801b900460ff161515610100820152835184908490811061235d5761235d613552565b60209081029190910101526123736001836134d4565b91505b8061238081613523565b915050612263565b50909392505050565b600081815260056020526040902060048101546001600160a01b031633146123fb5760405162461bcd60e51b815260206004820152601e60248201527f4f6e6c7920757365722063616e207465726d696e6174652072656e74616c000060448201526064016104a1565b6006810154426001600160401b03909116106124675760405162461bcd60e51b815260206004820152602560248201527f43616e6e6f74207465726d696e61746520616c72656164792065787069726564604482015264103637b0b760d91b60648201526084016104a1565b805460068201546040516370182b2f60e11b81526001600160a01b039092169163e030565e916124aa9186916000916001600160401b03909116906004016135ff565b600060405180830381600087803b1580156124c457600080fd5b505af11580156124d8573d6000803e3d6000fd5b505050506124e66001612fb0565b6114e682612f64565b600082815260056020526040902060038101546001600160a01b031633146125295760405162461bcd60e51b81526004016104a190613627565b6006810154600160801b900460ff1615156001146125595760405162461bcd60e51b81526004016104a190613668565b60048101546001600160a01b0316156125845760405162461bcd60e51b81526004016104a1906136a9565b6006810154426001600160401b03909116116125f55760405162461bcd60e51b815260206004820152602a60248201527f4e46542068617320657870697265642c20706c656173652075706461746520656044820152697870697279206461746560b01b60648201526084016104a1565b600681015442600160401b9091046001600160401b0316116126735760405162461bcd60e51b815260206004820152603160248201527f4c697374696e672068617320657870697265642c20706c6561736520757064616044820152707465206c697374696e672065787069727960781b60648201526084016104a1565b600082116126bc5760405162461bcd60e51b81526020600482015260166024820152755072696365206d75737420626520706f73697469766560501b60448201526064016104a1565b604051806101200160405280856001600160a01b03168152602001848152602001306001600160a01b03168152602001336001600160a01b0316815260200160006001600160a01b031681526020018381526020018260060160009054906101000a90046001600160401b03166001600160401b031681526020018260060160089054906101000a90046001600160401b03166001600160401b03168152602001600115158152506005600085815260200190815260200160002060008201518160000160006101000a8154816001600160a01b0302191690836001600160a01b031602179055506020820151816001015560408201518160020160006101000a8154816001600160a01b0302191690836001600160a01b0316021790555060608201518160030160006101000a8154816001600160a01b0302191690836001600160a01b0316021790555060808201518160040160006101000a8154816001600160a01b0302191690836001600160a01b0316021790555060a0820151816005015560c08201518160060160006101000a8154816001600160401b0302191690836001600160401b0316021790555060e08201518160060160086101000a8154816001600160401b0302191690836001600160401b031602179055506101008201518160060160106101000a81548160ff02191690831515021790555090505050505050565b6128cb612f0b565b84846000826001600160a01b0316636352211e836040518263ffffffff1660e01b81526004016128fd91815260200190565b602060405180830381865afa15801561291a573d6000803e3d6000fd5b505050506040513d601f19601f8201168201806040525081019061293e9190613795565b90506001600160a01b03811633146129a85760405162461bcd60e51b815260206004820152602760248201527f4552433732313a2043616c6c6572206973206e6f74206f776e6572206f7220616044820152661c1c1c9bdd995960ca1b60648201526084016104a1565b600454341015612a0a5760405162461bcd60e51b815260206004820152602760248201527f4e6f7420656e6f7567682045544820746f2070617920666f7220706c6174666f604482015266726d206665657360c81b60648201526084016104a1565b60008611612a5a5760405162461bcd60e51b815260206004820152601860248201527f50726963652063616e6e6f74206265206e65676174697665000000000000000060448201526064016104a1565b42856001600160401b031611612ac25760405162461bcd60e51b815260206004820152602760248201527f45787069727920646174652063616e6e6f74206265206561726c69657220746860448201526630b7103737bb9760c91b60648201526084016104a1565b42846001600160401b031611612b245760405162461bcd60e51b815260206004820152602160248201527f4c697374696e67206578706972792063616e6e6f74206265206e6567617469766044820152606560f81b60648201526084016104a1565b846001600160401b0316846001600160401b03161115612ba05760405162461bcd60e51b815260206004820152603160248201527f4578706972792074696d652063616e6e6f742062652073686f72746572207468604482015270616e206c697374696e672065787069727960781b60648201526084016104a1565b6040516301ffc9a760e01b8152632b424ad760e21b60048201526001600160a01b038916906301ffc9a790602401602060405180830381865afa158015612beb573d6000803e3d6000fd5b505050506040513d601f19601f82011682018060405250810190612c0f91906137b9565b1515600114612c705760405162461bcd60e51b815260206004820152602760248201527f546f6b656e206973206e6f7420455243343930372c20706c656173652077726160448201526638103a37b5b2b760c91b60648201526084016104a1565b604051632142170760e11b8152336004820152306024820152604481018890526001600160a01b038916906342842e0e90606401600060405180830381600087803b158015612cbe57600080fd5b505af1158015612cd2573d6000803e3d6000fd5b50505050612ce4600280546001019055565b604051806101200160405280896001600160a01b03168152602001888152602001306001600160a01b03168152602001336001600160a01b0316815260200160006001600160a01b03168152602001878152602001866001600160401b03168152602001856001600160401b03168152602001600115158152506005600089815260200190815260200160002060008201518160000160006101000a8154816001600160a01b0302191690836001600160a01b031602179055506020820151816001015560408201518160020160006101000a8154816001600160a01b0302191690836001600160a01b0316021790555060608201518160030160006101000a8154816001600160a01b0302191690836001600160a01b0316021790555060808201518160040160006101000a8154816001600160a01b0302191690836001600160a01b0316021790555060a0820151816005015560c08201518160060160006101000a8154816001600160401b0302191690836001600160401b0316021790555060e08201518160060160086101000a8154816001600160401b0302191690836001600160401b031602179055506101008201518160060160106101000a81548160ff021916908315150217905550905050867fd39d9f5169359fcea680767f5d3035c69c3090b61114d29cecb2423fe4d87d7d8930338a8a604051612eef9594939291906134e7565b60405180910390a2505050612f046001600055565b5050505050565b600260005403612f5d5760405162461bcd60e51b815260206004820152601f60248201527f5265656e7472616e637947756172643a207265656e7472616e742063616c6c0060448201526064016104a1565b6002600055565b60008181526005602052604080822060068101805460ff60801b191690559051909183917f63cc1ff7e91c4c196e870f5a10dbb5afaf165a2efcc3a7832ffbf487f195061b9190a25050565b805480612fff5760405162461bcd60e51b815260206004820152601b60248201527f436f756e7465723a2064656372656d656e74206f766572666c6f77000000000060448201526064016104a1565b600019019055565b6114e6828260405160240161301d9291906137db565b60408051601f198184030181529190526020810180516001600160e01b0316632d839cb360e21b17905280516a636f6e736f6c652e6c6f67602083016000808483855afa5050505050565b6040805161012081018252600080825260208201819052918101829052606081018290526080810182905260a0810182905260c0810182905260e0810182905261010081019190915290565b80356001600160401b03811681146130cb57600080fd5b919050565b6000806000606084860312156130e557600080fd5b83359250602084013591506130fc604085016130b4565b90509250925092565b80516001600160a01b03908116835260208083015190840152604080830151821690840152606080830151821690840152608080830151918216908401525060a081015160a083015260c081015161316860c08401826001600160401b03169052565b5060e081015161318360e08401826001600160401b03169052565b50610100908101511515910152565b6020808252825182820181905260009190848201906040850190845b818110156131d5576131c1838551613105565b9284019261012092909201916001016131ae565b50909695505050505050565b6000602082840312156131f357600080fd5b5035919050565b6001600160a01b0381168114610ed657600080fd5b60008060008060006080868803121561322757600080fd5b8535613232816131fa565b94506020860135613242816131fa565b93506040860135925060608601356001600160401b038082111561326557600080fd5b818801915088601f83011261327957600080fd5b81358181111561328857600080fd5b89602082850101111561329a57600080fd5b9699959850939650602001949392505050565b600080600080608085870312156132c357600080fd5b84356132ce816131fa565b9350602085013592506132e3604086016130b4565b91506132f1606086016130b4565b905092959194509250565b610120810161330b8284613105565b92915050565b600080600080600060a0868803121561332957600080fd5b8535613334816131fa565b94506020860135935060408601359250613350606087016130b4565b915061335e608087016130b4565b90509295509295909350565b6000806040838503121561337d57600080fd5b82359150602083013561338f816131fa565b809150509250929050565b600080604083850312156133ad57600080fd5b82356133b8816131fa565b946020939093013593505050565b602080825282518282018190526000919060409081850190868401855b8281101561342457815180516001600160a01b0316855286810151878601528501516001600160401b031685850152606090930192908501906001016133e3565b5091979650505050505050565b60008060006060848603121561344657600080fd5b8335613451816131fa565b95602085013595506040909401359392505050565b602080825260119082015270139195081a5cc81b9bdd081b1a5cdd1959607a1b604082015260600190565b602080825260139082015272131a5cdd1a5b99c81a185cc8195e1c1a5c9959606a1b604082015260600190565b634e487b7160e01b600052601160045260246000fd5b8082018082111561330b5761330b6134be565b6001600160a01b039586168152938516602085015291909316604083015260608201929092526001600160401b03909116608082015260a00190565b600060018201613535576135356134be565b5060010190565b634e487b7160e01b600052604160045260246000fd5b634e487b7160e01b600052603260045260246000fd5b6020808252602b908201527f4e4654206578706972792064617465206973206c6f6e676572207468616e206360408201526a757272656e742074696d6560a81b606082015260800190565b808202811582820484141761330b5761330b6134be565b6000826135e757634e487b7160e01b600052601260045260246000fd5b500490565b8181038181111561330b5761330b6134be565b9283526001600160a01b039190911660208301526001600160401b0316604082015260600190565b60208082526021908201527f4f6e6c79206f776e65722063616e20757064617465204e4654206c697374696e6040820152606760f81b606082015260800190565b60208082526021908201527f43616e206f6e6c7920757064617465206578697374696e67206c697374696e676040820152602160f81b606082015260800190565b6020808252602b908201527f43616e6e6f742065646974204e4654206c697374696e67207768696c65204e4660408201526a15081a5cc81c995b9d195960aa1b606082015260800190565b6020808252602f908201527f45787069727920646174652063616e6e6f74206265206561726c69657220746860408201526e616e2063757272656e742074696d6560881b606082015260800190565b60208082526032908201527f4c697374696e67206578706972792063616e6e6f74206265206561726c696572604082015271207468616e2063757272656e742074696d6560701b606082015260800190565b6000602082840312156137a757600080fd5b81516137b2816131fa565b9392505050565b6000602082840312156137cb57600080fd5b815180151581146137b257600080fd5b604081526000835180604084015260005b8181101561380957602081870181015160608684010152016137ec565b506000606082850101526060601f19601f830116840101915050826020830152939250505056fea26469706673582212209c7aa968316c7425079ace2775c8d677406ee7043520f0076fc831dc9b24dbbc64736f6c63430008110033",
  "linkReferences": {},
  "deployedLinkReferences": {}
}